{
  "address": "0x152C02DCcB50369983602fd50050498a478a3568",
  "abi": [
    {
      "inputs": [],
      "stateMutability": "nonpayable",
      "type": "constructor"
    },
    {
      "inputs": [],
      "name": "EnforcedPause",
      "type": "error"
    },
    {
      "inputs": [],
      "name": "ExpectedPause",
      "type": "error"
    },
    {
      "inputs": [],
      "name": "ReentrancyGuardReentrantCall",
      "type": "error"
    },
    {
      "anonymous": false,
      "inputs": [
        {
          "indexed": true,
          "internalType": "address",
          "name": "donor",
          "type": "address"
        },
        {
          "indexed": false,
          "internalType": "uint256",
          "name": "amount",
          "type": "uint256"
        }
      ],
      "name": "DonationMade",
      "type": "event"
    },
    {
      "anonymous": false,
      "inputs": [
        {
          "indexed": true,
          "internalType": "address",
          "name": "beneficiary",
          "type": "address"
        },
        {
          "indexed": false,
          "internalType": "uint256",
          "name": "amount",
          "type": "uint256"
        }
      ],
      "name": "FundsReleased",
      "type": "event"
    },
    {
      "anonymous": false,
      "inputs": [
        {
          "indexed": false,
          "internalType": "uint256",
          "name": "totalRaised",
          "type": "uint256"
        }
      ],
      "name": "GoalReached",
      "type": "event"
    },
    {
      "anonymous": false,
      "inputs": [
        {
          "indexed": true,
          "internalType": "address",
          "name": "member",
          "type": "address"
        },
        {
          "indexed": true,
          "internalType": "address",
          "name": "invitedBy",
          "type": "address"
        }
      ],
      "name": "MemberInvited",
      "type": "event"
    },
    {
      "anonymous": false,
      "inputs": [
        {
          "indexed": true,
          "internalType": "address",
          "name": "member",
          "type": "address"
        }
      ],
      "name": "MemberJoined",
      "type": "event"
    },
    {
      "anonymous": false,
      "inputs": [
        {
          "indexed": false,
          "internalType": "address",
          "name": "account",
          "type": "address"
        }
      ],
      "name": "Paused",
      "type": "event"
    },
    {
      "anonymous": false,
      "inputs": [
        {
          "indexed": true,
          "internalType": "address",
          "name": "circleId",
          "type": "address"
        },
        {
          "indexed": true,
          "internalType": "address",
          "name": "creator",
          "type": "address"
        },
        {
          "indexed": false,
          "internalType": "address",
          "name": "beneficiary",
          "type": "address"
        },
        {
          "indexed": false,
          "internalType": "uint256",
          "name": "goal",
          "type": "uint256"
        },
        {
          "indexed": false,
          "internalType": "uint256",
          "name": "deadline",
          "type": "uint256"
        }
      ],
      "name": "PoolCreated",
      "type": "event"
    },
    {
      "anonymous": false,
      "inputs": [
        {
          "indexed": true,
          "internalType": "address",
          "name": "donor",
          "type": "address"
        },
        {
          "indexed": false,
          "internalType": "uint256",
          "name": "amount",
          "type": "uint256"
        }
      ],
      "name": "RefundClaimed",
      "type": "event"
    },
    {
      "anonymous": false,
      "inputs": [
        {
          "indexed": false,
          "internalType": "uint256",
          "name": "timestamp",
          "type": "uint256"
        }
      ],
      "name": "RefundsEnabled",
      "type": "event"
    },
    {
      "anonymous": false,
      "inputs": [
        {
          "indexed": false,
          "internalType": "address",
          "name": "account",
          "type": "address"
        }
      ],
      "name": "Unpaused",
      "type": "event"
    },
    {
      "inputs": [],
      "name": "backendManager",
      "outputs": [
        {
          "internalType": "address",
          "name": "",
          "type": "address"
        }
      ],
      "stateMutability": "view",
      "type": "function"
    },
    {
      "inputs": [],
      "name": "beneficiary",
      "outputs": [
        {
          "internalType": "address",
          "name": "",
          "type": "address"
        }
      ],
      "stateMutability": "view",
      "type": "function"
    },
    {
      "inputs": [],
      "name": "circleId",
      "outputs": [
        {
          "internalType": "address",
          "name": "",
          "type": "address"
        }
      ],
      "stateMutability": "view",
      "type": "function"
    },
    {
      "inputs": [],
      "name": "circleName",
      "outputs": [
        {
          "internalType": "string",
          "name": "",
          "type": "string"
        }
      ],
      "stateMutability": "view",
      "type": "function"
    },
    {
      "inputs": [],
      "name": "claimRefund",
      "outputs": [],
      "stateMutability": "nonpayable",
      "type": "function"
    },
    {
      "inputs": [],
      "name": "creator",
      "outputs": [
        {
          "internalType": "address",
          "name": "",
          "type": "address"
        }
      ],
      "stateMutability": "view",
      "type": "function"
    },
    {
      "inputs": [],
      "name": "deadline",
      "outputs": [
        {
          "internalType": "uint256",
          "name": "",
          "type": "uint256"
        }
      ],
      "stateMutability": "view",
      "type": "function"
    },
    {
      "inputs": [
        {
          "internalType": "uint256",
          "name": "amount",
          "type": "uint256"
        }
      ],
      "name": "donate",
      "outputs": [],
      "stateMutability": "payable",
      "type": "function"
    },
    {
      "inputs": [
        {
          "internalType": "address",
          "name": "",
          "type": "address"
        }
      ],
      "name": "donations",
      "outputs": [
        {
          "internalType": "uint256",
          "name": "",
          "type": "uint256"
        }
      ],
      "stateMutability": "view",
      "type": "function"
    },
    {
      "inputs": [
        {
          "internalType": "uint256",
          "name": "",
          "type": "uint256"
        }
      ],
      "name": "donors",
      "outputs": [
        {
          "internalType": "address",
          "name": "",
          "type": "address"
        }
      ],
      "stateMutability": "view",
      "type": "function"
    },
    {
      "inputs": [],
      "name": "enableRefunds",
      "outputs": [],
      "stateMutability": "nonpayable",
      "type": "function"
    },
    {
      "inputs": [],
      "name": "fundsReleased",
      "outputs": [
        {
          "internalType": "bool",
          "name": "",
          "type": "bool"
        }
      ],
      "stateMutability": "view",
      "type": "function"
    },
    {
      "inputs": [],
      "name": "getContractBalance",
      "outputs": [
        {
          "internalType": "uint256",
          "name": "",
          "type": "uint256"
        }
      ],
      "stateMutability": "view",
      "type": "function"
    },
    {
      "inputs": [
        {
          "internalType": "address",
          "name": "donor",
          "type": "address"
        }
      ],
      "name": "getDonation",
      "outputs": [
        {
          "internalType": "uint256",
          "name": "",
          "type": "uint256"
        }
      ],
      "stateMutability": "view",
      "type": "function"
    },
    {
      "inputs": [],
      "name": "getDonorCount",
      "outputs": [
        {
          "internalType": "uint256",
          "name": "",
          "type": "uint256"
        }
      ],
      "stateMutability": "view",
      "type": "function"
    },
    {
      "inputs": [],
      "name": "getDonors",
      "outputs": [
        {
          "internalType": "address[]",
          "name": "",
          "type": "address[]"
        }
      ],
      "stateMutability": "view",
      "type": "function"
    },
    {
      "inputs": [],
      "name": "getMemberCount",
      "outputs": [
        {
          "internalType": "uint256",
          "name": "",
          "type": "uint256"
        }
      ],
      "stateMutability": "view",
      "type": "function"
    },
    {
      "inputs": [],
      "name": "getMembers",
      "outputs": [
        {
          "internalType": "address[]",
          "name": "",
          "type": "address[]"
        }
      ],
      "stateMutability": "view",
      "type": "function"
    },
    {
      "inputs": [],
      "name": "getProgress",
      "outputs": [
        {
          "internalType": "uint256",
          "name": "raised",
          "type": "uint256"
        },
        {
          "internalType": "uint256",
          "name": "goal",
          "type": "uint256"
        }
      ],
      "stateMutability": "view",
      "type": "function"
    },
    {
      "inputs": [],
      "name": "getTimeRemaining",
      "outputs": [
        {
          "internalType": "uint256",
          "name": "",
          "type": "uint256"
        }
      ],
      "stateMutability": "view",
      "type": "function"
    },
    {
      "inputs": [],
      "name": "goalAmount",
      "outputs": [
        {
          "internalType": "uint256",
          "name": "",
          "type": "uint256"
        }
      ],
      "stateMutability": "view",
      "type": "function"
    },
    {
      "inputs": [
        {
          "internalType": "address",
          "name": "_creator",
          "type": "address"
        },
        {
          "internalType": "address",
          "name": "_circleId",
          "type": "address"
        },
        {
          "internalType": "string",
          "name": "_circleName",
          "type": "string"
        },
        {
          "internalType": "address",
          "name": "_backendManager",
          "type": "address"
        },
        {
          "internalType": "address",
          "name": "_beneficiary",
          "type": "address"
        },
        {
          "internalType": "uint256",
          "name": "_goalAmount",
          "type": "uint256"
        },
        {
          "internalType": "uint256",
          "name": "_deadline",
          "type": "uint256"
        },
        {
          "internalType": "address",
          "name": "_tokenAddress",
          "type": "address"
        },
        {
          "internalType": "bool",
          "name": "_isNativeToken",
          "type": "bool"
        }
      ],
      "name": "initialize",
      "outputs": [],
      "stateMutability": "nonpayable",
      "type": "function"
    },
    {
      "inputs": [
        {
          "internalType": "address",
          "name": "member",
          "type": "address"
        }
      ],
      "name": "inviteMember",
      "outputs": [],
      "stateMutability": "nonpayable",
      "type": "function"
    },
    {
      "inputs": [],
      "name": "isActive",
      "outputs": [
        {
          "internalType": "bool",
          "name": "",
          "type": "bool"
        }
      ],
      "stateMutability": "view",
      "type": "function"
    },
    {
      "inputs": [],
      "name": "isGoalReached",
      "outputs": [
        {
          "internalType": "bool",
          "name": "",
          "type": "bool"
        }
      ],
      "stateMutability": "view",
      "type": "function"
    },
    {
      "inputs": [
        {
          "internalType": "address",
          "name": "",
          "type": "address"
        }
      ],
      "name": "isInvited",
      "outputs": [
        {
          "internalType": "bool",
          "name": "",
          "type": "bool"
        }
      ],
      "stateMutability": "view",
      "type": "function"
    },
    {
      "inputs": [
        {
          "internalType": "address",
          "name": "",
          "type": "address"
        }
      ],
      "name": "isMember",
      "outputs": [
        {
          "internalType": "bool",
          "name": "",
          "type": "bool"
        }
      ],
      "stateMutability": "view",
      "type": "function"
    },
    {
      "inputs": [],
      "name": "isNativeToken",
      "outputs": [
        {
          "internalType": "bool",
          "name": "",
          "type": "bool"
        }
      ],
      "stateMutability": "view",
      "type": "function"
    },
    {
      "inputs": [],
      "name": "joinPool",
      "outputs": [],
      "stateMutability": "nonpayable",
      "type": "function"
    },
    {
      "inputs": [
        {
          "internalType": "uint256",
          "name": "",
          "type": "uint256"
        }
      ],
      "name": "members",
      "outputs": [
        {
          "internalType": "address",
          "name": "",
          "type": "address"
        }
      ],
      "stateMutability": "view",
      "type": "function"
    },
    {
      "inputs": [],
      "name": "pause",
      "outputs": [],
      "stateMutability": "nonpayable",
      "type": "function"
    },
    {
      "inputs": [],
      "name": "paused",
      "outputs": [
        {
          "internalType": "bool",
          "name": "",
          "type": "bool"
        }
      ],
      "stateMutability": "view",
      "type": "function"
    },
    {
      "inputs": [],
      "name": "refundsEnabled",
      "outputs": [
        {
          "internalType": "bool",
          "name": "",
          "type": "bool"
        }
      ],
      "stateMutability": "view",
      "type": "function"
    },
    {
      "inputs": [],
      "name": "releaseFunds",
      "outputs": [],
      "stateMutability": "nonpayable",
      "type": "function"
    },
    {
      "inputs": [],
      "name": "tokenAddress",
      "outputs": [
        {
          "internalType": "address",
          "name": "",
          "type": "address"
        }
      ],
      "stateMutability": "view",
      "type": "function"
    },
    {
      "inputs": [],
      "name": "totalRaised",
      "outputs": [
        {
          "internalType": "uint256",
          "name": "",
          "type": "uint256"
        }
      ],
      "stateMutability": "view",
      "type": "function"
    },
    {
      "inputs": [],
      "name": "unpause",
      "outputs": [],
      "stateMutability": "nonpayable",
      "type": "function"
    }
  ],
  "transactionHash": "0x1880989cbe9d86cfeda53408d049feba4c2777fe059cd87416136038078a79bc",
  "args": [],
  "numDeployments": 2,
  "solcInputHash": "2f1eff11fbe05df8055400b81911febb",
  "bytecode": "0x608060405234801561001057600080fd5b5060016000819055805460ff19169055600f805463ff00000019166301000000179055611f0d806100426000396000f3fe60806040526004361061021a5760003560e01c806388a27c9411610123578063b5545a3c116100ab578063cccf25601161006f578063cccf256014610612578063d3eb6f6114610634578063dac6270d1461064e578063e24d65f914610663578063f14faf6f1461068357600080fd5b8063b5545a3c14610580578063b564e92614610595578063c30db746146105af578063c5c4744c146105cf578063cc6cb19a146105e557600080fd5b8063997072f7116100f2578063997072f7146104e55780639af4ee7e146104fa5780639d76ea581461051b5780639eab52531461053b578063a230c5241461055057600080fd5b806388a27c94146104665780638c52dc4114610486578063939c44561461049b57806396f300d4146104c357600080fd5b80634abfa163116101a657806369bc2f1e1161017557806369bc2f1e146103ff57806369d89575146104145780636f9fb98a146104295780638371e6b41461043c5780638456cb591461045157600080fd5b80634abfa16314610387578063532f1179146103a75780635c975abb146103c75780635daf08ca146103df57600080fd5b806329dcb0cf116101ed57806329dcb0cf146102e45780632f890b93146102fa57806338af3eed1461031c5780633f4ba83a1461033c578063410a1d321461035157600080fd5b806302d05d3f1461021f5780631dcbe5001461026157806322f3e2d4146102a15780632636b945146102c0575b600080fd5b34801561022b57600080fd5b506001546102449061010090046001600160a01b031681565b6040516001600160a01b0390911681526020015b60405180910390f35b34801561026d57600080fd5b5061029161027c366004611ab8565b600d6020526000908152604090205460ff1681565b6040519015158152602001610258565b3480156102ad57600080fd5b50600f5461029190610100900460ff1681565b3480156102cc57600080fd5b506102d660075481565b604051908152602001610258565b3480156102f057600080fd5b506102d660085481565b34801561030657600080fd5b5061031a610315366004611ab8565b610696565b005b34801561032857600080fd5b50600654610244906001600160a01b031681565b34801561034857600080fd5b5061031a610808565b34801561035d57600080fd5b506102d661036c366004611ab8565b6001600160a01b03166000908152600a602052604090205490565b34801561039357600080fd5b506102446103a2366004611ad3565b610841565b3480156103b357600080fd5b50600f546102919062010000900460ff1681565b3480156103d357600080fd5b5060015460ff16610291565b3480156103eb57600080fd5b506102446103fa366004611ad3565b61086b565b34801561040b57600080fd5b50600e546102d6565b34801561042057600080fd5b5061031a61087b565b34801561043557600080fd5b50476102d6565b34801561044857600080fd5b5061031a610ac5565b34801561045d57600080fd5b5061031a610bf2565b34801561047257600080fd5b5061031a610481366004611b1b565b610c29565b34801561049257600080fd5b5061031a611031565b3480156104a757600080fd5b5060095460075460408051928352602083019190915201610258565b3480156104cf57600080fd5b506104d86111e3565b6040516102589190611c44565b3480156104f157600080fd5b50600b546102d6565b34801561050657600080fd5b5060055461029190600160a01b900460ff1681565b34801561052757600080fd5b50600554610244906001600160a01b031681565b34801561054757600080fd5b506104d8611245565b34801561055c57600080fd5b5061029161056b366004611ab8565b600c6020526000908152604090205460ff1681565b34801561058c57600080fd5b5061031a6112a5565b3480156105a157600080fd5b50600f546102919060ff1681565b3480156105bb57600080fd5b50600354610244906001600160a01b031681565b3480156105db57600080fd5b506102d660095481565b3480156105f157600080fd5b506102d6610600366004611ab8565b600a6020526000908152604090205481565b34801561061e57600080fd5b506106276113d5565b6040516102589190611c91565b34801561064057600080fd5b506007546009541015610291565b34801561065a57600080fd5b506102d6611463565b34801561066f57600080fd5b50600254610244906001600160a01b031681565b61031a610691366004611ad3565b611487565b60015461010090046001600160a01b03163314806106be57506002546001600160a01b031633145b61070f5760405162461bcd60e51b815260206004820152601760248201527f4f6e6c792063726561746f72206f72206261636b656e6400000000000000000060448201526064015b60405180910390fd5b61071761176c565b6001600160a01b0381166000908152600d602052604090205460ff16156107725760405162461bcd60e51b815260206004820152600f60248201526e105b1c9958591e481a5b9d9a5d1959608a1b6044820152606401610706565b6001600160a01b0381166107ba5760405162461bcd60e51b815260206004820152600f60248201526e496e76616c6964206164647265737360881b6044820152606401610706565b6001600160a01b0381166000818152600d6020526040808220805460ff19166001179055513392917f6c246c8894ac239253d22cd508dbe8eb7e027e0589cdd4ff16dbb4238ccd983491a350565b60015461010090046001600160a01b031633146108375760405162461bcd60e51b815260040161070690611cdf565b61083f611790565b565b600e818154811061085157600080fd5b6000918252602090912001546001600160a01b0316905081565b600b818154811061085157600080fd5b60015461010090046001600160a01b031633146108aa5760405162461bcd60e51b815260040161070690611cdf565b6108b261176c565b6108ba6117dd565b600f5460ff16156109005760405162461bcd60e51b815260206004820152601060248201526f105b1c9958591e481c995b19585cd95960821b6044820152606401610706565b600f5462010000900460ff161561094b5760405162461bcd60e51b815260206004820152600f60248201526e1499599d5b991cc8195b98589b1959608a1b6044820152606401610706565b60075460095410158061095f575060085442115b6109b75760405162461bcd60e51b8152602060048201526024808201527f476f616c206e6f74206d657420616e6420646561646c696e65206e6f742070616044820152631cdcd95960e21b6064820152608401610706565b600f805461ffff19166001179055600554600090600160a01b900460ff16610a4a576005546040516370a0823160e01b81523060048201526001600160a01b03909116906370a0823190602401602060405180830381865afa158015610a21573d6000803e3d6000fd5b505050506040513d601f19601f82011682018060405250810190610a459190611d16565b610a4c565b475b600554600654919250610a77916001600160a01b0380831692600160a01b900460ff16911684611807565b6006546040518281526001600160a01b03909116907f221c08a06b07a64803b3787861a3f276212fcccb51c2e6234077a9b8cb13047a906020015b60405180910390a25061083f6001600055565b336000908152600d602052604090205460ff16610b125760405162461bcd60e51b815260206004820152600b60248201526a139bdd081a5b9d9a5d195960aa1b6044820152606401610706565b610b1a61176c565b336000908152600c602052604090205460ff1615610b6d5760405162461bcd60e51b815260206004820152601060248201526f20b63932b0b23c90309036b2b6b132b960811b6044820152606401610706565b600b805460018181019092557f0175b7a638427703f0dbe7bb9bbf987a2551717b34e79f33b5b1008d1fa01db90180546001600160a01b031916339081179091556000818152600c6020526040808220805460ff1916909417909355915190917f0abf3b3f643594d958297062a019458e27d7766629590ac621aa1000fa1298ab91a2565b60015461010090046001600160a01b03163314610c215760405162461bcd60e51b815260040161070690611cdf565b61083f611923565b600f546301000000900460ff1615610c795760405162461bcd60e51b8152602060048201526013602482015272105b1c9958591e481a5b9a5d1a585b1a5e9959606a1b6044820152606401610706565b600f805463ff000000191663010000001790556001600160a01b038516610cd85760405162461bcd60e51b8152602060048201526013602482015272496e76616c69642062656e656669636961727960681b6044820152606401610706565b60008411610d205760405162461bcd60e51b8152602060048201526015602482015274476f616c206d75737420626520706f73697469766560581b6044820152606401610706565b428311610d6f5760405162461bcd60e51b815260206004820152601760248201527f446561646c696e65206d757374206265206675747572650000000000000000006044820152606401610706565b6001600160a01b038616610dc55760405162461bcd60e51b815260206004820152601760248201527f496e76616c6964206261636b656e64206d616e616765720000000000000000006044820152606401610706565b8015610e3b576001600160a01b03821615610e365760405162461bcd60e51b815260206004820152602b60248201527f546f6b656e2061646472657373206d757374206265207a65726f20666f72206e60448201526a30ba34bb32903a37b5b2b760a91b6064820152608401610706565b610e91565b6001600160a01b038216610e915760405162461bcd60e51b815260206004820152601f60248201527f496e76616c696420746f6b656e206164647265737320666f72204552433230006044820152606401610706565b600180546001600160a01b03808c1661010002610100600160a81b031990921691909117909155600280548883166001600160a01b03199182161790915560038054928b16929091169190911790556004610eec8882611db8565b50600680546001600160a01b038781166001600160a01b031992831681179093556007879055600886905560058054851515600160a01b026001600160a81b031990911687841617179055600f805461ff001916610100179055600b805460018181019092557f0175b7a638427703f0dbe7bb9bbf987a2551717b34e79f33b5b1008d1fa01db90180548e84169416841790556000838152600c60209081526040808320805460ff199081168617909155600d83529281902080549093169093179091558151948552840188905283018690529091908a16907f7b5c292074d28589558035864cd03ab61b59880d01a5b6228edb5adf73656e139060600160405180910390a36040516001600160a01b038a16907f0abf3b3f643594d958297062a019458e27d7766629590ac621aa1000fa1298ab90600090a2505050505050505050565b60015461010090046001600160a01b031633146110605760405162461bcd60e51b815260040161070690611cdf565b61106861176c565b600f5460ff16156110b45760405162461bcd60e51b8152602060048201526016602482015275119d5b991cc8185b1c9958591e481c995b19585cd95960521b6044820152606401610706565b600f5462010000900460ff161561110d5760405162461bcd60e51b815260206004820152601760248201527f526566756e647320616c726561647920656e61626c65640000000000000000006044820152606401610706565b60085442116111545760405162461bcd60e51b8152602060048201526013602482015272111958591b1a5b99481b9bdd081c185cdcd959606a1b6044820152606401610706565b600754600954106111965760405162461bcd60e51b815260206004820152600c60248201526b11dbd85b081dd85cc81b595d60a21b6044820152606401610706565b600f805462ffff001916620100001790556040517f01fd9d9d9f159bbb346cbe96d08df5b61108b672fa79a2d53fb9c67b9717d273906111d99042815260200190565b60405180910390a1565b6060600e80548060200260200160405190810160405280929190818152602001828054801561123b57602002820191906000526020600020905b81546001600160a01b0316815260019091019060200180831161121d575b5050505050905090565b6060600b80548060200260200160405190810160405280929190818152602001828054801561123b576020028201919060005260206000209081546001600160a01b0316815260019091019060200180831161121d575050505050905090565b6112ad61176c565b6112b56117dd565b600f5462010000900460ff166113035760405162461bcd60e51b81526020600482015260136024820152721499599d5b991cc81b9bdd08195b98589b1959606a1b6044820152606401610706565b336000908152600a60205260409020546113535760405162461bcd60e51b8152602060048201526011602482015270139bdd1a1a5b99c81d1bc81c99599d5b99607a1b6044820152606401610706565b336000908152600a60205260408120805490829055600980549192839261137b908490611e8e565b90915550506005546113a3906001600160a01b03811690600160a01b900460ff163384611807565b60405181815233907f358fe4192934d3bf28ae181feda1f4bd08ca67f5e2fad55582cce5eb67304ae990602001610ab2565b600480546113e290611d2f565b80601f016020809104026020016040519081016040528092919081815260200182805461140e90611d2f565b801561145b5780601f106114305761010080835404028352916020019161145b565b820191906000526020600020905b81548152906001019060200180831161143e57829003601f168201915b505050505081565b600060085442106114745750600090565b426008546114829190611e8e565b905090565b61148f61176c565b6114976117dd565b6008544211156114db5760405162461bcd60e51b815260206004820152600f60248201526e111958591b1a5b99481c185cdcd959608a1b6044820152606401610706565b600f5460ff16156115275760405162461bcd60e51b8152602060048201526016602482015275119d5b991cc8185b1c9958591e481c995b19585cd95960521b6044820152606401610706565b600f5462010000900460ff16156115805760405162461bcd60e51b815260206004820152601e60248201527f526566756e647320656e61626c65642c2063616e6e6f7420646f6e61746500006044820152606401610706565b600f54610100900460ff166115c95760405162461bcd60e51b815260206004820152600f60248201526e506f6f6c206e6f742061637469766560881b6044820152606401610706565b600554600160a01b900460ff16806115e15750600081115b6116255760405162461bcd60e51b81526020600482015260156024820152744d75737420646f6e61746520736f6d657468696e6760581b6044820152606401610706565b60055460009061164a906001600160a01b03811690600160a01b900460ff168461195e565b336000908152600a6020526040812054919250036116a557600e80546001810182556000919091527fbb7b4a454dc3493923482f07822329ed19e8244eff582cc204f8554c3620c3fd0180546001600160a01b031916331790555b336000908152600a6020526040812080548392906116c4908490611ea7565b9250508190555080600960008282546116dd9190611ea7565b909155505060405181815233907faa13962bc79c7a0bc42cb8169b1705f0a6b55cc404ffb8a589d771ca786759789060200160405180910390a26007546009541061175e577ffbfd8ab7c24300fa9888cd721c8565a7da56759384781283684dcf7c7c4a846b60095460405161175591815260200190565b60405180910390a15b506117696001600055565b50565b60015460ff161561083f5760405163d93c066560e01b815260040160405180910390fd5b611798611a79565b6001805460ff191690557f5db9ee0a495bf2e6ff9c91a7834c1ba4fdd244a5e8aa4e537bd38aeae4b073aa335b6040516001600160a01b0390911681526020016111d9565b60026000540361180057604051633ee5aeb560e01b815260040160405180910390fd5b6002600055565b82156118a8576000826001600160a01b03168260405160006040518083038185875af1925050503d806000811461185a576040519150601f19603f3d011682016040523d82523d6000602084013e61185f565b606091505b50509050806118a25760405162461bcd60e51b815260206004820152600f60248201526e151c985b9cd9995c8819985a5b1959608a1b6044820152606401610706565b5061191d565b60405163a9059cbb60e01b81526001600160a01b0383811660048301526024820183905285169063a9059cbb906044016020604051808303816000875af11580156118f7573d6000803e3d6000fd5b505050506040513d601f19601f8201168201806040525081019061191b9190611eba565b505b50505050565b61192b61176c565b6001805460ff1916811790557f62e78cea01bee320cd4e420270b5ea74000d11b0c9f74754ebdbfc544b05a258336117c5565b600082156119b657600034116119af5760405162461bcd60e51b815260206004820152601660248201527526bab9ba1039b2b732103730ba34bb32903a37b5b2b760511b6044820152606401610706565b5034611a72565b34156119f65760405162461bcd60e51b815260206004820152600f60248201526e2737903730ba34bb32903a37b5b2b760891b6044820152606401610706565b6040516323b872dd60e01b8152336004820152306024820152604481018390526001600160a01b038516906323b872dd906064016020604051808303816000875af1158015611a49573d6000803e3d6000fd5b505050506040513d601f19601f82011682018060405250810190611a6d9190611eba565b508190505b9392505050565b60015460ff1661083f57604051638dfc202b60e01b815260040160405180910390fd5b80356001600160a01b0381168114611ab357600080fd5b919050565b600060208284031215611aca57600080fd5b611a7282611a9c565b600060208284031215611ae557600080fd5b5035919050565b634e487b7160e01b600052604160045260246000fd5b801515811461176957600080fd5b8035611ab381611b02565b60008060008060008060008060006101208a8c031215611b3a57600080fd5b611b438a611a9c565b9850611b5160208b01611a9c565b975060408a013567ffffffffffffffff80821115611b6e57600080fd5b818c0191508c601f830112611b8257600080fd5b813581811115611b9457611b94611aec565b604051601f8201601f19908116603f01168101908382118183101715611bbc57611bbc611aec565b816040528281528f6020848701011115611bd557600080fd5b82602086016020830137600060208483010152809b505050505050611bfc60608b01611a9c565b9550611c0a60808b01611a9c565b945060a08a0135935060c08a01359250611c2660e08b01611a9c565b9150611c356101008b01611b10565b90509295985092959850929598565b6020808252825182820181905260009190848201906040850190845b81811015611c855783516001600160a01b031683529284019291840191600101611c60565b50909695505050505050565b600060208083528351808285015260005b81811015611cbe57858101830151858201604001528201611ca2565b506000604082860101526040601f19601f8301168501019250505092915050565b6020808252601a908201527f4f6e6c792063726561746f722063616e2063616c6c2074686973000000000000604082015260600190565b600060208284031215611d2857600080fd5b5051919050565b600181811c90821680611d4357607f821691505b602082108103611d6357634e487b7160e01b600052602260045260246000fd5b50919050565b601f821115611db357600081815260208120601f850160051c81016020861015611d905750805b601f850160051c820191505b81811015611daf57828155600101611d9c565b5050505b505050565b815167ffffffffffffffff811115611dd257611dd2611aec565b611de681611de08454611d2f565b84611d69565b602080601f831160018114611e1b5760008415611e035750858301515b600019600386901b1c1916600185901b178555611daf565b600085815260208120601f198616915b82811015611e4a57888601518255948401946001909101908401611e2b565b5085821015611e685787850151600019600388901b60f8161c191681555b5050505050600190811b01905550565b634e487b7160e01b600052601160045260246000fd5b81810381811115611ea157611ea1611e78565b92915050565b80820180821115611ea157611ea1611e78565b600060208284031215611ecc57600080fd5b8151611a7281611b0256fea26469706673582212205a5813175548f04aa6caf2369f832e5ef048f57f2bce2709f029c9468ef75e9064736f6c63430008140033",
  "devdoc": {
    "details": "Includes refund mechanism if goal is not met by deadline",
    "errors": {
      "EnforcedPause()": [
        {
          "details": "The operation failed because the contract is paused."
        }
      ],
      "ExpectedPause()": [
        {
          "details": "The operation failed because the contract is not paused."
        }
      ],
      "ReentrancyGuardReentrantCall()": [
        {
          "details": "Unauthorized reentrant call."
        }
      ]
    },
    "events": {
      "Paused(address)": {
        "details": "Emitted when the pause is triggered by `account`."
      },
      "Unpaused(address)": {
        "details": "Emitted when the pause is lifted by `account`."
      }
    },
    "kind": "dev",
    "methods": {
      "claimRefund()": {
        "details": "Only available if refunds are enabled"
      },
      "constructor": {
        "details": "Prevents the implementation contract from being initialized"
      },
      "donate(uint256)": {
        "details": "For ERC20: Donor must have approved the contract to spend tokens before calling      For native token: amount parameter is ignored, msg.value is used      NOTE: Unlike SavingsPool and ROSCAPool, DonationPool allows public donations",
        "params": {
          "amount": "Amount of ERC20 tokens to donate (ignored for native token pools)"
        }
      },
      "enableRefunds()": {
        "details": "Only creator can enable refunds, only after deadline if goal not met"
      },
      "getContractBalance()": {
        "returns": {
          "_0": "Balance in wei"
        }
      },
      "getDonation(address)": {
        "params": {
          "donor": "Address of the donor"
        },
        "returns": {
          "_0": "Donation amount in wei"
        }
      },
      "getDonorCount()": {
        "returns": {
          "_0": "Donor count"
        }
      },
      "getDonors()": {
        "returns": {
          "_0": "Array of donor addresses"
        }
      },
      "getMemberCount()": {
        "returns": {
          "_0": "Member count"
        }
      },
      "getMembers()": {
        "returns": {
          "_0": "Array of member addresses"
        }
      },
      "getProgress()": {
        "returns": {
          "goal": "Goal amount",
          "raised": "Current amount raised"
        }
      },
      "getTimeRemaining()": {
        "returns": {
          "_0": "Seconds remaining, or 0 if deadline passed"
        }
      },
      "initialize(address,address,string,address,address,uint256,uint256,address,bool)": {
        "details": "This replaces the constructor for cloned instances",
        "params": {
          "_backendManager": "Address of the backend manager (can invite members)",
          "_beneficiary": "Address that will receive the funds",
          "_circleId": "Address of the Lens.xyz circle contract",
          "_circleName": "Name of the circle",
          "_creator": "Address of the user creating the pool",
          "_deadline": "Deadline as Unix timestamp",
          "_goalAmount": "Target fundraising amount in wei",
          "_isNativeToken": "Whether this pool uses native token (cBTC) or ERC20 token",
          "_tokenAddress": "Address of the ERC20 token to use for donations (zero address if native)"
        }
      },
      "inviteMember(address)": {
        "details": "Creator or backend manager can invite members",
        "params": {
          "member": "Address of the member to invite"
        }
      },
      "isGoalReached()": {
        "returns": {
          "_0": "True if goal reached, false otherwise"
        }
      },
      "pause()": {
        "details": "Only creator can pause"
      },
      "paused()": {
        "details": "Returns true if the contract is paused, and false otherwise."
      },
      "releaseFunds()": {
        "details": "Only creator can release, can only release after goal met or deadline passed"
      },
      "unpause()": {
        "details": "Only creator can unpause"
      }
    },
    "title": "DonationPool",
    "version": 1
  },
  "userdoc": {
    "kind": "user",
    "methods": {
      "backendManager()": {
        "notice": "Address of the backend manager (can invite members)"
      },
      "beneficiary()": {
        "notice": "Address that will receive the donated funds"
      },
      "circleId()": {
        "notice": "Address of the Lens.xyz circle contract"
      },
      "circleName()": {
        "notice": "Human-readable name of the circle"
      },
      "claimRefund()": {
        "notice": "Allows a donor to claim their refund"
      },
      "constructor": {
        "notice": "Constructor for implementation contract"
      },
      "creator()": {
        "notice": "Address of the user who created this pool"
      },
      "deadline()": {
        "notice": "Deadline for fundraising as Unix timestamp"
      },
      "donate(uint256)": {
        "notice": "Allows anyone to donate to the fundraising pool"
      },
      "donations(address)": {
        "notice": "Individual donation amounts per member"
      },
      "donors(uint256)": {
        "notice": "Array of addresses that have donated"
      },
      "enableRefunds()": {
        "notice": "Enables refunds if goal was not met by deadline"
      },
      "fundsReleased()": {
        "notice": "Whether funds have been released to beneficiary"
      },
      "getContractBalance()": {
        "notice": "Gets the contract's current balance"
      },
      "getDonation(address)": {
        "notice": "Gets a member's total donation amount"
      },
      "getDonorCount()": {
        "notice": "Gets the total number of donors"
      },
      "getDonors()": {
        "notice": "Gets all donors"
      },
      "getMemberCount()": {
        "notice": "Gets the total number of members"
      },
      "getMembers()": {
        "notice": "Gets all members"
      },
      "getProgress()": {
        "notice": "Gets the current fundraising progress"
      },
      "getTimeRemaining()": {
        "notice": "Gets the time remaining until deadline"
      },
      "goalAmount()": {
        "notice": "Target fundraising amount in wei"
      },
      "initialize(address,address,string,address,address,uint256,uint256,address,bool)": {
        "notice": "Initializes a new Donation pool clone"
      },
      "inviteMember(address)": {
        "notice": "Invites a new member to the pool"
      },
      "isActive()": {
        "notice": "Whether the pool is currently active"
      },
      "isGoalReached()": {
        "notice": "Checks if the fundraising goal has been reached"
      },
      "isInvited(address)": {
        "notice": "Mapping to check if an address has been invited"
      },
      "isMember(address)": {
        "notice": "Mapping to check if an address is a member"
      },
      "isNativeToken()": {
        "notice": "Whether this pool uses native token (cBTC) or ERC20 token"
      },
      "joinPool()": {
        "notice": "Allows an invited member to join the pool"
      },
      "members(uint256)": {
        "notice": "Array of all members in the pool"
      },
      "pause()": {
        "notice": "Pauses the contract in case of emergency"
      },
      "refundsEnabled()": {
        "notice": "Whether refunds are enabled (goal not met by deadline)"
      },
      "releaseFunds()": {
        "notice": "Releases funds to the beneficiary"
      },
      "tokenAddress()": {
        "notice": "Address of the ERC20 token used for donations (zero address if native token)"
      },
      "totalRaised()": {
        "notice": "Total amount raised so far"
      },
      "unpause()": {
        "notice": "Unpauses the contract"
      }
    },
    "notice": "Fundraising pool where circle members donate toward a specific goal and beneficiary",
    "version": 1
  },
  "storageLayout": {
    "storage": [
      {
        "astId": 468,
        "contract": "contracts/pools/DonationPool.sol:DonationPool",
        "label": "_status",
        "offset": 0,
        "slot": "0",
        "type": "t_uint256"
      },
      {
        "astId": 349,
        "contract": "contracts/pools/DonationPool.sol:DonationPool",
        "label": "_paused",
        "offset": 0,
        "slot": "1",
        "type": "t_bool"
      },
      {
        "astId": 1370,
        "contract": "contracts/pools/DonationPool.sol:DonationPool",
        "label": "creator",
        "offset": 1,
        "slot": "1",
        "type": "t_address"
      },
      {
        "astId": 1373,
        "contract": "contracts/pools/DonationPool.sol:DonationPool",
        "label": "backendManager",
        "offset": 0,
        "slot": "2",
        "type": "t_address"
      },
      {
        "astId": 1376,
        "contract": "contracts/pools/DonationPool.sol:DonationPool",
        "label": "circleId",
        "offset": 0,
        "slot": "3",
        "type": "t_address"
      },
      {
        "astId": 1379,
        "contract": "contracts/pools/DonationPool.sol:DonationPool",
        "label": "circleName",
        "offset": 0,
        "slot": "4",
        "type": "t_string_storage"
      },
      {
        "astId": 1382,
        "contract": "contracts/pools/DonationPool.sol:DonationPool",
        "label": "tokenAddress",
        "offset": 0,
        "slot": "5",
        "type": "t_address"
      },
      {
        "astId": 1385,
        "contract": "contracts/pools/DonationPool.sol:DonationPool",
        "label": "isNativeToken",
        "offset": 20,
        "slot": "5",
        "type": "t_bool"
      },
      {
        "astId": 1388,
        "contract": "contracts/pools/DonationPool.sol:DonationPool",
        "label": "beneficiary",
        "offset": 0,
        "slot": "6",
        "type": "t_address"
      },
      {
        "astId": 1391,
        "contract": "contracts/pools/DonationPool.sol:DonationPool",
        "label": "goalAmount",
        "offset": 0,
        "slot": "7",
        "type": "t_uint256"
      },
      {
        "astId": 1394,
        "contract": "contracts/pools/DonationPool.sol:DonationPool",
        "label": "deadline",
        "offset": 0,
        "slot": "8",
        "type": "t_uint256"
      },
      {
        "astId": 1397,
        "contract": "contracts/pools/DonationPool.sol:DonationPool",
        "label": "totalRaised",
        "offset": 0,
        "slot": "9",
        "type": "t_uint256"
      },
      {
        "astId": 1402,
        "contract": "contracts/pools/DonationPool.sol:DonationPool",
        "label": "donations",
        "offset": 0,
        "slot": "10",
        "type": "t_mapping(t_address,t_uint256)"
      },
      {
        "astId": 1406,
        "contract": "contracts/pools/DonationPool.sol:DonationPool",
        "label": "members",
        "offset": 0,
        "slot": "11",
        "type": "t_array(t_address)dyn_storage"
      },
      {
        "astId": 1411,
        "contract": "contracts/pools/DonationPool.sol:DonationPool",
        "label": "isMember",
        "offset": 0,
        "slot": "12",
        "type": "t_mapping(t_address,t_bool)"
      },
      {
        "astId": 1416,
        "contract": "contracts/pools/DonationPool.sol:DonationPool",
        "label": "isInvited",
        "offset": 0,
        "slot": "13",
        "type": "t_mapping(t_address,t_bool)"
      },
      {
        "astId": 1420,
        "contract": "contracts/pools/DonationPool.sol:DonationPool",
        "label": "donors",
        "offset": 0,
        "slot": "14",
        "type": "t_array(t_address)dyn_storage"
      },
      {
        "astId": 1423,
        "contract": "contracts/pools/DonationPool.sol:DonationPool",
        "label": "fundsReleased",
        "offset": 0,
        "slot": "15",
        "type": "t_bool"
      },
      {
        "astId": 1426,
        "contract": "contracts/pools/DonationPool.sol:DonationPool",
        "label": "isActive",
        "offset": 1,
        "slot": "15",
        "type": "t_bool"
      },
      {
        "astId": 1429,
        "contract": "contracts/pools/DonationPool.sol:DonationPool",
        "label": "refundsEnabled",
        "offset": 2,
        "slot": "15",
        "type": "t_bool"
      },
      {
        "astId": 1432,
        "contract": "contracts/pools/DonationPool.sol:DonationPool",
        "label": "initialized",
        "offset": 3,
        "slot": "15",
        "type": "t_bool"
      }
    ],
    "types": {
      "t_address": {
        "encoding": "inplace",
        "label": "address",
        "numberOfBytes": "20"
      },
      "t_array(t_address)dyn_storage": {
        "base": "t_address",
        "encoding": "dynamic_array",
        "label": "address[]",
        "numberOfBytes": "32"
      },
      "t_bool": {
        "encoding": "inplace",
        "label": "bool",
        "numberOfBytes": "1"
      },
      "t_mapping(t_address,t_bool)": {
        "encoding": "mapping",
        "key": "t_address",
        "label": "mapping(address => bool)",
        "numberOfBytes": "32",
        "value": "t_bool"
      },
      "t_mapping(t_address,t_uint256)": {
        "encoding": "mapping",
        "key": "t_address",
        "label": "mapping(address => uint256)",
        "numberOfBytes": "32",
        "value": "t_uint256"
      },
      "t_string_storage": {
        "encoding": "bytes",
        "label": "string",
        "numberOfBytes": "32"
      },
      "t_uint256": {
        "encoding": "inplace",
        "label": "uint256",
        "numberOfBytes": "32"
      }
    }
  }
}