{
  "address": "0x086E4a412F9c7E38D4Dc6198B1D6F55b05dfa915",
  "abi": [
    {
      "inputs": [],
      "stateMutability": "nonpayable",
      "type": "constructor"
    },
    {
      "inputs": [],
      "name": "EnforcedPause",
      "type": "error"
    },
    {
      "inputs": [],
      "name": "ExpectedPause",
      "type": "error"
    },
    {
      "inputs": [],
      "name": "ReentrancyGuardReentrantCall",
      "type": "error"
    },
    {
      "anonymous": false,
      "inputs": [
        {
          "indexed": true,
          "internalType": "address",
          "name": "donor",
          "type": "address"
        },
        {
          "indexed": false,
          "internalType": "uint256",
          "name": "amount",
          "type": "uint256"
        }
      ],
      "name": "DonationMade",
      "type": "event"
    },
    {
      "anonymous": false,
      "inputs": [
        {
          "indexed": true,
          "internalType": "address",
          "name": "beneficiary",
          "type": "address"
        },
        {
          "indexed": false,
          "internalType": "uint256",
          "name": "amount",
          "type": "uint256"
        }
      ],
      "name": "FundsReleased",
      "type": "event"
    },
    {
      "anonymous": false,
      "inputs": [
        {
          "indexed": false,
          "internalType": "uint256",
          "name": "totalRaised",
          "type": "uint256"
        }
      ],
      "name": "GoalReached",
      "type": "event"
    },
    {
      "anonymous": false,
      "inputs": [
        {
          "indexed": true,
          "internalType": "address",
          "name": "member",
          "type": "address"
        },
        {
          "indexed": true,
          "internalType": "address",
          "name": "invitedBy",
          "type": "address"
        }
      ],
      "name": "MemberInvited",
      "type": "event"
    },
    {
      "anonymous": false,
      "inputs": [
        {
          "indexed": true,
          "internalType": "address",
          "name": "member",
          "type": "address"
        }
      ],
      "name": "MemberJoined",
      "type": "event"
    },
    {
      "anonymous": false,
      "inputs": [
        {
          "indexed": false,
          "internalType": "address",
          "name": "account",
          "type": "address"
        }
      ],
      "name": "Paused",
      "type": "event"
    },
    {
      "anonymous": false,
      "inputs": [
        {
          "indexed": true,
          "internalType": "address",
          "name": "circleId",
          "type": "address"
        },
        {
          "indexed": true,
          "internalType": "address",
          "name": "creator",
          "type": "address"
        },
        {
          "indexed": false,
          "internalType": "address",
          "name": "beneficiary",
          "type": "address"
        },
        {
          "indexed": false,
          "internalType": "uint256",
          "name": "goal",
          "type": "uint256"
        },
        {
          "indexed": false,
          "internalType": "uint256",
          "name": "deadline",
          "type": "uint256"
        }
      ],
      "name": "PoolCreated",
      "type": "event"
    },
    {
      "anonymous": false,
      "inputs": [
        {
          "indexed": true,
          "internalType": "address",
          "name": "donor",
          "type": "address"
        },
        {
          "indexed": false,
          "internalType": "uint256",
          "name": "amount",
          "type": "uint256"
        }
      ],
      "name": "RefundClaimed",
      "type": "event"
    },
    {
      "anonymous": false,
      "inputs": [
        {
          "indexed": false,
          "internalType": "uint256",
          "name": "timestamp",
          "type": "uint256"
        }
      ],
      "name": "RefundsEnabled",
      "type": "event"
    },
    {
      "anonymous": false,
      "inputs": [
        {
          "indexed": false,
          "internalType": "address",
          "name": "account",
          "type": "address"
        }
      ],
      "name": "Unpaused",
      "type": "event"
    },
    {
      "inputs": [],
      "name": "backendManager",
      "outputs": [
        {
          "internalType": "address",
          "name": "",
          "type": "address"
        }
      ],
      "stateMutability": "view",
      "type": "function"
    },
    {
      "inputs": [],
      "name": "beneficiary",
      "outputs": [
        {
          "internalType": "address",
          "name": "",
          "type": "address"
        }
      ],
      "stateMutability": "view",
      "type": "function"
    },
    {
      "inputs": [],
      "name": "circleId",
      "outputs": [
        {
          "internalType": "address",
          "name": "",
          "type": "address"
        }
      ],
      "stateMutability": "view",
      "type": "function"
    },
    {
      "inputs": [],
      "name": "circleName",
      "outputs": [
        {
          "internalType": "string",
          "name": "",
          "type": "string"
        }
      ],
      "stateMutability": "view",
      "type": "function"
    },
    {
      "inputs": [],
      "name": "claimRefund",
      "outputs": [],
      "stateMutability": "nonpayable",
      "type": "function"
    },
    {
      "inputs": [],
      "name": "creator",
      "outputs": [
        {
          "internalType": "address",
          "name": "",
          "type": "address"
        }
      ],
      "stateMutability": "view",
      "type": "function"
    },
    {
      "inputs": [],
      "name": "deadline",
      "outputs": [
        {
          "internalType": "uint256",
          "name": "",
          "type": "uint256"
        }
      ],
      "stateMutability": "view",
      "type": "function"
    },
    {
      "inputs": [
        {
          "internalType": "uint256",
          "name": "amount",
          "type": "uint256"
        }
      ],
      "name": "donate",
      "outputs": [],
      "stateMutability": "payable",
      "type": "function"
    },
    {
      "inputs": [
        {
          "internalType": "address",
          "name": "",
          "type": "address"
        }
      ],
      "name": "donations",
      "outputs": [
        {
          "internalType": "uint256",
          "name": "",
          "type": "uint256"
        }
      ],
      "stateMutability": "view",
      "type": "function"
    },
    {
      "inputs": [
        {
          "internalType": "uint256",
          "name": "",
          "type": "uint256"
        }
      ],
      "name": "donors",
      "outputs": [
        {
          "internalType": "address",
          "name": "",
          "type": "address"
        }
      ],
      "stateMutability": "view",
      "type": "function"
    },
    {
      "inputs": [],
      "name": "enableRefunds",
      "outputs": [],
      "stateMutability": "nonpayable",
      "type": "function"
    },
    {
      "inputs": [],
      "name": "fundsReleased",
      "outputs": [
        {
          "internalType": "bool",
          "name": "",
          "type": "bool"
        }
      ],
      "stateMutability": "view",
      "type": "function"
    },
    {
      "inputs": [],
      "name": "getContractBalance",
      "outputs": [
        {
          "internalType": "uint256",
          "name": "",
          "type": "uint256"
        }
      ],
      "stateMutability": "view",
      "type": "function"
    },
    {
      "inputs": [
        {
          "internalType": "address",
          "name": "donor",
          "type": "address"
        }
      ],
      "name": "getDonation",
      "outputs": [
        {
          "internalType": "uint256",
          "name": "",
          "type": "uint256"
        }
      ],
      "stateMutability": "view",
      "type": "function"
    },
    {
      "inputs": [],
      "name": "getDonorCount",
      "outputs": [
        {
          "internalType": "uint256",
          "name": "",
          "type": "uint256"
        }
      ],
      "stateMutability": "view",
      "type": "function"
    },
    {
      "inputs": [],
      "name": "getDonors",
      "outputs": [
        {
          "internalType": "address[]",
          "name": "",
          "type": "address[]"
        }
      ],
      "stateMutability": "view",
      "type": "function"
    },
    {
      "inputs": [],
      "name": "getMemberCount",
      "outputs": [
        {
          "internalType": "uint256",
          "name": "",
          "type": "uint256"
        }
      ],
      "stateMutability": "view",
      "type": "function"
    },
    {
      "inputs": [],
      "name": "getMembers",
      "outputs": [
        {
          "internalType": "address[]",
          "name": "",
          "type": "address[]"
        }
      ],
      "stateMutability": "view",
      "type": "function"
    },
    {
      "inputs": [],
      "name": "getProgress",
      "outputs": [
        {
          "internalType": "uint256",
          "name": "raised",
          "type": "uint256"
        },
        {
          "internalType": "uint256",
          "name": "goal",
          "type": "uint256"
        }
      ],
      "stateMutability": "view",
      "type": "function"
    },
    {
      "inputs": [],
      "name": "getTimeRemaining",
      "outputs": [
        {
          "internalType": "uint256",
          "name": "",
          "type": "uint256"
        }
      ],
      "stateMutability": "view",
      "type": "function"
    },
    {
      "inputs": [],
      "name": "goalAmount",
      "outputs": [
        {
          "internalType": "uint256",
          "name": "",
          "type": "uint256"
        }
      ],
      "stateMutability": "view",
      "type": "function"
    },
    {
      "inputs": [
        {
          "internalType": "address",
          "name": "_creator",
          "type": "address"
        },
        {
          "internalType": "address",
          "name": "_circleId",
          "type": "address"
        },
        {
          "internalType": "string",
          "name": "_circleName",
          "type": "string"
        },
        {
          "internalType": "address",
          "name": "_backendManager",
          "type": "address"
        },
        {
          "internalType": "address",
          "name": "_beneficiary",
          "type": "address"
        },
        {
          "internalType": "uint256",
          "name": "_goalAmount",
          "type": "uint256"
        },
        {
          "internalType": "uint256",
          "name": "_deadline",
          "type": "uint256"
        },
        {
          "internalType": "address",
          "name": "_tokenAddress",
          "type": "address"
        },
        {
          "internalType": "bool",
          "name": "_isNativeToken",
          "type": "bool"
        },
        {
          "internalType": "address",
          "name": "_receiptToken",
          "type": "address"
        }
      ],
      "name": "initialize",
      "outputs": [],
      "stateMutability": "nonpayable",
      "type": "function"
    },
    {
      "inputs": [
        {
          "internalType": "address",
          "name": "member",
          "type": "address"
        }
      ],
      "name": "inviteMember",
      "outputs": [],
      "stateMutability": "nonpayable",
      "type": "function"
    },
    {
      "inputs": [],
      "name": "isActive",
      "outputs": [
        {
          "internalType": "bool",
          "name": "",
          "type": "bool"
        }
      ],
      "stateMutability": "view",
      "type": "function"
    },
    {
      "inputs": [],
      "name": "isGoalReached",
      "outputs": [
        {
          "internalType": "bool",
          "name": "",
          "type": "bool"
        }
      ],
      "stateMutability": "view",
      "type": "function"
    },
    {
      "inputs": [
        {
          "internalType": "address",
          "name": "",
          "type": "address"
        }
      ],
      "name": "isInvited",
      "outputs": [
        {
          "internalType": "bool",
          "name": "",
          "type": "bool"
        }
      ],
      "stateMutability": "view",
      "type": "function"
    },
    {
      "inputs": [
        {
          "internalType": "address",
          "name": "",
          "type": "address"
        }
      ],
      "name": "isMember",
      "outputs": [
        {
          "internalType": "bool",
          "name": "",
          "type": "bool"
        }
      ],
      "stateMutability": "view",
      "type": "function"
    },
    {
      "inputs": [],
      "name": "isNativeToken",
      "outputs": [
        {
          "internalType": "bool",
          "name": "",
          "type": "bool"
        }
      ],
      "stateMutability": "view",
      "type": "function"
    },
    {
      "inputs": [],
      "name": "joinPool",
      "outputs": [],
      "stateMutability": "nonpayable",
      "type": "function"
    },
    {
      "inputs": [
        {
          "internalType": "uint256",
          "name": "",
          "type": "uint256"
        }
      ],
      "name": "members",
      "outputs": [
        {
          "internalType": "address",
          "name": "",
          "type": "address"
        }
      ],
      "stateMutability": "view",
      "type": "function"
    },
    {
      "inputs": [],
      "name": "pause",
      "outputs": [],
      "stateMutability": "nonpayable",
      "type": "function"
    },
    {
      "inputs": [],
      "name": "paused",
      "outputs": [
        {
          "internalType": "bool",
          "name": "",
          "type": "bool"
        }
      ],
      "stateMutability": "view",
      "type": "function"
    },
    {
      "inputs": [],
      "name": "receiptToken",
      "outputs": [
        {
          "internalType": "address",
          "name": "",
          "type": "address"
        }
      ],
      "stateMutability": "view",
      "type": "function"
    },
    {
      "inputs": [],
      "name": "refundsEnabled",
      "outputs": [
        {
          "internalType": "bool",
          "name": "",
          "type": "bool"
        }
      ],
      "stateMutability": "view",
      "type": "function"
    },
    {
      "inputs": [],
      "name": "releaseFunds",
      "outputs": [],
      "stateMutability": "nonpayable",
      "type": "function"
    },
    {
      "inputs": [],
      "name": "tokenAddress",
      "outputs": [
        {
          "internalType": "address",
          "name": "",
          "type": "address"
        }
      ],
      "stateMutability": "view",
      "type": "function"
    },
    {
      "inputs": [],
      "name": "totalRaised",
      "outputs": [
        {
          "internalType": "uint256",
          "name": "",
          "type": "uint256"
        }
      ],
      "stateMutability": "view",
      "type": "function"
    },
    {
      "inputs": [],
      "name": "unpause",
      "outputs": [],
      "stateMutability": "nonpayable",
      "type": "function"
    }
  ],
  "transactionHash": "0x665a2715c2d4e4b0dc85b4f9bebe14aecc6cf3da02c16075fef0a0dd8cde5c9f",
  "args": [],
  "numDeployments": 3,
  "solcInputHash": "516ba70d62a957c506623d67de67faf7",
  "bytecode": "0x608060405234801561001057600080fd5b5060016000819055805460ff191690556010805463ff000000191663010000001790556122e3806100426000396000f3fe6080604052600436106102255760003560e01c8063939c445611610123578063c30db746116100ab578063d3eb6f611161006f578063d3eb6f611461063f578063dac6270d14610659578063e24d65f91461066e578063ec78e8321461068e578063f14faf6f146106ae57600080fd5b8063c30db7461461059a578063c5964d50146105ba578063c5c4744c146105da578063cc6cb19a146105f0578063cccf25601461061d57600080fd5b80639d76ea58116100f25780639d76ea58146105065780639eab525314610526578063a230c5241461053b578063b5545a3c1461056b578063b564e9261461058057600080fd5b8063939c44561461048657806396f300d4146104ae578063997072f7146104d05780639af4ee7e146104e557600080fd5b80634abfa163116101b157806369d895751161017557806369d895751461041f5780636f9fb98a146104345780638371e6b4146104475780638456cb591461045c5780638c52dc411461047157600080fd5b80634abfa16314610392578063532f1179146103b25780635c975abb146103d25780635daf08ca146103ea57806369bc2f1e1461040a57600080fd5b806329dcb0cf116101f857806329dcb0cf146102ef5780632f890b931461030557806338af3eed146103275780633f4ba83a14610347578063410a1d321461035c57600080fd5b806302d05d3f1461022a5780631dcbe5001461026c57806322f3e2d4146102ac5780632636b945146102cb575b600080fd5b34801561023657600080fd5b5060015461024f9061010090046001600160a01b031681565b6040516001600160a01b0390911681526020015b60405180910390f35b34801561027857600080fd5b5061029c610287366004611e49565b600e6020526000908152604090205460ff1681565b6040519015158152602001610263565b3480156102b857600080fd5b5060105461029c90610100900460ff1681565b3480156102d757600080fd5b506102e160075481565b604051908152602001610263565b3480156102fb57600080fd5b506102e160085481565b34801561031157600080fd5b50610325610320366004611e49565b6106c1565b005b34801561033357600080fd5b5060065461024f906001600160a01b031681565b34801561035357600080fd5b50610325610833565b34801561036857600080fd5b506102e1610377366004611e49565b6001600160a01b03166000908152600b602052604090205490565b34801561039e57600080fd5b5061024f6103ad366004611e64565b61086c565b3480156103be57600080fd5b5060105461029c9062010000900460ff1681565b3480156103de57600080fd5b5060015460ff1661029c565b3480156103f657600080fd5b5061024f610405366004611e64565b610896565b34801561041657600080fd5b50600f546102e1565b34801561042b57600080fd5b506103256108a6565b34801561044057600080fd5b50476102e1565b34801561045357600080fd5b50610325610c3a565b34801561046857600080fd5b50610325610d67565b34801561047d57600080fd5b50610325610d9e565b34801561049257600080fd5b5060095460075460408051928352602083019190915201610263565b3480156104ba57600080fd5b506104c3610f50565b6040516102639190611e7d565b3480156104dc57600080fd5b50600c546102e1565b3480156104f157600080fd5b5060055461029c90600160a01b900460ff1681565b34801561051257600080fd5b5060055461024f906001600160a01b031681565b34801561053257600080fd5b506104c3610fb2565b34801561054757600080fd5b5061029c610556366004611e49565b600d6020526000908152604090205460ff1681565b34801561057757600080fd5b50610325611012565b34801561058c57600080fd5b5060105461029c9060ff1681565b3480156105a657600080fd5b5060035461024f906001600160a01b031681565b3480156105c657600080fd5b506103256105d5366004611ef9565b611222565b3480156105e657600080fd5b506102e160095481565b3480156105fc57600080fd5b506102e161060b366004611e49565b600b6020526000908152604090205481565b34801561062957600080fd5b50610632611686565b6040516102639190612038565b34801561064b57600080fd5b50600754600954101561029c565b34801561066557600080fd5b506102e1611714565b34801561067a57600080fd5b5060025461024f906001600160a01b031681565b34801561069a57600080fd5b50600a5461024f906001600160a01b031681565b6103256106bc366004611e64565b611738565b60015461010090046001600160a01b03163314806106e957506002546001600160a01b031633145b61073a5760405162461bcd60e51b815260206004820152601760248201527f4f6e6c792063726561746f72206f72206261636b656e6400000000000000000060448201526064015b60405180910390fd5b610742611afd565b6001600160a01b0381166000908152600e602052604090205460ff161561079d5760405162461bcd60e51b815260206004820152600f60248201526e105b1c9958591e481a5b9d9a5d1959608a1b6044820152606401610731565b6001600160a01b0381166107e55760405162461bcd60e51b815260206004820152600f60248201526e496e76616c6964206164647265737360881b6044820152606401610731565b6001600160a01b0381166000818152600e6020526040808220805460ff19166001179055513392917f6c246c8894ac239253d22cd508dbe8eb7e027e0589cdd4ff16dbb4238ccd983491a350565b60015461010090046001600160a01b031633146108625760405162461bcd60e51b815260040161073190612086565b61086a611b21565b565b600f818154811061087c57600080fd5b6000918252602090912001546001600160a01b0316905081565b600c818154811061087c57600080fd5b60015461010090046001600160a01b031633146108d55760405162461bcd60e51b815260040161073190612086565b6108dd611afd565b6108e5611b6e565b60105460ff161561092b5760405162461bcd60e51b815260206004820152601060248201526f105b1c9958591e481c995b19585cd95960821b6044820152606401610731565b60105462010000900460ff16156109765760405162461bcd60e51b815260206004820152600f60248201526e1499599d5b991cc8195b98589b1959608a1b6044820152606401610731565b60075460095410158061098a575060085442115b6109e25760405162461bcd60e51b8152602060048201526024808201527f476f616c206e6f74206d657420616e6420646561646c696e65206e6f742070616044820152631cdcd95960e21b6064820152608401610731565b6010805461ffff19166001179055600554600090600160a01b900460ff16610a75576005546040516370a0823160e01b81523060048201526001600160a01b03909116906370a0823190602401602060405180830381865afa158015610a4c573d6000803e3d6000fd5b505050506040513d601f19601f82011682018060405250810190610a7091906120bd565b610a77565b475b905060005b600f54811015610bc2576000600f8281548110610a9b57610a9b6120d6565b60009182526020808320909101546001600160a01b0316808352600b9091526040909120549091508015610bad57600554600160a01b900460ff1615610b4657600a54604051632770a7eb60e21b81526001600160a01b0384811660048301526024820184905290911690639dc29fac90604401600060405180830381600087803b158015610b2957600080fd5b505af1158015610b3d573d6000803e3d6000fd5b50505050610bad565b600a54604051632770a7eb60e21b81526001600160a01b0384811660048301526024820184905290911690639dc29fac90604401600060405180830381600087803b158015610b9457600080fd5b505af1158015610ba8573d6000803e3d6000fd5b505050505b50508080610bba90612102565b915050610a7c565b50600554600654610bec916001600160a01b0380821692600160a01b90920460ff16911684611b98565b6006546040518281526001600160a01b03909116907f221c08a06b07a64803b3787861a3f276212fcccb51c2e6234077a9b8cb13047a906020015b60405180910390a25061086a6001600055565b336000908152600e602052604090205460ff16610c875760405162461bcd60e51b815260206004820152600b60248201526a139bdd081a5b9d9a5d195960aa1b6044820152606401610731565b610c8f611afd565b336000908152600d602052604090205460ff1615610ce25760405162461bcd60e51b815260206004820152601060248201526f20b63932b0b23c90309036b2b6b132b960811b6044820152606401610731565b600c805460018181019092557fdf6966c971051c3d54ec59162606531493a51404a002842f56009d7e5cf4a8c70180546001600160a01b031916339081179091556000818152600d6020526040808220805460ff1916909417909355915190917f0abf3b3f643594d958297062a019458e27d7766629590ac621aa1000fa1298ab91a2565b60015461010090046001600160a01b03163314610d965760405162461bcd60e51b815260040161073190612086565b61086a611cb4565b60015461010090046001600160a01b03163314610dcd5760405162461bcd60e51b815260040161073190612086565b610dd5611afd565b60105460ff1615610e215760405162461bcd60e51b8152602060048201526016602482015275119d5b991cc8185b1c9958591e481c995b19585cd95960521b6044820152606401610731565b60105462010000900460ff1615610e7a5760405162461bcd60e51b815260206004820152601760248201527f526566756e647320616c726561647920656e61626c65640000000000000000006044820152606401610731565b6008544211610ec15760405162461bcd60e51b8152602060048201526013602482015272111958591b1a5b99481b9bdd081c185cdcd959606a1b6044820152606401610731565b60075460095410610f035760405162461bcd60e51b815260206004820152600c60248201526b11dbd85b081dd85cc81b595d60a21b6044820152606401610731565b6010805462ffff001916620100001790556040517f01fd9d9d9f159bbb346cbe96d08df5b61108b672fa79a2d53fb9c67b9717d27390610f469042815260200190565b60405180910390a1565b6060600f805480602002602001604051908101604052809291908181526020018280548015610fa857602002820191906000526020600020905b81546001600160a01b03168152600190910190602001808311610f8a575b5050505050905090565b6060600c805480602002602001604051908101604052809291908181526020018280548015610fa8576020028201919060005260206000209081546001600160a01b03168152600190910190602001808311610f8a575050505050905090565b61101a611afd565b611022611b6e565b60105462010000900460ff166110705760405162461bcd60e51b81526020600482015260136024820152721499599d5b991cc81b9bdd08195b98589b1959606a1b6044820152606401610731565b336000908152600b60205260409020546110c05760405162461bcd60e51b8152602060048201526011602482015270139bdd1a1a5b99c81d1bc81c99599d5b99607a1b6044820152606401610731565b336000908152600b6020526040812080549082905560098054919283926110e890849061211b565b9091555050600554600160a01b900460ff161561116857600a54604051632770a7eb60e21b8152336004820152602481018390526001600160a01b0390911690639dc29fac90604401600060405180830381600087803b15801561114b57600080fd5b505af115801561115f573d6000803e3d6000fd5b505050506111cd565b600a54604051632770a7eb60e21b8152336004820152602481018390526001600160a01b0390911690639dc29fac90604401600060405180830381600087803b1580156111b457600080fd5b505af11580156111c8573d6000803e3d6000fd5b505050505b6005546111f0906001600160a01b03811690600160a01b900460ff163384611b98565b60405181815233907f358fe4192934d3bf28ae181feda1f4bd08ca67f5e2fad55582cce5eb67304ae990602001610c27565b6010546301000000900460ff16156112725760405162461bcd60e51b8152602060048201526013602482015272105b1c9958591e481a5b9a5d1a585b1a5e9959606a1b6044820152606401610731565b6010805463ff000000191663010000001790556001600160a01b0386166112d15760405162461bcd60e51b8152602060048201526013602482015272496e76616c69642062656e656669636961727960681b6044820152606401610731565b600085116113195760405162461bcd60e51b8152602060048201526015602482015274476f616c206d75737420626520706f73697469766560581b6044820152606401610731565b4284116113685760405162461bcd60e51b815260206004820152601760248201527f446561646c696e65206d757374206265206675747572650000000000000000006044820152606401610731565b6001600160a01b0387166113be5760405162461bcd60e51b815260206004820152601760248201527f496e76616c6964206261636b656e64206d616e616765720000000000000000006044820152606401610731565b6001600160a01b03811661140c5760405162461bcd60e51b815260206004820152601560248201527424b73b30b634b2103932b1b2b4b83a103a37b5b2b760591b6044820152606401610731565b8115611482576001600160a01b0383161561147d5760405162461bcd60e51b815260206004820152602b60248201527f546f6b656e2061646472657373206d757374206265207a65726f20666f72206e60448201526a30ba34bb32903a37b5b2b760a91b6064820152608401610731565b6114d8565b6001600160a01b0383166114d85760405162461bcd60e51b815260206004820152601f60248201527f496e76616c696420746f6b656e206164647265737320666f72204552433230006044820152606401610731565b600180546001600160a01b03808d1661010002610100600160a81b031990921691909117909155600280548983166001600160a01b03199182161790915560038054928c1692909116919091179055600461153389826121bd565b50600680546001600160a01b038881166001600160a01b031992831681179093556007889055600887905560058054861515600160a01b026001600160a81b031990911688841617179055600a80548583169084161790556010805461ff001916610100179055600c805460018181019092557fdf6966c971051c3d54ec59162606531493a51404a002842f56009d7e5cf4a8c70180548f84169416841790556000838152600d60209081526040808320805460ff199081168617909155600e83529281902080549093169093179091558151948552840189905283018790529091908b16907f7b5c292074d28589558035864cd03ab61b59880d01a5b6228edb5adf73656e139060600160405180910390a36040516001600160a01b038b16907f0abf3b3f643594d958297062a019458e27d7766629590ac621aa1000fa1298ab90600090a250505050505050505050565b6004805461169390612134565b80601f01602080910402602001604051908101604052809291908181526020018280546116bf90612134565b801561170c5780601f106116e15761010080835404028352916020019161170c565b820191906000526020600020905b8154815290600101906020018083116116ef57829003601f168201915b505050505081565b600060085442106117255750600090565b42600854611733919061211b565b905090565b611740611afd565b611748611b6e565b60085442111561178c5760405162461bcd60e51b815260206004820152600f60248201526e111958591b1a5b99481c185cdcd959608a1b6044820152606401610731565b60105460ff16156117d85760405162461bcd60e51b8152602060048201526016602482015275119d5b991cc8185b1c9958591e481c995b19585cd95960521b6044820152606401610731565b60105462010000900460ff16156118315760405162461bcd60e51b815260206004820152601e60248201527f526566756e647320656e61626c65642c2063616e6e6f7420646f6e61746500006044820152606401610731565b601054610100900460ff1661187a5760405162461bcd60e51b815260206004820152600f60248201526e506f6f6c206e6f742061637469766560881b6044820152606401610731565b600554600160a01b900460ff16806118925750600081115b6118d65760405162461bcd60e51b81526020600482015260156024820152744d75737420646f6e61746520736f6d657468696e6760581b6044820152606401610731565b6005546000906118fb906001600160a01b03811690600160a01b900460ff1684611cef565b336000908152600b60205260408120549192500361195657600f80546001810182556000919091527f8d1108e10bcb7c27dddfc02ed9d693a074039d026cf4ea4240b40f7d581ac8020180546001600160a01b031916331790555b336000908152600b60205260408120805483929061197590849061227d565b92505081905550806009600082825461198e919061227d565b9091555050600554600160a01b900460ff1615611a0e57600a546040516340c10f1960e01b8152336004820152602481018390526001600160a01b03909116906340c10f1990604401600060405180830381600087803b1580156119f157600080fd5b505af1158015611a05573d6000803e3d6000fd5b50505050611a73565b600a546040516340c10f1960e01b8152336004820152602481018390526001600160a01b03909116906340c10f1990604401600060405180830381600087803b158015611a5a57600080fd5b505af1158015611a6e573d6000803e3d6000fd5b505050505b60405181815233907faa13962bc79c7a0bc42cb8169b1705f0a6b55cc404ffb8a589d771ca786759789060200160405180910390a260075460095410611aef577ffbfd8ab7c24300fa9888cd721c8565a7da56759384781283684dcf7c7c4a846b600954604051611ae691815260200190565b60405180910390a15b50611afa6001600055565b50565b60015460ff161561086a5760405163d93c066560e01b815260040160405180910390fd5b611b29611e0a565b6001805460ff191690557f5db9ee0a495bf2e6ff9c91a7834c1ba4fdd244a5e8aa4e537bd38aeae4b073aa335b6040516001600160a01b039091168152602001610f46565b600260005403611b9157604051633ee5aeb560e01b815260040160405180910390fd5b6002600055565b8215611c39576000826001600160a01b03168260405160006040518083038185875af1925050503d8060008114611beb576040519150601f19603f3d011682016040523d82523d6000602084013e611bf0565b606091505b5050905080611c335760405162461bcd60e51b815260206004820152600f60248201526e151c985b9cd9995c8819985a5b1959608a1b6044820152606401610731565b50611cae565b60405163a9059cbb60e01b81526001600160a01b0383811660048301526024820183905285169063a9059cbb906044016020604051808303816000875af1158015611c88573d6000803e3d6000fd5b505050506040513d601f19601f82011682018060405250810190611cac9190612290565b505b50505050565b611cbc611afd565b6001805460ff1916811790557f62e78cea01bee320cd4e420270b5ea74000d11b0c9f74754ebdbfc544b05a25833611b56565b60008215611d475760003411611d405760405162461bcd60e51b815260206004820152601660248201527526bab9ba1039b2b732103730ba34bb32903a37b5b2b760511b6044820152606401610731565b5034611e03565b3415611d875760405162461bcd60e51b815260206004820152600f60248201526e2737903730ba34bb32903a37b5b2b760891b6044820152606401610731565b6040516323b872dd60e01b8152336004820152306024820152604481018390526001600160a01b038516906323b872dd906064016020604051808303816000875af1158015611dda573d6000803e3d6000fd5b505050506040513d601f19601f82011682018060405250810190611dfe9190612290565b508190505b9392505050565b60015460ff1661086a57604051638dfc202b60e01b815260040160405180910390fd5b80356001600160a01b0381168114611e4457600080fd5b919050565b600060208284031215611e5b57600080fd5b611e0382611e2d565b600060208284031215611e7657600080fd5b5035919050565b6020808252825182820181905260009190848201906040850190845b81811015611ebe5783516001600160a01b031683529284019291840191600101611e99565b50909695505050505050565b634e487b7160e01b600052604160045260246000fd5b8015158114611afa57600080fd5b8035611e4481611ee0565b6000806000806000806000806000806101408b8d031215611f1957600080fd5b611f228b611e2d565b9950611f3060208c01611e2d565b985067ffffffffffffffff8060408d01351115611f4c57600080fd5b60408c01358c018d601f820112611f6257600080fd5b8181351115611f7357611f73611eca565b6040518135601f01601f19908116603f01168101908382118183101715611f9c57611f9c611eca565b81604052823581528f602084358501011115611fb757600080fd5b823560208401602083013760006020843583010152809b5050505050611fdf60608c01611e2d565b9650611fed60808c01611e2d565b955060a08b0135945060c08b0135935061200960e08c01611e2d565b92506120186101008c01611eee565b91506120276101208c01611e2d565b90509295989b9194979a5092959850565b600060208083528351808285015260005b8181101561206557858101830151858201604001528201612049565b506000604082860101526040601f19601f8301168501019250505092915050565b6020808252601a908201527f4f6e6c792063726561746f722063616e2063616c6c2074686973000000000000604082015260600190565b6000602082840312156120cf57600080fd5b5051919050565b634e487b7160e01b600052603260045260246000fd5b634e487b7160e01b600052601160045260246000fd5b600060018201612114576121146120ec565b5060010190565b8181038181111561212e5761212e6120ec565b92915050565b600181811c9082168061214857607f821691505b60208210810361216857634e487b7160e01b600052602260045260246000fd5b50919050565b601f8211156121b857600081815260208120601f850160051c810160208610156121955750805b601f850160051c820191505b818110156121b4578281556001016121a1565b5050505b505050565b815167ffffffffffffffff8111156121d7576121d7611eca565b6121eb816121e58454612134565b8461216e565b602080601f83116001811461222057600084156122085750858301515b600019600386901b1c1916600185901b1785556121b4565b600085815260208120601f198616915b8281101561224f57888601518255948401946001909101908401612230565b508582101561226d5787850151600019600388901b60f8161c191681555b5050505050600190811b01905550565b8082018082111561212e5761212e6120ec565b6000602082840312156122a257600080fd5b8151611e0381611ee056fea2646970667358221220a2cb2bc029505a755e8eababf5743d5a5f520fb2d5b01655a656f5202345c05564736f6c63430008140033",
  "devdoc": {
    "details": "Includes refund mechanism if goal is not met by deadline",
    "errors": {
      "EnforcedPause()": [
        {
          "details": "The operation failed because the contract is paused."
        }
      ],
      "ExpectedPause()": [
        {
          "details": "The operation failed because the contract is not paused."
        }
      ],
      "ReentrancyGuardReentrantCall()": [
        {
          "details": "Unauthorized reentrant call."
        }
      ]
    },
    "events": {
      "Paused(address)": {
        "details": "Emitted when the pause is triggered by `account`."
      },
      "Unpaused(address)": {
        "details": "Emitted when the pause is lifted by `account`."
      }
    },
    "kind": "dev",
    "methods": {
      "claimRefund()": {
        "details": "Only available if refunds are enabled"
      },
      "constructor": {
        "details": "Prevents the implementation contract from being initialized"
      },
      "donate(uint256)": {
        "details": "For ERC20: Donor must have approved the contract to spend tokens before calling      For native token: amount parameter is ignored, msg.value is used      NOTE: Unlike SavingsPool and ROSCAPool, DonationPool allows public donations",
        "params": {
          "amount": "Amount of ERC20 tokens to donate (ignored for native token pools)"
        }
      },
      "enableRefunds()": {
        "details": "Only creator can enable refunds, only after deadline if goal not met"
      },
      "getContractBalance()": {
        "returns": {
          "_0": "Balance in wei"
        }
      },
      "getDonation(address)": {
        "params": {
          "donor": "Address of the donor"
        },
        "returns": {
          "_0": "Donation amount in wei"
        }
      },
      "getDonorCount()": {
        "returns": {
          "_0": "Donor count"
        }
      },
      "getDonors()": {
        "returns": {
          "_0": "Array of donor addresses"
        }
      },
      "getMemberCount()": {
        "returns": {
          "_0": "Member count"
        }
      },
      "getMembers()": {
        "returns": {
          "_0": "Array of member addresses"
        }
      },
      "getProgress()": {
        "returns": {
          "goal": "Goal amount",
          "raised": "Current amount raised"
        }
      },
      "getTimeRemaining()": {
        "returns": {
          "_0": "Seconds remaining, or 0 if deadline passed"
        }
      },
      "initialize(address,address,string,address,address,uint256,uint256,address,bool,address)": {
        "details": "This replaces the constructor for cloned instances",
        "params": {
          "_backendManager": "Address of the backend manager (can invite members)",
          "_beneficiary": "Address that will receive the funds",
          "_circleId": "Address of the Lens.xyz circle contract",
          "_circleName": "Name of the circle",
          "_creator": "Address of the user creating the pool",
          "_deadline": "Deadline as Unix timestamp",
          "_goalAmount": "Target fundraising amount in wei",
          "_isNativeToken": "Whether this pool uses native token (cBTC) or ERC20 token",
          "_receiptToken": "Address of the receipt token (xshCUSD or xshCBTC)",
          "_tokenAddress": "Address of the ERC20 token to use for donations (zero address if native)"
        }
      },
      "inviteMember(address)": {
        "details": "Creator or backend manager can invite members",
        "params": {
          "member": "Address of the member to invite"
        }
      },
      "isGoalReached()": {
        "returns": {
          "_0": "True if goal reached, false otherwise"
        }
      },
      "pause()": {
        "details": "Only creator can pause"
      },
      "paused()": {
        "details": "Returns true if the contract is paused, and false otherwise."
      },
      "releaseFunds()": {
        "details": "Only creator can release, can only release after goal met or deadline passed"
      },
      "unpause()": {
        "details": "Only creator can unpause"
      }
    },
    "title": "DonationPool",
    "version": 1
  },
  "userdoc": {
    "kind": "user",
    "methods": {
      "backendManager()": {
        "notice": "Address of the backend manager (can invite members)"
      },
      "beneficiary()": {
        "notice": "Address that will receive the donated funds"
      },
      "circleId()": {
        "notice": "Address of the Lens.xyz circle contract"
      },
      "circleName()": {
        "notice": "Human-readable name of the circle"
      },
      "claimRefund()": {
        "notice": "Allows a donor to claim their refund"
      },
      "constructor": {
        "notice": "Constructor for implementation contract"
      },
      "creator()": {
        "notice": "Address of the user who created this pool"
      },
      "deadline()": {
        "notice": "Deadline for fundraising as Unix timestamp"
      },
      "donate(uint256)": {
        "notice": "Allows anyone to donate to the fundraising pool"
      },
      "donations(address)": {
        "notice": "Individual donation amounts per member"
      },
      "donors(uint256)": {
        "notice": "Array of addresses that have donated"
      },
      "enableRefunds()": {
        "notice": "Enables refunds if goal was not met by deadline"
      },
      "fundsReleased()": {
        "notice": "Whether funds have been released to beneficiary"
      },
      "getContractBalance()": {
        "notice": "Gets the contract's current balance"
      },
      "getDonation(address)": {
        "notice": "Gets a member's total donation amount"
      },
      "getDonorCount()": {
        "notice": "Gets the total number of donors"
      },
      "getDonors()": {
        "notice": "Gets all donors"
      },
      "getMemberCount()": {
        "notice": "Gets the total number of members"
      },
      "getMembers()": {
        "notice": "Gets all members"
      },
      "getProgress()": {
        "notice": "Gets the current fundraising progress"
      },
      "getTimeRemaining()": {
        "notice": "Gets the time remaining until deadline"
      },
      "goalAmount()": {
        "notice": "Target fundraising amount in wei"
      },
      "initialize(address,address,string,address,address,uint256,uint256,address,bool,address)": {
        "notice": "Initializes a new Donation pool clone"
      },
      "inviteMember(address)": {
        "notice": "Invites a new member to the pool"
      },
      "isActive()": {
        "notice": "Whether the pool is currently active"
      },
      "isGoalReached()": {
        "notice": "Checks if the fundraising goal has been reached"
      },
      "isInvited(address)": {
        "notice": "Mapping to check if an address has been invited"
      },
      "isMember(address)": {
        "notice": "Mapping to check if an address is a member"
      },
      "isNativeToken()": {
        "notice": "Whether this pool uses native token (cBTC) or ERC20 token"
      },
      "joinPool()": {
        "notice": "Allows an invited member to join the pool"
      },
      "members(uint256)": {
        "notice": "Array of all members in the pool"
      },
      "pause()": {
        "notice": "Pauses the contract in case of emergency"
      },
      "receiptToken()": {
        "notice": "Receipt token (xshCUSD or xshCBTC) minted to users on donation"
      },
      "refundsEnabled()": {
        "notice": "Whether refunds are enabled (goal not met by deadline)"
      },
      "releaseFunds()": {
        "notice": "Releases funds to the beneficiary"
      },
      "tokenAddress()": {
        "notice": "Address of the ERC20 token used for donations (zero address if native token)"
      },
      "totalRaised()": {
        "notice": "Total amount raised so far"
      },
      "unpause()": {
        "notice": "Unpauses the contract"
      }
    },
    "notice": "Fundraising pool where circle members donate toward a specific goal and beneficiary",
    "version": 1
  },
  "storageLayout": {
    "storage": [
      {
        "astId": 1725,
        "contract": "contracts/pools/DonationPool.sol:DonationPool",
        "label": "_status",
        "offset": 0,
        "slot": "0",
        "type": "t_uint256"
      },
      {
        "astId": 1606,
        "contract": "contracts/pools/DonationPool.sol:DonationPool",
        "label": "_paused",
        "offset": 0,
        "slot": "1",
        "type": "t_bool"
      },
      {
        "astId": 2872,
        "contract": "contracts/pools/DonationPool.sol:DonationPool",
        "label": "creator",
        "offset": 1,
        "slot": "1",
        "type": "t_address"
      },
      {
        "astId": 2875,
        "contract": "contracts/pools/DonationPool.sol:DonationPool",
        "label": "backendManager",
        "offset": 0,
        "slot": "2",
        "type": "t_address"
      },
      {
        "astId": 2878,
        "contract": "contracts/pools/DonationPool.sol:DonationPool",
        "label": "circleId",
        "offset": 0,
        "slot": "3",
        "type": "t_address"
      },
      {
        "astId": 2881,
        "contract": "contracts/pools/DonationPool.sol:DonationPool",
        "label": "circleName",
        "offset": 0,
        "slot": "4",
        "type": "t_string_storage"
      },
      {
        "astId": 2884,
        "contract": "contracts/pools/DonationPool.sol:DonationPool",
        "label": "tokenAddress",
        "offset": 0,
        "slot": "5",
        "type": "t_address"
      },
      {
        "astId": 2887,
        "contract": "contracts/pools/DonationPool.sol:DonationPool",
        "label": "isNativeToken",
        "offset": 20,
        "slot": "5",
        "type": "t_bool"
      },
      {
        "astId": 2890,
        "contract": "contracts/pools/DonationPool.sol:DonationPool",
        "label": "beneficiary",
        "offset": 0,
        "slot": "6",
        "type": "t_address"
      },
      {
        "astId": 2893,
        "contract": "contracts/pools/DonationPool.sol:DonationPool",
        "label": "goalAmount",
        "offset": 0,
        "slot": "7",
        "type": "t_uint256"
      },
      {
        "astId": 2896,
        "contract": "contracts/pools/DonationPool.sol:DonationPool",
        "label": "deadline",
        "offset": 0,
        "slot": "8",
        "type": "t_uint256"
      },
      {
        "astId": 2899,
        "contract": "contracts/pools/DonationPool.sol:DonationPool",
        "label": "totalRaised",
        "offset": 0,
        "slot": "9",
        "type": "t_uint256"
      },
      {
        "astId": 2902,
        "contract": "contracts/pools/DonationPool.sol:DonationPool",
        "label": "receiptToken",
        "offset": 0,
        "slot": "10",
        "type": "t_address"
      },
      {
        "astId": 2907,
        "contract": "contracts/pools/DonationPool.sol:DonationPool",
        "label": "donations",
        "offset": 0,
        "slot": "11",
        "type": "t_mapping(t_address,t_uint256)"
      },
      {
        "astId": 2911,
        "contract": "contracts/pools/DonationPool.sol:DonationPool",
        "label": "members",
        "offset": 0,
        "slot": "12",
        "type": "t_array(t_address)dyn_storage"
      },
      {
        "astId": 2916,
        "contract": "contracts/pools/DonationPool.sol:DonationPool",
        "label": "isMember",
        "offset": 0,
        "slot": "13",
        "type": "t_mapping(t_address,t_bool)"
      },
      {
        "astId": 2921,
        "contract": "contracts/pools/DonationPool.sol:DonationPool",
        "label": "isInvited",
        "offset": 0,
        "slot": "14",
        "type": "t_mapping(t_address,t_bool)"
      },
      {
        "astId": 2925,
        "contract": "contracts/pools/DonationPool.sol:DonationPool",
        "label": "donors",
        "offset": 0,
        "slot": "15",
        "type": "t_array(t_address)dyn_storage"
      },
      {
        "astId": 2928,
        "contract": "contracts/pools/DonationPool.sol:DonationPool",
        "label": "fundsReleased",
        "offset": 0,
        "slot": "16",
        "type": "t_bool"
      },
      {
        "astId": 2931,
        "contract": "contracts/pools/DonationPool.sol:DonationPool",
        "label": "isActive",
        "offset": 1,
        "slot": "16",
        "type": "t_bool"
      },
      {
        "astId": 2934,
        "contract": "contracts/pools/DonationPool.sol:DonationPool",
        "label": "refundsEnabled",
        "offset": 2,
        "slot": "16",
        "type": "t_bool"
      },
      {
        "astId": 2937,
        "contract": "contracts/pools/DonationPool.sol:DonationPool",
        "label": "initialized",
        "offset": 3,
        "slot": "16",
        "type": "t_bool"
      }
    ],
    "types": {
      "t_address": {
        "encoding": "inplace",
        "label": "address",
        "numberOfBytes": "20"
      },
      "t_array(t_address)dyn_storage": {
        "base": "t_address",
        "encoding": "dynamic_array",
        "label": "address[]",
        "numberOfBytes": "32"
      },
      "t_bool": {
        "encoding": "inplace",
        "label": "bool",
        "numberOfBytes": "1"
      },
      "t_mapping(t_address,t_bool)": {
        "encoding": "mapping",
        "key": "t_address",
        "label": "mapping(address => bool)",
        "numberOfBytes": "32",
        "value": "t_bool"
      },
      "t_mapping(t_address,t_uint256)": {
        "encoding": "mapping",
        "key": "t_address",
        "label": "mapping(address => uint256)",
        "numberOfBytes": "32",
        "value": "t_uint256"
      },
      "t_string_storage": {
        "encoding": "bytes",
        "label": "string",
        "numberOfBytes": "32"
      },
      "t_uint256": {
        "encoding": "inplace",
        "label": "uint256",
        "numberOfBytes": "32"
      }
    }
  }
}