{
  "address": "0x90D155A1CB0B851192289e72D07a654500A8C7ac",
  "abi": [
    {
      "inputs": [
        {
          "internalType": "address",
          "name": "_tokenAddress",
          "type": "address"
        },
        {
          "internalType": "bool",
          "name": "_isNativeToken",
          "type": "bool"
        },
        {
          "internalType": "uint256",
          "name": "_baseAPY",
          "type": "uint256"
        }
      ],
      "stateMutability": "nonpayable",
      "type": "constructor"
    },
    {
      "inputs": [
        {
          "internalType": "address",
          "name": "target",
          "type": "address"
        }
      ],
      "name": "AddressEmptyCode",
      "type": "error"
    },
    {
      "inputs": [
        {
          "internalType": "address",
          "name": "account",
          "type": "address"
        }
      ],
      "name": "AddressInsufficientBalance",
      "type": "error"
    },
    {
      "inputs": [],
      "name": "FailedInnerCall",
      "type": "error"
    },
    {
      "inputs": [],
      "name": "ReentrancyGuardReentrantCall",
      "type": "error"
    },
    {
      "inputs": [
        {
          "internalType": "address",
          "name": "token",
          "type": "address"
        }
      ],
      "name": "SafeERC20FailedOperation",
      "type": "error"
    },
    {
      "anonymous": false,
      "inputs": [
        {
          "indexed": true,
          "internalType": "address",
          "name": "user",
          "type": "address"
        },
        {
          "indexed": false,
          "internalType": "uint256",
          "name": "amount",
          "type": "uint256"
        },
        {
          "indexed": false,
          "internalType": "uint256",
          "name": "shares",
          "type": "uint256"
        }
      ],
      "name": "Deposited",
      "type": "event"
    },
    {
      "anonymous": false,
      "inputs": [
        {
          "indexed": true,
          "internalType": "address",
          "name": "user",
          "type": "address"
        },
        {
          "indexed": false,
          "internalType": "uint256",
          "name": "shares",
          "type": "uint256"
        },
        {
          "indexed": false,
          "internalType": "uint256",
          "name": "amount",
          "type": "uint256"
        }
      ],
      "name": "Withdrawn",
      "type": "event"
    },
    {
      "anonymous": false,
      "inputs": [
        {
          "indexed": false,
          "internalType": "uint256",
          "name": "amount",
          "type": "uint256"
        },
        {
          "indexed": false,
          "internalType": "uint256",
          "name": "timestamp",
          "type": "uint256"
        }
      ],
      "name": "YieldAccrued",
      "type": "event"
    },
    {
      "inputs": [],
      "name": "accrueYield",
      "outputs": [],
      "stateMutability": "nonpayable",
      "type": "function"
    },
    {
      "inputs": [],
      "name": "baseAPY",
      "outputs": [
        {
          "internalType": "uint256",
          "name": "",
          "type": "uint256"
        }
      ],
      "stateMutability": "view",
      "type": "function"
    },
    {
      "inputs": [
        {
          "internalType": "uint256",
          "name": "amount",
          "type": "uint256"
        }
      ],
      "name": "deposit",
      "outputs": [
        {
          "internalType": "uint256",
          "name": "sharesAmount",
          "type": "uint256"
        }
      ],
      "stateMutability": "payable",
      "type": "function"
    },
    {
      "inputs": [
        {
          "internalType": "address",
          "name": "user",
          "type": "address"
        }
      ],
      "name": "getBalance",
      "outputs": [
        {
          "internalType": "uint256",
          "name": "balance",
          "type": "uint256"
        }
      ],
      "stateMutability": "view",
      "type": "function"
    },
    {
      "inputs": [],
      "name": "getContractBalance",
      "outputs": [
        {
          "internalType": "uint256",
          "name": "balance",
          "type": "uint256"
        }
      ],
      "stateMutability": "view",
      "type": "function"
    },
    {
      "inputs": [],
      "name": "getExchangeRate",
      "outputs": [
        {
          "internalType": "uint256",
          "name": "rate",
          "type": "uint256"
        }
      ],
      "stateMutability": "view",
      "type": "function"
    },
    {
      "inputs": [],
      "name": "getVaultStats",
      "outputs": [
        {
          "internalType": "uint256",
          "name": "deposits",
          "type": "uint256"
        },
        {
          "internalType": "uint256",
          "name": "yield",
          "type": "uint256"
        },
        {
          "internalType": "uint256",
          "name": "value",
          "type": "uint256"
        }
      ],
      "stateMutability": "view",
      "type": "function"
    },
    {
      "inputs": [],
      "name": "isNativeToken",
      "outputs": [
        {
          "internalType": "bool",
          "name": "",
          "type": "bool"
        }
      ],
      "stateMutability": "view",
      "type": "function"
    },
    {
      "inputs": [],
      "name": "lastAccrualTime",
      "outputs": [
        {
          "internalType": "uint256",
          "name": "",
          "type": "uint256"
        }
      ],
      "stateMutability": "view",
      "type": "function"
    },
    {
      "inputs": [
        {
          "internalType": "address",
          "name": "",
          "type": "address"
        }
      ],
      "name": "shares",
      "outputs": [
        {
          "internalType": "uint256",
          "name": "",
          "type": "uint256"
        }
      ],
      "stateMutability": "view",
      "type": "function"
    },
    {
      "inputs": [],
      "name": "tokenAddress",
      "outputs": [
        {
          "internalType": "address",
          "name": "",
          "type": "address"
        }
      ],
      "stateMutability": "view",
      "type": "function"
    },
    {
      "inputs": [],
      "name": "totalDeposits",
      "outputs": [
        {
          "internalType": "uint256",
          "name": "",
          "type": "uint256"
        }
      ],
      "stateMutability": "view",
      "type": "function"
    },
    {
      "inputs": [],
      "name": "totalShares",
      "outputs": [
        {
          "internalType": "uint256",
          "name": "",
          "type": "uint256"
        }
      ],
      "stateMutability": "view",
      "type": "function"
    },
    {
      "inputs": [],
      "name": "totalYield",
      "outputs": [
        {
          "internalType": "uint256",
          "name": "",
          "type": "uint256"
        }
      ],
      "stateMutability": "view",
      "type": "function"
    },
    {
      "inputs": [
        {
          "internalType": "uint256",
          "name": "sharesToBurn",
          "type": "uint256"
        }
      ],
      "name": "withdraw",
      "outputs": [
        {
          "internalType": "uint256",
          "name": "withdrawAmount",
          "type": "uint256"
        }
      ],
      "stateMutability": "nonpayable",
      "type": "function"
    },
    {
      "stateMutability": "payable",
      "type": "receive"
    }
  ],
  "transactionHash": "0x312987faa5cc9caf0cc13a808c714767f4fcef776eb33b8e81fd33145bca30f8",
  "args": [
    "0x0000000000000000000000000000000000000000",
    true,
    300
  ],
  "numDeployments": 1,
  "solcInputHash": "a3c89f73131a5b07bff581e21c98d197",
  "bytecode": "0x60806040523480156200001157600080fd5b50604051620012c9380380620012c983398101604081905262000034916200019e565b60016000558115620000af576001600160a01b03831615620000a95760405162461bcd60e51b815260206004820152602360248201527f4e617469766520746f6b656e206d7573742068617665207a65726f206164647260448201526265737360e81b60648201526084015b60405180910390fd5b62000113565b6001600160a01b038316620001135760405162461bcd60e51b815260206004820152602360248201527f455243323020746f6b656e206d75737420686176652076616c6964206164647260448201526265737360e81b6064820152608401620000a0565b6000811180156200012657506127108111155b620001625760405162461bcd60e51b815260206004820152600b60248201526a496e76616c69642041505960a81b6044820152606401620000a0565b60018054921515600160a01b026001600160a81b03199093166001600160a01b03909416939093179190911790915560025542600355620001f5565b600080600060608486031215620001b457600080fd5b83516001600160a01b0381168114620001cc57600080fd5b60208501519093508015158114620001e357600080fd5b80925050604084015190509250925092565b6110c480620002056000396000f3fe6080604052600436106100ec5760003560e01c80639af4ee7e1161008a578063ce7c2ac211610059578063ce7c2ac2146102c3578063d7e72708146102f0578063e6aa216c14610306578063f8b2cb4f1461031b57600080fd5b80639af4ee7e146102175780639d76ea5814610248578063a59aa5a614610280578063b6b55f25146102b057600080fd5b80632e1a7d4d116100c65780632e1a7d4d146101b65780633a98ef39146101d65780636f9fb98a146101ec5780637d8820971461020157600080fd5b80630141820514610162578063059d9c751461018b578063214405a9146101a057600080fd5b3661015d57600154600160a01b900460ff1661015b5760405162461bcd60e51b815260206004820152602360248201527f5661756c7420646f6573206e6f7420616363657074206e617469766520746f6b604482015262656e7360e81b60648201526084015b60405180910390fd5b005b600080fd5b34801561016e57600080fd5b5061017860055481565b6040519081526020015b60405180910390f35b34801561019757600080fd5b5061015b61033b565b3480156101ac57600080fd5b5061017860025481565b3480156101c257600080fd5b506101786101d1366004610ee4565b610475565b3480156101e257600080fd5b5061017860065481565b3480156101f857600080fd5b506101786107c7565b34801561020d57600080fd5b5061017860045481565b34801561022357600080fd5b5060015461023890600160a01b900460ff1681565b6040519015158152602001610182565b34801561025457600080fd5b50600154610268906001600160a01b031681565b6040516001600160a01b039091168152602001610182565b34801561028c57600080fd5b50610295610852565b60408051938452602084019290925290820152606001610182565b6101786102be366004610ee4565b61089a565b3480156102cf57600080fd5b506101786102de366004610efd565b60076020526000908152604090205481565b3480156102fc57600080fd5b5061017860035481565b34801561031257600080fd5b50610178610b07565b34801561032757600080fd5b50610178610336366004610efd565b610b72565b60045460000361034b5742600355565b60006003544261035b9190610f3c565b9050806000036103685750565b600061037a6301e13380612710610f4f565b8260025460045461038b9190610f4f565b6103959190610f4f565b61039f9190610f66565b9050801561046d5780600560008282546103b99190610f88565b9091555050600154600160a01b900460ff16610434576001546040516340c10f1960e01b8152306004820152602481018390526001600160a01b03909116906340c10f1990604401600060405180830381600087803b15801561041b57600080fd5b505af115801561042f573d6000803e3d6000fd5b505050505b604080518281524260208201527ffe2ebf53456a69d7b70affc98b9021c791a9bce3af6fa5d24dfbc2db0f817b54910160405180910390a15b505042600355565b600061047f610c0a565b600082116104c65760405162461bcd60e51b81526020600482015260146024820152734d7573742077697468647261772073686172657360601b6044820152606401610152565b3360009081526007602052604090205482111561051b5760405162461bcd60e51b8152602060048201526013602482015272496e73756666696369656e742073686172657360681b6044820152606401610152565b61052361033b565b60006005546004546105359190610f88565b6006549091506105458285610f4f565b61054f9190610f66565b9150600082116105a15760405162461bcd60e51b815260206004820152601d60248201527f5769746864726177616c20616d6f756e74206d757374206265203e20300000006044820152606401610152565b6000600654600454856105b49190610f4f565b6105be9190610f66565b905060006105cc8285610f3c565b336000908152600760205260408120805492935087929091906105f0908490610f3c565b9250508190555084600660008282546106099190610f3c565b9250508190555081600460008282546106229190610f3c565b909155505060055481111561063b576000600555610653565b806005600082825461064d9190610f3c565b90915550505b600154600160a01b900460ff161561076357834710156106c85760405162461bcd60e51b815260206004820152602a60248201527f496e73756666696369656e74206e617469766520746f6b656e2062616c616e6360448201526919481a5b881d985d5b1d60b21b6064820152608401610152565b60405160009081903390620186a090889084818181858888f193505050503d8060008114610712576040519150601f19603f3d011682016040523d82523d6000602084013e610717565b606091505b5091509150818160405160200161072e9190610fbf565b6040516020818303038152906040529061075b5760405162461bcd60e51b81526004016101529190611004565b50505061077a565b60015461077a906001600160a01b03163386610c34565b604080518681526020810186905233917f92ccf450a286a957af52509bc1c9939d1a6a481783e142e41e2499f0bb66ebc6910160405180910390a25050506107c26001600055565b919050565b600154600090600160a01b900460ff16156107e157504790565b6001546040516370a0823160e01b81523060048201526001600160a01b03909116906370a0823190602401602060405180830381865afa158015610829573d6000803e3d6000fd5b505050506040513d601f19601f8201168201806040525081019061084d9190611037565b905090565b600080600080610860610c98565b90506004549350806005546108759190610f88565b9250806005546004546108889190610f88565b6108929190610f88565b915050909192565b60006108a4610c0a565b6108ac61033b565b600154600090600160a01b900460ff161561091857600034116109115760405162461bcd60e51b815260206004820152601a60248201527f4d757374206465706f736974206e617469766520746f6b656e730000000000006044820152606401610152565b50346109d8565b6000831161095e5760405162461bcd60e51b81526020600482015260136024820152724d757374206465706f73697420746f6b656e7360681b6044820152606401610152565b34156109bd5760405162461bcd60e51b815260206004820152602860248201527f446f206e6f742073656e64206e617469766520746f6b656e7320746f204552436044820152670c8c081d985d5b1d60c21b6064820152608401610152565b5060015482906109d8906001600160a01b0316333084610d07565b6006546000036109ea57809150610a1b565b60006005546004546109fc9190610f88565b90508060065483610a0d9190610f4f565b610a179190610f66565b9250505b60008211610a6b5760405162461bcd60e51b815260206004820152601960248201527f536861726573206d696e746564206d757374206265203e2030000000000000006044820152606401610152565b3360009081526007602052604081208054849290610a8a908490610f88565b925050819055508160066000828254610aa39190610f88565b925050819055508060046000828254610abc9190610f88565b9091555050604080518281526020810184905233917f73a19dd210f1a7f902193214c0ee91dd35ee5b4d920cba8d519eca65a7b488ca910160405180910390a2506107c26001600055565b6000600654600003610b205750670de0b6b3a764000090565b6000610b2a610c98565b9050600081600554600454610b3f9190610f88565b610b499190610f88565b600654909150610b61670de0b6b3a764000083610f4f565b610b6b9190610f66565b9250505090565b6001600160a01b0381166000908152600760205260408120541580610b975750600654155b15610ba457506000919050565b6000610bae610c98565b9050600081600554600454610bc39190610f88565b610bcd9190610f88565b6006546001600160a01b03861660009081526007602052604090205491925090610bf8908390610f4f565b610c029190610f66565b949350505050565b600260005403610c2d57604051633ee5aeb560e01b815260040160405180910390fd5b6002600055565b6040516001600160a01b03838116602483015260448201839052610c9391859182169063a9059cbb906064015b604051602081830303815290604052915060e01b6020820180516001600160e01b038381831617835250505050610d46565b505050565b6000600454600003610caa5750600090565b600060035442610cba9190610f3c565b905080600003610ccc57600091505090565b610cdc6301e13380612710610f4f565b81600254600454610ced9190610f4f565b610cf79190610f4f565b610d019190610f66565b91505090565b6040516001600160a01b038481166024830152838116604483015260648201839052610d409186918216906323b872dd90608401610c61565b50505050565b6000610d5b6001600160a01b03841683610da9565b90508051600014158015610d80575080806020019051810190610d7e9190611050565b155b15610c9357604051635274afe760e01b81526001600160a01b0384166004820152602401610152565b6060610db783836000610dc0565b90505b92915050565b606081471015610de55760405163cd78605960e01b8152306004820152602401610152565b600080856001600160a01b03168486604051610e019190611072565b60006040518083038185875af1925050503d8060008114610e3e576040519150601f19603f3d011682016040523d82523d6000602084013e610e43565b606091505b5091509150610e53868383610e5f565b925050505b9392505050565b606082610e7457610e6f82610ebb565b610e58565b8151158015610e8b57506001600160a01b0384163b155b15610eb457604051639996b31560e01b81526001600160a01b0385166004820152602401610152565b5080610e58565b805115610ecb5780518082602001fd5b604051630a12f52160e11b815260040160405180910390fd5b600060208284031215610ef657600080fd5b5035919050565b600060208284031215610f0f57600080fd5b81356001600160a01b0381168114610e5857600080fd5b634e487b7160e01b600052601160045260246000fd5b81810381811115610dba57610dba610f26565b8082028115828204841417610dba57610dba610f26565b600082610f8357634e487b7160e01b600052601260045260246000fd5b500490565b80820180821115610dba57610dba610f26565b60005b83811015610fb6578181015183820152602001610f9e565b50506000910152565b7f4e617469766520746f6b656e207472616e73666572206661696c65643a200000815260008251610ff781601e850160208701610f9b565b91909101601e0192915050565b6020815260008251806020840152611023816040850160208701610f9b565b601f01601f19169190910160400192915050565b60006020828403121561104957600080fd5b5051919050565b60006020828403121561106257600080fd5b81518015158114610e5857600080fd5b60008251611084818460208701610f9b565b919091019291505056fea2646970667358221220326dfc017da851f0365e8e3f271cec14a117e22caf6b9c9e7d20f55500f19dfd64736f6c63430008140033",
  "devdoc": {
    "details": "Supports both native tokens (cBTC) and ERC20 tokens (CUSD)      Uses share-based accounting where exchange rate increases over time",
    "errors": {
      "AddressEmptyCode(address)": [
        {
          "details": "There's no code at `target` (it is not a contract)."
        }
      ],
      "AddressInsufficientBalance(address)": [
        {
          "details": "The ETH balance of the account is not enough to perform the operation."
        }
      ],
      "FailedInnerCall()": [
        {
          "details": "A call to an address target failed. The target may have reverted."
        }
      ],
      "ReentrancyGuardReentrantCall()": [
        {
          "details": "Unauthorized reentrant call."
        }
      ],
      "SafeERC20FailedOperation(address)": [
        {
          "details": "An operation with an ERC20 token failed."
        }
      ]
    },
    "kind": "dev",
    "methods": {
      "accrueYield()": {
        "details": "Can be called by anyone to update yield"
      },
      "constructor": {
        "params": {
          "_baseAPY": "Base APY scaled by 100 (e.g., 500 = 5.00%)",
          "_isNativeToken": "Whether this vault uses native token",
          "_tokenAddress": "Address of the ERC20 token (address(0) for native token)"
        }
      },
      "deposit(uint256)": {
        "details": "For native token: uses msg.value, amount parameter ignored      For ERC20: transfers amount from user",
        "params": {
          "amount": "Amount of ERC20 tokens to deposit (ignored for native)"
        },
        "returns": {
          "sharesAmount": "Number of shares minted"
        }
      },
      "getBalance(address)": {
        "params": {
          "user": "Address of the user"
        },
        "returns": {
          "balance": "Current token balance including accrued yield"
        }
      },
      "getContractBalance()": {
        "returns": {
          "balance": "Contract balance in tokens"
        }
      },
      "getExchangeRate()": {
        "details": "Scaled by PRECISION (1e18)",
        "returns": {
          "rate": "Exchange rate  1e18"
        }
      },
      "getVaultStats()": {
        "returns": {
          "deposits": "Total deposits (principal only)",
          "value": "Total vault value (deposits + yield)",
          "yield": "Total yield accrued"
        }
      },
      "withdraw(uint256)": {
        "params": {
          "sharesToBurn": "Number of shares to burn"
        },
        "returns": {
          "withdrawAmount": "Amount of tokens returned (principal + yield)"
        }
      }
    },
    "title": "MockYieldVault",
    "version": 1
  },
  "userdoc": {
    "kind": "user",
    "methods": {
      "accrueYield()": {
        "notice": "Accrues yield based on time elapsed"
      },
      "baseAPY()": {
        "notice": "Base APY scaled by 100 (e.g., 500 = 5.00%, 300 = 3.00%)"
      },
      "constructor": {
        "notice": "Creates a new yield vault"
      },
      "deposit(uint256)": {
        "notice": "Deposits tokens and mints shares"
      },
      "getBalance(address)": {
        "notice": "Gets current balance (principal + yield) for a user"
      },
      "getContractBalance()": {
        "notice": "Gets the contract's current token balance"
      },
      "getExchangeRate()": {
        "notice": "Gets the current exchange rate (tokens per share)"
      },
      "getVaultStats()": {
        "notice": "Gets vault statistics"
      },
      "isNativeToken()": {
        "notice": "Whether this vault uses native token (true) or ERC20 (false)"
      },
      "lastAccrualTime()": {
        "notice": "Last time yield was accrued"
      },
      "shares(address)": {
        "notice": "Mapping of user addresses to their vault shares"
      },
      "tokenAddress()": {
        "notice": "Address of the ERC20 token (address(0) if native token)"
      },
      "totalDeposits()": {
        "notice": "Total tokens deposited (principal only, excludes yield)"
      },
      "totalShares()": {
        "notice": "Total vault shares in circulation"
      },
      "totalYield()": {
        "notice": "Total yield accrued"
      },
      "withdraw(uint256)": {
        "notice": "Withdraws tokens by burning shares"
      }
    },
    "notice": "Mock yield-generating vault for demo purposes (simulates AAVE-like behavior)",
    "version": 1
  },
  "storageLayout": {
    "storage": [
      {
        "astId": 1375,
        "contract": "contracts/mocks/MockYieldVault.sol:MockYieldVault",
        "label": "_status",
        "offset": 0,
        "slot": "0",
        "type": "t_uint256"
      },
      {
        "astId": 1578,
        "contract": "contracts/mocks/MockYieldVault.sol:MockYieldVault",
        "label": "tokenAddress",
        "offset": 0,
        "slot": "1",
        "type": "t_address"
      },
      {
        "astId": 1582,
        "contract": "contracts/mocks/MockYieldVault.sol:MockYieldVault",
        "label": "isNativeToken",
        "offset": 20,
        "slot": "1",
        "type": "t_bool"
      },
      {
        "astId": 1586,
        "contract": "contracts/mocks/MockYieldVault.sol:MockYieldVault",
        "label": "baseAPY",
        "offset": 0,
        "slot": "2",
        "type": "t_uint256"
      },
      {
        "astId": 1589,
        "contract": "contracts/mocks/MockYieldVault.sol:MockYieldVault",
        "label": "lastAccrualTime",
        "offset": 0,
        "slot": "3",
        "type": "t_uint256"
      },
      {
        "astId": 1592,
        "contract": "contracts/mocks/MockYieldVault.sol:MockYieldVault",
        "label": "totalDeposits",
        "offset": 0,
        "slot": "4",
        "type": "t_uint256"
      },
      {
        "astId": 1595,
        "contract": "contracts/mocks/MockYieldVault.sol:MockYieldVault",
        "label": "totalYield",
        "offset": 0,
        "slot": "5",
        "type": "t_uint256"
      },
      {
        "astId": 1599,
        "contract": "contracts/mocks/MockYieldVault.sol:MockYieldVault",
        "label": "totalShares",
        "offset": 0,
        "slot": "6",
        "type": "t_uint256"
      },
      {
        "astId": 1605,
        "contract": "contracts/mocks/MockYieldVault.sol:MockYieldVault",
        "label": "shares",
        "offset": 0,
        "slot": "7",
        "type": "t_mapping(t_address,t_uint256)"
      }
    ],
    "types": {
      "t_address": {
        "encoding": "inplace",
        "label": "address",
        "numberOfBytes": "20"
      },
      "t_bool": {
        "encoding": "inplace",
        "label": "bool",
        "numberOfBytes": "1"
      },
      "t_mapping(t_address,t_uint256)": {
        "encoding": "mapping",
        "key": "t_address",
        "label": "mapping(address => uint256)",
        "numberOfBytes": "32",
        "value": "t_uint256"
      },
      "t_uint256": {
        "encoding": "inplace",
        "label": "uint256",
        "numberOfBytes": "32"
      }
    }
  }
}