{
  "address": "0xB86F87384442d9fAE87769c46126fAe912dB5632",
  "abi": [
    {
      "inputs": [],
      "stateMutability": "nonpayable",
      "type": "constructor"
    },
    {
      "inputs": [],
      "name": "EnforcedPause",
      "type": "error"
    },
    {
      "inputs": [],
      "name": "ExpectedPause",
      "type": "error"
    },
    {
      "inputs": [],
      "name": "ReentrancyGuardReentrantCall",
      "type": "error"
    },
    {
      "anonymous": false,
      "inputs": [
        {
          "indexed": false,
          "internalType": "uint8",
          "name": "round",
          "type": "uint8"
        }
      ],
      "name": "AllMembersContributed",
      "type": "event"
    },
    {
      "anonymous": false,
      "inputs": [
        {
          "indexed": true,
          "internalType": "address",
          "name": "member",
          "type": "address"
        },
        {
          "indexed": false,
          "internalType": "uint8",
          "name": "round",
          "type": "uint8"
        },
        {
          "indexed": false,
          "internalType": "uint256",
          "name": "amount",
          "type": "uint256"
        }
      ],
      "name": "ContributionMade",
      "type": "event"
    },
    {
      "anonymous": false,
      "inputs": [
        {
          "indexed": true,
          "internalType": "address",
          "name": "member",
          "type": "address"
        },
        {
          "indexed": true,
          "internalType": "address",
          "name": "invitedBy",
          "type": "address"
        }
      ],
      "name": "MemberInvited",
      "type": "event"
    },
    {
      "anonymous": false,
      "inputs": [
        {
          "indexed": true,
          "internalType": "address",
          "name": "member",
          "type": "address"
        },
        {
          "indexed": false,
          "internalType": "uint256",
          "name": "timestamp",
          "type": "uint256"
        }
      ],
      "name": "MemberJoined",
      "type": "event"
    },
    {
      "anonymous": false,
      "inputs": [
        {
          "indexed": false,
          "internalType": "address",
          "name": "account",
          "type": "address"
        }
      ],
      "name": "Paused",
      "type": "event"
    },
    {
      "anonymous": false,
      "inputs": [
        {
          "indexed": true,
          "internalType": "address",
          "name": "recipient",
          "type": "address"
        },
        {
          "indexed": false,
          "internalType": "uint256",
          "name": "amount",
          "type": "uint256"
        },
        {
          "indexed": false,
          "internalType": "uint8",
          "name": "round",
          "type": "uint8"
        }
      ],
      "name": "PayoutTriggered",
      "type": "event"
    },
    {
      "anonymous": false,
      "inputs": [
        {
          "indexed": false,
          "internalType": "uint256",
          "name": "completionTime",
          "type": "uint256"
        }
      ],
      "name": "ROSCACompleted",
      "type": "event"
    },
    {
      "anonymous": false,
      "inputs": [
        {
          "indexed": true,
          "internalType": "address",
          "name": "circleId",
          "type": "address"
        },
        {
          "indexed": true,
          "internalType": "address",
          "name": "creator",
          "type": "address"
        },
        {
          "indexed": false,
          "internalType": "uint256",
          "name": "contributionAmount",
          "type": "uint256"
        }
      ],
      "name": "ROSCACreated",
      "type": "event"
    },
    {
      "anonymous": false,
      "inputs": [
        {
          "indexed": false,
          "internalType": "address[]",
          "name": "payoutOrder",
          "type": "address[]"
        },
        {
          "indexed": false,
          "internalType": "uint256",
          "name": "startTime",
          "type": "uint256"
        }
      ],
      "name": "ROSCAStarted",
      "type": "event"
    },
    {
      "anonymous": false,
      "inputs": [
        {
          "indexed": false,
          "internalType": "uint8",
          "name": "round",
          "type": "uint8"
        },
        {
          "indexed": false,
          "internalType": "uint256",
          "name": "startTime",
          "type": "uint256"
        }
      ],
      "name": "RoundStarted",
      "type": "event"
    },
    {
      "anonymous": false,
      "inputs": [
        {
          "indexed": false,
          "internalType": "address",
          "name": "account",
          "type": "address"
        }
      ],
      "name": "Unpaused",
      "type": "event"
    },
    {
      "inputs": [],
      "name": "CYCLE_DURATION",
      "outputs": [
        {
          "internalType": "uint256",
          "name": "",
          "type": "uint256"
        }
      ],
      "stateMutability": "view",
      "type": "function"
    },
    {
      "inputs": [],
      "name": "MAX_MEMBERS",
      "outputs": [
        {
          "internalType": "uint8",
          "name": "",
          "type": "uint8"
        }
      ],
      "stateMutability": "view",
      "type": "function"
    },
    {
      "inputs": [],
      "name": "MIN_MEMBERS",
      "outputs": [
        {
          "internalType": "uint8",
          "name": "",
          "type": "uint8"
        }
      ],
      "stateMutability": "view",
      "type": "function"
    },
    {
      "inputs": [],
      "name": "circleId",
      "outputs": [
        {
          "internalType": "address",
          "name": "",
          "type": "address"
        }
      ],
      "stateMutability": "view",
      "type": "function"
    },
    {
      "inputs": [],
      "name": "circleName",
      "outputs": [
        {
          "internalType": "string",
          "name": "",
          "type": "string"
        }
      ],
      "stateMutability": "view",
      "type": "function"
    },
    {
      "inputs": [],
      "name": "contribute",
      "outputs": [],
      "stateMutability": "payable",
      "type": "function"
    },
    {
      "inputs": [],
      "name": "contributionAmount",
      "outputs": [
        {
          "internalType": "uint256",
          "name": "",
          "type": "uint256"
        }
      ],
      "stateMutability": "view",
      "type": "function"
    },
    {
      "inputs": [],
      "name": "creator",
      "outputs": [
        {
          "internalType": "address",
          "name": "",
          "type": "address"
        }
      ],
      "stateMutability": "view",
      "type": "function"
    },
    {
      "inputs": [],
      "name": "currentRound",
      "outputs": [
        {
          "internalType": "uint8",
          "name": "",
          "type": "uint8"
        }
      ],
      "stateMutability": "view",
      "type": "function"
    },
    {
      "inputs": [],
      "name": "currentRoundPaidOut",
      "outputs": [
        {
          "internalType": "bool",
          "name": "",
          "type": "bool"
        }
      ],
      "stateMutability": "view",
      "type": "function"
    },
    {
      "inputs": [],
      "name": "currentRoundStartTime",
      "outputs": [
        {
          "internalType": "uint256",
          "name": "",
          "type": "uint256"
        }
      ],
      "stateMutability": "view",
      "type": "function"
    },
    {
      "inputs": [],
      "name": "everyonePaid",
      "outputs": [
        {
          "internalType": "bool",
          "name": "",
          "type": "bool"
        }
      ],
      "stateMutability": "view",
      "type": "function"
    },
    {
      "inputs": [],
      "name": "getBalance",
      "outputs": [
        {
          "internalType": "uint256",
          "name": "",
          "type": "uint256"
        }
      ],
      "stateMutability": "view",
      "type": "function"
    },
    {
      "inputs": [],
      "name": "getCurrentRecipient",
      "outputs": [
        {
          "internalType": "address",
          "name": "",
          "type": "address"
        }
      ],
      "stateMutability": "view",
      "type": "function"
    },
    {
      "inputs": [],
      "name": "getMemberCount",
      "outputs": [
        {
          "internalType": "uint256",
          "name": "",
          "type": "uint256"
        }
      ],
      "stateMutability": "view",
      "type": "function"
    },
    {
      "inputs": [],
      "name": "getMembers",
      "outputs": [
        {
          "internalType": "address[]",
          "name": "",
          "type": "address[]"
        }
      ],
      "stateMutability": "view",
      "type": "function"
    },
    {
      "inputs": [],
      "name": "getPayoutOrder",
      "outputs": [
        {
          "internalType": "address[]",
          "name": "",
          "type": "address[]"
        }
      ],
      "stateMutability": "view",
      "type": "function"
    },
    {
      "inputs": [],
      "name": "getRoundContributors",
      "outputs": [
        {
          "internalType": "address[]",
          "name": "",
          "type": "address[]"
        }
      ],
      "stateMutability": "view",
      "type": "function"
    },
    {
      "inputs": [
        {
          "internalType": "address",
          "name": "",
          "type": "address"
        },
        {
          "internalType": "uint8",
          "name": "",
          "type": "uint8"
        }
      ],
      "name": "hasPaid",
      "outputs": [
        {
          "internalType": "bool",
          "name": "",
          "type": "bool"
        }
      ],
      "stateMutability": "view",
      "type": "function"
    },
    {
      "inputs": [
        {
          "internalType": "address",
          "name": "",
          "type": "address"
        }
      ],
      "name": "hasReceivedPayout",
      "outputs": [
        {
          "internalType": "bool",
          "name": "",
          "type": "bool"
        }
      ],
      "stateMutability": "view",
      "type": "function"
    },
    {
      "inputs": [
        {
          "internalType": "address",
          "name": "_creator",
          "type": "address"
        },
        {
          "internalType": "address",
          "name": "_circleId",
          "type": "address"
        },
        {
          "internalType": "string",
          "name": "_circleName",
          "type": "string"
        },
        {
          "internalType": "uint256",
          "name": "_contributionAmount",
          "type": "uint256"
        },
        {
          "internalType": "address",
          "name": "_tokenAddress",
          "type": "address"
        },
        {
          "internalType": "bool",
          "name": "_isNativeToken",
          "type": "bool"
        }
      ],
      "name": "initialize",
      "outputs": [],
      "stateMutability": "nonpayable",
      "type": "function"
    },
    {
      "inputs": [
        {
          "internalType": "address",
          "name": "member",
          "type": "address"
        }
      ],
      "name": "inviteMember",
      "outputs": [],
      "stateMutability": "nonpayable",
      "type": "function"
    },
    {
      "inputs": [],
      "name": "isActive",
      "outputs": [
        {
          "internalType": "bool",
          "name": "",
          "type": "bool"
        }
      ],
      "stateMutability": "view",
      "type": "function"
    },
    {
      "inputs": [],
      "name": "isComplete",
      "outputs": [
        {
          "internalType": "bool",
          "name": "",
          "type": "bool"
        }
      ],
      "stateMutability": "view",
      "type": "function"
    },
    {
      "inputs": [
        {
          "internalType": "address",
          "name": "",
          "type": "address"
        }
      ],
      "name": "isInvited",
      "outputs": [
        {
          "internalType": "bool",
          "name": "",
          "type": "bool"
        }
      ],
      "stateMutability": "view",
      "type": "function"
    },
    {
      "inputs": [
        {
          "internalType": "address",
          "name": "",
          "type": "address"
        }
      ],
      "name": "isMember",
      "outputs": [
        {
          "internalType": "bool",
          "name": "",
          "type": "bool"
        }
      ],
      "stateMutability": "view",
      "type": "function"
    },
    {
      "inputs": [],
      "name": "isNativeToken",
      "outputs": [
        {
          "internalType": "bool",
          "name": "",
          "type": "bool"
        }
      ],
      "stateMutability": "view",
      "type": "function"
    },
    {
      "inputs": [],
      "name": "joinPool",
      "outputs": [],
      "stateMutability": "nonpayable",
      "type": "function"
    },
    {
      "inputs": [
        {
          "internalType": "uint256",
          "name": "",
          "type": "uint256"
        }
      ],
      "name": "members",
      "outputs": [
        {
          "internalType": "address",
          "name": "",
          "type": "address"
        }
      ],
      "stateMutability": "view",
      "type": "function"
    },
    {
      "inputs": [],
      "name": "pause",
      "outputs": [],
      "stateMutability": "nonpayable",
      "type": "function"
    },
    {
      "inputs": [],
      "name": "paused",
      "outputs": [
        {
          "internalType": "bool",
          "name": "",
          "type": "bool"
        }
      ],
      "stateMutability": "view",
      "type": "function"
    },
    {
      "inputs": [
        {
          "internalType": "uint256",
          "name": "",
          "type": "uint256"
        }
      ],
      "name": "payoutOrder",
      "outputs": [
        {
          "internalType": "address",
          "name": "",
          "type": "address"
        }
      ],
      "stateMutability": "view",
      "type": "function"
    },
    {
      "inputs": [],
      "name": "roscaStartTime",
      "outputs": [
        {
          "internalType": "uint256",
          "name": "",
          "type": "uint256"
        }
      ],
      "stateMutability": "view",
      "type": "function"
    },
    {
      "inputs": [],
      "name": "startNextRound",
      "outputs": [],
      "stateMutability": "nonpayable",
      "type": "function"
    },
    {
      "inputs": [
        {
          "internalType": "address[]",
          "name": "_payoutOrder",
          "type": "address[]"
        }
      ],
      "name": "startROSCA",
      "outputs": [],
      "stateMutability": "nonpayable",
      "type": "function"
    },
    {
      "inputs": [],
      "name": "tokenAddress",
      "outputs": [
        {
          "internalType": "address",
          "name": "",
          "type": "address"
        }
      ],
      "stateMutability": "view",
      "type": "function"
    },
    {
      "inputs": [
        {
          "internalType": "address",
          "name": "",
          "type": "address"
        }
      ],
      "name": "totalContributed",
      "outputs": [
        {
          "internalType": "uint256",
          "name": "",
          "type": "uint256"
        }
      ],
      "stateMutability": "view",
      "type": "function"
    },
    {
      "inputs": [],
      "name": "triggerPayout",
      "outputs": [],
      "stateMutability": "nonpayable",
      "type": "function"
    },
    {
      "inputs": [],
      "name": "unpause",
      "outputs": [],
      "stateMutability": "nonpayable",
      "type": "function"
    }
  ],
  "transactionHash": "0x6b64c5b33d0db9ffa7c7daa61c8cd760f1c8333b9cf06d737bc1d3903a5bf789",
  "args": [],
  "numDeployments": 1,
  "solcInputHash": "5826f86a7677600ec4f6d996ce30862e",
  "bytecode": "0x608060405234801561001057600080fd5b5060016000819055805460ff191690556010805462ff000019166201000017905561257b806100406000396000f3fe6080604052600436106102305760003560e01c80635fa0b65f1161012e578063a230c524116100ab578063cd421fbf1161006f578063cd421fbf14610673578063d7bb99ba1461068a578063d9a6722014610692578063ea0e35b1146106a7578063eca42fba146106bc57600080fd5b8063a230c524146105cc578063a9e6c7fb146105fc578063b2fa1c9e14610612578063c30db74614610631578063cccf25601461065157600080fd5b8063997072f7116100f2578063997072f7146105345780639af4ee7e146105495780639d76ea581461056a5780639eab52531461058a578063a0f243b81461059f57600080fd5b80635fa0b65f146104b357806362a4e0f1146104c95780638371e6b4146104de5780638456cb59146104f35780638a19c8bc1461050857600080fd5b80632f890b93116101bc5780633f4ba83a116101805780633f4ba83a1461042f57806343662f4e1461044457806359bbcb3d146104665780635c975abb1461047b5780635daf08ca1461049357600080fd5b80632f890b9314610379578063346477c714610399578063380dd901146103c95780633c3ccc44146103df5780633f08399c146103f457600080fd5b806312065fe01161020357806312065fe0146102dd57806316d3a990146102fa578063194e36f51461031a5780631dcbe5001461032f57806322f3e2d41461035f57600080fd5b806302d05d3f1461023557806305a95f0414610277578063063fcfcc1461028e5780630b529a17146102bd575b600080fd5b34801561024157600080fd5b5060015461025a9061010090046001600160a01b031681565b6040516001600160a01b0390911681526020015b60405180910390f35b34801561028357600080fd5b5061028c6106dc565b005b34801561029a57600080fd5b50600b546102ad90610100900460ff1681565b604051901515815260200161026e565b3480156102c957600080fd5b5061025a6102d8366004611fdd565b61098f565b3480156102e957600080fd5b50475b60405190815260200161026e565b34801561030657600080fd5b5061028c610315366004612044565b6109b9565b34801561032657600080fd5b5061025a610ca3565b34801561033b57600080fd5b506102ad61034a366004612140565b60086020526000908152604090205460ff1681565b34801561036b57600080fd5b506010546102ad9060ff1681565b34801561038557600080fd5b5061028c610394366004612140565b610d0b565b3480156103a557600080fd5b506102ad6103b4366004612140565b600c6020526000908152604090205460ff1681565b3480156103d557600080fd5b506102ec600f5481565b3480156103eb57600080fd5b5061028c610e94565b34801561040057600080fd5b506102ad61040f36600461215b565b600d60209081526000928352604080842090915290825290205460ff1681565b34801561043b57600080fd5b5061028c6110c7565b34801561045057600080fd5b506104596110fe565b60405161026e9190612198565b34801561047257600080fd5b506102ad611160565b34801561048757600080fd5b5060015460ff166102ad565b34801561049f57600080fd5b5061025a6104ae366004611fdd565b61116f565b3480156104bf57600080fd5b506102ec60055481565b3480156104d557600080fd5b5061045961117f565b3480156104ea57600080fd5b5061028c61132d565b3480156104ff57600080fd5b5061028c6114c0565b34801561051457600080fd5b50600b546105229060ff1681565b60405160ff909116815260200161026e565b34801561054057600080fd5b506006546102ec565b34801561055557600080fd5b506004546102ad90600160a01b900460ff1681565b34801561057657600080fd5b5060045461025a906001600160a01b031681565b34801561059657600080fd5b506104596114f7565b3480156105ab57600080fd5b506102ec6105ba366004612140565b60096020526000908152604090205481565b3480156105d857600080fd5b506102ad6105e7366004612140565b60076020526000908152604090205460ff1681565b34801561060857600080fd5b506102ec600e5481565b34801561061e57600080fd5b506010546102ad90610100900460ff1681565b34801561063d57600080fd5b5060025461025a906001600160a01b031681565b34801561065d57600080fd5b50610666611557565b60405161026e91906121e5565b34801561067f57600080fd5b506102ec62278d0081565b61028c6115e5565b34801561069e57600080fd5b50610522600581565b3480156106b357600080fd5b50610522600c81565b3480156106c857600080fd5b5061028c6106d7366004612233565b611859565b60105460ff1680156106f65750601054610100900460ff16155b6107395760405162461bcd60e51b815260206004820152600f60248201526e506f6f6c206e6f742061637469766560881b60448201526064015b60405180910390fd5b610741611a24565b610749611a48565b610751611a72565b6107955760405162461bcd60e51b8152602060048201526015602482015274139bdd08195d995c9e5bdb99481a185cc81c185a59605a1b6044820152606401610730565b600b54610100900460ff16156107e65760405162461bcd60e51b8152602060048201526016602482015275149bdd5b9908185b1c9958591e481c185a59081bdd5d60521b6044820152606401610730565b600b54600090600a906107fe9060019060ff166122be565b60ff1681548110610811576108116122dd565b6000918252602090912001546001600160a01b031690503381146108775760405162461bcd60e51b815260206004820152601f60248201527f4f6e6c7920726563697069656e742063616e20636c61696d207061796f7574006044820152606401610730565b600b805461ff0019166101001790556001600160a01b0381166000908152600c60205260408120805460ff191660011790556006546005546108b991906122f3565b6004549091506108df906001600160a01b03811690600160a01b900460ff168484611af3565b600b546040805183815260ff90921660208301526001600160a01b038416917f882acae0bded9e8351bc191c3a610fdfdfc5c20f670b69c7569ae0fbdeda81b8910160405180910390a2600654600b5460ff1610610981576010805461ffff19166101001790556040517fd57799724d5c069e66abd552aca9bc70e8f36d98f34d0d84841983bc469a4e4a906109789042815260200190565b60405180910390a15b505061098d6001600055565b565b600a818154811061099f57600080fd5b6000918252602090912001546001600160a01b0316905081565b60105462010000900460ff1615610a085760405162461bcd60e51b8152602060048201526013602482015272105b1c9958591e481a5b9a5d1a585b1a5e9959606a1b6044820152606401610730565b6010805462ff000019166201000017905582610a665760405162461bcd60e51b815260206004820152601b60248201527f496e76616c696420636f6e747269627574696f6e20616d6f756e7400000000006044820152606401610730565b8015610adc576001600160a01b03821615610ad75760405162461bcd60e51b815260206004820152602b60248201527f546f6b656e2061646472657373206d757374206265207a65726f20666f72206e60448201526a30ba34bb32903a37b5b2b760a91b6064820152608401610730565b610b32565b6001600160a01b038216610b325760405162461bcd60e51b815260206004820152601f60248201527f496e76616c696420746f6b656e206164647265737320666f72204552433230006044820152606401610730565b60018054610100600160a81b0319166101006001600160a01b038981169190910291909117909155600280546001600160a01b0319169187169190911790556003610b7d8582612392565b506005839055600480546001600160a01b038481166001600160a81b031990921691909117600160a01b84151502179091556006805460018181019092557ff652222313e28459528d920b65115c16c04f3efc82aaedc97be59f3f377c0d3f0180546001600160a01b0319168984169081179091556000818152600760209081526040808320805460ff19908116871790915560088352928190208054909316909417909155915186815290928816917f8e5acdd034f8bf8fded53cd37f8b0cb6a72b385988e92dc71f664f5dfcfcd8a7910160405180910390a3856001600160a01b03167f7f3b9effe05cfb4f31f854004de03199fd03fe56bf38a48b2aa9a9f4402d6e2342604051610c9391815260200190565b60405180910390a2505050505050565b600b5460009060ff161580610cbe5750600a54600b5460ff16115b15610cc95750600090565b600b54600a90610cde9060019060ff166122be565b60ff1681548110610cf157610cf16122dd565b6000918252602090912001546001600160a01b0316919050565b60015461010090046001600160a01b03163314610d3a5760405162461bcd60e51b815260040161073090612452565b610d42611a24565b60105460ff1615610d955760405162461bcd60e51b815260206004820181905260248201527f43616e6e6f7420696e7669746520616674657220524f534341207374617274736044820152606401610730565b6001600160a01b03811660009081526008602052604090205460ff1615610df05760405162461bcd60e51b815260206004820152600f60248201526e105b1c9958591e481a5b9d9a5d1959608a1b6044820152606401610730565b600654600c11610e385760405162461bcd60e51b815260206004820152601360248201527213585e081b595b58995c9cc81c995858da1959606a1b6044820152606401610730565b6001600160a01b03808216600081815260086020526040808220805460ff19166001908117909155549051610100909104909316927f6c246c8894ac239253d22cd508dbe8eb7e027e0589cdd4ff16dbb4238ccd98349190a350565b3360009081526007602052604090205460ff16610ee25760405162461bcd60e51b815260206004820152600c60248201526b2737ba10309036b2b6b132b960a11b6044820152606401610730565b610eea611a24565b60105460ff168015610f045750601054610100900460ff16155b610f435760405162461bcd60e51b815260206004820152601060248201526f524f534341206e6f742061637469766560801b6044820152606401610730565b600b54610100900460ff16610f9a5760405162461bcd60e51b815260206004820152601a60248201527f43757272656e7420726f756e64206e6f742070616964206f75740000000000006044820152606401610730565b600654600b5460ff1610610fe65760405162461bcd60e51b8152602060048201526013602482015272416c6c20726f756e647320636f6d706c65746560681b6044820152606401610730565b62278d00600f54610ff79190612489565b4210156110465760405162461bcd60e51b815260206004820152601960248201527f33302d646179206379636c65206e6f7420636f6d706c657465000000000000006044820152606401610730565b600b805460ff169060006110598361249c565b82546101009290920a60ff81810219909316918316021790915542600f819055600b805461ff001981169091556040805191909316815260208101919091527ff7104ec8d70cbee7bb54da17843aa32c11b77c11c6197f005ec8b2b4f5de69589250015b60405180910390a1565b60015461010090046001600160a01b031633146110f65760405162461bcd60e51b815260040161073090612452565b61098d611c0f565b6060600a80548060200260200160405190810160405280929190818152602001828054801561115657602002820191906000526020600020905b81546001600160a01b03168152600190910190602001808311611138575b5050505050905090565b600061116a611a72565b905090565b6006818154811061099f57600080fd5b60606000805b60065481101561120157600d6000600683815481106111a6576111a66122dd565b60009182526020808320909101546001600160a01b031683528281019390935260409182018120600b5460ff90811683529352205416156111ef57816111eb816124bb565b9250505b806111f9816124bb565b915050611185565b5060008167ffffffffffffffff81111561121d5761121d612012565b604051908082528060200260200182016040528015611246578160200160208202803683370190505b5090506000805b60065481101561132457600d60006006838154811061126e5761126e6122dd565b60009182526020808320909101546001600160a01b031683528281019390935260409182018120600b5460ff908116835293522054161561131257600681815481106112bc576112bc6122dd565b9060005260206000200160009054906101000a90046001600160a01b03168383815181106112ec576112ec6122dd565b6001600160a01b03909216602092830291909101909101528161130e816124bb565b9250505b8061131c816124bb565b91505061124d565b50909392505050565b3360009081526008602052604090205460ff1661137a5760405162461bcd60e51b815260206004820152600b60248201526a139bdd081a5b9d9a5d195960aa1b6044820152606401610730565b611382611a24565b60105460ff16156113d55760405162461bcd60e51b815260206004820152601e60248201527f43616e6e6f74206a6f696e20616674657220524f5343412073746172747300006044820152606401610730565b3360009081526007602052604090205460ff16156114285760405162461bcd60e51b815260206004820152601060248201526f20b63932b0b23c90309036b2b6b132b960811b6044820152606401610730565b6006805460018181019092557ff652222313e28459528d920b65115c16c04f3efc82aaedc97be59f3f377c0d3f0180546001600160a01b0319163390811790915560008181526007602052604090819020805460ff191690931790925590517f7f3b9effe05cfb4f31f854004de03199fd03fe56bf38a48b2aa9a9f4402d6e23906114b69042815260200190565b60405180910390a2565b60015461010090046001600160a01b031633146114ef5760405162461bcd60e51b815260040161073090612452565b61098d611c5c565b60606006805480602002602001604051908101604052809291908181526020018280548015611156576020028201919060005260206000209081546001600160a01b03168152600190910190602001808311611138575050505050905090565b600380546115649061230a565b80601f01602080910402602001604051908101604052809291908181526020018280546115909061230a565b80156115dd5780601f106115b2576101008083540402835291602001916115dd565b820191906000526020600020905b8154815290600101906020018083116115c057829003601f168201915b505050505081565b3360009081526007602052604090205460ff166116335760405162461bcd60e51b815260206004820152600c60248201526b2737ba10309036b2b6b132b960a11b6044820152606401610730565b60105460ff16801561164d5750601054610100900460ff16155b61168b5760405162461bcd60e51b815260206004820152600f60248201526e506f6f6c206e6f742061637469766560881b6044820152606401610730565b611693611a24565b61169b611a48565b336000908152600d60209081526040808320600b5460ff908116855292529091205416156117015760405162461bcd60e51b8152602060048201526013602482015272105b1c9958591e4818dbdb9d1c9a589d5d1959606a1b6044820152606401610730565b600654600b5460ff16111561174e5760405162461bcd60e51b8152602060048201526013602482015272416c6c20726f756e647320636f6d706c65746560681b6044820152606401610730565b336000818152600d60209081526040808320600b5460ff1684528252808320805460ff19166001179055600554938352600990915281208054909190611795908490612489565b90915550506004546005546117c0916001600160a01b03811691600160a01b90910460ff1690611c97565b50600b546005546040805160ff9093168352602083019190915233917fe18ade3c83eb782f6b575ec07c91d1dce24ca2893272cabc5d86e759110d3b65910160405180910390a261180f611a72565b1561184f57600b5460405160ff90911681527f78a0925e040149ea78c23d3aabf9577f31cb0afe2252a07da3322fb93f9c697d9060200160405180910390a15b61098d6001600055565b60015461010090046001600160a01b031633146118885760405162461bcd60e51b815260040161073090612452565b611890611a24565b60105460ff16156118d55760405162461bcd60e51b815260206004820152600f60248201526e105b1c9958591e481cdd185c9d1959608a1b6044820152606401610730565b6006546005111561191d5760405162461bcd60e51b81526020600482015260126024820152714e6f7420656e6f756768206d656d6265727360701b6044820152606401610730565b600654811461196e5760405162461bcd60e51b815260206004820152601b60248201527f496e76616c6964207061796f7574206f72646572206c656e67746800000000006044820152606401610730565b6119788282611db2565b611984600a8383611f65565b5060108054600160ff199182168117909255600b8054909116909117905542600e819055600f8190556040517f7e680909351c6b66c0ef9f13e0724b2785bb330a595466a2b2bf175f69df01e8916119df91859185916124d4565b60405180910390a160408051600181524260208201527ff7104ec8d70cbee7bb54da17843aa32c11b77c11c6197f005ec8b2b4f5de6958910160405180910390a15050565b60015460ff161561098d5760405163d93c066560e01b815260040160405180910390fd5b600260005403611a6b57604051633ee5aeb560e01b815260040160405180910390fd5b6002600055565b6000805b600654811015611aeb57600d600060068381548110611a9757611a976122dd565b60009182526020808320909101546001600160a01b031683528281019390935260409182018120600b5460ff90811683529352205416611ad957600091505090565b80611ae3816124bb565b915050611a76565b506001905090565b8215611b94576000826001600160a01b03168260405160006040518083038185875af1925050503d8060008114611b46576040519150601f19603f3d011682016040523d82523d6000602084013e611b4b565b606091505b5050905080611b8e5760405162461bcd60e51b815260206004820152600f60248201526e151c985b9cd9995c8819985a5b1959608a1b6044820152606401610730565b50611c09565b60405163a9059cbb60e01b81526001600160a01b0383811660048301526024820183905285169063a9059cbb906044016020604051808303816000875af1158015611be3573d6000803e3d6000fd5b505050506040513d601f19601f82011682018060405250810190611c079190612528565b505b50505050565b611c17611f42565b6001805460ff191690557f5db9ee0a495bf2e6ff9c91a7834c1ba4fdd244a5e8aa4e537bd38aeae4b073aa335b6040516001600160a01b0390911681526020016110bd565b611c64611a24565b6001805460ff1916811790557f62e78cea01bee320cd4e420270b5ea74000d11b0c9f74754ebdbfc544b05a25833611c44565b60008215611cef5760003411611ce85760405162461bcd60e51b815260206004820152601660248201527526bab9ba1039b2b732103730ba34bb32903a37b5b2b760511b6044820152606401610730565b5034611dab565b3415611d2f5760405162461bcd60e51b815260206004820152600f60248201526e2737903730ba34bb32903a37b5b2b760891b6044820152606401610730565b6040516323b872dd60e01b8152336004820152306024820152604481018390526001600160a01b038516906323b872dd906064016020604051808303816000875af1158015611d82573d6000803e3d6000fd5b505050506040513d601f19601f82011682018060405250810190611da69190612528565b508190505b9392505050565b60005b81811015611f3d576000838383818110611dd157611dd16122dd565b9050602002016020810190611de69190612140565b6001600160a01b03811660009081526007602052604090205490915060ff16611e515760405162461bcd60e51b815260206004820181905260248201527f5061796f7574206f7264657220636f6e7461696e73206e6f6e2d6d656d6265726044820152606401610730565b6000611e5e836001612489565b90505b83811015611f2857848482818110611e7b57611e7b6122dd565b9050602002016020810190611e909190612140565b6001600160a01b0316858585818110611eab57611eab6122dd565b9050602002016020810190611ec09190612140565b6001600160a01b031603611f165760405162461bcd60e51b815260206004820152601960248201527f4475706c696361746520696e207061796f7574206f72646572000000000000006044820152606401610730565b80611f20816124bb565b915050611e61565b50508080611f35906124bb565b915050611db5565b505050565b60015460ff1661098d57604051638dfc202b60e01b815260040160405180910390fd5b828054828255906000526020600020908101928215611fb8579160200282015b82811115611fb85781546001600160a01b0319166001600160a01b03843516178255602090920191600190910190611f85565b50611fc4929150611fc8565b5090565b5b80821115611fc45760008155600101611fc9565b600060208284031215611fef57600080fd5b5035919050565b80356001600160a01b038116811461200d57600080fd5b919050565b634e487b7160e01b600052604160045260246000fd5b801515811461203657600080fd5b50565b803561200d81612028565b60008060008060008060c0878903121561205d57600080fd5b61206687611ff6565b955061207460208801611ff6565b9450604087013567ffffffffffffffff8082111561209157600080fd5b818901915089601f8301126120a557600080fd5b8135818111156120b7576120b7612012565b604051601f8201601f19908116603f011681019083821181831017156120df576120df612012565b816040528281528c60208487010111156120f857600080fd5b8260208601602083013760006020848301015280985050505050506060870135925061212660808801611ff6565b915061213460a08801612039565b90509295509295509295565b60006020828403121561215257600080fd5b611dab82611ff6565b6000806040838503121561216e57600080fd5b61217783611ff6565b9150602083013560ff8116811461218d57600080fd5b809150509250929050565b6020808252825182820181905260009190848201906040850190845b818110156121d95783516001600160a01b0316835292840192918401916001016121b4565b50909695505050505050565b600060208083528351808285015260005b81811015612212578581018301518582016040015282016121f6565b506000604082860101526040601f19601f8301168501019250505092915050565b6000806020838503121561224657600080fd5b823567ffffffffffffffff8082111561225e57600080fd5b818501915085601f83011261227257600080fd5b81358181111561228157600080fd5b8660208260051b850101111561229657600080fd5b60209290920196919550909350505050565b634e487b7160e01b600052601160045260246000fd5b60ff82811682821603908111156122d7576122d76122a8565b92915050565b634e487b7160e01b600052603260045260246000fd5b80820281158282048414176122d7576122d76122a8565b600181811c9082168061231e57607f821691505b60208210810361233e57634e487b7160e01b600052602260045260246000fd5b50919050565b601f821115611f3d57600081815260208120601f850160051c8101602086101561236b5750805b601f850160051c820191505b8181101561238a57828155600101612377565b505050505050565b815167ffffffffffffffff8111156123ac576123ac612012565b6123c0816123ba845461230a565b84612344565b602080601f8311600181146123f557600084156123dd5750858301515b600019600386901b1c1916600185901b17855561238a565b600085815260208120601f198616915b8281101561242457888601518255948401946001909101908401612405565b50858210156124425787850151600019600388901b60f8161c191681555b5050505050600190811b01905550565b6020808252601a908201527f4f6e6c792063726561746f722063616e2063616c6c2074686973000000000000604082015260600190565b808201808211156122d7576122d76122a8565b600060ff821660ff81036124b2576124b26122a8565b60010192915050565b6000600182016124cd576124cd6122a8565b5060010190565b6040808252810183905260008460608301825b86811015612515576001600160a01b0361250084611ff6565b168252602092830192909101906001016124e7565b5060209390930193909352509392505050565b60006020828403121561253a57600080fd5b8151611dab8161202856fea264697066735822122054ac35e1dc4cd441a068e3b68eae821c11c8bdad789430ba566f47ff88eadafa64736f6c63430008140033",
  "devdoc": {
    "details": "Members contribute fixed amounts each round, one member receives the pot each round Payout order is provided off-chain by the creator for fairness and transparency",
    "errors": {
      "EnforcedPause()": [
        {
          "details": "The operation failed because the contract is paused."
        }
      ],
      "ExpectedPause()": [
        {
          "details": "The operation failed because the contract is not paused."
        }
      ],
      "ReentrancyGuardReentrantCall()": [
        {
          "details": "Unauthorized reentrant call."
        }
      ]
    },
    "events": {
      "Paused(address)": {
        "details": "Emitted when the pause is triggered by `account`."
      },
      "Unpaused(address)": {
        "details": "Emitted when the pause is lifted by `account`."
      }
    },
    "kind": "dev",
    "methods": {
      "constructor": {
        "details": "Prevents the implementation contract from being initialized"
      },
      "contribute()": {
        "details": "For ERC20: Member must have approved the contract to spend tokens before calling      For native token: Must send exact amount of native currency"
      },
      "everyonePaid()": {
        "returns": {
          "_0": "True if all members have contributed, false otherwise"
        }
      },
      "getBalance()": {
        "returns": {
          "_0": "Balance in wei"
        }
      },
      "getCurrentRecipient()": {
        "returns": {
          "_0": "Address of the member who should receive payout this round"
        }
      },
      "getMemberCount()": {
        "returns": {
          "_0": "Member count"
        }
      },
      "getMembers()": {
        "returns": {
          "_0": "Array of member addresses"
        }
      },
      "getPayoutOrder()": {
        "returns": {
          "_0": "Array of addresses in payout order"
        }
      },
      "getRoundContributors()": {
        "returns": {
          "_0": "Array of addresses who have paid"
        }
      },
      "initialize(address,address,string,uint256,address,bool)": {
        "details": "This replaces the constructor for cloned instances",
        "params": {
          "_circleId": "Address of the Lens.xyz circle contract",
          "_circleName": "Name of the circle",
          "_contributionAmount": "Fixed contribution amount per round",
          "_creator": "Address of the user creating the pool",
          "_isNativeToken": "Whether this pool uses native token (cBTC) or ERC20 token",
          "_tokenAddress": "Address of the ERC20 token to use for contributions (zero address if native)"
        }
      },
      "inviteMember(address)": {
        "details": "Only creator can invite, only before ROSCA starts",
        "params": {
          "member": "Address of the member to invite"
        }
      },
      "joinPool()": {
        "details": "Can only join before ROSCA starts"
      },
      "pause()": {
        "details": "Only creator can pause"
      },
      "paused()": {
        "details": "Returns true if the contract is paused, and false otherwise."
      },
      "startNextRound()": {
        "details": "Any member can call this after the 30-day cycle is complete"
      },
      "startROSCA(address[])": {
        "details": "Only creator can start, requires min members, payout order generated off-chain",
        "params": {
          "_payoutOrder": "Array of addresses defining payout order (must include all members exactly once)"
        }
      },
      "triggerPayout()": {
        "details": "Only the designated recipient can trigger their own payout Requires all members to have contributed for the current round"
      },
      "unpause()": {
        "details": "Only creator can unpause"
      }
    },
    "title": "ROSCAPool",
    "version": 1
  },
  "userdoc": {
    "kind": "user",
    "methods": {
      "CYCLE_DURATION()": {
        "notice": "Duration of each cycle/round in seconds (30 days)"
      },
      "MAX_MEMBERS()": {
        "notice": "Maximum number of members allowed in a ROSCA"
      },
      "MIN_MEMBERS()": {
        "notice": "Minimum number of members required to start a ROSCA"
      },
      "circleId()": {
        "notice": "Address of the Lens.xyz circle contract"
      },
      "circleName()": {
        "notice": "Human-readable name of the circle"
      },
      "constructor": {
        "notice": "Constructor for implementation contract"
      },
      "contribute()": {
        "notice": "Allows a member to contribute for the current round"
      },
      "contributionAmount()": {
        "notice": "Fixed contribution amount per round in wei"
      },
      "creator()": {
        "notice": "Address of the user who created this pool"
      },
      "currentRound()": {
        "notice": "Current round number (1-indexed)"
      },
      "currentRoundPaidOut()": {
        "notice": "Whether the current round's payout has been completed"
      },
      "currentRoundStartTime()": {
        "notice": "Timestamp when the current round started"
      },
      "everyonePaid()": {
        "notice": "Checks if everyone has paid for the current round"
      },
      "getBalance()": {
        "notice": "Gets the contract's current balance"
      },
      "getCurrentRecipient()": {
        "notice": "Gets the current round's recipient"
      },
      "getMemberCount()": {
        "notice": "Gets the total number of members"
      },
      "getMembers()": {
        "notice": "Gets all members"
      },
      "getPayoutOrder()": {
        "notice": "Gets the complete payout order"
      },
      "getRoundContributors()": {
        "notice": "Gets list of members who have contributed in the current round"
      },
      "hasPaid(address,uint8)": {
        "notice": "Tracks whether a member has paid for a specific round"
      },
      "hasReceivedPayout(address)": {
        "notice": "Mapping to track which members have received their payout"
      },
      "initialize(address,address,string,uint256,address,bool)": {
        "notice": "Initializes a new ROSCA pool clone"
      },
      "inviteMember(address)": {
        "notice": "Invites a new member to the ROSCA"
      },
      "isActive()": {
        "notice": "Whether the ROSCA is currently active"
      },
      "isComplete()": {
        "notice": "Whether the ROSCA has completed all rounds"
      },
      "isInvited(address)": {
        "notice": "Mapping to check if an address has been invited"
      },
      "isMember(address)": {
        "notice": "Mapping to check if an address is a member"
      },
      "isNativeToken()": {
        "notice": "Whether this pool uses native token (cBTC) or ERC20 token"
      },
      "joinPool()": {
        "notice": "Allows an invited member to join the pool"
      },
      "members(uint256)": {
        "notice": "Array of all members in the pool"
      },
      "pause()": {
        "notice": "Pauses the contract in case of emergency"
      },
      "payoutOrder(uint256)": {
        "notice": "Array defining the order in which members receive payouts"
      },
      "roscaStartTime()": {
        "notice": "Timestamp when the ROSCA was started"
      },
      "startNextRound()": {
        "notice": "Starts the next round after the cycle duration has passed"
      },
      "startROSCA(address[])": {
        "notice": "Starts the ROSCA with a provided payout order"
      },
      "tokenAddress()": {
        "notice": "Address of the ERC20 token used for contributions (zero address if native token)"
      },
      "totalContributed(address)": {
        "notice": "Total amount contributed by each member across all rounds"
      },
      "triggerPayout()": {
        "notice": "Triggers the payout for the current round"
      },
      "unpause()": {
        "notice": "Unpauses the contract"
      }
    },
    "notice": "Rotating Savings and Credit Association pool implementation",
    "version": 1
  },
  "storageLayout": {
    "storage": [
      {
        "astId": 1146,
        "contract": "contracts/pools/ROSCAPool.sol:ROSCAPool",
        "label": "_status",
        "offset": 0,
        "slot": "0",
        "type": "t_uint256"
      },
      {
        "astId": 1027,
        "contract": "contracts/pools/ROSCAPool.sol:ROSCAPool",
        "label": "_paused",
        "offset": 0,
        "slot": "1",
        "type": "t_bool"
      },
      {
        "astId": 3708,
        "contract": "contracts/pools/ROSCAPool.sol:ROSCAPool",
        "label": "creator",
        "offset": 1,
        "slot": "1",
        "type": "t_address"
      },
      {
        "astId": 3711,
        "contract": "contracts/pools/ROSCAPool.sol:ROSCAPool",
        "label": "circleId",
        "offset": 0,
        "slot": "2",
        "type": "t_address"
      },
      {
        "astId": 3714,
        "contract": "contracts/pools/ROSCAPool.sol:ROSCAPool",
        "label": "circleName",
        "offset": 0,
        "slot": "3",
        "type": "t_string_storage"
      },
      {
        "astId": 3717,
        "contract": "contracts/pools/ROSCAPool.sol:ROSCAPool",
        "label": "tokenAddress",
        "offset": 0,
        "slot": "4",
        "type": "t_address"
      },
      {
        "astId": 3720,
        "contract": "contracts/pools/ROSCAPool.sol:ROSCAPool",
        "label": "isNativeToken",
        "offset": 20,
        "slot": "4",
        "type": "t_bool"
      },
      {
        "astId": 3723,
        "contract": "contracts/pools/ROSCAPool.sol:ROSCAPool",
        "label": "contributionAmount",
        "offset": 0,
        "slot": "5",
        "type": "t_uint256"
      },
      {
        "astId": 3727,
        "contract": "contracts/pools/ROSCAPool.sol:ROSCAPool",
        "label": "members",
        "offset": 0,
        "slot": "6",
        "type": "t_array(t_address)dyn_storage"
      },
      {
        "astId": 3732,
        "contract": "contracts/pools/ROSCAPool.sol:ROSCAPool",
        "label": "isMember",
        "offset": 0,
        "slot": "7",
        "type": "t_mapping(t_address,t_bool)"
      },
      {
        "astId": 3737,
        "contract": "contracts/pools/ROSCAPool.sol:ROSCAPool",
        "label": "isInvited",
        "offset": 0,
        "slot": "8",
        "type": "t_mapping(t_address,t_bool)"
      },
      {
        "astId": 3742,
        "contract": "contracts/pools/ROSCAPool.sol:ROSCAPool",
        "label": "totalContributed",
        "offset": 0,
        "slot": "9",
        "type": "t_mapping(t_address,t_uint256)"
      },
      {
        "astId": 3746,
        "contract": "contracts/pools/ROSCAPool.sol:ROSCAPool",
        "label": "payoutOrder",
        "offset": 0,
        "slot": "10",
        "type": "t_array(t_address)dyn_storage"
      },
      {
        "astId": 3749,
        "contract": "contracts/pools/ROSCAPool.sol:ROSCAPool",
        "label": "currentRound",
        "offset": 0,
        "slot": "11",
        "type": "t_uint8"
      },
      {
        "astId": 3752,
        "contract": "contracts/pools/ROSCAPool.sol:ROSCAPool",
        "label": "currentRoundPaidOut",
        "offset": 1,
        "slot": "11",
        "type": "t_bool"
      },
      {
        "astId": 3757,
        "contract": "contracts/pools/ROSCAPool.sol:ROSCAPool",
        "label": "hasReceivedPayout",
        "offset": 0,
        "slot": "12",
        "type": "t_mapping(t_address,t_bool)"
      },
      {
        "astId": 3764,
        "contract": "contracts/pools/ROSCAPool.sol:ROSCAPool",
        "label": "hasPaid",
        "offset": 0,
        "slot": "13",
        "type": "t_mapping(t_address,t_mapping(t_uint8,t_bool))"
      },
      {
        "astId": 3767,
        "contract": "contracts/pools/ROSCAPool.sol:ROSCAPool",
        "label": "roscaStartTime",
        "offset": 0,
        "slot": "14",
        "type": "t_uint256"
      },
      {
        "astId": 3770,
        "contract": "contracts/pools/ROSCAPool.sol:ROSCAPool",
        "label": "currentRoundStartTime",
        "offset": 0,
        "slot": "15",
        "type": "t_uint256"
      },
      {
        "astId": 3773,
        "contract": "contracts/pools/ROSCAPool.sol:ROSCAPool",
        "label": "isActive",
        "offset": 0,
        "slot": "16",
        "type": "t_bool"
      },
      {
        "astId": 3776,
        "contract": "contracts/pools/ROSCAPool.sol:ROSCAPool",
        "label": "isComplete",
        "offset": 1,
        "slot": "16",
        "type": "t_bool"
      },
      {
        "astId": 3779,
        "contract": "contracts/pools/ROSCAPool.sol:ROSCAPool",
        "label": "initialized",
        "offset": 2,
        "slot": "16",
        "type": "t_bool"
      }
    ],
    "types": {
      "t_address": {
        "encoding": "inplace",
        "label": "address",
        "numberOfBytes": "20"
      },
      "t_array(t_address)dyn_storage": {
        "base": "t_address",
        "encoding": "dynamic_array",
        "label": "address[]",
        "numberOfBytes": "32"
      },
      "t_bool": {
        "encoding": "inplace",
        "label": "bool",
        "numberOfBytes": "1"
      },
      "t_mapping(t_address,t_bool)": {
        "encoding": "mapping",
        "key": "t_address",
        "label": "mapping(address => bool)",
        "numberOfBytes": "32",
        "value": "t_bool"
      },
      "t_mapping(t_address,t_mapping(t_uint8,t_bool))": {
        "encoding": "mapping",
        "key": "t_address",
        "label": "mapping(address => mapping(uint8 => bool))",
        "numberOfBytes": "32",
        "value": "t_mapping(t_uint8,t_bool)"
      },
      "t_mapping(t_address,t_uint256)": {
        "encoding": "mapping",
        "key": "t_address",
        "label": "mapping(address => uint256)",
        "numberOfBytes": "32",
        "value": "t_uint256"
      },
      "t_mapping(t_uint8,t_bool)": {
        "encoding": "mapping",
        "key": "t_uint8",
        "label": "mapping(uint8 => bool)",
        "numberOfBytes": "32",
        "value": "t_bool"
      },
      "t_string_storage": {
        "encoding": "bytes",
        "label": "string",
        "numberOfBytes": "32"
      },
      "t_uint256": {
        "encoding": "inplace",
        "label": "uint256",
        "numberOfBytes": "32"
      },
      "t_uint8": {
        "encoding": "inplace",
        "label": "uint8",
        "numberOfBytes": "1"
      }
    }
  }
}