{
  "address": "0x99e9Ca5E3694abe26D317a6e0fc86B44B0e66f32",
  "abi": [
    {
      "inputs": [],
      "stateMutability": "nonpayable",
      "type": "constructor"
    },
    {
      "inputs": [],
      "name": "EnforcedPause",
      "type": "error"
    },
    {
      "inputs": [],
      "name": "ExpectedPause",
      "type": "error"
    },
    {
      "inputs": [],
      "name": "ReentrancyGuardReentrantCall",
      "type": "error"
    },
    {
      "anonymous": false,
      "inputs": [
        {
          "indexed": false,
          "internalType": "uint8",
          "name": "round",
          "type": "uint8"
        }
      ],
      "name": "AllMembersContributed",
      "type": "event"
    },
    {
      "anonymous": false,
      "inputs": [
        {
          "indexed": true,
          "internalType": "address",
          "name": "member",
          "type": "address"
        },
        {
          "indexed": false,
          "internalType": "uint8",
          "name": "round",
          "type": "uint8"
        },
        {
          "indexed": false,
          "internalType": "uint256",
          "name": "amount",
          "type": "uint256"
        }
      ],
      "name": "ContributionMade",
      "type": "event"
    },
    {
      "anonymous": false,
      "inputs": [
        {
          "indexed": true,
          "internalType": "address",
          "name": "member",
          "type": "address"
        },
        {
          "indexed": true,
          "internalType": "address",
          "name": "addedBy",
          "type": "address"
        }
      ],
      "name": "MemberJoined",
      "type": "event"
    },
    {
      "anonymous": false,
      "inputs": [
        {
          "indexed": false,
          "internalType": "address",
          "name": "account",
          "type": "address"
        }
      ],
      "name": "Paused",
      "type": "event"
    },
    {
      "anonymous": false,
      "inputs": [
        {
          "indexed": true,
          "internalType": "address",
          "name": "recipient",
          "type": "address"
        },
        {
          "indexed": false,
          "internalType": "uint256",
          "name": "amount",
          "type": "uint256"
        },
        {
          "indexed": false,
          "internalType": "uint8",
          "name": "round",
          "type": "uint8"
        }
      ],
      "name": "PayoutTriggered",
      "type": "event"
    },
    {
      "anonymous": false,
      "inputs": [
        {
          "indexed": false,
          "internalType": "uint256",
          "name": "completionTime",
          "type": "uint256"
        }
      ],
      "name": "ROSCACompleted",
      "type": "event"
    },
    {
      "anonymous": false,
      "inputs": [
        {
          "indexed": true,
          "internalType": "address",
          "name": "circleId",
          "type": "address"
        },
        {
          "indexed": true,
          "internalType": "address",
          "name": "creator",
          "type": "address"
        },
        {
          "indexed": false,
          "internalType": "uint256",
          "name": "contributionAmount",
          "type": "uint256"
        }
      ],
      "name": "ROSCACreated",
      "type": "event"
    },
    {
      "anonymous": false,
      "inputs": [
        {
          "indexed": false,
          "internalType": "address[]",
          "name": "payoutOrder",
          "type": "address[]"
        },
        {
          "indexed": false,
          "internalType": "uint256",
          "name": "startTime",
          "type": "uint256"
        }
      ],
      "name": "ROSCAStarted",
      "type": "event"
    },
    {
      "anonymous": false,
      "inputs": [
        {
          "indexed": false,
          "internalType": "uint8",
          "name": "round",
          "type": "uint8"
        },
        {
          "indexed": false,
          "internalType": "uint256",
          "name": "startTime",
          "type": "uint256"
        }
      ],
      "name": "RoundStarted",
      "type": "event"
    },
    {
      "anonymous": false,
      "inputs": [
        {
          "indexed": false,
          "internalType": "address",
          "name": "account",
          "type": "address"
        }
      ],
      "name": "Unpaused",
      "type": "event"
    },
    {
      "inputs": [],
      "name": "CYCLE_DURATION",
      "outputs": [
        {
          "internalType": "uint256",
          "name": "",
          "type": "uint256"
        }
      ],
      "stateMutability": "view",
      "type": "function"
    },
    {
      "inputs": [],
      "name": "MAX_MEMBERS",
      "outputs": [
        {
          "internalType": "uint8",
          "name": "",
          "type": "uint8"
        }
      ],
      "stateMutability": "view",
      "type": "function"
    },
    {
      "inputs": [],
      "name": "MIN_MEMBERS",
      "outputs": [
        {
          "internalType": "uint8",
          "name": "",
          "type": "uint8"
        }
      ],
      "stateMutability": "view",
      "type": "function"
    },
    {
      "inputs": [],
      "name": "backendManager",
      "outputs": [
        {
          "internalType": "address",
          "name": "",
          "type": "address"
        }
      ],
      "stateMutability": "view",
      "type": "function"
    },
    {
      "inputs": [],
      "name": "circleId",
      "outputs": [
        {
          "internalType": "address",
          "name": "",
          "type": "address"
        }
      ],
      "stateMutability": "view",
      "type": "function"
    },
    {
      "inputs": [],
      "name": "circleName",
      "outputs": [
        {
          "internalType": "string",
          "name": "",
          "type": "string"
        }
      ],
      "stateMutability": "view",
      "type": "function"
    },
    {
      "inputs": [],
      "name": "contribute",
      "outputs": [],
      "stateMutability": "payable",
      "type": "function"
    },
    {
      "inputs": [],
      "name": "contributionAmount",
      "outputs": [
        {
          "internalType": "uint256",
          "name": "",
          "type": "uint256"
        }
      ],
      "stateMutability": "view",
      "type": "function"
    },
    {
      "inputs": [],
      "name": "creator",
      "outputs": [
        {
          "internalType": "address",
          "name": "",
          "type": "address"
        }
      ],
      "stateMutability": "view",
      "type": "function"
    },
    {
      "inputs": [],
      "name": "currentRound",
      "outputs": [
        {
          "internalType": "uint8",
          "name": "",
          "type": "uint8"
        }
      ],
      "stateMutability": "view",
      "type": "function"
    },
    {
      "inputs": [],
      "name": "currentRoundPaidOut",
      "outputs": [
        {
          "internalType": "bool",
          "name": "",
          "type": "bool"
        }
      ],
      "stateMutability": "view",
      "type": "function"
    },
    {
      "inputs": [],
      "name": "currentRoundStartTime",
      "outputs": [
        {
          "internalType": "uint256",
          "name": "",
          "type": "uint256"
        }
      ],
      "stateMutability": "view",
      "type": "function"
    },
    {
      "inputs": [],
      "name": "everyonePaid",
      "outputs": [
        {
          "internalType": "bool",
          "name": "",
          "type": "bool"
        }
      ],
      "stateMutability": "view",
      "type": "function"
    },
    {
      "inputs": [],
      "name": "getBalance",
      "outputs": [
        {
          "internalType": "uint256",
          "name": "",
          "type": "uint256"
        }
      ],
      "stateMutability": "view",
      "type": "function"
    },
    {
      "inputs": [],
      "name": "getCurrentRecipient",
      "outputs": [
        {
          "internalType": "address",
          "name": "",
          "type": "address"
        }
      ],
      "stateMutability": "view",
      "type": "function"
    },
    {
      "inputs": [],
      "name": "getMemberCount",
      "outputs": [
        {
          "internalType": "uint256",
          "name": "",
          "type": "uint256"
        }
      ],
      "stateMutability": "view",
      "type": "function"
    },
    {
      "inputs": [],
      "name": "getMembers",
      "outputs": [
        {
          "internalType": "address[]",
          "name": "",
          "type": "address[]"
        }
      ],
      "stateMutability": "view",
      "type": "function"
    },
    {
      "inputs": [],
      "name": "getPayoutOrder",
      "outputs": [
        {
          "internalType": "address[]",
          "name": "",
          "type": "address[]"
        }
      ],
      "stateMutability": "view",
      "type": "function"
    },
    {
      "inputs": [],
      "name": "getRoundContributors",
      "outputs": [
        {
          "internalType": "address[]",
          "name": "",
          "type": "address[]"
        }
      ],
      "stateMutability": "view",
      "type": "function"
    },
    {
      "inputs": [
        {
          "internalType": "address",
          "name": "",
          "type": "address"
        },
        {
          "internalType": "uint8",
          "name": "",
          "type": "uint8"
        }
      ],
      "name": "hasPaid",
      "outputs": [
        {
          "internalType": "bool",
          "name": "",
          "type": "bool"
        }
      ],
      "stateMutability": "view",
      "type": "function"
    },
    {
      "inputs": [
        {
          "internalType": "address",
          "name": "",
          "type": "address"
        }
      ],
      "name": "hasReceivedPayout",
      "outputs": [
        {
          "internalType": "bool",
          "name": "",
          "type": "bool"
        }
      ],
      "stateMutability": "view",
      "type": "function"
    },
    {
      "inputs": [
        {
          "internalType": "address",
          "name": "_creator",
          "type": "address"
        },
        {
          "internalType": "address",
          "name": "_circleId",
          "type": "address"
        },
        {
          "internalType": "string",
          "name": "_circleName",
          "type": "string"
        },
        {
          "internalType": "address",
          "name": "_backendManager",
          "type": "address"
        },
        {
          "internalType": "uint256",
          "name": "_contributionAmount",
          "type": "uint256"
        },
        {
          "internalType": "address",
          "name": "_tokenAddress",
          "type": "address"
        },
        {
          "internalType": "bool",
          "name": "_isNativeToken",
          "type": "bool"
        }
      ],
      "name": "initialize",
      "outputs": [],
      "stateMutability": "nonpayable",
      "type": "function"
    },
    {
      "inputs": [
        {
          "internalType": "address",
          "name": "member",
          "type": "address"
        }
      ],
      "name": "inviteMember",
      "outputs": [],
      "stateMutability": "nonpayable",
      "type": "function"
    },
    {
      "inputs": [],
      "name": "isActive",
      "outputs": [
        {
          "internalType": "bool",
          "name": "",
          "type": "bool"
        }
      ],
      "stateMutability": "view",
      "type": "function"
    },
    {
      "inputs": [],
      "name": "isComplete",
      "outputs": [
        {
          "internalType": "bool",
          "name": "",
          "type": "bool"
        }
      ],
      "stateMutability": "view",
      "type": "function"
    },
    {
      "inputs": [
        {
          "internalType": "address",
          "name": "",
          "type": "address"
        }
      ],
      "name": "isMember",
      "outputs": [
        {
          "internalType": "bool",
          "name": "",
          "type": "bool"
        }
      ],
      "stateMutability": "view",
      "type": "function"
    },
    {
      "inputs": [],
      "name": "isNativeToken",
      "outputs": [
        {
          "internalType": "bool",
          "name": "",
          "type": "bool"
        }
      ],
      "stateMutability": "view",
      "type": "function"
    },
    {
      "inputs": [
        {
          "internalType": "uint256",
          "name": "",
          "type": "uint256"
        }
      ],
      "name": "members",
      "outputs": [
        {
          "internalType": "address",
          "name": "",
          "type": "address"
        }
      ],
      "stateMutability": "view",
      "type": "function"
    },
    {
      "inputs": [],
      "name": "pause",
      "outputs": [],
      "stateMutability": "nonpayable",
      "type": "function"
    },
    {
      "inputs": [],
      "name": "paused",
      "outputs": [
        {
          "internalType": "bool",
          "name": "",
          "type": "bool"
        }
      ],
      "stateMutability": "view",
      "type": "function"
    },
    {
      "inputs": [
        {
          "internalType": "uint256",
          "name": "",
          "type": "uint256"
        }
      ],
      "name": "payoutOrder",
      "outputs": [
        {
          "internalType": "address",
          "name": "",
          "type": "address"
        }
      ],
      "stateMutability": "view",
      "type": "function"
    },
    {
      "inputs": [],
      "name": "roscaStartTime",
      "outputs": [
        {
          "internalType": "uint256",
          "name": "",
          "type": "uint256"
        }
      ],
      "stateMutability": "view",
      "type": "function"
    },
    {
      "inputs": [],
      "name": "startNextRound",
      "outputs": [],
      "stateMutability": "nonpayable",
      "type": "function"
    },
    {
      "inputs": [
        {
          "internalType": "address[]",
          "name": "_payoutOrder",
          "type": "address[]"
        }
      ],
      "name": "startROSCA",
      "outputs": [],
      "stateMutability": "nonpayable",
      "type": "function"
    },
    {
      "inputs": [],
      "name": "tokenAddress",
      "outputs": [
        {
          "internalType": "address",
          "name": "",
          "type": "address"
        }
      ],
      "stateMutability": "view",
      "type": "function"
    },
    {
      "inputs": [
        {
          "internalType": "address",
          "name": "",
          "type": "address"
        }
      ],
      "name": "totalContributed",
      "outputs": [
        {
          "internalType": "uint256",
          "name": "",
          "type": "uint256"
        }
      ],
      "stateMutability": "view",
      "type": "function"
    },
    {
      "inputs": [],
      "name": "triggerPayout",
      "outputs": [],
      "stateMutability": "nonpayable",
      "type": "function"
    },
    {
      "inputs": [],
      "name": "unpause",
      "outputs": [],
      "stateMutability": "nonpayable",
      "type": "function"
    }
  ],
  "transactionHash": "0x020d942d97fe1307e27412910328cd5ef051df8c08d8a815335688ab81734490",
  "args": [],
  "numDeployments": 3,
  "solcInputHash": "b1b414be307ab3dbeb8c7b1dfa17f549",
  "bytecode": "0x608060405234801561001057600080fd5b5060016000819055805460ff191690556010805462ff0000191662010000179055612489806100406000396000f3fe6080604052600436106102255760003560e01c80636c9d991911610123578063a9e6c7fb116100ab578063d7bb99ba1161006f578063d7bb99ba1461063a578063d9a6722014610642578063e24d65f914610657578063ea0e35b114610677578063eca42fba1461068c57600080fd5b8063a9e6c7fb146105ac578063b2fa1c9e146105c2578063c30db746146105e1578063cccf256014610601578063cd421fbf1461062357600080fd5b80639af4ee7e116100f25780639af4ee7e146104f95780639d76ea581461051a5780639eab52531461053a578063a0f243b81461054f578063a230c5241461057c57600080fd5b80636c9d9919146104835780638456cb59146104a35780638a19c8bc146104b8578063997072f7146104e457600080fd5b8063380dd901116101b157806359bbcb3d1161017557806359bbcb3d1461040b5780635c975abb146104205780635daf08ca146104385780635fa0b65f1461045857806362a4e0f11461046e57600080fd5b8063380dd9011461036e5780633c3ccc44146103845780633f08399c146103995780633f4ba83a146103d457806343662f4e146103e957600080fd5b806312065fe0116101f857806312065fe0146102d2578063194e36f5146102ef57806322f3e2d4146103045780632f890b931461031e578063346477c71461033e57600080fd5b806302d05d3f1461022a57806305a95f041461026c578063063fcfcc146102835780630b529a17146102b2575b600080fd5b34801561023657600080fd5b5060015461024f9061010090046001600160a01b031681565b6040516001600160a01b0390911681526020015b60405180910390f35b34801561027857600080fd5b506102816106ac565b005b34801561028f57600080fd5b50600b546102a290610100900460ff1681565b6040519015158152602001610263565b3480156102be57600080fd5b5061024f6102cd366004611ed9565b61095f565b3480156102de57600080fd5b50475b604051908152602001610263565b3480156102fb57600080fd5b5061024f610989565b34801561031057600080fd5b506010546102a29060ff1681565b34801561032a57600080fd5b50610281610339366004611f0e565b6109f1565b34801561034a57600080fd5b506102a2610359366004611f0e565b600c6020526000908152604090205460ff1681565b34801561037a57600080fd5b506102e1600f5481565b34801561039057600080fd5b50610281610bf3565b3480156103a557600080fd5b506102a26103b4366004611f29565b600d60209081526000928352604080842090915290825290205460ff1681565b3480156103e057600080fd5b50610281610e26565b3480156103f557600080fd5b506103fe610e5d565b6040516102639190611f66565b34801561041757600080fd5b506102a2610ebf565b34801561042c57600080fd5b5060015460ff166102a2565b34801561044457600080fd5b5061024f610453366004611ed9565b610ece565b34801561046457600080fd5b506102e160065481565b34801561047a57600080fd5b506103fe610ede565b34801561048f57600080fd5b5061028161049e366004611fe5565b61108c565b3480156104af57600080fd5b506102816113bc565b3480156104c457600080fd5b50600b546104d29060ff1681565b60405160ff9091168152602001610263565b3480156104f057600080fd5b506007546102e1565b34801561050557600080fd5b506005546102a290600160a01b900460ff1681565b34801561052657600080fd5b5060055461024f906001600160a01b031681565b34801561054657600080fd5b506103fe6113f3565b34801561055b57600080fd5b506102e161056a366004611f0e565b60096020526000908152604090205481565b34801561058857600080fd5b506102a2610597366004611f0e565b60086020526000908152604090205460ff1681565b3480156105b857600080fd5b506102e1600e5481565b3480156105ce57600080fd5b506010546102a290610100900460ff1681565b3480156105ed57600080fd5b5060035461024f906001600160a01b031681565b34801561060d57600080fd5b50610616611453565b60405161026391906120f3565b34801561062f57600080fd5b506102e162278d0081565b6102816114e1565b34801561064e57600080fd5b506104d2600581565b34801561066357600080fd5b5060025461024f906001600160a01b031681565b34801561068357600080fd5b506104d2600c81565b34801561069857600080fd5b506102816106a7366004612141565b611755565b60105460ff1680156106c65750601054610100900460ff16155b6107095760405162461bcd60e51b815260206004820152600f60248201526e506f6f6c206e6f742061637469766560881b60448201526064015b60405180910390fd5b610711611920565b610719611944565b61072161196e565b6107655760405162461bcd60e51b8152602060048201526015602482015274139bdd08195d995c9e5bdb99481a185cc81c185a59605a1b6044820152606401610700565b600b54610100900460ff16156107b65760405162461bcd60e51b8152602060048201526016602482015275149bdd5b9908185b1c9958591e481c185a59081bdd5d60521b6044820152606401610700565b600b54600090600a906107ce9060019060ff166121cc565b60ff16815481106107e1576107e16121eb565b6000918252602090912001546001600160a01b031690503381146108475760405162461bcd60e51b815260206004820152601f60248201527f4f6e6c7920726563697069656e742063616e20636c61696d207061796f7574006044820152606401610700565b600b805461ff0019166101001790556001600160a01b0381166000908152600c60205260408120805460ff191660011790556007546006546108899190612201565b6005549091506108af906001600160a01b03811690600160a01b900460ff1684846119ef565b600b546040805183815260ff90921660208301526001600160a01b038416917f882acae0bded9e8351bc191c3a610fdfdfc5c20f670b69c7569ae0fbdeda81b8910160405180910390a2600754600b5460ff1610610951576010805461ffff19166101001790556040517fd57799724d5c069e66abd552aca9bc70e8f36d98f34d0d84841983bc469a4e4a906109489042815260200190565b60405180910390a15b505061095d6001600055565b565b600a818154811061096f57600080fd5b6000918252602090912001546001600160a01b0316905081565b600b5460009060ff1615806109a45750600a54600b5460ff16115b156109af5750600090565b600b54600a906109c49060019060ff166121cc565b60ff16815481106109d7576109d76121eb565b6000918252602090912001546001600160a01b0316919050565b60015461010090046001600160a01b0316331480610a1957506002546001600160a01b031633145b610a655760405162461bcd60e51b815260206004820152601760248201527f4f6e6c792063726561746f72206f72206261636b656e640000000000000000006044820152606401610700565b610a6d611920565b60105460ff1615610ac05760405162461bcd60e51b815260206004820181905260248201527f43616e6e6f7420696e7669746520616674657220524f534341207374617274736044820152606401610700565b6001600160a01b03811660009081526008602052604090205460ff1615610b1c5760405162461bcd60e51b815260206004820152601060248201526f20b63932b0b23c90309036b2b6b132b960811b6044820152606401610700565b600754600c11610b645760405162461bcd60e51b815260206004820152601360248201527213585e081b595b58995c9cc81c995858da1959606a1b6044820152606401610700565b6007805460018082019092557fa66cc928b5edb82af9bd49922954155ab7b0942694bea4ce44661d9a8736c6880180546001600160a01b0319166001600160a01b038416908117909155600081815260086020526040808220805460ff1916909417909355915133927fb168e0b33ed126dec210fb14910d562a068905fb3431f3abe71b964e9e1b119a91a350565b3360009081526008602052604090205460ff16610c415760405162461bcd60e51b815260206004820152600c60248201526b2737ba10309036b2b6b132b960a11b6044820152606401610700565b610c49611920565b60105460ff168015610c635750601054610100900460ff16155b610ca25760405162461bcd60e51b815260206004820152601060248201526f524f534341206e6f742061637469766560801b6044820152606401610700565b600b54610100900460ff16610cf95760405162461bcd60e51b815260206004820152601a60248201527f43757272656e7420726f756e64206e6f742070616964206f75740000000000006044820152606401610700565b600754600b5460ff1610610d455760405162461bcd60e51b8152602060048201526013602482015272416c6c20726f756e647320636f6d706c65746560681b6044820152606401610700565b62278d00600f54610d569190612218565b421015610da55760405162461bcd60e51b815260206004820152601960248201527f33302d646179206379636c65206e6f7420636f6d706c657465000000000000006044820152606401610700565b600b805460ff16906000610db88361222b565b82546101009290920a60ff81810219909316918316021790915542600f819055600b805461ff001981169091556040805191909316815260208101919091527ff7104ec8d70cbee7bb54da17843aa32c11b77c11c6197f005ec8b2b4f5de69589250015b60405180910390a1565b60015461010090046001600160a01b03163314610e555760405162461bcd60e51b81526004016107009061224a565b61095d611b0b565b6060600a805480602002602001604051908101604052809291908181526020018280548015610eb557602002820191906000526020600020905b81546001600160a01b03168152600190910190602001808311610e97575b5050505050905090565b6000610ec961196e565b905090565b6007818154811061096f57600080fd5b60606000805b600754811015610f6057600d600060078381548110610f0557610f056121eb565b60009182526020808320909101546001600160a01b031683528281019390935260409182018120600b5460ff9081168352935220541615610f4e5781610f4a81612281565b9250505b80610f5881612281565b915050610ee4565b5060008167ffffffffffffffff811115610f7c57610f7c611fb3565b604051908082528060200260200182016040528015610fa5578160200160208202803683370190505b5090506000805b60075481101561108357600d600060078381548110610fcd57610fcd6121eb565b60009182526020808320909101546001600160a01b031683528281019390935260409182018120600b5460ff9081168352935220541615611071576007818154811061101b5761101b6121eb565b9060005260206000200160009054906101000a90046001600160a01b031683838151811061104b5761104b6121eb565b6001600160a01b03909216602092830291909101909101528161106d81612281565b9250505b8061107b81612281565b915050610fac565b50909392505050565b60105462010000900460ff16156110db5760405162461bcd60e51b8152602060048201526013602482015272105b1c9958591e481a5b9a5d1a585b1a5e9959606a1b6044820152606401610700565b6010805462ff0000191662010000179055826111395760405162461bcd60e51b815260206004820152601b60248201527f496e76616c696420636f6e747269627574696f6e20616d6f756e7400000000006044820152606401610700565b6001600160a01b03841661118f5760405162461bcd60e51b815260206004820152601760248201527f496e76616c6964206261636b656e64206d616e616765720000000000000000006044820152606401610700565b8015611205576001600160a01b038216156112005760405162461bcd60e51b815260206004820152602b60248201527f546f6b656e2061646472657373206d757374206265207a65726f20666f72206e60448201526a30ba34bb32903a37b5b2b760a91b6064820152608401610700565b61125b565b6001600160a01b03821661125b5760405162461bcd60e51b815260206004820152601f60248201527f496e76616c696420746f6b656e206164647265737320666f72204552433230006044820152606401610700565b600180546001600160a01b03808a1661010002610100600160a81b031990921691909117909155600280548683166001600160a01b031991821617909155600380549289169290911691909117905560046112b68682612322565b506006839055600580546001600160a01b038481166001600160a81b031990921691909117600160a01b84151502179091556007805460018181019092557fa66cc928b5edb82af9bd49922954155ab7b0942694bea4ce44661d9a8736c6880180546001600160a01b0319168a8416908117909155600081815260086020908152604091829020805460ff19169094179093555186815290928916917f8e5acdd034f8bf8fded53cd37f8b0cb6a72b385988e92dc71f664f5dfcfcd8a7910160405180910390a36040516001600160a01b0388169081907fb168e0b33ed126dec210fb14910d562a068905fb3431f3abe71b964e9e1b119a90600090a350505050505050565b60015461010090046001600160a01b031633146113eb5760405162461bcd60e51b81526004016107009061224a565b61095d611b58565b60606007805480602002602001604051908101604052809291908181526020018280548015610eb5576020028201919060005260206000209081546001600160a01b03168152600190910190602001808311610e97575050505050905090565b600480546114609061229a565b80601f016020809104026020016040519081016040528092919081815260200182805461148c9061229a565b80156114d95780601f106114ae576101008083540402835291602001916114d9565b820191906000526020600020905b8154815290600101906020018083116114bc57829003601f168201915b505050505081565b3360009081526008602052604090205460ff1661152f5760405162461bcd60e51b815260206004820152600c60248201526b2737ba10309036b2b6b132b960a11b6044820152606401610700565b60105460ff1680156115495750601054610100900460ff16155b6115875760405162461bcd60e51b815260206004820152600f60248201526e506f6f6c206e6f742061637469766560881b6044820152606401610700565b61158f611920565b611597611944565b336000908152600d60209081526040808320600b5460ff908116855292529091205416156115fd5760405162461bcd60e51b8152602060048201526013602482015272105b1c9958591e4818dbdb9d1c9a589d5d1959606a1b6044820152606401610700565b600754600b5460ff16111561164a5760405162461bcd60e51b8152602060048201526013602482015272416c6c20726f756e647320636f6d706c65746560681b6044820152606401610700565b336000818152600d60209081526040808320600b5460ff1684528252808320805460ff19166001179055600654938352600990915281208054909190611691908490612218565b90915550506005546006546116bc916001600160a01b03811691600160a01b90910460ff1690611b93565b50600b546006546040805160ff9093168352602083019190915233917fe18ade3c83eb782f6b575ec07c91d1dce24ca2893272cabc5d86e759110d3b65910160405180910390a261170b61196e565b1561174b57600b5460405160ff90911681527f78a0925e040149ea78c23d3aabf9577f31cb0afe2252a07da3322fb93f9c697d9060200160405180910390a15b61095d6001600055565b60015461010090046001600160a01b031633146117845760405162461bcd60e51b81526004016107009061224a565b61178c611920565b60105460ff16156117d15760405162461bcd60e51b815260206004820152600f60248201526e105b1c9958591e481cdd185c9d1959608a1b6044820152606401610700565b600754600511156118195760405162461bcd60e51b81526020600482015260126024820152714e6f7420656e6f756768206d656d6265727360701b6044820152606401610700565b600754811461186a5760405162461bcd60e51b815260206004820152601b60248201527f496e76616c6964207061796f7574206f72646572206c656e67746800000000006044820152606401610700565b6118748282611cae565b611880600a8383611e61565b5060108054600160ff199182168117909255600b8054909116909117905542600e819055600f8190556040517f7e680909351c6b66c0ef9f13e0724b2785bb330a595466a2b2bf175f69df01e8916118db91859185916123e2565b60405180910390a160408051600181524260208201527ff7104ec8d70cbee7bb54da17843aa32c11b77c11c6197f005ec8b2b4f5de6958910160405180910390a15050565b60015460ff161561095d5760405163d93c066560e01b815260040160405180910390fd5b60026000540361196757604051633ee5aeb560e01b815260040160405180910390fd5b6002600055565b6000805b6007548110156119e757600d600060078381548110611993576119936121eb565b60009182526020808320909101546001600160a01b031683528281019390935260409182018120600b5460ff908116835293522054166119d557600091505090565b806119df81612281565b915050611972565b506001905090565b8215611a90576000826001600160a01b03168260405160006040518083038185875af1925050503d8060008114611a42576040519150601f19603f3d011682016040523d82523d6000602084013e611a47565b606091505b5050905080611a8a5760405162461bcd60e51b815260206004820152600f60248201526e151c985b9cd9995c8819985a5b1959608a1b6044820152606401610700565b50611b05565b60405163a9059cbb60e01b81526001600160a01b0383811660048301526024820183905285169063a9059cbb906044016020604051808303816000875af1158015611adf573d6000803e3d6000fd5b505050506040513d601f19601f82011682018060405250810190611b039190612436565b505b50505050565b611b13611e3e565b6001805460ff191690557f5db9ee0a495bf2e6ff9c91a7834c1ba4fdd244a5e8aa4e537bd38aeae4b073aa335b6040516001600160a01b039091168152602001610e1c565b611b60611920565b6001805460ff1916811790557f62e78cea01bee320cd4e420270b5ea74000d11b0c9f74754ebdbfc544b05a25833611b40565b60008215611beb5760003411611be45760405162461bcd60e51b815260206004820152601660248201527526bab9ba1039b2b732103730ba34bb32903a37b5b2b760511b6044820152606401610700565b5034611ca7565b3415611c2b5760405162461bcd60e51b815260206004820152600f60248201526e2737903730ba34bb32903a37b5b2b760891b6044820152606401610700565b6040516323b872dd60e01b8152336004820152306024820152604481018390526001600160a01b038516906323b872dd906064016020604051808303816000875af1158015611c7e573d6000803e3d6000fd5b505050506040513d601f19601f82011682018060405250810190611ca29190612436565b508190505b9392505050565b60005b81811015611e39576000838383818110611ccd57611ccd6121eb565b9050602002016020810190611ce29190611f0e565b6001600160a01b03811660009081526008602052604090205490915060ff16611d4d5760405162461bcd60e51b815260206004820181905260248201527f5061796f7574206f7264657220636f6e7461696e73206e6f6e2d6d656d6265726044820152606401610700565b6000611d5a836001612218565b90505b83811015611e2457848482818110611d7757611d776121eb565b9050602002016020810190611d8c9190611f0e565b6001600160a01b0316858585818110611da757611da76121eb565b9050602002016020810190611dbc9190611f0e565b6001600160a01b031603611e125760405162461bcd60e51b815260206004820152601960248201527f4475706c696361746520696e207061796f7574206f72646572000000000000006044820152606401610700565b80611e1c81612281565b915050611d5d565b50508080611e3190612281565b915050611cb1565b505050565b60015460ff1661095d57604051638dfc202b60e01b815260040160405180910390fd5b828054828255906000526020600020908101928215611eb4579160200282015b82811115611eb45781546001600160a01b0319166001600160a01b03843516178255602090920191600190910190611e81565b50611ec0929150611ec4565b5090565b5b80821115611ec05760008155600101611ec5565b600060208284031215611eeb57600080fd5b5035919050565b80356001600160a01b0381168114611f0957600080fd5b919050565b600060208284031215611f2057600080fd5b611ca782611ef2565b60008060408385031215611f3c57600080fd5b611f4583611ef2565b9150602083013560ff81168114611f5b57600080fd5b809150509250929050565b6020808252825182820181905260009190848201906040850190845b81811015611fa75783516001600160a01b031683529284019291840191600101611f82565b50909695505050505050565b634e487b7160e01b600052604160045260246000fd5b8015158114611fd757600080fd5b50565b8035611f0981611fc9565b600080600080600080600060e0888a03121561200057600080fd5b61200988611ef2565b965061201760208901611ef2565b9550604088013567ffffffffffffffff8082111561203457600080fd5b818a0191508a601f83011261204857600080fd5b81358181111561205a5761205a611fb3565b604051601f8201601f19908116603f0116810190838211818310171561208257612082611fb3565b816040528281528d602084870101111561209b57600080fd5b8260208601602083013760006020848301015280995050505050506120c260608901611ef2565b9350608088013592506120d760a08901611ef2565b91506120e560c08901611fda565b905092959891949750929550565b600060208083528351808285015260005b8181101561212057858101830151858201604001528201612104565b506000604082860101526040601f19601f8301168501019250505092915050565b6000806020838503121561215457600080fd5b823567ffffffffffffffff8082111561216c57600080fd5b818501915085601f83011261218057600080fd5b81358181111561218f57600080fd5b8660208260051b85010111156121a457600080fd5b60209290920196919550909350505050565b634e487b7160e01b600052601160045260246000fd5b60ff82811682821603908111156121e5576121e56121b6565b92915050565b634e487b7160e01b600052603260045260246000fd5b80820281158282048414176121e5576121e56121b6565b808201808211156121e5576121e56121b6565b600060ff821660ff8103612241576122416121b6565b60010192915050565b6020808252601a908201527f4f6e6c792063726561746f722063616e2063616c6c2074686973000000000000604082015260600190565b600060018201612293576122936121b6565b5060010190565b600181811c908216806122ae57607f821691505b6020821081036122ce57634e487b7160e01b600052602260045260246000fd5b50919050565b601f821115611e3957600081815260208120601f850160051c810160208610156122fb5750805b601f850160051c820191505b8181101561231a57828155600101612307565b505050505050565b815167ffffffffffffffff81111561233c5761233c611fb3565b6123508161234a845461229a565b846122d4565b602080601f831160018114612385576000841561236d5750858301515b600019600386901b1c1916600185901b17855561231a565b600085815260208120601f198616915b828110156123b457888601518255948401946001909101908401612395565b50858210156123d25787850151600019600388901b60f8161c191681555b5050505050600190811b01905550565b6040808252810183905260008460608301825b86811015612423576001600160a01b0361240e84611ef2565b168252602092830192909101906001016123f5565b5060209390930193909352509392505050565b60006020828403121561244857600080fd5b8151611ca781611fc956fea2646970667358221220bdcb5c60568d66dda1ffe1006ea97c7fa56ab16e1d3962270d7471779e5148fe64736f6c63430008140033",
  "devdoc": {
    "details": "Members contribute fixed amounts each round, one member receives the pot each round Payout order is provided off-chain by the creator for fairness and transparency",
    "errors": {
      "EnforcedPause()": [
        {
          "details": "The operation failed because the contract is paused."
        }
      ],
      "ExpectedPause()": [
        {
          "details": "The operation failed because the contract is not paused."
        }
      ],
      "ReentrancyGuardReentrantCall()": [
        {
          "details": "Unauthorized reentrant call."
        }
      ]
    },
    "events": {
      "Paused(address)": {
        "details": "Emitted when the pause is triggered by `account`."
      },
      "Unpaused(address)": {
        "details": "Emitted when the pause is lifted by `account`."
      }
    },
    "kind": "dev",
    "methods": {
      "constructor": {
        "details": "Prevents the implementation contract from being initialized"
      },
      "contribute()": {
        "details": "For ERC20: Member must have approved the contract to spend tokens before calling      For native token: Must send exact amount of native currency"
      },
      "everyonePaid()": {
        "returns": {
          "_0": "True if all members have contributed, false otherwise"
        }
      },
      "getBalance()": {
        "returns": {
          "_0": "Balance in wei"
        }
      },
      "getCurrentRecipient()": {
        "returns": {
          "_0": "Address of the member who should receive payout this round"
        }
      },
      "getMemberCount()": {
        "returns": {
          "_0": "Member count"
        }
      },
      "getMembers()": {
        "returns": {
          "_0": "Array of member addresses"
        }
      },
      "getPayoutOrder()": {
        "returns": {
          "_0": "Array of addresses in payout order"
        }
      },
      "getRoundContributors()": {
        "returns": {
          "_0": "Array of addresses who have paid"
        }
      },
      "initialize(address,address,string,address,uint256,address,bool)": {
        "details": "This replaces the constructor for cloned instances",
        "params": {
          "_backendManager": "Address of the backend manager (can invite members)",
          "_circleId": "Address of the Lens.xyz circle contract",
          "_circleName": "Name of the circle",
          "_contributionAmount": "Fixed contribution amount per round",
          "_creator": "Address of the user creating the pool",
          "_isNativeToken": "Whether this pool uses native token (cBTC) or ERC20 token",
          "_tokenAddress": "Address of the ERC20 token to use for contributions (zero address if native)"
        }
      },
      "inviteMember(address)": {
        "details": "Creator or backend manager can add members, only before ROSCA starts",
        "params": {
          "member": "Address of the member to add"
        }
      },
      "pause()": {
        "details": "Only creator can pause"
      },
      "paused()": {
        "details": "Returns true if the contract is paused, and false otherwise."
      },
      "startNextRound()": {
        "details": "Any member can call this after the 30-day cycle is complete"
      },
      "startROSCA(address[])": {
        "details": "Only creator can start, requires min members, payout order generated off-chain",
        "params": {
          "_payoutOrder": "Array of addresses defining payout order (must include all members exactly once)"
        }
      },
      "triggerPayout()": {
        "details": "Only the designated recipient can trigger their own payout Requires all members to have contributed for the current round"
      },
      "unpause()": {
        "details": "Only creator can unpause"
      }
    },
    "title": "ROSCAPool",
    "version": 1
  },
  "userdoc": {
    "kind": "user",
    "methods": {
      "CYCLE_DURATION()": {
        "notice": "Duration of each cycle/round in seconds (30 days)"
      },
      "MAX_MEMBERS()": {
        "notice": "Maximum number of members allowed in a ROSCA"
      },
      "MIN_MEMBERS()": {
        "notice": "Minimum number of members required to start a ROSCA"
      },
      "backendManager()": {
        "notice": "Address of the backend manager (can invite members)"
      },
      "circleId()": {
        "notice": "Address of the Lens.xyz circle contract"
      },
      "circleName()": {
        "notice": "Human-readable name of the circle"
      },
      "constructor": {
        "notice": "Constructor for implementation contract"
      },
      "contribute()": {
        "notice": "Allows a member to contribute for the current round"
      },
      "contributionAmount()": {
        "notice": "Fixed contribution amount per round in wei"
      },
      "creator()": {
        "notice": "Address of the user who created this pool"
      },
      "currentRound()": {
        "notice": "Current round number (1-indexed)"
      },
      "currentRoundPaidOut()": {
        "notice": "Whether the current round's payout has been completed"
      },
      "currentRoundStartTime()": {
        "notice": "Timestamp when the current round started"
      },
      "everyonePaid()": {
        "notice": "Checks if everyone has paid for the current round"
      },
      "getBalance()": {
        "notice": "Gets the contract's current balance"
      },
      "getCurrentRecipient()": {
        "notice": "Gets the current round's recipient"
      },
      "getMemberCount()": {
        "notice": "Gets the total number of members"
      },
      "getMembers()": {
        "notice": "Gets all members"
      },
      "getPayoutOrder()": {
        "notice": "Gets the complete payout order"
      },
      "getRoundContributors()": {
        "notice": "Gets list of members who have contributed in the current round"
      },
      "hasPaid(address,uint8)": {
        "notice": "Tracks whether a member has paid for a specific round"
      },
      "hasReceivedPayout(address)": {
        "notice": "Mapping to track which members have received their payout"
      },
      "initialize(address,address,string,address,uint256,address,bool)": {
        "notice": "Initializes a new ROSCA pool clone"
      },
      "inviteMember(address)": {
        "notice": "Adds a new member to the ROSCA"
      },
      "isActive()": {
        "notice": "Whether the ROSCA is currently active"
      },
      "isComplete()": {
        "notice": "Whether the ROSCA has completed all rounds"
      },
      "isMember(address)": {
        "notice": "Mapping to check if an address is a member"
      },
      "isNativeToken()": {
        "notice": "Whether this pool uses native token (cBTC) or ERC20 token"
      },
      "members(uint256)": {
        "notice": "Array of all members in the pool"
      },
      "pause()": {
        "notice": "Pauses the contract in case of emergency"
      },
      "payoutOrder(uint256)": {
        "notice": "Array defining the order in which members receive payouts"
      },
      "roscaStartTime()": {
        "notice": "Timestamp when the ROSCA was started"
      },
      "startNextRound()": {
        "notice": "Starts the next round after the cycle duration has passed"
      },
      "startROSCA(address[])": {
        "notice": "Starts the ROSCA with a provided payout order"
      },
      "tokenAddress()": {
        "notice": "Address of the ERC20 token used for contributions (zero address if native token)"
      },
      "totalContributed(address)": {
        "notice": "Total amount contributed by each member across all rounds"
      },
      "triggerPayout()": {
        "notice": "Triggers the payout for the current round"
      },
      "unpause()": {
        "notice": "Unpauses the contract"
      }
    },
    "notice": "Rotating Savings and Credit Association pool implementation",
    "version": 1
  },
  "storageLayout": {
    "storage": [
      {
        "astId": 468,
        "contract": "contracts/pools/ROSCAPool.sol:ROSCAPool",
        "label": "_status",
        "offset": 0,
        "slot": "0",
        "type": "t_uint256"
      },
      {
        "astId": 349,
        "contract": "contracts/pools/ROSCAPool.sol:ROSCAPool",
        "label": "_paused",
        "offset": 0,
        "slot": "1",
        "type": "t_bool"
      },
      {
        "astId": 2223,
        "contract": "contracts/pools/ROSCAPool.sol:ROSCAPool",
        "label": "creator",
        "offset": 1,
        "slot": "1",
        "type": "t_address"
      },
      {
        "astId": 2226,
        "contract": "contracts/pools/ROSCAPool.sol:ROSCAPool",
        "label": "backendManager",
        "offset": 0,
        "slot": "2",
        "type": "t_address"
      },
      {
        "astId": 2229,
        "contract": "contracts/pools/ROSCAPool.sol:ROSCAPool",
        "label": "circleId",
        "offset": 0,
        "slot": "3",
        "type": "t_address"
      },
      {
        "astId": 2232,
        "contract": "contracts/pools/ROSCAPool.sol:ROSCAPool",
        "label": "circleName",
        "offset": 0,
        "slot": "4",
        "type": "t_string_storage"
      },
      {
        "astId": 2235,
        "contract": "contracts/pools/ROSCAPool.sol:ROSCAPool",
        "label": "tokenAddress",
        "offset": 0,
        "slot": "5",
        "type": "t_address"
      },
      {
        "astId": 2238,
        "contract": "contracts/pools/ROSCAPool.sol:ROSCAPool",
        "label": "isNativeToken",
        "offset": 20,
        "slot": "5",
        "type": "t_bool"
      },
      {
        "astId": 2241,
        "contract": "contracts/pools/ROSCAPool.sol:ROSCAPool",
        "label": "contributionAmount",
        "offset": 0,
        "slot": "6",
        "type": "t_uint256"
      },
      {
        "astId": 2245,
        "contract": "contracts/pools/ROSCAPool.sol:ROSCAPool",
        "label": "members",
        "offset": 0,
        "slot": "7",
        "type": "t_array(t_address)dyn_storage"
      },
      {
        "astId": 2250,
        "contract": "contracts/pools/ROSCAPool.sol:ROSCAPool",
        "label": "isMember",
        "offset": 0,
        "slot": "8",
        "type": "t_mapping(t_address,t_bool)"
      },
      {
        "astId": 2255,
        "contract": "contracts/pools/ROSCAPool.sol:ROSCAPool",
        "label": "totalContributed",
        "offset": 0,
        "slot": "9",
        "type": "t_mapping(t_address,t_uint256)"
      },
      {
        "astId": 2259,
        "contract": "contracts/pools/ROSCAPool.sol:ROSCAPool",
        "label": "payoutOrder",
        "offset": 0,
        "slot": "10",
        "type": "t_array(t_address)dyn_storage"
      },
      {
        "astId": 2262,
        "contract": "contracts/pools/ROSCAPool.sol:ROSCAPool",
        "label": "currentRound",
        "offset": 0,
        "slot": "11",
        "type": "t_uint8"
      },
      {
        "astId": 2265,
        "contract": "contracts/pools/ROSCAPool.sol:ROSCAPool",
        "label": "currentRoundPaidOut",
        "offset": 1,
        "slot": "11",
        "type": "t_bool"
      },
      {
        "astId": 2270,
        "contract": "contracts/pools/ROSCAPool.sol:ROSCAPool",
        "label": "hasReceivedPayout",
        "offset": 0,
        "slot": "12",
        "type": "t_mapping(t_address,t_bool)"
      },
      {
        "astId": 2277,
        "contract": "contracts/pools/ROSCAPool.sol:ROSCAPool",
        "label": "hasPaid",
        "offset": 0,
        "slot": "13",
        "type": "t_mapping(t_address,t_mapping(t_uint8,t_bool))"
      },
      {
        "astId": 2280,
        "contract": "contracts/pools/ROSCAPool.sol:ROSCAPool",
        "label": "roscaStartTime",
        "offset": 0,
        "slot": "14",
        "type": "t_uint256"
      },
      {
        "astId": 2283,
        "contract": "contracts/pools/ROSCAPool.sol:ROSCAPool",
        "label": "currentRoundStartTime",
        "offset": 0,
        "slot": "15",
        "type": "t_uint256"
      },
      {
        "astId": 2286,
        "contract": "contracts/pools/ROSCAPool.sol:ROSCAPool",
        "label": "isActive",
        "offset": 0,
        "slot": "16",
        "type": "t_bool"
      },
      {
        "astId": 2289,
        "contract": "contracts/pools/ROSCAPool.sol:ROSCAPool",
        "label": "isComplete",
        "offset": 1,
        "slot": "16",
        "type": "t_bool"
      },
      {
        "astId": 2292,
        "contract": "contracts/pools/ROSCAPool.sol:ROSCAPool",
        "label": "initialized",
        "offset": 2,
        "slot": "16",
        "type": "t_bool"
      }
    ],
    "types": {
      "t_address": {
        "encoding": "inplace",
        "label": "address",
        "numberOfBytes": "20"
      },
      "t_array(t_address)dyn_storage": {
        "base": "t_address",
        "encoding": "dynamic_array",
        "label": "address[]",
        "numberOfBytes": "32"
      },
      "t_bool": {
        "encoding": "inplace",
        "label": "bool",
        "numberOfBytes": "1"
      },
      "t_mapping(t_address,t_bool)": {
        "encoding": "mapping",
        "key": "t_address",
        "label": "mapping(address => bool)",
        "numberOfBytes": "32",
        "value": "t_bool"
      },
      "t_mapping(t_address,t_mapping(t_uint8,t_bool))": {
        "encoding": "mapping",
        "key": "t_address",
        "label": "mapping(address => mapping(uint8 => bool))",
        "numberOfBytes": "32",
        "value": "t_mapping(t_uint8,t_bool)"
      },
      "t_mapping(t_address,t_uint256)": {
        "encoding": "mapping",
        "key": "t_address",
        "label": "mapping(address => uint256)",
        "numberOfBytes": "32",
        "value": "t_uint256"
      },
      "t_mapping(t_uint8,t_bool)": {
        "encoding": "mapping",
        "key": "t_uint8",
        "label": "mapping(uint8 => bool)",
        "numberOfBytes": "32",
        "value": "t_bool"
      },
      "t_string_storage": {
        "encoding": "bytes",
        "label": "string",
        "numberOfBytes": "32"
      },
      "t_uint256": {
        "encoding": "inplace",
        "label": "uint256",
        "numberOfBytes": "32"
      },
      "t_uint8": {
        "encoding": "inplace",
        "label": "uint8",
        "numberOfBytes": "1"
      }
    }
  }
}