{
  "address": "0xB587Ad251D1A953854670e6ecB0F78100D24138A",
  "abi": [
    {
      "inputs": [],
      "stateMutability": "nonpayable",
      "type": "constructor"
    },
    {
      "inputs": [],
      "name": "EnforcedPause",
      "type": "error"
    },
    {
      "inputs": [],
      "name": "ExpectedPause",
      "type": "error"
    },
    {
      "inputs": [],
      "name": "ReentrancyGuardReentrantCall",
      "type": "error"
    },
    {
      "anonymous": false,
      "inputs": [
        {
          "indexed": false,
          "internalType": "uint8",
          "name": "round",
          "type": "uint8"
        }
      ],
      "name": "AllMembersContributed",
      "type": "event"
    },
    {
      "anonymous": false,
      "inputs": [
        {
          "indexed": true,
          "internalType": "address",
          "name": "member",
          "type": "address"
        },
        {
          "indexed": false,
          "internalType": "uint8",
          "name": "round",
          "type": "uint8"
        },
        {
          "indexed": false,
          "internalType": "uint256",
          "name": "amount",
          "type": "uint256"
        }
      ],
      "name": "ContributionMade",
      "type": "event"
    },
    {
      "anonymous": false,
      "inputs": [
        {
          "indexed": true,
          "internalType": "address",
          "name": "member",
          "type": "address"
        },
        {
          "indexed": true,
          "internalType": "address",
          "name": "invitedBy",
          "type": "address"
        }
      ],
      "name": "MemberInvited",
      "type": "event"
    },
    {
      "anonymous": false,
      "inputs": [
        {
          "indexed": true,
          "internalType": "address",
          "name": "member",
          "type": "address"
        },
        {
          "indexed": false,
          "internalType": "uint256",
          "name": "timestamp",
          "type": "uint256"
        }
      ],
      "name": "MemberJoined",
      "type": "event"
    },
    {
      "anonymous": false,
      "inputs": [
        {
          "indexed": false,
          "internalType": "address",
          "name": "account",
          "type": "address"
        }
      ],
      "name": "Paused",
      "type": "event"
    },
    {
      "anonymous": false,
      "inputs": [
        {
          "indexed": true,
          "internalType": "address",
          "name": "recipient",
          "type": "address"
        },
        {
          "indexed": false,
          "internalType": "uint256",
          "name": "amount",
          "type": "uint256"
        },
        {
          "indexed": false,
          "internalType": "uint8",
          "name": "round",
          "type": "uint8"
        }
      ],
      "name": "PayoutTriggered",
      "type": "event"
    },
    {
      "anonymous": false,
      "inputs": [
        {
          "indexed": false,
          "internalType": "uint256",
          "name": "completionTime",
          "type": "uint256"
        }
      ],
      "name": "ROSCACompleted",
      "type": "event"
    },
    {
      "anonymous": false,
      "inputs": [
        {
          "indexed": true,
          "internalType": "address",
          "name": "circleId",
          "type": "address"
        },
        {
          "indexed": true,
          "internalType": "address",
          "name": "creator",
          "type": "address"
        },
        {
          "indexed": false,
          "internalType": "uint256",
          "name": "contributionAmount",
          "type": "uint256"
        }
      ],
      "name": "ROSCACreated",
      "type": "event"
    },
    {
      "anonymous": false,
      "inputs": [
        {
          "indexed": false,
          "internalType": "address[]",
          "name": "payoutOrder",
          "type": "address[]"
        },
        {
          "indexed": false,
          "internalType": "uint256",
          "name": "startTime",
          "type": "uint256"
        }
      ],
      "name": "ROSCAStarted",
      "type": "event"
    },
    {
      "anonymous": false,
      "inputs": [
        {
          "indexed": false,
          "internalType": "uint8",
          "name": "round",
          "type": "uint8"
        },
        {
          "indexed": false,
          "internalType": "uint256",
          "name": "startTime",
          "type": "uint256"
        }
      ],
      "name": "RoundStarted",
      "type": "event"
    },
    {
      "anonymous": false,
      "inputs": [
        {
          "indexed": false,
          "internalType": "address",
          "name": "account",
          "type": "address"
        }
      ],
      "name": "Unpaused",
      "type": "event"
    },
    {
      "inputs": [],
      "name": "CYCLE_DURATION",
      "outputs": [
        {
          "internalType": "uint256",
          "name": "",
          "type": "uint256"
        }
      ],
      "stateMutability": "view",
      "type": "function"
    },
    {
      "inputs": [],
      "name": "MAX_MEMBERS",
      "outputs": [
        {
          "internalType": "uint8",
          "name": "",
          "type": "uint8"
        }
      ],
      "stateMutability": "view",
      "type": "function"
    },
    {
      "inputs": [],
      "name": "MIN_MEMBERS",
      "outputs": [
        {
          "internalType": "uint8",
          "name": "",
          "type": "uint8"
        }
      ],
      "stateMutability": "view",
      "type": "function"
    },
    {
      "inputs": [],
      "name": "backendManager",
      "outputs": [
        {
          "internalType": "address",
          "name": "",
          "type": "address"
        }
      ],
      "stateMutability": "view",
      "type": "function"
    },
    {
      "inputs": [],
      "name": "circleId",
      "outputs": [
        {
          "internalType": "address",
          "name": "",
          "type": "address"
        }
      ],
      "stateMutability": "view",
      "type": "function"
    },
    {
      "inputs": [],
      "name": "circleName",
      "outputs": [
        {
          "internalType": "string",
          "name": "",
          "type": "string"
        }
      ],
      "stateMutability": "view",
      "type": "function"
    },
    {
      "inputs": [],
      "name": "contribute",
      "outputs": [],
      "stateMutability": "payable",
      "type": "function"
    },
    {
      "inputs": [],
      "name": "contributionAmount",
      "outputs": [
        {
          "internalType": "uint256",
          "name": "",
          "type": "uint256"
        }
      ],
      "stateMutability": "view",
      "type": "function"
    },
    {
      "inputs": [],
      "name": "creator",
      "outputs": [
        {
          "internalType": "address",
          "name": "",
          "type": "address"
        }
      ],
      "stateMutability": "view",
      "type": "function"
    },
    {
      "inputs": [],
      "name": "currentRound",
      "outputs": [
        {
          "internalType": "uint8",
          "name": "",
          "type": "uint8"
        }
      ],
      "stateMutability": "view",
      "type": "function"
    },
    {
      "inputs": [],
      "name": "currentRoundPaidOut",
      "outputs": [
        {
          "internalType": "bool",
          "name": "",
          "type": "bool"
        }
      ],
      "stateMutability": "view",
      "type": "function"
    },
    {
      "inputs": [],
      "name": "currentRoundStartTime",
      "outputs": [
        {
          "internalType": "uint256",
          "name": "",
          "type": "uint256"
        }
      ],
      "stateMutability": "view",
      "type": "function"
    },
    {
      "inputs": [],
      "name": "everyonePaid",
      "outputs": [
        {
          "internalType": "bool",
          "name": "",
          "type": "bool"
        }
      ],
      "stateMutability": "view",
      "type": "function"
    },
    {
      "inputs": [],
      "name": "getBalance",
      "outputs": [
        {
          "internalType": "uint256",
          "name": "",
          "type": "uint256"
        }
      ],
      "stateMutability": "view",
      "type": "function"
    },
    {
      "inputs": [],
      "name": "getCurrentRecipient",
      "outputs": [
        {
          "internalType": "address",
          "name": "",
          "type": "address"
        }
      ],
      "stateMutability": "view",
      "type": "function"
    },
    {
      "inputs": [],
      "name": "getMemberCount",
      "outputs": [
        {
          "internalType": "uint256",
          "name": "",
          "type": "uint256"
        }
      ],
      "stateMutability": "view",
      "type": "function"
    },
    {
      "inputs": [],
      "name": "getMembers",
      "outputs": [
        {
          "internalType": "address[]",
          "name": "",
          "type": "address[]"
        }
      ],
      "stateMutability": "view",
      "type": "function"
    },
    {
      "inputs": [],
      "name": "getPayoutOrder",
      "outputs": [
        {
          "internalType": "address[]",
          "name": "",
          "type": "address[]"
        }
      ],
      "stateMutability": "view",
      "type": "function"
    },
    {
      "inputs": [],
      "name": "getRoundContributors",
      "outputs": [
        {
          "internalType": "address[]",
          "name": "",
          "type": "address[]"
        }
      ],
      "stateMutability": "view",
      "type": "function"
    },
    {
      "inputs": [
        {
          "internalType": "address",
          "name": "",
          "type": "address"
        },
        {
          "internalType": "uint8",
          "name": "",
          "type": "uint8"
        }
      ],
      "name": "hasPaid",
      "outputs": [
        {
          "internalType": "bool",
          "name": "",
          "type": "bool"
        }
      ],
      "stateMutability": "view",
      "type": "function"
    },
    {
      "inputs": [
        {
          "internalType": "address",
          "name": "",
          "type": "address"
        }
      ],
      "name": "hasReceivedPayout",
      "outputs": [
        {
          "internalType": "bool",
          "name": "",
          "type": "bool"
        }
      ],
      "stateMutability": "view",
      "type": "function"
    },
    {
      "inputs": [
        {
          "internalType": "address",
          "name": "_creator",
          "type": "address"
        },
        {
          "internalType": "address",
          "name": "_circleId",
          "type": "address"
        },
        {
          "internalType": "string",
          "name": "_circleName",
          "type": "string"
        },
        {
          "internalType": "address",
          "name": "_backendManager",
          "type": "address"
        },
        {
          "internalType": "uint256",
          "name": "_contributionAmount",
          "type": "uint256"
        },
        {
          "internalType": "address",
          "name": "_tokenAddress",
          "type": "address"
        },
        {
          "internalType": "bool",
          "name": "_isNativeToken",
          "type": "bool"
        }
      ],
      "name": "initialize",
      "outputs": [],
      "stateMutability": "nonpayable",
      "type": "function"
    },
    {
      "inputs": [
        {
          "internalType": "address",
          "name": "member",
          "type": "address"
        }
      ],
      "name": "inviteMember",
      "outputs": [],
      "stateMutability": "nonpayable",
      "type": "function"
    },
    {
      "inputs": [],
      "name": "isActive",
      "outputs": [
        {
          "internalType": "bool",
          "name": "",
          "type": "bool"
        }
      ],
      "stateMutability": "view",
      "type": "function"
    },
    {
      "inputs": [],
      "name": "isComplete",
      "outputs": [
        {
          "internalType": "bool",
          "name": "",
          "type": "bool"
        }
      ],
      "stateMutability": "view",
      "type": "function"
    },
    {
      "inputs": [
        {
          "internalType": "address",
          "name": "",
          "type": "address"
        }
      ],
      "name": "isInvited",
      "outputs": [
        {
          "internalType": "bool",
          "name": "",
          "type": "bool"
        }
      ],
      "stateMutability": "view",
      "type": "function"
    },
    {
      "inputs": [
        {
          "internalType": "address",
          "name": "",
          "type": "address"
        }
      ],
      "name": "isMember",
      "outputs": [
        {
          "internalType": "bool",
          "name": "",
          "type": "bool"
        }
      ],
      "stateMutability": "view",
      "type": "function"
    },
    {
      "inputs": [],
      "name": "isNativeToken",
      "outputs": [
        {
          "internalType": "bool",
          "name": "",
          "type": "bool"
        }
      ],
      "stateMutability": "view",
      "type": "function"
    },
    {
      "inputs": [],
      "name": "joinPool",
      "outputs": [],
      "stateMutability": "nonpayable",
      "type": "function"
    },
    {
      "inputs": [
        {
          "internalType": "uint256",
          "name": "",
          "type": "uint256"
        }
      ],
      "name": "members",
      "outputs": [
        {
          "internalType": "address",
          "name": "",
          "type": "address"
        }
      ],
      "stateMutability": "view",
      "type": "function"
    },
    {
      "inputs": [],
      "name": "pause",
      "outputs": [],
      "stateMutability": "nonpayable",
      "type": "function"
    },
    {
      "inputs": [],
      "name": "paused",
      "outputs": [
        {
          "internalType": "bool",
          "name": "",
          "type": "bool"
        }
      ],
      "stateMutability": "view",
      "type": "function"
    },
    {
      "inputs": [
        {
          "internalType": "uint256",
          "name": "",
          "type": "uint256"
        }
      ],
      "name": "payoutOrder",
      "outputs": [
        {
          "internalType": "address",
          "name": "",
          "type": "address"
        }
      ],
      "stateMutability": "view",
      "type": "function"
    },
    {
      "inputs": [],
      "name": "roscaStartTime",
      "outputs": [
        {
          "internalType": "uint256",
          "name": "",
          "type": "uint256"
        }
      ],
      "stateMutability": "view",
      "type": "function"
    },
    {
      "inputs": [],
      "name": "startNextRound",
      "outputs": [],
      "stateMutability": "nonpayable",
      "type": "function"
    },
    {
      "inputs": [
        {
          "internalType": "address[]",
          "name": "_payoutOrder",
          "type": "address[]"
        }
      ],
      "name": "startROSCA",
      "outputs": [],
      "stateMutability": "nonpayable",
      "type": "function"
    },
    {
      "inputs": [],
      "name": "tokenAddress",
      "outputs": [
        {
          "internalType": "address",
          "name": "",
          "type": "address"
        }
      ],
      "stateMutability": "view",
      "type": "function"
    },
    {
      "inputs": [
        {
          "internalType": "address",
          "name": "",
          "type": "address"
        }
      ],
      "name": "totalContributed",
      "outputs": [
        {
          "internalType": "uint256",
          "name": "",
          "type": "uint256"
        }
      ],
      "stateMutability": "view",
      "type": "function"
    },
    {
      "inputs": [],
      "name": "triggerPayout",
      "outputs": [],
      "stateMutability": "nonpayable",
      "type": "function"
    },
    {
      "inputs": [],
      "name": "unpause",
      "outputs": [],
      "stateMutability": "nonpayable",
      "type": "function"
    }
  ],
  "transactionHash": "0x30f44e71e45189b0ee2541fef77479a4636dbfd9cdc2c4cd59c107f8ece2439e",
  "args": [],
  "numDeployments": 2,
  "solcInputHash": "2f1eff11fbe05df8055400b81911febb",
  "bytecode": "0x608060405234801561001057600080fd5b5060016000819055805460ff191690556011805462ff0000191662010000179055612656806100406000396000f3fe60806040526004361061023b5760003560e01c80636c9d99191161012e578063a9e6c7fb116100ab578063d7bb99ba1161006f578063d7bb99ba14610695578063d9a672201461069d578063e24d65f9146106b2578063ea0e35b1146106d2578063eca42fba146106e757600080fd5b8063a9e6c7fb14610607578063b2fa1c9e1461061d578063c30db7461461063c578063cccf25601461065c578063cd421fbf1461067e57600080fd5b80639af4ee7e116100f25780639af4ee7e146105545780639d76ea58146105755780639eab525314610595578063a0f243b8146105aa578063a230c524146105d757600080fd5b80636c9d9919146104c95780638371e6b4146104e95780638456cb59146104fe5780638a19c8bc14610513578063997072f71461053f57600080fd5b8063380dd901116101bc57806359bbcb3d1161018057806359bbcb3d146104515780635c975abb146104665780635daf08ca1461047e5780635fa0b65f1461049e57806362a4e0f1146104b457600080fd5b8063380dd901146103b45780633c3ccc44146103ca5780633f08399c146103df5780633f4ba83a1461041a57806343662f4e1461042f57600080fd5b8063194e36f511610203578063194e36f5146103055780631dcbe5001461031a57806322f3e2d41461034a5780632f890b9314610364578063346477c71461038457600080fd5b806302d05d3f1461024057806305a95f0414610282578063063fcfcc146102995780630b529a17146102c857806312065fe0146102e8575b600080fd5b34801561024c57600080fd5b506001546102659061010090046001600160a01b031681565b6040516001600160a01b0390911681526020015b60405180910390f35b34801561028e57600080fd5b50610297610707565b005b3480156102a557600080fd5b50600c546102b890610100900460ff1681565b6040519015158152602001610279565b3480156102d457600080fd5b506102656102e33660046120a6565b6109ba565b3480156102f457600080fd5b50475b604051908152602001610279565b34801561031157600080fd5b506102656109e4565b34801561032657600080fd5b506102b86103353660046120db565b60096020526000908152604090205460ff1681565b34801561035657600080fd5b506011546102b89060ff1681565b34801561037057600080fd5b5061029761037f3660046120db565b610a4c565b34801561039057600080fd5b506102b861039f3660046120db565b600d6020526000908152604090205460ff1681565b3480156103c057600080fd5b506102f760105481565b3480156103d657600080fd5b50610297610c0c565b3480156103eb57600080fd5b506102b86103fa3660046120f6565b600e60209081526000928352604080842090915290825290205460ff1681565b34801561042657600080fd5b50610297610e3f565b34801561043b57600080fd5b50610444610e76565b6040516102799190612133565b34801561045d57600080fd5b506102b8610ed8565b34801561047257600080fd5b5060015460ff166102b8565b34801561048a57600080fd5b506102656104993660046120a6565b610ee7565b3480156104aa57600080fd5b506102f760065481565b3480156104c057600080fd5b50610444610ef7565b3480156104d557600080fd5b506102976104e43660046121b2565b6110a5565b3480156104f557600080fd5b506102976113f6565b34801561050a57600080fd5b50610297611589565b34801561051f57600080fd5b50600c5461052d9060ff1681565b60405160ff9091168152602001610279565b34801561054b57600080fd5b506007546102f7565b34801561056057600080fd5b506005546102b890600160a01b900460ff1681565b34801561058157600080fd5b50600554610265906001600160a01b031681565b3480156105a157600080fd5b506104446115c0565b3480156105b657600080fd5b506102f76105c53660046120db565b600a6020526000908152604090205481565b3480156105e357600080fd5b506102b86105f23660046120db565b60086020526000908152604090205460ff1681565b34801561061357600080fd5b506102f7600f5481565b34801561062957600080fd5b506011546102b890610100900460ff1681565b34801561064857600080fd5b50600354610265906001600160a01b031681565b34801561066857600080fd5b50610671611620565b60405161027991906122c0565b34801561068a57600080fd5b506102f762278d0081565b6102976116ae565b3480156106a957600080fd5b5061052d600581565b3480156106be57600080fd5b50600254610265906001600160a01b031681565b3480156106de57600080fd5b5061052d600c81565b3480156106f357600080fd5b5061029761070236600461230e565b611922565b60115460ff1680156107215750601154610100900460ff16155b6107645760405162461bcd60e51b815260206004820152600f60248201526e506f6f6c206e6f742061637469766560881b60448201526064015b60405180910390fd5b61076c611aed565b610774611b11565b61077c611b3b565b6107c05760405162461bcd60e51b8152602060048201526015602482015274139bdd08195d995c9e5bdb99481a185cc81c185a59605a1b604482015260640161075b565b600c54610100900460ff16156108115760405162461bcd60e51b8152602060048201526016602482015275149bdd5b9908185b1c9958591e481c185a59081bdd5d60521b604482015260640161075b565b600c54600090600b906108299060019060ff16612399565b60ff168154811061083c5761083c6123b8565b6000918252602090912001546001600160a01b031690503381146108a25760405162461bcd60e51b815260206004820152601f60248201527f4f6e6c7920726563697069656e742063616e20636c61696d207061796f757400604482015260640161075b565b600c805461ff0019166101001790556001600160a01b0381166000908152600d60205260408120805460ff191660011790556007546006546108e491906123ce565b60055490915061090a906001600160a01b03811690600160a01b900460ff168484611bbc565b600c546040805183815260ff90921660208301526001600160a01b038416917f882acae0bded9e8351bc191c3a610fdfdfc5c20f670b69c7569ae0fbdeda81b8910160405180910390a2600754600c5460ff16106109ac576011805461ffff19166101001790556040517fd57799724d5c069e66abd552aca9bc70e8f36d98f34d0d84841983bc469a4e4a906109a39042815260200190565b60405180910390a15b50506109b86001600055565b565b600b81815481106109ca57600080fd5b6000918252602090912001546001600160a01b0316905081565b600c5460009060ff1615806109ff5750600b54600c5460ff16115b15610a0a5750600090565b600c54600b90610a1f9060019060ff16612399565b60ff1681548110610a3257610a326123b8565b6000918252602090912001546001600160a01b0316919050565b60015461010090046001600160a01b0316331480610a7457506002546001600160a01b031633145b610ac05760405162461bcd60e51b815260206004820152601760248201527f4f6e6c792063726561746f72206f72206261636b656e64000000000000000000604482015260640161075b565b610ac8611aed565b60115460ff1615610b1b5760405162461bcd60e51b815260206004820181905260248201527f43616e6e6f7420696e7669746520616674657220524f53434120737461727473604482015260640161075b565b6001600160a01b03811660009081526009602052604090205460ff1615610b765760405162461bcd60e51b815260206004820152600f60248201526e105b1c9958591e481a5b9d9a5d1959608a1b604482015260640161075b565b600754600c11610bbe5760405162461bcd60e51b815260206004820152601360248201527213585e081b595b58995c9cc81c995858da1959606a1b604482015260640161075b565b6001600160a01b038116600081815260096020526040808220805460ff19166001179055513392917f6c246c8894ac239253d22cd508dbe8eb7e027e0589cdd4ff16dbb4238ccd983491a350565b3360009081526008602052604090205460ff16610c5a5760405162461bcd60e51b815260206004820152600c60248201526b2737ba10309036b2b6b132b960a11b604482015260640161075b565b610c62611aed565b60115460ff168015610c7c5750601154610100900460ff16155b610cbb5760405162461bcd60e51b815260206004820152601060248201526f524f534341206e6f742061637469766560801b604482015260640161075b565b600c54610100900460ff16610d125760405162461bcd60e51b815260206004820152601a60248201527f43757272656e7420726f756e64206e6f742070616964206f7574000000000000604482015260640161075b565b600754600c5460ff1610610d5e5760405162461bcd60e51b8152602060048201526013602482015272416c6c20726f756e647320636f6d706c65746560681b604482015260640161075b565b62278d00601054610d6f91906123e5565b421015610dbe5760405162461bcd60e51b815260206004820152601960248201527f33302d646179206379636c65206e6f7420636f6d706c65746500000000000000604482015260640161075b565b600c805460ff16906000610dd1836123f8565b82546101009290920a60ff818102199093169183160217909155426010819055600c805461ff001981169091556040805191909316815260208101919091527ff7104ec8d70cbee7bb54da17843aa32c11b77c11c6197f005ec8b2b4f5de69589250015b60405180910390a1565b60015461010090046001600160a01b03163314610e6e5760405162461bcd60e51b815260040161075b90612417565b6109b8611cd8565b6060600b805480602002602001604051908101604052809291908181526020018280548015610ece57602002820191906000526020600020905b81546001600160a01b03168152600190910190602001808311610eb0575b5050505050905090565b6000610ee2611b3b565b905090565b600781815481106109ca57600080fd5b60606000805b600754811015610f7957600e600060078381548110610f1e57610f1e6123b8565b60009182526020808320909101546001600160a01b031683528281019390935260409182018120600c5460ff9081168352935220541615610f675781610f638161244e565b9250505b80610f718161244e565b915050610efd565b5060008167ffffffffffffffff811115610f9557610f95612180565b604051908082528060200260200182016040528015610fbe578160200160208202803683370190505b5090506000805b60075481101561109c57600e600060078381548110610fe657610fe66123b8565b60009182526020808320909101546001600160a01b031683528281019390935260409182018120600c5460ff908116835293522054161561108a5760078181548110611034576110346123b8565b9060005260206000200160009054906101000a90046001600160a01b0316838381518110611064576110646123b8565b6001600160a01b0390921660209283029190910190910152816110868161244e565b9250505b806110948161244e565b915050610fc5565b50909392505050565b60115462010000900460ff16156110f45760405162461bcd60e51b8152602060048201526013602482015272105b1c9958591e481a5b9a5d1a585b1a5e9959606a1b604482015260640161075b565b6011805462ff0000191662010000179055826111525760405162461bcd60e51b815260206004820152601b60248201527f496e76616c696420636f6e747269627574696f6e20616d6f756e740000000000604482015260640161075b565b6001600160a01b0384166111a85760405162461bcd60e51b815260206004820152601760248201527f496e76616c6964206261636b656e64206d616e61676572000000000000000000604482015260640161075b565b801561121e576001600160a01b038216156112195760405162461bcd60e51b815260206004820152602b60248201527f546f6b656e2061646472657373206d757374206265207a65726f20666f72206e60448201526a30ba34bb32903a37b5b2b760a91b606482015260840161075b565b611274565b6001600160a01b0382166112745760405162461bcd60e51b815260206004820152601f60248201527f496e76616c696420746f6b656e206164647265737320666f7220455243323000604482015260640161075b565b600180546001600160a01b03808a1661010002610100600160a81b031990921691909117909155600280548683166001600160a01b031991821617909155600380549289169290911691909117905560046112cf86826124ef565b506006839055600580546001600160a01b038481166001600160a81b031990921691909117600160a01b84151502179091556007805460018181019092557fa66cc928b5edb82af9bd49922954155ab7b0942694bea4ce44661d9a8736c6880180546001600160a01b0319168a84169081179091556000818152600860209081526040808320805460ff19908116871790915560098352928190208054909316909417909155915186815290928916917f8e5acdd034f8bf8fded53cd37f8b0cb6a72b385988e92dc71f664f5dfcfcd8a7910160405180910390a3866001600160a01b03167f7f3b9effe05cfb4f31f854004de03199fd03fe56bf38a48b2aa9a9f4402d6e23426040516113e591815260200190565b60405180910390a250505050505050565b3360009081526009602052604090205460ff166114435760405162461bcd60e51b815260206004820152600b60248201526a139bdd081a5b9d9a5d195960aa1b604482015260640161075b565b61144b611aed565b60115460ff161561149e5760405162461bcd60e51b815260206004820152601e60248201527f43616e6e6f74206a6f696e20616674657220524f534341207374617274730000604482015260640161075b565b3360009081526008602052604090205460ff16156114f15760405162461bcd60e51b815260206004820152601060248201526f20b63932b0b23c90309036b2b6b132b960811b604482015260640161075b565b6007805460018181019092557fa66cc928b5edb82af9bd49922954155ab7b0942694bea4ce44661d9a8736c6880180546001600160a01b0319163390811790915560008181526008602052604090819020805460ff191690931790925590517f7f3b9effe05cfb4f31f854004de03199fd03fe56bf38a48b2aa9a9f4402d6e239061157f9042815260200190565b60405180910390a2565b60015461010090046001600160a01b031633146115b85760405162461bcd60e51b815260040161075b90612417565b6109b8611d25565b60606007805480602002602001604051908101604052809291908181526020018280548015610ece576020028201919060005260206000209081546001600160a01b03168152600190910190602001808311610eb0575050505050905090565b6004805461162d90612467565b80601f016020809104026020016040519081016040528092919081815260200182805461165990612467565b80156116a65780601f1061167b576101008083540402835291602001916116a6565b820191906000526020600020905b81548152906001019060200180831161168957829003601f168201915b505050505081565b3360009081526008602052604090205460ff166116fc5760405162461bcd60e51b815260206004820152600c60248201526b2737ba10309036b2b6b132b960a11b604482015260640161075b565b60115460ff1680156117165750601154610100900460ff16155b6117545760405162461bcd60e51b815260206004820152600f60248201526e506f6f6c206e6f742061637469766560881b604482015260640161075b565b61175c611aed565b611764611b11565b336000908152600e60209081526040808320600c5460ff908116855292529091205416156117ca5760405162461bcd60e51b8152602060048201526013602482015272105b1c9958591e4818dbdb9d1c9a589d5d1959606a1b604482015260640161075b565b600754600c5460ff1611156118175760405162461bcd60e51b8152602060048201526013602482015272416c6c20726f756e647320636f6d706c65746560681b604482015260640161075b565b336000818152600e60209081526040808320600c5460ff1684528252808320805460ff19166001179055600654938352600a9091528120805490919061185e9084906123e5565b9091555050600554600654611889916001600160a01b03811691600160a01b90910460ff1690611d60565b50600c546006546040805160ff9093168352602083019190915233917fe18ade3c83eb782f6b575ec07c91d1dce24ca2893272cabc5d86e759110d3b65910160405180910390a26118d8611b3b565b1561191857600c5460405160ff90911681527f78a0925e040149ea78c23d3aabf9577f31cb0afe2252a07da3322fb93f9c697d9060200160405180910390a15b6109b86001600055565b60015461010090046001600160a01b031633146119515760405162461bcd60e51b815260040161075b90612417565b611959611aed565b60115460ff161561199e5760405162461bcd60e51b815260206004820152600f60248201526e105b1c9958591e481cdd185c9d1959608a1b604482015260640161075b565b600754600511156119e65760405162461bcd60e51b81526020600482015260126024820152714e6f7420656e6f756768206d656d6265727360701b604482015260640161075b565b6007548114611a375760405162461bcd60e51b815260206004820152601b60248201527f496e76616c6964207061796f7574206f72646572206c656e6774680000000000604482015260640161075b565b611a418282611e7b565b611a4d600b838361202e565b5060118054600160ff199182168117909255600c8054909116909117905542600f81905560108190556040517f7e680909351c6b66c0ef9f13e0724b2785bb330a595466a2b2bf175f69df01e891611aa891859185916125af565b60405180910390a160408051600181524260208201527ff7104ec8d70cbee7bb54da17843aa32c11b77c11c6197f005ec8b2b4f5de6958910160405180910390a15050565b60015460ff16156109b85760405163d93c066560e01b815260040160405180910390fd5b600260005403611b3457604051633ee5aeb560e01b815260040160405180910390fd5b6002600055565b6000805b600754811015611bb457600e600060078381548110611b6057611b606123b8565b60009182526020808320909101546001600160a01b031683528281019390935260409182018120600c5460ff90811683529352205416611ba257600091505090565b80611bac8161244e565b915050611b3f565b506001905090565b8215611c5d576000826001600160a01b03168260405160006040518083038185875af1925050503d8060008114611c0f576040519150601f19603f3d011682016040523d82523d6000602084013e611c14565b606091505b5050905080611c575760405162461bcd60e51b815260206004820152600f60248201526e151c985b9cd9995c8819985a5b1959608a1b604482015260640161075b565b50611cd2565b60405163a9059cbb60e01b81526001600160a01b0383811660048301526024820183905285169063a9059cbb906044016020604051808303816000875af1158015611cac573d6000803e3d6000fd5b505050506040513d601f19601f82011682018060405250810190611cd09190612603565b505b50505050565b611ce061200b565b6001805460ff191690557f5db9ee0a495bf2e6ff9c91a7834c1ba4fdd244a5e8aa4e537bd38aeae4b073aa335b6040516001600160a01b039091168152602001610e35565b611d2d611aed565b6001805460ff1916811790557f62e78cea01bee320cd4e420270b5ea74000d11b0c9f74754ebdbfc544b05a25833611d0d565b60008215611db85760003411611db15760405162461bcd60e51b815260206004820152601660248201527526bab9ba1039b2b732103730ba34bb32903a37b5b2b760511b604482015260640161075b565b5034611e74565b3415611df85760405162461bcd60e51b815260206004820152600f60248201526e2737903730ba34bb32903a37b5b2b760891b604482015260640161075b565b6040516323b872dd60e01b8152336004820152306024820152604481018390526001600160a01b038516906323b872dd906064016020604051808303816000875af1158015611e4b573d6000803e3d6000fd5b505050506040513d601f19601f82011682018060405250810190611e6f9190612603565b508190505b9392505050565b60005b81811015612006576000838383818110611e9a57611e9a6123b8565b9050602002016020810190611eaf91906120db565b6001600160a01b03811660009081526008602052604090205490915060ff16611f1a5760405162461bcd60e51b815260206004820181905260248201527f5061796f7574206f7264657220636f6e7461696e73206e6f6e2d6d656d626572604482015260640161075b565b6000611f278360016123e5565b90505b83811015611ff157848482818110611f4457611f446123b8565b9050602002016020810190611f5991906120db565b6001600160a01b0316858585818110611f7457611f746123b8565b9050602002016020810190611f8991906120db565b6001600160a01b031603611fdf5760405162461bcd60e51b815260206004820152601960248201527f4475706c696361746520696e207061796f7574206f7264657200000000000000604482015260640161075b565b80611fe98161244e565b915050611f2a565b50508080611ffe9061244e565b915050611e7e565b505050565b60015460ff166109b857604051638dfc202b60e01b815260040160405180910390fd5b828054828255906000526020600020908101928215612081579160200282015b828111156120815781546001600160a01b0319166001600160a01b0384351617825560209092019160019091019061204e565b5061208d929150612091565b5090565b5b8082111561208d5760008155600101612092565b6000602082840312156120b857600080fd5b5035919050565b80356001600160a01b03811681146120d657600080fd5b919050565b6000602082840312156120ed57600080fd5b611e74826120bf565b6000806040838503121561210957600080fd5b612112836120bf565b9150602083013560ff8116811461212857600080fd5b809150509250929050565b6020808252825182820181905260009190848201906040850190845b818110156121745783516001600160a01b03168352928401929184019160010161214f565b50909695505050505050565b634e487b7160e01b600052604160045260246000fd5b80151581146121a457600080fd5b50565b80356120d681612196565b600080600080600080600060e0888a0312156121cd57600080fd5b6121d6886120bf565b96506121e4602089016120bf565b9550604088013567ffffffffffffffff8082111561220157600080fd5b818a0191508a601f83011261221557600080fd5b81358181111561222757612227612180565b604051601f8201601f19908116603f0116810190838211818310171561224f5761224f612180565b816040528281528d602084870101111561226857600080fd5b82602086016020830137600060208483010152809950505050505061228f606089016120bf565b9350608088013592506122a460a089016120bf565b91506122b260c089016121a7565b905092959891949750929550565b600060208083528351808285015260005b818110156122ed578581018301518582016040015282016122d1565b506000604082860101526040601f19601f8301168501019250505092915050565b6000806020838503121561232157600080fd5b823567ffffffffffffffff8082111561233957600080fd5b818501915085601f83011261234d57600080fd5b81358181111561235c57600080fd5b8660208260051b850101111561237157600080fd5b60209290920196919550909350505050565b634e487b7160e01b600052601160045260246000fd5b60ff82811682821603908111156123b2576123b2612383565b92915050565b634e487b7160e01b600052603260045260246000fd5b80820281158282048414176123b2576123b2612383565b808201808211156123b2576123b2612383565b600060ff821660ff810361240e5761240e612383565b60010192915050565b6020808252601a908201527f4f6e6c792063726561746f722063616e2063616c6c2074686973000000000000604082015260600190565b60006001820161246057612460612383565b5060010190565b600181811c9082168061247b57607f821691505b60208210810361249b57634e487b7160e01b600052602260045260246000fd5b50919050565b601f82111561200657600081815260208120601f850160051c810160208610156124c85750805b601f850160051c820191505b818110156124e7578281556001016124d4565b505050505050565b815167ffffffffffffffff81111561250957612509612180565b61251d816125178454612467565b846124a1565b602080601f831160018114612552576000841561253a5750858301515b600019600386901b1c1916600185901b1785556124e7565b600085815260208120601f198616915b8281101561258157888601518255948401946001909101908401612562565b508582101561259f5787850151600019600388901b60f8161c191681555b5050505050600190811b01905550565b6040808252810183905260008460608301825b868110156125f0576001600160a01b036125db846120bf565b168252602092830192909101906001016125c2565b5060209390930193909352509392505050565b60006020828403121561261557600080fd5b8151611e748161219656fea264697066735822122045e0502e243904e0e58e13d53ee908864ac0497cbf54581d05d912e87ac8cfc964736f6c63430008140033",
  "devdoc": {
    "details": "Members contribute fixed amounts each round, one member receives the pot each round Payout order is provided off-chain by the creator for fairness and transparency",
    "errors": {
      "EnforcedPause()": [
        {
          "details": "The operation failed because the contract is paused."
        }
      ],
      "ExpectedPause()": [
        {
          "details": "The operation failed because the contract is not paused."
        }
      ],
      "ReentrancyGuardReentrantCall()": [
        {
          "details": "Unauthorized reentrant call."
        }
      ]
    },
    "events": {
      "Paused(address)": {
        "details": "Emitted when the pause is triggered by `account`."
      },
      "Unpaused(address)": {
        "details": "Emitted when the pause is lifted by `account`."
      }
    },
    "kind": "dev",
    "methods": {
      "constructor": {
        "details": "Prevents the implementation contract from being initialized"
      },
      "contribute()": {
        "details": "For ERC20: Member must have approved the contract to spend tokens before calling      For native token: Must send exact amount of native currency"
      },
      "everyonePaid()": {
        "returns": {
          "_0": "True if all members have contributed, false otherwise"
        }
      },
      "getBalance()": {
        "returns": {
          "_0": "Balance in wei"
        }
      },
      "getCurrentRecipient()": {
        "returns": {
          "_0": "Address of the member who should receive payout this round"
        }
      },
      "getMemberCount()": {
        "returns": {
          "_0": "Member count"
        }
      },
      "getMembers()": {
        "returns": {
          "_0": "Array of member addresses"
        }
      },
      "getPayoutOrder()": {
        "returns": {
          "_0": "Array of addresses in payout order"
        }
      },
      "getRoundContributors()": {
        "returns": {
          "_0": "Array of addresses who have paid"
        }
      },
      "initialize(address,address,string,address,uint256,address,bool)": {
        "details": "This replaces the constructor for cloned instances",
        "params": {
          "_backendManager": "Address of the backend manager (can invite members)",
          "_circleId": "Address of the Lens.xyz circle contract",
          "_circleName": "Name of the circle",
          "_contributionAmount": "Fixed contribution amount per round",
          "_creator": "Address of the user creating the pool",
          "_isNativeToken": "Whether this pool uses native token (cBTC) or ERC20 token",
          "_tokenAddress": "Address of the ERC20 token to use for contributions (zero address if native)"
        }
      },
      "inviteMember(address)": {
        "details": "Creator or backend manager can invite, only before ROSCA starts",
        "params": {
          "member": "Address of the member to invite"
        }
      },
      "joinPool()": {
        "details": "Can only join before ROSCA starts"
      },
      "pause()": {
        "details": "Only creator can pause"
      },
      "paused()": {
        "details": "Returns true if the contract is paused, and false otherwise."
      },
      "startNextRound()": {
        "details": "Any member can call this after the 30-day cycle is complete"
      },
      "startROSCA(address[])": {
        "details": "Only creator can start, requires min members, payout order generated off-chain",
        "params": {
          "_payoutOrder": "Array of addresses defining payout order (must include all members exactly once)"
        }
      },
      "triggerPayout()": {
        "details": "Only the designated recipient can trigger their own payout Requires all members to have contributed for the current round"
      },
      "unpause()": {
        "details": "Only creator can unpause"
      }
    },
    "title": "ROSCAPool",
    "version": 1
  },
  "userdoc": {
    "kind": "user",
    "methods": {
      "CYCLE_DURATION()": {
        "notice": "Duration of each cycle/round in seconds (30 days)"
      },
      "MAX_MEMBERS()": {
        "notice": "Maximum number of members allowed in a ROSCA"
      },
      "MIN_MEMBERS()": {
        "notice": "Minimum number of members required to start a ROSCA"
      },
      "backendManager()": {
        "notice": "Address of the backend manager (can invite members)"
      },
      "circleId()": {
        "notice": "Address of the Lens.xyz circle contract"
      },
      "circleName()": {
        "notice": "Human-readable name of the circle"
      },
      "constructor": {
        "notice": "Constructor for implementation contract"
      },
      "contribute()": {
        "notice": "Allows a member to contribute for the current round"
      },
      "contributionAmount()": {
        "notice": "Fixed contribution amount per round in wei"
      },
      "creator()": {
        "notice": "Address of the user who created this pool"
      },
      "currentRound()": {
        "notice": "Current round number (1-indexed)"
      },
      "currentRoundPaidOut()": {
        "notice": "Whether the current round's payout has been completed"
      },
      "currentRoundStartTime()": {
        "notice": "Timestamp when the current round started"
      },
      "everyonePaid()": {
        "notice": "Checks if everyone has paid for the current round"
      },
      "getBalance()": {
        "notice": "Gets the contract's current balance"
      },
      "getCurrentRecipient()": {
        "notice": "Gets the current round's recipient"
      },
      "getMemberCount()": {
        "notice": "Gets the total number of members"
      },
      "getMembers()": {
        "notice": "Gets all members"
      },
      "getPayoutOrder()": {
        "notice": "Gets the complete payout order"
      },
      "getRoundContributors()": {
        "notice": "Gets list of members who have contributed in the current round"
      },
      "hasPaid(address,uint8)": {
        "notice": "Tracks whether a member has paid for a specific round"
      },
      "hasReceivedPayout(address)": {
        "notice": "Mapping to track which members have received their payout"
      },
      "initialize(address,address,string,address,uint256,address,bool)": {
        "notice": "Initializes a new ROSCA pool clone"
      },
      "inviteMember(address)": {
        "notice": "Invites a new member to the ROSCA"
      },
      "isActive()": {
        "notice": "Whether the ROSCA is currently active"
      },
      "isComplete()": {
        "notice": "Whether the ROSCA has completed all rounds"
      },
      "isInvited(address)": {
        "notice": "Mapping to check if an address has been invited"
      },
      "isMember(address)": {
        "notice": "Mapping to check if an address is a member"
      },
      "isNativeToken()": {
        "notice": "Whether this pool uses native token (cBTC) or ERC20 token"
      },
      "joinPool()": {
        "notice": "Allows an invited member to join the pool"
      },
      "members(uint256)": {
        "notice": "Array of all members in the pool"
      },
      "pause()": {
        "notice": "Pauses the contract in case of emergency"
      },
      "payoutOrder(uint256)": {
        "notice": "Array defining the order in which members receive payouts"
      },
      "roscaStartTime()": {
        "notice": "Timestamp when the ROSCA was started"
      },
      "startNextRound()": {
        "notice": "Starts the next round after the cycle duration has passed"
      },
      "startROSCA(address[])": {
        "notice": "Starts the ROSCA with a provided payout order"
      },
      "tokenAddress()": {
        "notice": "Address of the ERC20 token used for contributions (zero address if native token)"
      },
      "totalContributed(address)": {
        "notice": "Total amount contributed by each member across all rounds"
      },
      "triggerPayout()": {
        "notice": "Triggers the payout for the current round"
      },
      "unpause()": {
        "notice": "Unpauses the contract"
      }
    },
    "notice": "Rotating Savings and Credit Association pool implementation",
    "version": 1
  },
  "storageLayout": {
    "storage": [
      {
        "astId": 468,
        "contract": "contracts/pools/ROSCAPool.sol:ROSCAPool",
        "label": "_status",
        "offset": 0,
        "slot": "0",
        "type": "t_uint256"
      },
      {
        "astId": 349,
        "contract": "contracts/pools/ROSCAPool.sol:ROSCAPool",
        "label": "_paused",
        "offset": 0,
        "slot": "1",
        "type": "t_bool"
      },
      {
        "astId": 2223,
        "contract": "contracts/pools/ROSCAPool.sol:ROSCAPool",
        "label": "creator",
        "offset": 1,
        "slot": "1",
        "type": "t_address"
      },
      {
        "astId": 2226,
        "contract": "contracts/pools/ROSCAPool.sol:ROSCAPool",
        "label": "backendManager",
        "offset": 0,
        "slot": "2",
        "type": "t_address"
      },
      {
        "astId": 2229,
        "contract": "contracts/pools/ROSCAPool.sol:ROSCAPool",
        "label": "circleId",
        "offset": 0,
        "slot": "3",
        "type": "t_address"
      },
      {
        "astId": 2232,
        "contract": "contracts/pools/ROSCAPool.sol:ROSCAPool",
        "label": "circleName",
        "offset": 0,
        "slot": "4",
        "type": "t_string_storage"
      },
      {
        "astId": 2235,
        "contract": "contracts/pools/ROSCAPool.sol:ROSCAPool",
        "label": "tokenAddress",
        "offset": 0,
        "slot": "5",
        "type": "t_address"
      },
      {
        "astId": 2238,
        "contract": "contracts/pools/ROSCAPool.sol:ROSCAPool",
        "label": "isNativeToken",
        "offset": 20,
        "slot": "5",
        "type": "t_bool"
      },
      {
        "astId": 2241,
        "contract": "contracts/pools/ROSCAPool.sol:ROSCAPool",
        "label": "contributionAmount",
        "offset": 0,
        "slot": "6",
        "type": "t_uint256"
      },
      {
        "astId": 2245,
        "contract": "contracts/pools/ROSCAPool.sol:ROSCAPool",
        "label": "members",
        "offset": 0,
        "slot": "7",
        "type": "t_array(t_address)dyn_storage"
      },
      {
        "astId": 2250,
        "contract": "contracts/pools/ROSCAPool.sol:ROSCAPool",
        "label": "isMember",
        "offset": 0,
        "slot": "8",
        "type": "t_mapping(t_address,t_bool)"
      },
      {
        "astId": 2255,
        "contract": "contracts/pools/ROSCAPool.sol:ROSCAPool",
        "label": "isInvited",
        "offset": 0,
        "slot": "9",
        "type": "t_mapping(t_address,t_bool)"
      },
      {
        "astId": 2260,
        "contract": "contracts/pools/ROSCAPool.sol:ROSCAPool",
        "label": "totalContributed",
        "offset": 0,
        "slot": "10",
        "type": "t_mapping(t_address,t_uint256)"
      },
      {
        "astId": 2264,
        "contract": "contracts/pools/ROSCAPool.sol:ROSCAPool",
        "label": "payoutOrder",
        "offset": 0,
        "slot": "11",
        "type": "t_array(t_address)dyn_storage"
      },
      {
        "astId": 2267,
        "contract": "contracts/pools/ROSCAPool.sol:ROSCAPool",
        "label": "currentRound",
        "offset": 0,
        "slot": "12",
        "type": "t_uint8"
      },
      {
        "astId": 2270,
        "contract": "contracts/pools/ROSCAPool.sol:ROSCAPool",
        "label": "currentRoundPaidOut",
        "offset": 1,
        "slot": "12",
        "type": "t_bool"
      },
      {
        "astId": 2275,
        "contract": "contracts/pools/ROSCAPool.sol:ROSCAPool",
        "label": "hasReceivedPayout",
        "offset": 0,
        "slot": "13",
        "type": "t_mapping(t_address,t_bool)"
      },
      {
        "astId": 2282,
        "contract": "contracts/pools/ROSCAPool.sol:ROSCAPool",
        "label": "hasPaid",
        "offset": 0,
        "slot": "14",
        "type": "t_mapping(t_address,t_mapping(t_uint8,t_bool))"
      },
      {
        "astId": 2285,
        "contract": "contracts/pools/ROSCAPool.sol:ROSCAPool",
        "label": "roscaStartTime",
        "offset": 0,
        "slot": "15",
        "type": "t_uint256"
      },
      {
        "astId": 2288,
        "contract": "contracts/pools/ROSCAPool.sol:ROSCAPool",
        "label": "currentRoundStartTime",
        "offset": 0,
        "slot": "16",
        "type": "t_uint256"
      },
      {
        "astId": 2291,
        "contract": "contracts/pools/ROSCAPool.sol:ROSCAPool",
        "label": "isActive",
        "offset": 0,
        "slot": "17",
        "type": "t_bool"
      },
      {
        "astId": 2294,
        "contract": "contracts/pools/ROSCAPool.sol:ROSCAPool",
        "label": "isComplete",
        "offset": 1,
        "slot": "17",
        "type": "t_bool"
      },
      {
        "astId": 2297,
        "contract": "contracts/pools/ROSCAPool.sol:ROSCAPool",
        "label": "initialized",
        "offset": 2,
        "slot": "17",
        "type": "t_bool"
      }
    ],
    "types": {
      "t_address": {
        "encoding": "inplace",
        "label": "address",
        "numberOfBytes": "20"
      },
      "t_array(t_address)dyn_storage": {
        "base": "t_address",
        "encoding": "dynamic_array",
        "label": "address[]",
        "numberOfBytes": "32"
      },
      "t_bool": {
        "encoding": "inplace",
        "label": "bool",
        "numberOfBytes": "1"
      },
      "t_mapping(t_address,t_bool)": {
        "encoding": "mapping",
        "key": "t_address",
        "label": "mapping(address => bool)",
        "numberOfBytes": "32",
        "value": "t_bool"
      },
      "t_mapping(t_address,t_mapping(t_uint8,t_bool))": {
        "encoding": "mapping",
        "key": "t_address",
        "label": "mapping(address => mapping(uint8 => bool))",
        "numberOfBytes": "32",
        "value": "t_mapping(t_uint8,t_bool)"
      },
      "t_mapping(t_address,t_uint256)": {
        "encoding": "mapping",
        "key": "t_address",
        "label": "mapping(address => uint256)",
        "numberOfBytes": "32",
        "value": "t_uint256"
      },
      "t_mapping(t_uint8,t_bool)": {
        "encoding": "mapping",
        "key": "t_uint8",
        "label": "mapping(uint8 => bool)",
        "numberOfBytes": "32",
        "value": "t_bool"
      },
      "t_string_storage": {
        "encoding": "bytes",
        "label": "string",
        "numberOfBytes": "32"
      },
      "t_uint256": {
        "encoding": "inplace",
        "label": "uint256",
        "numberOfBytes": "32"
      },
      "t_uint8": {
        "encoding": "inplace",
        "label": "uint8",
        "numberOfBytes": "1"
      }
    }
  }
}