{
  "address": "0x343DcBDdf894c9995F6368C318af5D991605937D",
  "abi": [
    {
      "inputs": [],
      "stateMutability": "nonpayable",
      "type": "constructor"
    },
    {
      "inputs": [],
      "name": "EnforcedPause",
      "type": "error"
    },
    {
      "inputs": [],
      "name": "ExpectedPause",
      "type": "error"
    },
    {
      "inputs": [],
      "name": "ReentrancyGuardReentrantCall",
      "type": "error"
    },
    {
      "anonymous": false,
      "inputs": [
        {
          "indexed": false,
          "internalType": "uint8",
          "name": "round",
          "type": "uint8"
        }
      ],
      "name": "AllMembersContributed",
      "type": "event"
    },
    {
      "anonymous": false,
      "inputs": [
        {
          "indexed": true,
          "internalType": "address",
          "name": "member",
          "type": "address"
        },
        {
          "indexed": false,
          "internalType": "uint8",
          "name": "round",
          "type": "uint8"
        },
        {
          "indexed": false,
          "internalType": "uint256",
          "name": "amount",
          "type": "uint256"
        }
      ],
      "name": "ContributionMade",
      "type": "event"
    },
    {
      "anonymous": false,
      "inputs": [
        {
          "indexed": true,
          "internalType": "address",
          "name": "member",
          "type": "address"
        },
        {
          "indexed": true,
          "internalType": "address",
          "name": "addedBy",
          "type": "address"
        }
      ],
      "name": "MemberJoined",
      "type": "event"
    },
    {
      "anonymous": false,
      "inputs": [
        {
          "indexed": false,
          "internalType": "address",
          "name": "account",
          "type": "address"
        }
      ],
      "name": "Paused",
      "type": "event"
    },
    {
      "anonymous": false,
      "inputs": [
        {
          "indexed": true,
          "internalType": "address",
          "name": "recipient",
          "type": "address"
        },
        {
          "indexed": false,
          "internalType": "uint256",
          "name": "amount",
          "type": "uint256"
        },
        {
          "indexed": false,
          "internalType": "uint8",
          "name": "round",
          "type": "uint8"
        }
      ],
      "name": "PayoutTriggered",
      "type": "event"
    },
    {
      "anonymous": false,
      "inputs": [
        {
          "indexed": false,
          "internalType": "uint256",
          "name": "completionTime",
          "type": "uint256"
        }
      ],
      "name": "ROSCACompleted",
      "type": "event"
    },
    {
      "anonymous": false,
      "inputs": [
        {
          "indexed": true,
          "internalType": "address",
          "name": "circleId",
          "type": "address"
        },
        {
          "indexed": true,
          "internalType": "address",
          "name": "creator",
          "type": "address"
        },
        {
          "indexed": false,
          "internalType": "uint256",
          "name": "contributionAmount",
          "type": "uint256"
        }
      ],
      "name": "ROSCACreated",
      "type": "event"
    },
    {
      "anonymous": false,
      "inputs": [
        {
          "indexed": false,
          "internalType": "address[]",
          "name": "payoutOrder",
          "type": "address[]"
        },
        {
          "indexed": false,
          "internalType": "uint256",
          "name": "startTime",
          "type": "uint256"
        }
      ],
      "name": "ROSCAStarted",
      "type": "event"
    },
    {
      "anonymous": false,
      "inputs": [
        {
          "indexed": false,
          "internalType": "uint8",
          "name": "round",
          "type": "uint8"
        },
        {
          "indexed": false,
          "internalType": "uint256",
          "name": "startTime",
          "type": "uint256"
        }
      ],
      "name": "RoundStarted",
      "type": "event"
    },
    {
      "anonymous": false,
      "inputs": [
        {
          "indexed": false,
          "internalType": "address",
          "name": "account",
          "type": "address"
        }
      ],
      "name": "Unpaused",
      "type": "event"
    },
    {
      "inputs": [],
      "name": "CYCLE_DURATION",
      "outputs": [
        {
          "internalType": "uint256",
          "name": "",
          "type": "uint256"
        }
      ],
      "stateMutability": "view",
      "type": "function"
    },
    {
      "inputs": [],
      "name": "MAX_MEMBERS",
      "outputs": [
        {
          "internalType": "uint8",
          "name": "",
          "type": "uint8"
        }
      ],
      "stateMutability": "view",
      "type": "function"
    },
    {
      "inputs": [],
      "name": "MIN_MEMBERS",
      "outputs": [
        {
          "internalType": "uint8",
          "name": "",
          "type": "uint8"
        }
      ],
      "stateMutability": "view",
      "type": "function"
    },
    {
      "inputs": [],
      "name": "backendManager",
      "outputs": [
        {
          "internalType": "address",
          "name": "",
          "type": "address"
        }
      ],
      "stateMutability": "view",
      "type": "function"
    },
    {
      "inputs": [],
      "name": "circleId",
      "outputs": [
        {
          "internalType": "address",
          "name": "",
          "type": "address"
        }
      ],
      "stateMutability": "view",
      "type": "function"
    },
    {
      "inputs": [],
      "name": "circleName",
      "outputs": [
        {
          "internalType": "string",
          "name": "",
          "type": "string"
        }
      ],
      "stateMutability": "view",
      "type": "function"
    },
    {
      "inputs": [],
      "name": "contribute",
      "outputs": [],
      "stateMutability": "payable",
      "type": "function"
    },
    {
      "inputs": [],
      "name": "contributionAmount",
      "outputs": [
        {
          "internalType": "uint256",
          "name": "",
          "type": "uint256"
        }
      ],
      "stateMutability": "view",
      "type": "function"
    },
    {
      "inputs": [],
      "name": "creator",
      "outputs": [
        {
          "internalType": "address",
          "name": "",
          "type": "address"
        }
      ],
      "stateMutability": "view",
      "type": "function"
    },
    {
      "inputs": [],
      "name": "currentRound",
      "outputs": [
        {
          "internalType": "uint8",
          "name": "",
          "type": "uint8"
        }
      ],
      "stateMutability": "view",
      "type": "function"
    },
    {
      "inputs": [],
      "name": "currentRoundPaidOut",
      "outputs": [
        {
          "internalType": "bool",
          "name": "",
          "type": "bool"
        }
      ],
      "stateMutability": "view",
      "type": "function"
    },
    {
      "inputs": [],
      "name": "currentRoundStartTime",
      "outputs": [
        {
          "internalType": "uint256",
          "name": "",
          "type": "uint256"
        }
      ],
      "stateMutability": "view",
      "type": "function"
    },
    {
      "inputs": [],
      "name": "everyonePaid",
      "outputs": [
        {
          "internalType": "bool",
          "name": "",
          "type": "bool"
        }
      ],
      "stateMutability": "view",
      "type": "function"
    },
    {
      "inputs": [],
      "name": "getBalance",
      "outputs": [
        {
          "internalType": "uint256",
          "name": "",
          "type": "uint256"
        }
      ],
      "stateMutability": "view",
      "type": "function"
    },
    {
      "inputs": [],
      "name": "getCurrentRecipient",
      "outputs": [
        {
          "internalType": "address",
          "name": "",
          "type": "address"
        }
      ],
      "stateMutability": "view",
      "type": "function"
    },
    {
      "inputs": [],
      "name": "getMemberCount",
      "outputs": [
        {
          "internalType": "uint256",
          "name": "",
          "type": "uint256"
        }
      ],
      "stateMutability": "view",
      "type": "function"
    },
    {
      "inputs": [],
      "name": "getMembers",
      "outputs": [
        {
          "internalType": "address[]",
          "name": "",
          "type": "address[]"
        }
      ],
      "stateMutability": "view",
      "type": "function"
    },
    {
      "inputs": [],
      "name": "getPayoutOrder",
      "outputs": [
        {
          "internalType": "address[]",
          "name": "",
          "type": "address[]"
        }
      ],
      "stateMutability": "view",
      "type": "function"
    },
    {
      "inputs": [],
      "name": "getRoundContributors",
      "outputs": [
        {
          "internalType": "address[]",
          "name": "",
          "type": "address[]"
        }
      ],
      "stateMutability": "view",
      "type": "function"
    },
    {
      "inputs": [
        {
          "internalType": "address",
          "name": "",
          "type": "address"
        },
        {
          "internalType": "uint8",
          "name": "",
          "type": "uint8"
        }
      ],
      "name": "hasPaid",
      "outputs": [
        {
          "internalType": "bool",
          "name": "",
          "type": "bool"
        }
      ],
      "stateMutability": "view",
      "type": "function"
    },
    {
      "inputs": [
        {
          "internalType": "address",
          "name": "",
          "type": "address"
        }
      ],
      "name": "hasReceivedPayout",
      "outputs": [
        {
          "internalType": "bool",
          "name": "",
          "type": "bool"
        }
      ],
      "stateMutability": "view",
      "type": "function"
    },
    {
      "inputs": [
        {
          "internalType": "address",
          "name": "_creator",
          "type": "address"
        },
        {
          "internalType": "address",
          "name": "_circleId",
          "type": "address"
        },
        {
          "internalType": "string",
          "name": "_circleName",
          "type": "string"
        },
        {
          "internalType": "address",
          "name": "_backendManager",
          "type": "address"
        },
        {
          "internalType": "uint256",
          "name": "_contributionAmount",
          "type": "uint256"
        },
        {
          "internalType": "address",
          "name": "_tokenAddress",
          "type": "address"
        },
        {
          "internalType": "bool",
          "name": "_isNativeToken",
          "type": "bool"
        },
        {
          "internalType": "address",
          "name": "_receiptToken",
          "type": "address"
        }
      ],
      "name": "initialize",
      "outputs": [],
      "stateMutability": "nonpayable",
      "type": "function"
    },
    {
      "inputs": [
        {
          "internalType": "address",
          "name": "member",
          "type": "address"
        }
      ],
      "name": "inviteMember",
      "outputs": [],
      "stateMutability": "nonpayable",
      "type": "function"
    },
    {
      "inputs": [],
      "name": "isActive",
      "outputs": [
        {
          "internalType": "bool",
          "name": "",
          "type": "bool"
        }
      ],
      "stateMutability": "view",
      "type": "function"
    },
    {
      "inputs": [],
      "name": "isComplete",
      "outputs": [
        {
          "internalType": "bool",
          "name": "",
          "type": "bool"
        }
      ],
      "stateMutability": "view",
      "type": "function"
    },
    {
      "inputs": [
        {
          "internalType": "address",
          "name": "",
          "type": "address"
        }
      ],
      "name": "isMember",
      "outputs": [
        {
          "internalType": "bool",
          "name": "",
          "type": "bool"
        }
      ],
      "stateMutability": "view",
      "type": "function"
    },
    {
      "inputs": [],
      "name": "isNativeToken",
      "outputs": [
        {
          "internalType": "bool",
          "name": "",
          "type": "bool"
        }
      ],
      "stateMutability": "view",
      "type": "function"
    },
    {
      "inputs": [
        {
          "internalType": "uint256",
          "name": "",
          "type": "uint256"
        }
      ],
      "name": "members",
      "outputs": [
        {
          "internalType": "address",
          "name": "",
          "type": "address"
        }
      ],
      "stateMutability": "view",
      "type": "function"
    },
    {
      "inputs": [],
      "name": "pause",
      "outputs": [],
      "stateMutability": "nonpayable",
      "type": "function"
    },
    {
      "inputs": [],
      "name": "paused",
      "outputs": [
        {
          "internalType": "bool",
          "name": "",
          "type": "bool"
        }
      ],
      "stateMutability": "view",
      "type": "function"
    },
    {
      "inputs": [
        {
          "internalType": "uint256",
          "name": "",
          "type": "uint256"
        }
      ],
      "name": "payoutOrder",
      "outputs": [
        {
          "internalType": "address",
          "name": "",
          "type": "address"
        }
      ],
      "stateMutability": "view",
      "type": "function"
    },
    {
      "inputs": [],
      "name": "receiptToken",
      "outputs": [
        {
          "internalType": "address",
          "name": "",
          "type": "address"
        }
      ],
      "stateMutability": "view",
      "type": "function"
    },
    {
      "inputs": [],
      "name": "roscaStartTime",
      "outputs": [
        {
          "internalType": "uint256",
          "name": "",
          "type": "uint256"
        }
      ],
      "stateMutability": "view",
      "type": "function"
    },
    {
      "inputs": [],
      "name": "startNextRound",
      "outputs": [],
      "stateMutability": "nonpayable",
      "type": "function"
    },
    {
      "inputs": [
        {
          "internalType": "address[]",
          "name": "_payoutOrder",
          "type": "address[]"
        }
      ],
      "name": "startROSCA",
      "outputs": [],
      "stateMutability": "nonpayable",
      "type": "function"
    },
    {
      "inputs": [],
      "name": "tokenAddress",
      "outputs": [
        {
          "internalType": "address",
          "name": "",
          "type": "address"
        }
      ],
      "stateMutability": "view",
      "type": "function"
    },
    {
      "inputs": [
        {
          "internalType": "address",
          "name": "",
          "type": "address"
        }
      ],
      "name": "totalContributed",
      "outputs": [
        {
          "internalType": "uint256",
          "name": "",
          "type": "uint256"
        }
      ],
      "stateMutability": "view",
      "type": "function"
    },
    {
      "inputs": [],
      "name": "triggerPayout",
      "outputs": [],
      "stateMutability": "nonpayable",
      "type": "function"
    },
    {
      "inputs": [],
      "name": "unpause",
      "outputs": [],
      "stateMutability": "nonpayable",
      "type": "function"
    }
  ],
  "transactionHash": "0x273d6091ced73fe385ec4e7737fa60bff8ce8387df0aa8e5294c8fc0866ab36d",
  "args": [],
  "numDeployments": 4,
  "solcInputHash": "b72416adae00b6dbb645291fdf789b62",
  "bytecode": "0x608060405234801561001057600080fd5b5060016000819055805460ff191690556011805462ff0000191662010000179055612710806100406000396000f3fe6080604052600436106102305760003560e01c806362a4e0f11161012e578063b2fa1c9e116100ab578063d9a672201161006f578063d9a672201461064d578063e24d65f914610662578063ea0e35b114610682578063ec78e83214610697578063eca42fba146106b757600080fd5b8063b2fa1c9e146105cd578063c30db746146105ec578063cccf25601461060c578063cd421fbf1461062e578063d7bb99ba1461064557600080fd5b80639d76ea58116100f25780639d76ea58146105255780639eab525314610545578063a0f243b81461055a578063a230c52414610587578063a9e6c7fb146105b757600080fd5b806362a4e0f1146104995780638456cb59146104ae5780638a19c8bc146104c3578063997072f7146104ef5780639af4ee7e1461050457600080fd5b8063346477c7116101bc57806343662f4e1161018057806343662f4e1461041457806359bbcb3d146104365780635c975abb1461044b5780635daf08ca146104635780635fa0b65f1461048357600080fd5b8063346477c714610369578063380dd901146103995780633c3ccc44146103af5780633f08399c146103c45780633f4ba83a146103ff57600080fd5b806312065fe01161020357806312065fe0146102dd578063194e36f5146102fa57806322f3e2d41461030f57806329a9caab146103295780632f890b931461034957600080fd5b806302d05d3f1461023557806305a95f0414610277578063063fcfcc1461028e5780630b529a17146102bd575b600080fd5b34801561024157600080fd5b5060015461025a9061010090046001600160a01b031681565b6040516001600160a01b0390911681526020015b60405180910390f35b34801561028357600080fd5b5061028c6106d7565b005b34801561029a57600080fd5b50600c546102ad90610100900460ff1681565b604051901515815260200161026e565b3480156102c957600080fd5b5061025a6102d836600461214f565b610a8e565b3480156102e957600080fd5b50475b60405190815260200161026e565b34801561030657600080fd5b5061025a610ab8565b34801561031b57600080fd5b506011546102ad9060ff1681565b34801561033557600080fd5b5061028c6103443660046121b6565b610b20565b34801561035557600080fd5b5061028c6103643660046122d5565b610eaf565b34801561037557600080fd5b506102ad6103843660046122d5565b600d6020526000908152604090205460ff1681565b3480156103a557600080fd5b506102ec60105481565b3480156103bb57600080fd5b5061028c6110b1565b3480156103d057600080fd5b506102ad6103df3660046122f0565b600e60209081526000928352604080842090915290825290205460ff1681565b34801561040b57600080fd5b5061028c6112e4565b34801561042057600080fd5b5061042961131b565b60405161026e919061232d565b34801561044257600080fd5b506102ad61137d565b34801561045757600080fd5b5060015460ff166102ad565b34801561046f57600080fd5b5061025a61047e36600461214f565b61138c565b34801561048f57600080fd5b506102ec60065481565b3480156104a557600080fd5b5061042961139c565b3480156104ba57600080fd5b5061028c61154a565b3480156104cf57600080fd5b50600c546104dd9060ff1681565b60405160ff909116815260200161026e565b3480156104fb57600080fd5b506008546102ec565b34801561051057600080fd5b506005546102ad90600160a01b900460ff1681565b34801561053157600080fd5b5060055461025a906001600160a01b031681565b34801561055157600080fd5b50610429611581565b34801561056657600080fd5b506102ec6105753660046122d5565b600a6020526000908152604090205481565b34801561059357600080fd5b506102ad6105a23660046122d5565b60096020526000908152604090205460ff1681565b3480156105c357600080fd5b506102ec600f5481565b3480156105d957600080fd5b506011546102ad90610100900460ff1681565b3480156105f857600080fd5b5060035461025a906001600160a01b031681565b34801561061857600080fd5b506106216115e1565b60405161026e919061237a565b34801561063a57600080fd5b506102ec62278d0081565b61028c61166f565b34801561065957600080fd5b506104dd600581565b34801561066e57600080fd5b5060025461025a906001600160a01b031681565b34801561068e57600080fd5b506104dd600c81565b3480156106a357600080fd5b5060075461025a906001600160a01b031681565b3480156106c357600080fd5b5061028c6106d23660046123c8565b6119cb565b60115460ff1680156106f15750601154610100900460ff16155b6107345760405162461bcd60e51b815260206004820152600f60248201526e506f6f6c206e6f742061637469766560881b60448201526064015b60405180910390fd5b61073c611b96565b610744611bba565b61074c611be4565b6107905760405162461bcd60e51b8152602060048201526015602482015274139bdd08195d995c9e5bdb99481a185cc81c185a59605a1b604482015260640161072b565b600c54610100900460ff16156107e15760405162461bcd60e51b8152602060048201526016602482015275149bdd5b9908185b1c9958591e481c185a59081bdd5d60521b604482015260640161072b565b600c54600090600b906107f99060019060ff16612453565b60ff168154811061080c5761080c612472565b6000918252602090912001546001600160a01b031690503381146108725760405162461bcd60e51b815260206004820152601f60248201527f4f6e6c7920726563697069656e742063616e20636c61696d207061796f757400604482015260640161072b565b600c805461ff0019166101001790556001600160a01b0381166000908152600d60205260408120805460ff191660011790556008546006546108b49190612488565b6001600160a01b0383166000908152600a602052604090205490915080156109ba57600554600160a01b900460ff161561095357600754604051632770a7eb60e21b81526001600160a01b0385811660048301526024820184905290911690639dc29fac90604401600060405180830381600087803b15801561093657600080fd5b505af115801561094a573d6000803e3d6000fd5b505050506109ba565b600754604051632770a7eb60e21b81526001600160a01b0385811660048301526024820184905290911690639dc29fac90604401600060405180830381600087803b1580156109a157600080fd5b505af11580156109b5573d6000803e3d6000fd5b505050505b6005546109dd906001600160a01b03811690600160a01b900460ff168585611c65565b600c546040805184815260ff90921660208301526001600160a01b038516917f882acae0bded9e8351bc191c3a610fdfdfc5c20f670b69c7569ae0fbdeda81b8910160405180910390a2600854600c5460ff1610610a7f576011805461ffff19166101001790556040517fd57799724d5c069e66abd552aca9bc70e8f36d98f34d0d84841983bc469a4e4a90610a769042815260200190565b60405180910390a15b505050610a8c6001600055565b565b600b8181548110610a9e57600080fd5b6000918252602090912001546001600160a01b0316905081565b600c5460009060ff161580610ad35750600b54600c5460ff16115b15610ade5750600090565b600c54600b90610af39060019060ff16612453565b60ff1681548110610b0657610b06612472565b6000918252602090912001546001600160a01b0316919050565b60115462010000900460ff1615610b6f5760405162461bcd60e51b8152602060048201526013602482015272105b1c9958591e481a5b9a5d1a585b1a5e9959606a1b604482015260640161072b565b6011805462ff000019166201000017905583610bcd5760405162461bcd60e51b815260206004820152601b60248201527f496e76616c696420636f6e747269627574696f6e20616d6f756e740000000000604482015260640161072b565b6001600160a01b038516610c235760405162461bcd60e51b815260206004820152601760248201527f496e76616c6964206261636b656e64206d616e61676572000000000000000000604482015260640161072b565b6001600160a01b038116610c715760405162461bcd60e51b815260206004820152601560248201527424b73b30b634b2103932b1b2b4b83a103a37b5b2b760591b604482015260640161072b565b8115610ce7576001600160a01b03831615610ce25760405162461bcd60e51b815260206004820152602b60248201527f546f6b656e2061646472657373206d757374206265207a65726f20666f72206e60448201526a30ba34bb32903a37b5b2b760a91b606482015260840161072b565b610d3d565b6001600160a01b038316610d3d5760405162461bcd60e51b815260206004820152601f60248201527f496e76616c696420746f6b656e206164647265737320666f7220455243323000604482015260640161072b565b600180546001600160a01b03808b1661010002610100600160a81b031990921691909117909155600280548783166001600160a01b03199182161790915560038054928a16929091169190911790556004610d988782612527565b506006849055600580546001600160a01b038581166001600160a81b031990921691909117600160a01b8515150217909155600780546001600160a01b0319908116848416179091556008805460018181019092557ff3f7a9fe364faab93b216da50a3214154f22a0a2b415b23a84c8169e8b636ee30180549092168b8416908117909255600082815260096020908152604091829020805460ff19169093179092555187815291928a16917f8e5acdd034f8bf8fded53cd37f8b0cb6a72b385988e92dc71f664f5dfcfcd8a7910160405180910390a36040516001600160a01b0389169081907fb168e0b33ed126dec210fb14910d562a068905fb3431f3abe71b964e9e1b119a90600090a35050505050505050565b60015461010090046001600160a01b0316331480610ed757506002546001600160a01b031633145b610f235760405162461bcd60e51b815260206004820152601760248201527f4f6e6c792063726561746f72206f72206261636b656e64000000000000000000604482015260640161072b565b610f2b611b96565b60115460ff1615610f7e5760405162461bcd60e51b815260206004820181905260248201527f43616e6e6f7420696e7669746520616674657220524f53434120737461727473604482015260640161072b565b6001600160a01b03811660009081526009602052604090205460ff1615610fda5760405162461bcd60e51b815260206004820152601060248201526f20b63932b0b23c90309036b2b6b132b960811b604482015260640161072b565b600854600c116110225760405162461bcd60e51b815260206004820152601360248201527213585e081b595b58995c9cc81c995858da1959606a1b604482015260640161072b565b6008805460018082019092557ff3f7a9fe364faab93b216da50a3214154f22a0a2b415b23a84c8169e8b636ee30180546001600160a01b0319166001600160a01b038416908117909155600081815260096020526040808220805460ff1916909417909355915133927fb168e0b33ed126dec210fb14910d562a068905fb3431f3abe71b964e9e1b119a91a350565b3360009081526009602052604090205460ff166110ff5760405162461bcd60e51b815260206004820152600c60248201526b2737ba10309036b2b6b132b960a11b604482015260640161072b565b611107611b96565b60115460ff1680156111215750601154610100900460ff16155b6111605760405162461bcd60e51b815260206004820152601060248201526f524f534341206e6f742061637469766560801b604482015260640161072b565b600c54610100900460ff166111b75760405162461bcd60e51b815260206004820152601a60248201527f43757272656e7420726f756e64206e6f742070616964206f7574000000000000604482015260640161072b565b600854600c5460ff16106112035760405162461bcd60e51b8152602060048201526013602482015272416c6c20726f756e647320636f6d706c65746560681b604482015260640161072b565b62278d0060105461121491906125e7565b4210156112635760405162461bcd60e51b815260206004820152601960248201527f33302d646179206379636c65206e6f7420636f6d706c65746500000000000000604482015260640161072b565b600c805460ff16906000611276836125fa565b82546101009290920a60ff818102199093169183160217909155426010819055600c805461ff001981169091556040805191909316815260208101919091527ff7104ec8d70cbee7bb54da17843aa32c11b77c11c6197f005ec8b2b4f5de69589250015b60405180910390a1565b60015461010090046001600160a01b031633146113135760405162461bcd60e51b815260040161072b90612619565b610a8c611d81565b6060600b80548060200260200160405190810160405280929190818152602001828054801561137357602002820191906000526020600020905b81546001600160a01b03168152600190910190602001808311611355575b5050505050905090565b6000611387611be4565b905090565b60088181548110610a9e57600080fd5b60606000805b60085481101561141e57600e6000600883815481106113c3576113c3612472565b60009182526020808320909101546001600160a01b031683528281019390935260409182018120600c5460ff908116835293522054161561140c578161140881612650565b9250505b8061141681612650565b9150506113a2565b5060008167ffffffffffffffff81111561143a5761143a612184565b604051908082528060200260200182016040528015611463578160200160208202803683370190505b5090506000805b60085481101561154157600e60006008838154811061148b5761148b612472565b60009182526020808320909101546001600160a01b031683528281019390935260409182018120600c5460ff908116835293522054161561152f57600881815481106114d9576114d9612472565b9060005260206000200160009054906101000a90046001600160a01b031683838151811061150957611509612472565b6001600160a01b03909216602092830291909101909101528161152b81612650565b9250505b8061153981612650565b91505061146a565b50909392505050565b60015461010090046001600160a01b031633146115795760405162461bcd60e51b815260040161072b90612619565b610a8c611dce565b60606008805480602002602001604051908101604052809291908181526020018280548015611373576020028201919060005260206000209081546001600160a01b03168152600190910190602001808311611355575050505050905090565b600480546115ee9061249f565b80601f016020809104026020016040519081016040528092919081815260200182805461161a9061249f565b80156116675780601f1061163c57610100808354040283529160200191611667565b820191906000526020600020905b81548152906001019060200180831161164a57829003601f168201915b505050505081565b3360009081526009602052604090205460ff166116bd5760405162461bcd60e51b815260206004820152600c60248201526b2737ba10309036b2b6b132b960a11b604482015260640161072b565b60115460ff1680156116d75750601154610100900460ff16155b6117155760405162461bcd60e51b815260206004820152600f60248201526e506f6f6c206e6f742061637469766560881b604482015260640161072b565b61171d611b96565b611725611bba565b336000908152600e60209081526040808320600c5460ff9081168552925290912054161561178b5760405162461bcd60e51b8152602060048201526013602482015272105b1c9958591e4818dbdb9d1c9a589d5d1959606a1b604482015260640161072b565b600854600c5460ff1611156117d85760405162461bcd60e51b8152602060048201526013602482015272416c6c20726f756e647320636f6d706c65746560681b604482015260640161072b565b336000818152600e60209081526040808320600c5460ff1684528252808320805460ff19166001179055600654938352600a9091528120805490919061181f9084906125e7565b909155505060055460065461184a916001600160a01b03811691600160a01b90910460ff1690611e09565b50600554600160a01b900460ff16156118ca576007546006546040516340c10f1960e01b815233600482015260248101919091526001600160a01b03909116906340c10f1990604401600060405180830381600087803b1580156118ad57600080fd5b505af11580156118c1573d6000803e3d6000fd5b50505050611933565b6007546006546040516340c10f1960e01b815233600482015260248101919091526001600160a01b03909116906340c10f1990604401600060405180830381600087803b15801561191a57600080fd5b505af115801561192e573d6000803e3d6000fd5b505050505b600c546006546040805160ff9093168352602083019190915233917fe18ade3c83eb782f6b575ec07c91d1dce24ca2893272cabc5d86e759110d3b65910160405180910390a2611981611be4565b156119c157600c5460405160ff90911681527f78a0925e040149ea78c23d3aabf9577f31cb0afe2252a07da3322fb93f9c697d9060200160405180910390a15b610a8c6001600055565b60015461010090046001600160a01b031633146119fa5760405162461bcd60e51b815260040161072b90612619565b611a02611b96565b60115460ff1615611a475760405162461bcd60e51b815260206004820152600f60248201526e105b1c9958591e481cdd185c9d1959608a1b604482015260640161072b565b60085460051115611a8f5760405162461bcd60e51b81526020600482015260126024820152714e6f7420656e6f756768206d656d6265727360701b604482015260640161072b565b6008548114611ae05760405162461bcd60e51b815260206004820152601b60248201527f496e76616c6964207061796f7574206f72646572206c656e6774680000000000604482015260640161072b565b611aea8282611f24565b611af6600b83836120d7565b5060118054600160ff199182168117909255600c8054909116909117905542600f81905560108190556040517f7e680909351c6b66c0ef9f13e0724b2785bb330a595466a2b2bf175f69df01e891611b519185918591612669565b60405180910390a160408051600181524260208201527ff7104ec8d70cbee7bb54da17843aa32c11b77c11c6197f005ec8b2b4f5de6958910160405180910390a15050565b60015460ff1615610a8c5760405163d93c066560e01b815260040160405180910390fd5b600260005403611bdd57604051633ee5aeb560e01b815260040160405180910390fd5b6002600055565b6000805b600854811015611c5d57600e600060088381548110611c0957611c09612472565b60009182526020808320909101546001600160a01b031683528281019390935260409182018120600c5460ff90811683529352205416611c4b57600091505090565b80611c5581612650565b915050611be8565b506001905090565b8215611d06576000826001600160a01b03168260405160006040518083038185875af1925050503d8060008114611cb8576040519150601f19603f3d011682016040523d82523d6000602084013e611cbd565b606091505b5050905080611d005760405162461bcd60e51b815260206004820152600f60248201526e151c985b9cd9995c8819985a5b1959608a1b604482015260640161072b565b50611d7b565b60405163a9059cbb60e01b81526001600160a01b0383811660048301526024820183905285169063a9059cbb906044016020604051808303816000875af1158015611d55573d6000803e3d6000fd5b505050506040513d601f19601f82011682018060405250810190611d7991906126bd565b505b50505050565b611d896120b4565b6001805460ff191690557f5db9ee0a495bf2e6ff9c91a7834c1ba4fdd244a5e8aa4e537bd38aeae4b073aa335b6040516001600160a01b0390911681526020016112da565b611dd6611b96565b6001805460ff1916811790557f62e78cea01bee320cd4e420270b5ea74000d11b0c9f74754ebdbfc544b05a25833611db6565b60008215611e615760003411611e5a5760405162461bcd60e51b815260206004820152601660248201527526bab9ba1039b2b732103730ba34bb32903a37b5b2b760511b604482015260640161072b565b5034611f1d565b3415611ea15760405162461bcd60e51b815260206004820152600f60248201526e2737903730ba34bb32903a37b5b2b760891b604482015260640161072b565b6040516323b872dd60e01b8152336004820152306024820152604481018390526001600160a01b038516906323b872dd906064016020604051808303816000875af1158015611ef4573d6000803e3d6000fd5b505050506040513d601f19601f82011682018060405250810190611f1891906126bd565b508190505b9392505050565b60005b818110156120af576000838383818110611f4357611f43612472565b9050602002016020810190611f5891906122d5565b6001600160a01b03811660009081526009602052604090205490915060ff16611fc35760405162461bcd60e51b815260206004820181905260248201527f5061796f7574206f7264657220636f6e7461696e73206e6f6e2d6d656d626572604482015260640161072b565b6000611fd08360016125e7565b90505b8381101561209a57848482818110611fed57611fed612472565b905060200201602081019061200291906122d5565b6001600160a01b031685858581811061201d5761201d612472565b905060200201602081019061203291906122d5565b6001600160a01b0316036120885760405162461bcd60e51b815260206004820152601960248201527f4475706c696361746520696e207061796f7574206f7264657200000000000000604482015260640161072b565b8061209281612650565b915050611fd3565b505080806120a790612650565b915050611f27565b505050565b60015460ff16610a8c57604051638dfc202b60e01b815260040160405180910390fd5b82805482825590600052602060002090810192821561212a579160200282015b8281111561212a5781546001600160a01b0319166001600160a01b038435161782556020909201916001909101906120f7565b5061213692915061213a565b5090565b5b80821115612136576000815560010161213b565b60006020828403121561216157600080fd5b5035919050565b80356001600160a01b038116811461217f57600080fd5b919050565b634e487b7160e01b600052604160045260246000fd5b80151581146121a857600080fd5b50565b803561217f8161219a565b600080600080600080600080610100898b0312156121d357600080fd5b6121dc89612168565b97506121ea60208a01612168565b9650604089013567ffffffffffffffff8082111561220757600080fd5b818b0191508b601f83011261221b57600080fd5b81358181111561222d5761222d612184565b604051601f8201601f19908116603f0116810190838211818310171561225557612255612184565b816040528281528e602084870101111561226e57600080fd5b82602086016020830137600060208483010152809a50505050505061229560608a01612168565b9450608089013593506122aa60a08a01612168565b92506122b860c08a016121ab565b91506122c660e08a01612168565b90509295985092959890939650565b6000602082840312156122e757600080fd5b611f1d82612168565b6000806040838503121561230357600080fd5b61230c83612168565b9150602083013560ff8116811461232257600080fd5b809150509250929050565b6020808252825182820181905260009190848201906040850190845b8181101561236e5783516001600160a01b031683529284019291840191600101612349565b50909695505050505050565b600060208083528351808285015260005b818110156123a75785810183015185820160400152820161238b565b506000604082860101526040601f19601f8301168501019250505092915050565b600080602083850312156123db57600080fd5b823567ffffffffffffffff808211156123f357600080fd5b818501915085601f83011261240757600080fd5b81358181111561241657600080fd5b8660208260051b850101111561242b57600080fd5b60209290920196919550909350505050565b634e487b7160e01b600052601160045260246000fd5b60ff828116828216039081111561246c5761246c61243d565b92915050565b634e487b7160e01b600052603260045260246000fd5b808202811582820484141761246c5761246c61243d565b600181811c908216806124b357607f821691505b6020821081036124d357634e487b7160e01b600052602260045260246000fd5b50919050565b601f8211156120af57600081815260208120601f850160051c810160208610156125005750805b601f850160051c820191505b8181101561251f5782815560010161250c565b505050505050565b815167ffffffffffffffff81111561254157612541612184565b6125558161254f845461249f565b846124d9565b602080601f83116001811461258a57600084156125725750858301515b600019600386901b1c1916600185901b17855561251f565b600085815260208120601f198616915b828110156125b95788860151825594840194600190910190840161259a565b50858210156125d75787850151600019600388901b60f8161c191681555b5050505050600190811b01905550565b8082018082111561246c5761246c61243d565b600060ff821660ff81036126105761261061243d565b60010192915050565b6020808252601a908201527f4f6e6c792063726561746f722063616e2063616c6c2074686973000000000000604082015260600190565b6000600182016126625761266261243d565b5060010190565b6040808252810183905260008460608301825b868110156126aa576001600160a01b0361269584612168565b1682526020928301929091019060010161267c565b5060209390930193909352509392505050565b6000602082840312156126cf57600080fd5b8151611f1d8161219a56fea264697066735822122085c98ede658e8a324d307c48b4c3ea11adc1be1b834f4b8549c85e6a9295b62464736f6c63430008140033",
  "devdoc": {
    "details": "Members contribute fixed amounts each round, one member receives the pot each round Payout order is provided off-chain by the creator for fairness and transparency",
    "errors": {
      "EnforcedPause()": [
        {
          "details": "The operation failed because the contract is paused."
        }
      ],
      "ExpectedPause()": [
        {
          "details": "The operation failed because the contract is not paused."
        }
      ],
      "ReentrancyGuardReentrantCall()": [
        {
          "details": "Unauthorized reentrant call."
        }
      ]
    },
    "events": {
      "Paused(address)": {
        "details": "Emitted when the pause is triggered by `account`."
      },
      "Unpaused(address)": {
        "details": "Emitted when the pause is lifted by `account`."
      }
    },
    "kind": "dev",
    "methods": {
      "constructor": {
        "details": "Prevents the implementation contract from being initialized"
      },
      "contribute()": {
        "details": "For ERC20: Member must have approved the contract to spend tokens before calling      For native token: Must send exact amount of native currency"
      },
      "everyonePaid()": {
        "returns": {
          "_0": "True if all members have contributed, false otherwise"
        }
      },
      "getBalance()": {
        "returns": {
          "_0": "Balance in wei"
        }
      },
      "getCurrentRecipient()": {
        "returns": {
          "_0": "Address of the member who should receive payout this round"
        }
      },
      "getMemberCount()": {
        "returns": {
          "_0": "Member count"
        }
      },
      "getMembers()": {
        "returns": {
          "_0": "Array of member addresses"
        }
      },
      "getPayoutOrder()": {
        "returns": {
          "_0": "Array of addresses in payout order"
        }
      },
      "getRoundContributors()": {
        "returns": {
          "_0": "Array of addresses who have paid"
        }
      },
      "initialize(address,address,string,address,uint256,address,bool,address)": {
        "details": "This replaces the constructor for cloned instances",
        "params": {
          "_backendManager": "Address of the backend manager (can invite members)",
          "_circleId": "Address of the Lens.xyz circle contract",
          "_circleName": "Name of the circle",
          "_contributionAmount": "Fixed contribution amount per round",
          "_creator": "Address of the user creating the pool",
          "_isNativeToken": "Whether this pool uses native token (cBTC) or ERC20 token",
          "_receiptToken": "Address of the receipt token (xshCUSD or xshCBTC)",
          "_tokenAddress": "Address of the ERC20 token to use for contributions (zero address if native)"
        }
      },
      "inviteMember(address)": {
        "details": "Creator or backend manager can add members, only before ROSCA starts",
        "params": {
          "member": "Address of the member to add"
        }
      },
      "pause()": {
        "details": "Only creator can pause"
      },
      "paused()": {
        "details": "Returns true if the contract is paused, and false otherwise."
      },
      "startNextRound()": {
        "details": "Any member can call this after the 30-day cycle is complete"
      },
      "startROSCA(address[])": {
        "details": "Only creator can start, requires min members, payout order generated off-chain",
        "params": {
          "_payoutOrder": "Array of addresses defining payout order (must include all members exactly once)"
        }
      },
      "triggerPayout()": {
        "details": "Only the designated recipient can trigger their own payout Requires all members to have contributed for the current round"
      },
      "unpause()": {
        "details": "Only creator can unpause"
      }
    },
    "title": "ROSCAPool",
    "version": 1
  },
  "userdoc": {
    "kind": "user",
    "methods": {
      "CYCLE_DURATION()": {
        "notice": "Duration of each cycle/round in seconds (30 days)"
      },
      "MAX_MEMBERS()": {
        "notice": "Maximum number of members allowed in a ROSCA"
      },
      "MIN_MEMBERS()": {
        "notice": "Minimum number of members required to start a ROSCA"
      },
      "backendManager()": {
        "notice": "Address of the backend manager (can invite members)"
      },
      "circleId()": {
        "notice": "Address of the Lens.xyz circle contract"
      },
      "circleName()": {
        "notice": "Human-readable name of the circle"
      },
      "constructor": {
        "notice": "Constructor for implementation contract"
      },
      "contribute()": {
        "notice": "Allows a member to contribute for the current round"
      },
      "contributionAmount()": {
        "notice": "Fixed contribution amount per round in wei"
      },
      "creator()": {
        "notice": "Address of the user who created this pool"
      },
      "currentRound()": {
        "notice": "Current round number (1-indexed)"
      },
      "currentRoundPaidOut()": {
        "notice": "Whether the current round's payout has been completed"
      },
      "currentRoundStartTime()": {
        "notice": "Timestamp when the current round started"
      },
      "everyonePaid()": {
        "notice": "Checks if everyone has paid for the current round"
      },
      "getBalance()": {
        "notice": "Gets the contract's current balance"
      },
      "getCurrentRecipient()": {
        "notice": "Gets the current round's recipient"
      },
      "getMemberCount()": {
        "notice": "Gets the total number of members"
      },
      "getMembers()": {
        "notice": "Gets all members"
      },
      "getPayoutOrder()": {
        "notice": "Gets the complete payout order"
      },
      "getRoundContributors()": {
        "notice": "Gets list of members who have contributed in the current round"
      },
      "hasPaid(address,uint8)": {
        "notice": "Tracks whether a member has paid for a specific round"
      },
      "hasReceivedPayout(address)": {
        "notice": "Mapping to track which members have received their payout"
      },
      "initialize(address,address,string,address,uint256,address,bool,address)": {
        "notice": "Initializes a new ROSCA pool clone"
      },
      "inviteMember(address)": {
        "notice": "Adds a new member to the ROSCA"
      },
      "isActive()": {
        "notice": "Whether the ROSCA is currently active"
      },
      "isComplete()": {
        "notice": "Whether the ROSCA has completed all rounds"
      },
      "isMember(address)": {
        "notice": "Mapping to check if an address is a member"
      },
      "isNativeToken()": {
        "notice": "Whether this pool uses native token (cBTC) or ERC20 token"
      },
      "members(uint256)": {
        "notice": "Array of all members in the pool"
      },
      "pause()": {
        "notice": "Pauses the contract in case of emergency"
      },
      "payoutOrder(uint256)": {
        "notice": "Array defining the order in which members receive payouts"
      },
      "receiptToken()": {
        "notice": "Receipt token (xshCUSD or xshCBTC) minted to users on contribution"
      },
      "roscaStartTime()": {
        "notice": "Timestamp when the ROSCA was started"
      },
      "startNextRound()": {
        "notice": "Starts the next round after the cycle duration has passed"
      },
      "startROSCA(address[])": {
        "notice": "Starts the ROSCA with a provided payout order"
      },
      "tokenAddress()": {
        "notice": "Address of the ERC20 token used for contributions (zero address if native token)"
      },
      "totalContributed(address)": {
        "notice": "Total amount contributed by each member across all rounds"
      },
      "triggerPayout()": {
        "notice": "Triggers the payout for the current round"
      },
      "unpause()": {
        "notice": "Unpauses the contract"
      }
    },
    "notice": "Rotating Savings and Credit Association pool implementation",
    "version": 1
  },
  "storageLayout": {
    "storage": [
      {
        "astId": 1725,
        "contract": "contracts/pools/ROSCAPool.sol:ROSCAPool",
        "label": "_status",
        "offset": 0,
        "slot": "0",
        "type": "t_uint256"
      },
      {
        "astId": 1606,
        "contract": "contracts/pools/ROSCAPool.sol:ROSCAPool",
        "label": "_paused",
        "offset": 0,
        "slot": "1",
        "type": "t_bool"
      },
      {
        "astId": 3840,
        "contract": "contracts/pools/ROSCAPool.sol:ROSCAPool",
        "label": "creator",
        "offset": 1,
        "slot": "1",
        "type": "t_address"
      },
      {
        "astId": 3843,
        "contract": "contracts/pools/ROSCAPool.sol:ROSCAPool",
        "label": "backendManager",
        "offset": 0,
        "slot": "2",
        "type": "t_address"
      },
      {
        "astId": 3846,
        "contract": "contracts/pools/ROSCAPool.sol:ROSCAPool",
        "label": "circleId",
        "offset": 0,
        "slot": "3",
        "type": "t_address"
      },
      {
        "astId": 3849,
        "contract": "contracts/pools/ROSCAPool.sol:ROSCAPool",
        "label": "circleName",
        "offset": 0,
        "slot": "4",
        "type": "t_string_storage"
      },
      {
        "astId": 3852,
        "contract": "contracts/pools/ROSCAPool.sol:ROSCAPool",
        "label": "tokenAddress",
        "offset": 0,
        "slot": "5",
        "type": "t_address"
      },
      {
        "astId": 3855,
        "contract": "contracts/pools/ROSCAPool.sol:ROSCAPool",
        "label": "isNativeToken",
        "offset": 20,
        "slot": "5",
        "type": "t_bool"
      },
      {
        "astId": 3858,
        "contract": "contracts/pools/ROSCAPool.sol:ROSCAPool",
        "label": "contributionAmount",
        "offset": 0,
        "slot": "6",
        "type": "t_uint256"
      },
      {
        "astId": 3861,
        "contract": "contracts/pools/ROSCAPool.sol:ROSCAPool",
        "label": "receiptToken",
        "offset": 0,
        "slot": "7",
        "type": "t_address"
      },
      {
        "astId": 3865,
        "contract": "contracts/pools/ROSCAPool.sol:ROSCAPool",
        "label": "members",
        "offset": 0,
        "slot": "8",
        "type": "t_array(t_address)dyn_storage"
      },
      {
        "astId": 3870,
        "contract": "contracts/pools/ROSCAPool.sol:ROSCAPool",
        "label": "isMember",
        "offset": 0,
        "slot": "9",
        "type": "t_mapping(t_address,t_bool)"
      },
      {
        "astId": 3875,
        "contract": "contracts/pools/ROSCAPool.sol:ROSCAPool",
        "label": "totalContributed",
        "offset": 0,
        "slot": "10",
        "type": "t_mapping(t_address,t_uint256)"
      },
      {
        "astId": 3879,
        "contract": "contracts/pools/ROSCAPool.sol:ROSCAPool",
        "label": "payoutOrder",
        "offset": 0,
        "slot": "11",
        "type": "t_array(t_address)dyn_storage"
      },
      {
        "astId": 3882,
        "contract": "contracts/pools/ROSCAPool.sol:ROSCAPool",
        "label": "currentRound",
        "offset": 0,
        "slot": "12",
        "type": "t_uint8"
      },
      {
        "astId": 3885,
        "contract": "contracts/pools/ROSCAPool.sol:ROSCAPool",
        "label": "currentRoundPaidOut",
        "offset": 1,
        "slot": "12",
        "type": "t_bool"
      },
      {
        "astId": 3890,
        "contract": "contracts/pools/ROSCAPool.sol:ROSCAPool",
        "label": "hasReceivedPayout",
        "offset": 0,
        "slot": "13",
        "type": "t_mapping(t_address,t_bool)"
      },
      {
        "astId": 3897,
        "contract": "contracts/pools/ROSCAPool.sol:ROSCAPool",
        "label": "hasPaid",
        "offset": 0,
        "slot": "14",
        "type": "t_mapping(t_address,t_mapping(t_uint8,t_bool))"
      },
      {
        "astId": 3900,
        "contract": "contracts/pools/ROSCAPool.sol:ROSCAPool",
        "label": "roscaStartTime",
        "offset": 0,
        "slot": "15",
        "type": "t_uint256"
      },
      {
        "astId": 3903,
        "contract": "contracts/pools/ROSCAPool.sol:ROSCAPool",
        "label": "currentRoundStartTime",
        "offset": 0,
        "slot": "16",
        "type": "t_uint256"
      },
      {
        "astId": 3906,
        "contract": "contracts/pools/ROSCAPool.sol:ROSCAPool",
        "label": "isActive",
        "offset": 0,
        "slot": "17",
        "type": "t_bool"
      },
      {
        "astId": 3909,
        "contract": "contracts/pools/ROSCAPool.sol:ROSCAPool",
        "label": "isComplete",
        "offset": 1,
        "slot": "17",
        "type": "t_bool"
      },
      {
        "astId": 3912,
        "contract": "contracts/pools/ROSCAPool.sol:ROSCAPool",
        "label": "initialized",
        "offset": 2,
        "slot": "17",
        "type": "t_bool"
      }
    ],
    "types": {
      "t_address": {
        "encoding": "inplace",
        "label": "address",
        "numberOfBytes": "20"
      },
      "t_array(t_address)dyn_storage": {
        "base": "t_address",
        "encoding": "dynamic_array",
        "label": "address[]",
        "numberOfBytes": "32"
      },
      "t_bool": {
        "encoding": "inplace",
        "label": "bool",
        "numberOfBytes": "1"
      },
      "t_mapping(t_address,t_bool)": {
        "encoding": "mapping",
        "key": "t_address",
        "label": "mapping(address => bool)",
        "numberOfBytes": "32",
        "value": "t_bool"
      },
      "t_mapping(t_address,t_mapping(t_uint8,t_bool))": {
        "encoding": "mapping",
        "key": "t_address",
        "label": "mapping(address => mapping(uint8 => bool))",
        "numberOfBytes": "32",
        "value": "t_mapping(t_uint8,t_bool)"
      },
      "t_mapping(t_address,t_uint256)": {
        "encoding": "mapping",
        "key": "t_address",
        "label": "mapping(address => uint256)",
        "numberOfBytes": "32",
        "value": "t_uint256"
      },
      "t_mapping(t_uint8,t_bool)": {
        "encoding": "mapping",
        "key": "t_uint8",
        "label": "mapping(uint8 => bool)",
        "numberOfBytes": "32",
        "value": "t_bool"
      },
      "t_string_storage": {
        "encoding": "bytes",
        "label": "string",
        "numberOfBytes": "32"
      },
      "t_uint256": {
        "encoding": "inplace",
        "label": "uint256",
        "numberOfBytes": "32"
      },
      "t_uint8": {
        "encoding": "inplace",
        "label": "uint8",
        "numberOfBytes": "1"
      }
    }
  }
}