{
  "address": "0xf273c742F156ba7a0C945768beB9c7C2e332F92f",
  "abi": [
    {
      "inputs": [],
      "stateMutability": "nonpayable",
      "type": "constructor"
    },
    {
      "inputs": [],
      "name": "EnforcedPause",
      "type": "error"
    },
    {
      "inputs": [],
      "name": "ExpectedPause",
      "type": "error"
    },
    {
      "inputs": [],
      "name": "ReentrancyGuardReentrantCall",
      "type": "error"
    },
    {
      "anonymous": false,
      "inputs": [
        {
          "indexed": true,
          "internalType": "address",
          "name": "member",
          "type": "address"
        },
        {
          "indexed": false,
          "internalType": "uint256",
          "name": "amount",
          "type": "uint256"
        }
      ],
      "name": "Deposited",
      "type": "event"
    },
    {
      "anonymous": false,
      "inputs": [
        {
          "indexed": true,
          "internalType": "address",
          "name": "member",
          "type": "address"
        },
        {
          "indexed": true,
          "internalType": "address",
          "name": "invitedBy",
          "type": "address"
        }
      ],
      "name": "MemberInvited",
      "type": "event"
    },
    {
      "anonymous": false,
      "inputs": [
        {
          "indexed": true,
          "internalType": "address",
          "name": "member",
          "type": "address"
        }
      ],
      "name": "MemberJoined",
      "type": "event"
    },
    {
      "anonymous": false,
      "inputs": [
        {
          "indexed": false,
          "internalType": "address",
          "name": "account",
          "type": "address"
        }
      ],
      "name": "Paused",
      "type": "event"
    },
    {
      "anonymous": false,
      "inputs": [
        {
          "indexed": false,
          "internalType": "uint256",
          "name": "timestamp",
          "type": "uint256"
        }
      ],
      "name": "PoolClosed",
      "type": "event"
    },
    {
      "anonymous": false,
      "inputs": [
        {
          "indexed": true,
          "internalType": "address",
          "name": "circleId",
          "type": "address"
        },
        {
          "indexed": true,
          "internalType": "address",
          "name": "creator",
          "type": "address"
        }
      ],
      "name": "PoolCreated",
      "type": "event"
    },
    {
      "anonymous": false,
      "inputs": [
        {
          "indexed": false,
          "internalType": "uint256",
          "name": "amount",
          "type": "uint256"
        },
        {
          "indexed": false,
          "internalType": "uint256",
          "name": "date",
          "type": "uint256"
        }
      ],
      "name": "TargetSet",
      "type": "event"
    },
    {
      "anonymous": false,
      "inputs": [
        {
          "indexed": false,
          "internalType": "address",
          "name": "account",
          "type": "address"
        }
      ],
      "name": "Unpaused",
      "type": "event"
    },
    {
      "anonymous": false,
      "inputs": [
        {
          "indexed": true,
          "internalType": "address",
          "name": "member",
          "type": "address"
        },
        {
          "indexed": false,
          "internalType": "uint256",
          "name": "amount",
          "type": "uint256"
        }
      ],
      "name": "Withdrawn",
      "type": "event"
    },
    {
      "inputs": [],
      "name": "backendManager",
      "outputs": [
        {
          "internalType": "address",
          "name": "",
          "type": "address"
        }
      ],
      "stateMutability": "view",
      "type": "function"
    },
    {
      "inputs": [
        {
          "internalType": "address",
          "name": "",
          "type": "address"
        }
      ],
      "name": "balances",
      "outputs": [
        {
          "internalType": "uint256",
          "name": "",
          "type": "uint256"
        }
      ],
      "stateMutability": "view",
      "type": "function"
    },
    {
      "inputs": [],
      "name": "circleId",
      "outputs": [
        {
          "internalType": "address",
          "name": "",
          "type": "address"
        }
      ],
      "stateMutability": "view",
      "type": "function"
    },
    {
      "inputs": [],
      "name": "circleName",
      "outputs": [
        {
          "internalType": "string",
          "name": "",
          "type": "string"
        }
      ],
      "stateMutability": "view",
      "type": "function"
    },
    {
      "inputs": [],
      "name": "closePool",
      "outputs": [],
      "stateMutability": "nonpayable",
      "type": "function"
    },
    {
      "inputs": [],
      "name": "creator",
      "outputs": [
        {
          "internalType": "address",
          "name": "",
          "type": "address"
        }
      ],
      "stateMutability": "view",
      "type": "function"
    },
    {
      "inputs": [
        {
          "internalType": "uint256",
          "name": "amount",
          "type": "uint256"
        }
      ],
      "name": "deposit",
      "outputs": [],
      "stateMutability": "payable",
      "type": "function"
    },
    {
      "inputs": [
        {
          "internalType": "address",
          "name": "member",
          "type": "address"
        }
      ],
      "name": "getBalance",
      "outputs": [
        {
          "internalType": "uint256",
          "name": "",
          "type": "uint256"
        }
      ],
      "stateMutability": "view",
      "type": "function"
    },
    {
      "inputs": [],
      "name": "getContractBalance",
      "outputs": [
        {
          "internalType": "uint256",
          "name": "",
          "type": "uint256"
        }
      ],
      "stateMutability": "view",
      "type": "function"
    },
    {
      "inputs": [],
      "name": "getMemberCount",
      "outputs": [
        {
          "internalType": "uint256",
          "name": "",
          "type": "uint256"
        }
      ],
      "stateMutability": "view",
      "type": "function"
    },
    {
      "inputs": [],
      "name": "getMembers",
      "outputs": [
        {
          "internalType": "address[]",
          "name": "",
          "type": "address[]"
        }
      ],
      "stateMutability": "view",
      "type": "function"
    },
    {
      "inputs": [],
      "name": "getProgress",
      "outputs": [
        {
          "internalType": "uint256",
          "name": "current",
          "type": "uint256"
        },
        {
          "internalType": "uint256",
          "name": "target",
          "type": "uint256"
        }
      ],
      "stateMutability": "view",
      "type": "function"
    },
    {
      "inputs": [
        {
          "internalType": "address",
          "name": "_creator",
          "type": "address"
        },
        {
          "internalType": "address",
          "name": "_circleId",
          "type": "address"
        },
        {
          "internalType": "string",
          "name": "_circleName",
          "type": "string"
        },
        {
          "internalType": "address",
          "name": "_backendManager",
          "type": "address"
        },
        {
          "internalType": "address",
          "name": "_tokenAddress",
          "type": "address"
        },
        {
          "internalType": "bool",
          "name": "_isNativeToken",
          "type": "bool"
        }
      ],
      "name": "initialize",
      "outputs": [],
      "stateMutability": "nonpayable",
      "type": "function"
    },
    {
      "inputs": [
        {
          "internalType": "address",
          "name": "member",
          "type": "address"
        }
      ],
      "name": "inviteMember",
      "outputs": [],
      "stateMutability": "nonpayable",
      "type": "function"
    },
    {
      "inputs": [],
      "name": "isActive",
      "outputs": [
        {
          "internalType": "bool",
          "name": "",
          "type": "bool"
        }
      ],
      "stateMutability": "view",
      "type": "function"
    },
    {
      "inputs": [],
      "name": "isGoalReached",
      "outputs": [
        {
          "internalType": "bool",
          "name": "",
          "type": "bool"
        }
      ],
      "stateMutability": "view",
      "type": "function"
    },
    {
      "inputs": [
        {
          "internalType": "address",
          "name": "",
          "type": "address"
        }
      ],
      "name": "isInvited",
      "outputs": [
        {
          "internalType": "bool",
          "name": "",
          "type": "bool"
        }
      ],
      "stateMutability": "view",
      "type": "function"
    },
    {
      "inputs": [
        {
          "internalType": "address",
          "name": "",
          "type": "address"
        }
      ],
      "name": "isMember",
      "outputs": [
        {
          "internalType": "bool",
          "name": "",
          "type": "bool"
        }
      ],
      "stateMutability": "view",
      "type": "function"
    },
    {
      "inputs": [],
      "name": "isNativeToken",
      "outputs": [
        {
          "internalType": "bool",
          "name": "",
          "type": "bool"
        }
      ],
      "stateMutability": "view",
      "type": "function"
    },
    {
      "inputs": [],
      "name": "joinPool",
      "outputs": [],
      "stateMutability": "nonpayable",
      "type": "function"
    },
    {
      "inputs": [
        {
          "internalType": "uint256",
          "name": "",
          "type": "uint256"
        }
      ],
      "name": "members",
      "outputs": [
        {
          "internalType": "address",
          "name": "",
          "type": "address"
        }
      ],
      "stateMutability": "view",
      "type": "function"
    },
    {
      "inputs": [],
      "name": "pause",
      "outputs": [],
      "stateMutability": "nonpayable",
      "type": "function"
    },
    {
      "inputs": [],
      "name": "paused",
      "outputs": [
        {
          "internalType": "bool",
          "name": "",
          "type": "bool"
        }
      ],
      "stateMutability": "view",
      "type": "function"
    },
    {
      "inputs": [
        {
          "internalType": "uint256",
          "name": "_amount",
          "type": "uint256"
        },
        {
          "internalType": "uint256",
          "name": "_date",
          "type": "uint256"
        }
      ],
      "name": "setTarget",
      "outputs": [],
      "stateMutability": "nonpayable",
      "type": "function"
    },
    {
      "inputs": [],
      "name": "targetAmount",
      "outputs": [
        {
          "internalType": "uint256",
          "name": "",
          "type": "uint256"
        }
      ],
      "stateMutability": "view",
      "type": "function"
    },
    {
      "inputs": [],
      "name": "targetDate",
      "outputs": [
        {
          "internalType": "uint256",
          "name": "",
          "type": "uint256"
        }
      ],
      "stateMutability": "view",
      "type": "function"
    },
    {
      "inputs": [],
      "name": "tokenAddress",
      "outputs": [
        {
          "internalType": "address",
          "name": "",
          "type": "address"
        }
      ],
      "stateMutability": "view",
      "type": "function"
    },
    {
      "inputs": [],
      "name": "totalSaved",
      "outputs": [
        {
          "internalType": "uint256",
          "name": "",
          "type": "uint256"
        }
      ],
      "stateMutability": "view",
      "type": "function"
    },
    {
      "inputs": [],
      "name": "unpause",
      "outputs": [],
      "stateMutability": "nonpayable",
      "type": "function"
    },
    {
      "inputs": [
        {
          "internalType": "uint256",
          "name": "amount",
          "type": "uint256"
        }
      ],
      "name": "withdraw",
      "outputs": [],
      "stateMutability": "nonpayable",
      "type": "function"
    }
  ],
  "transactionHash": "0xfa734bd43b42a06972681e5e99fdaa9c861f85a51717417958d3b8b3037d6006",
  "args": [],
  "numDeployments": 2,
  "solcInputHash": "2f1eff11fbe05df8055400b81911febb",
  "bytecode": "0x608060405234801561001057600080fd5b5060016000819055805460ff19169055600d805461ff0019166101001790556119388061003e6000396000f3fe6080604052600436106101cd5760003560e01c8063939c4456116100f7578063b514ff3e11610095578063d3eb6f6111610064578063d3eb6f6114610511578063d4bc3a4f14610526578063e24d65f914610546578063f8b2cb4f1461056657600080fd5b8063b514ff3e146104a6578063b6b55f25146104bc578063c30db746146104cf578063cccf2560146104ef57600080fd5b80639af4ee7e116100d15780639af4ee7e146104135780639d76ea58146104345780639eab525314610454578063a230c5241461047657600080fd5b8063939c4456146103c0578063953b8fb8146103e8578063997072f7146103fe57600080fd5b80633f4ba83a1161016f57806366805de51161013e57806366805de51461036e5780636f9fb98a146103835780638371e6b4146103965780638456cb59146103ab57600080fd5b80633f4ba83a1461030b578063488c2ad2146103205780635c975abb146103365780635daf08ca1461034e57600080fd5b806322f3e2d4116101ab57806322f3e2d41461027657806327e235e3146102905780632e1a7d4d146102cb5780632f890b93146102eb57600080fd5b806302d05d3f146101d25780631d0f2c99146102145780631dcbe50014610236575b600080fd5b3480156101de57600080fd5b506001546101f79061010090046001600160a01b031681565b6040516001600160a01b0390911681526020015b60405180910390f35b34801561022057600080fd5b5061023461022f3660046114e4565b61059c565b005b34801561024257600080fd5b50610266610251366004611522565b600a6020526000908152604090205460ff1681565b604051901515815260200161020b565b34801561028257600080fd5b50600d546102669060ff1681565b34801561029c57600080fd5b506102bd6102ab366004611522565b60066020526000908152604090205481565b60405190815260200161020b565b3480156102d757600080fd5b506102346102e636600461153d565b6106c2565b3480156102f757600080fd5b50610234610306366004611522565b610868565b34801561031757600080fd5b506102346109d5565b34801561032c57600080fd5b506102bd600c5481565b34801561034257600080fd5b5060015460ff16610266565b34801561035a57600080fd5b506101f761036936600461153d565b610a0e565b34801561037a57600080fd5b50610234610a38565b34801561038f57600080fd5b50476102bd565b3480156103a257600080fd5b50610234610aaf565b3480156103b757600080fd5b50610234610bdc565b3480156103cc57600080fd5b50600754600b546040805192835260208301919091520161020b565b3480156103f457600080fd5b506102bd600b5481565b34801561040a57600080fd5b506008546102bd565b34801561041f57600080fd5b5060055461026690600160a01b900460ff1681565b34801561044057600080fd5b506005546101f7906001600160a01b031681565b34801561046057600080fd5b50610469610c13565b60405161020b9190611556565b34801561048257600080fd5b50610266610491366004611522565b60096020526000908152604090205460ff1681565b3480156104b257600080fd5b506102bd60075481565b6102346104ca36600461153d565b610c75565b3480156104db57600080fd5b506003546101f7906001600160a01b031681565b3480156104fb57600080fd5b50610504610e1b565b60405161020b91906115a3565b34801561051d57600080fd5b50610266610ea9565b34801561053257600080fd5b50610234610541366004611620565b610ec7565b34801561055257600080fd5b506002546101f7906001600160a01b031681565b34801561057257600080fd5b506102bd610581366004611522565b6001600160a01b031660009081526006602052604090205490565b60015461010090046001600160a01b031633146105d45760405162461bcd60e51b81526004016105cb90611723565b60405180910390fd5b6105dc6111b4565b6000821161062c5760405162461bcd60e51b815260206004820152601e60248201527f54617267657420616d6f756e74206d75737420626520706f736974697665000060448201526064016105cb565b42811161067b5760405162461bcd60e51b815260206004820152601d60248201527f5461726765742064617465206d75737420626520696e2066757475726500000060448201526064016105cb565b600b829055600c81905560408051838152602081018390527f36cbb4d8bcb4cdd7abe6491bf62932ce6bf0715ddff61fa0f3b5f3ad2a55b765910160405180910390a15050565b3360009081526009602052604090205460ff166107105760405162461bcd60e51b815260206004820152600c60248201526b2737ba10309036b2b6b132b960a11b60448201526064016105cb565b6107186111b4565b6107206111d8565b600081116107705760405162461bcd60e51b815260206004820152601760248201527f4d75737420776974686472617720736f6d657468696e6700000000000000000060448201526064016105cb565b336000908152600660205260409020548111156107c65760405162461bcd60e51b8152602060048201526014602482015273496e73756666696369656e742062616c616e636560601b60448201526064016105cb565b33600090815260066020526040812080548392906107e5908490611770565b9250508190555080600760008282546107fe9190611770565b9091555050600554610826906001600160a01b03811690600160a01b900460ff163384611202565b60405181815233907f7084f5476618d8e60b11ef0d7d3f06914655adb8793e28ff7f018d4c76d505d59060200160405180910390a26108656001600055565b50565b60015461010090046001600160a01b031633148061089057506002546001600160a01b031633145b6108dc5760405162461bcd60e51b815260206004820152601760248201527f4f6e6c792063726561746f72206f72206261636b656e6400000000000000000060448201526064016105cb565b6108e46111b4565b6001600160a01b0381166000908152600a602052604090205460ff161561093f5760405162461bcd60e51b815260206004820152600f60248201526e105b1c9958591e481a5b9d9a5d1959608a1b60448201526064016105cb565b6001600160a01b0381166109875760405162461bcd60e51b815260206004820152600f60248201526e496e76616c6964206164647265737360881b60448201526064016105cb565b6001600160a01b0381166000818152600a6020526040808220805460ff19166001179055513392917f6c246c8894ac239253d22cd508dbe8eb7e027e0589cdd4ff16dbb4238ccd983491a350565b60015461010090046001600160a01b03163314610a045760405162461bcd60e51b81526004016105cb90611723565b610a0c61131e565b565b60088181548110610a1e57600080fd5b6000918252602090912001546001600160a01b0316905081565b60015461010090046001600160a01b03163314610a675760405162461bcd60e51b81526004016105cb90611723565b610a6f6111b4565b600d805460ff191690556040514281527f925a19753e677c9dc36a80e0fc824ca0c5b1afde494872b43daccab9ffeaffd4906020015b60405180910390a1565b336000908152600a602052604090205460ff16610afc5760405162461bcd60e51b815260206004820152600b60248201526a139bdd081a5b9d9a5d195960aa1b60448201526064016105cb565b610b046111b4565b3360009081526009602052604090205460ff1615610b575760405162461bcd60e51b815260206004820152601060248201526f20b63932b0b23c90309036b2b6b132b960811b60448201526064016105cb565b6008805460018181019092557ff3f7a9fe364faab93b216da50a3214154f22a0a2b415b23a84c8169e8b636ee30180546001600160a01b03191633908117909155600081815260096020526040808220805460ff1916909417909355915190917f0abf3b3f643594d958297062a019458e27d7766629590ac621aa1000fa1298ab91a2565b60015461010090046001600160a01b03163314610c0b5760405162461bcd60e51b81526004016105cb90611723565b610a0c61136b565b60606008805480602002602001604051908101604052809291908181526020018280548015610c6b57602002820191906000526020600020905b81546001600160a01b03168152600190910190602001808311610c4d575b5050505050905090565b3360009081526009602052604090205460ff16610cc35760405162461bcd60e51b815260206004820152600c60248201526b2737ba10309036b2b6b132b960a11b60448201526064016105cb565b600d5460ff16610d075760405162461bcd60e51b815260206004820152600f60248201526e506f6f6c206e6f742061637469766560881b60448201526064016105cb565b610d0f6111b4565b610d176111d8565b600554600160a01b900460ff1680610d2f5750600081115b610d745760405162461bcd60e51b81526020600482015260166024820152754d757374206465706f73697420736f6d657468696e6760501b60448201526064016105cb565b600554600090610d99906001600160a01b03811690600160a01b900460ff16846113a6565b33600090815260066020526040812080549293508392909190610dbd908490611789565b925050819055508060076000828254610dd69190611789565b909155505060405181815233907f2da466a7b24304f47e87fa2e1e5a81b9831ce54fec19055ce277ca2f39ba42c49060200160405180910390a2506108656001600055565b60048054610e289061179c565b80601f0160208091040260200160405190810160405280929190818152602001828054610e549061179c565b8015610ea15780601f10610e7657610100808354040283529160200191610ea1565b820191906000526020600020905b815481529060010190602001808311610e8457829003601f168201915b505050505081565b6000600b54600003610ebb5750600090565b50600b54600754101590565b600d54610100900460ff1615610f155760405162461bcd60e51b8152602060048201526013602482015272105b1c9958591e481a5b9a5d1a585b1a5e9959606a1b60448201526064016105cb565b600d805461ff0019166101001790558015610f9a576001600160a01b03821615610f955760405162461bcd60e51b815260206004820152602b60248201527f546f6b656e2061646472657373206d757374206265207a65726f20666f72206e60448201526a30ba34bb32903a37b5b2b760a91b60648201526084016105cb565b610ff0565b6001600160a01b038216610ff05760405162461bcd60e51b815260206004820152601f60248201527f496e76616c696420746f6b656e206164647265737320666f722045524332300060448201526064016105cb565b6001600160a01b0383166110465760405162461bcd60e51b815260206004820152601760248201527f496e76616c6964206261636b656e64206d616e6167657200000000000000000060448201526064016105cb565b600180546001600160a01b0380891661010002610100600160a81b031990921691909117909155600280548583166001600160a01b031991821617909155600380549288169290911691909117905560046110a18582611825565b50600580546001600160a01b038481166001600160a81b031990921691909117600160a01b8415150217909155600d805460ff199081166001908117909255600880548084019091557ff3f7a9fe364faab93b216da50a3214154f22a0a2b415b23a84c8169e8b636ee30180546001600160a01b0319168a851690811790915560008181526009602090815260408083208054861687179055600a9091528082208054909416909417909255915191928816917f4f2ce4e40f623ca765fc0167a25cb7842ceaafb8d82d3dec26ca0d0e0d2d48969190a36040516001600160a01b038716907f0abf3b3f643594d958297062a019458e27d7766629590ac621aa1000fa1298ab90600090a2505050505050565b60015460ff1615610a0c5760405163d93c066560e01b815260040160405180910390fd5b6002600054036111fb57604051633ee5aeb560e01b815260040160405180910390fd5b6002600055565b82156112a3576000826001600160a01b03168260405160006040518083038185875af1925050503d8060008114611255576040519150601f19603f3d011682016040523d82523d6000602084013e61125a565b606091505b505090508061129d5760405162461bcd60e51b815260206004820152600f60248201526e151c985b9cd9995c8819985a5b1959608a1b60448201526064016105cb565b50611318565b60405163a9059cbb60e01b81526001600160a01b0383811660048301526024820183905285169063a9059cbb906044016020604051808303816000875af11580156112f2573d6000803e3d6000fd5b505050506040513d601f19601f8201168201806040525081019061131691906118e5565b505b50505050565b6113266114c1565b6001805460ff191690557f5db9ee0a495bf2e6ff9c91a7834c1ba4fdd244a5e8aa4e537bd38aeae4b073aa335b6040516001600160a01b039091168152602001610aa5565b6113736111b4565b6001805460ff1916811790557f62e78cea01bee320cd4e420270b5ea74000d11b0c9f74754ebdbfc544b05a25833611353565b600082156113fe57600034116113f75760405162461bcd60e51b815260206004820152601660248201527526bab9ba1039b2b732103730ba34bb32903a37b5b2b760511b60448201526064016105cb565b50346114ba565b341561143e5760405162461bcd60e51b815260206004820152600f60248201526e2737903730ba34bb32903a37b5b2b760891b60448201526064016105cb565b6040516323b872dd60e01b8152336004820152306024820152604481018390526001600160a01b038516906323b872dd906064016020604051808303816000875af1158015611491573d6000803e3d6000fd5b505050506040513d601f19601f820116820180604052508101906114b591906118e5565b508190505b9392505050565b60015460ff16610a0c57604051638dfc202b60e01b815260040160405180910390fd5b600080604083850312156114f757600080fd5b50508035926020909101359150565b80356001600160a01b038116811461151d57600080fd5b919050565b60006020828403121561153457600080fd5b6114ba82611506565b60006020828403121561154f57600080fd5b5035919050565b6020808252825182820181905260009190848201906040850190845b818110156115975783516001600160a01b031683529284019291840191600101611572565b50909695505050505050565b600060208083528351808285015260005b818110156115d0578581018301518582016040015282016115b4565b506000604082860101526040601f19601f8301168501019250505092915050565b634e487b7160e01b600052604160045260246000fd5b801515811461086557600080fd5b803561151d81611607565b60008060008060008060c0878903121561163957600080fd5b61164287611506565b955061165060208801611506565b9450604087013567ffffffffffffffff8082111561166d57600080fd5b818901915089601f83011261168157600080fd5b813581811115611693576116936115f1565b604051601f8201601f19908116603f011681019083821181831017156116bb576116bb6115f1565b816040528281528c60208487010111156116d457600080fd5b8260208601602083013760006020848301015280985050505050506116fb60608801611506565b925061170960808801611506565b915061171760a08801611615565b90509295509295509295565b6020808252601a908201527f4f6e6c792063726561746f722063616e2063616c6c2074686973000000000000604082015260600190565b634e487b7160e01b600052601160045260246000fd5b818103818111156117835761178361175a565b92915050565b808201808211156117835761178361175a565b600181811c908216806117b057607f821691505b6020821081036117d057634e487b7160e01b600052602260045260246000fd5b50919050565b601f82111561182057600081815260208120601f850160051c810160208610156117fd5750805b601f850160051c820191505b8181101561181c57828155600101611809565b5050505b505050565b815167ffffffffffffffff81111561183f5761183f6115f1565b6118538161184d845461179c565b846117d6565b602080601f83116001811461188857600084156118705750858301515b600019600386901b1c1916600185901b17855561181c565b600085815260208120601f198616915b828110156118b757888601518255948401946001909101908401611898565b50858210156118d55787850151600019600388901b60f8161c191681555b5050505050600190811b01905550565b6000602082840312156118f757600080fd5b81516114ba8161160756fea264697066735822122016d5f3e2c5b853dc2c04c7d8f8a1fb48baa1b36cff6bf8b5ebcbfd265729cc8e64736f6c63430008140033",
  "devdoc": {
    "details": "Members maintain individual balances and can set collective savings goals",
    "errors": {
      "EnforcedPause()": [
        {
          "details": "The operation failed because the contract is paused."
        }
      ],
      "ExpectedPause()": [
        {
          "details": "The operation failed because the contract is not paused."
        }
      ],
      "ReentrancyGuardReentrantCall()": [
        {
          "details": "Unauthorized reentrant call."
        }
      ]
    },
    "events": {
      "Paused(address)": {
        "details": "Emitted when the pause is triggered by `account`."
      },
      "Unpaused(address)": {
        "details": "Emitted when the pause is lifted by `account`."
      }
    },
    "kind": "dev",
    "methods": {
      "closePool()": {
        "details": "Only creator can close. Members can still withdraw their balances."
      },
      "constructor": {
        "details": "Prevents the implementation contract from being initialized"
      },
      "deposit(uint256)": {
        "details": "For ERC20: Member must have approved the contract to spend tokens before calling      For native token: amount parameter is ignored, msg.value is used",
        "params": {
          "amount": "Amount of ERC20 tokens to deposit (ignored for native token pools)"
        }
      },
      "getBalance(address)": {
        "params": {
          "member": "Address of the member"
        },
        "returns": {
          "_0": "Balance in wei"
        }
      },
      "getContractBalance()": {
        "returns": {
          "_0": "Balance in wei"
        }
      },
      "getMemberCount()": {
        "returns": {
          "_0": "Member count"
        }
      },
      "getMembers()": {
        "returns": {
          "_0": "Array of member addresses"
        }
      },
      "getProgress()": {
        "returns": {
          "current": "Current total savings",
          "target": "Target savings amount"
        }
      },
      "initialize(address,address,string,address,address,bool)": {
        "details": "This replaces the constructor for cloned instances",
        "params": {
          "_backendManager": "Address of the backend manager (can invite members)",
          "_circleId": "Address of the Lens.xyz circle contract",
          "_circleName": "Name of the circle",
          "_creator": "Address of the user creating the pool",
          "_isNativeToken": "Whether this pool uses native token (cBTC) or ERC20 token",
          "_tokenAddress": "Address of the ERC20 token to use for savings (zero address if native)"
        }
      },
      "inviteMember(address)": {
        "details": "Creator or backend manager can invite members",
        "params": {
          "member": "Address of the member to invite"
        }
      },
      "isGoalReached()": {
        "returns": {
          "_0": "True if target is set and reached, false otherwise"
        }
      },
      "pause()": {
        "details": "Only creator can pause"
      },
      "paused()": {
        "details": "Returns true if the contract is paused, and false otherwise."
      },
      "setTarget(uint256,uint256)": {
        "details": "Only creator can set goals",
        "params": {
          "_amount": "Target savings amount in wei",
          "_date": "Target date as Unix timestamp"
        }
      },
      "unpause()": {
        "details": "Only creator can unpause"
      },
      "withdraw(uint256)": {
        "params": {
          "amount": "Amount of tokens to withdraw"
        }
      }
    },
    "title": "SavingsPool",
    "version": 1
  },
  "userdoc": {
    "kind": "user",
    "methods": {
      "backendManager()": {
        "notice": "Address of the backend manager (can invite members)"
      },
      "balances(address)": {
        "notice": "Individual balances for each member"
      },
      "circleId()": {
        "notice": "Address of the Lens.xyz circle contract"
      },
      "circleName()": {
        "notice": "Human-readable name of the circle"
      },
      "closePool()": {
        "notice": "Closes the pool, preventing further deposits"
      },
      "constructor": {
        "notice": "Constructor for implementation contract"
      },
      "creator()": {
        "notice": "Address of the user who created this pool"
      },
      "deposit(uint256)": {
        "notice": "Allows a member to deposit funds into their savings"
      },
      "getBalance(address)": {
        "notice": "Gets a member's savings balance"
      },
      "getContractBalance()": {
        "notice": "Gets the contract's current balance"
      },
      "getMemberCount()": {
        "notice": "Gets the total number of members"
      },
      "getMembers()": {
        "notice": "Gets all members"
      },
      "getProgress()": {
        "notice": "Gets the current progress toward the savings goal"
      },
      "initialize(address,address,string,address,address,bool)": {
        "notice": "Initializes a new Savings pool clone"
      },
      "inviteMember(address)": {
        "notice": "Invites a new member to the pool"
      },
      "isActive()": {
        "notice": "Whether the pool is currently active"
      },
      "isGoalReached()": {
        "notice": "Checks if the savings goal has been reached"
      },
      "isInvited(address)": {
        "notice": "Mapping to check if an address has been invited"
      },
      "isMember(address)": {
        "notice": "Mapping to check if an address is a member"
      },
      "isNativeToken()": {
        "notice": "Whether this pool uses native token (cBTC) or ERC20 token"
      },
      "joinPool()": {
        "notice": "Allows an invited member to join the pool"
      },
      "members(uint256)": {
        "notice": "Array of all members in the pool"
      },
      "pause()": {
        "notice": "Pauses the contract in case of emergency"
      },
      "setTarget(uint256,uint256)": {
        "notice": "Sets or updates the savings goal for the pool"
      },
      "targetAmount()": {
        "notice": "Optional target savings amount set by creator"
      },
      "targetDate()": {
        "notice": "Optional target date for reaching the goal"
      },
      "tokenAddress()": {
        "notice": "Address of the ERC20 token used for savings (zero address if native token)"
      },
      "totalSaved()": {
        "notice": "Total amount saved across all members"
      },
      "unpause()": {
        "notice": "Unpauses the contract"
      },
      "withdraw(uint256)": {
        "notice": "Allows a member to withdraw from their savings balance"
      }
    },
    "notice": "Collective savings pool where members can deposit and withdraw freely",
    "version": 1
  },
  "storageLayout": {
    "storage": [
      {
        "astId": 468,
        "contract": "contracts/pools/SavingsPool.sol:SavingsPool",
        "label": "_status",
        "offset": 0,
        "slot": "0",
        "type": "t_uint256"
      },
      {
        "astId": 349,
        "contract": "contracts/pools/SavingsPool.sol:SavingsPool",
        "label": "_paused",
        "offset": 0,
        "slot": "1",
        "type": "t_bool"
      },
      {
        "astId": 3241,
        "contract": "contracts/pools/SavingsPool.sol:SavingsPool",
        "label": "creator",
        "offset": 1,
        "slot": "1",
        "type": "t_address"
      },
      {
        "astId": 3244,
        "contract": "contracts/pools/SavingsPool.sol:SavingsPool",
        "label": "backendManager",
        "offset": 0,
        "slot": "2",
        "type": "t_address"
      },
      {
        "astId": 3247,
        "contract": "contracts/pools/SavingsPool.sol:SavingsPool",
        "label": "circleId",
        "offset": 0,
        "slot": "3",
        "type": "t_address"
      },
      {
        "astId": 3250,
        "contract": "contracts/pools/SavingsPool.sol:SavingsPool",
        "label": "circleName",
        "offset": 0,
        "slot": "4",
        "type": "t_string_storage"
      },
      {
        "astId": 3253,
        "contract": "contracts/pools/SavingsPool.sol:SavingsPool",
        "label": "tokenAddress",
        "offset": 0,
        "slot": "5",
        "type": "t_address"
      },
      {
        "astId": 3256,
        "contract": "contracts/pools/SavingsPool.sol:SavingsPool",
        "label": "isNativeToken",
        "offset": 20,
        "slot": "5",
        "type": "t_bool"
      },
      {
        "astId": 3261,
        "contract": "contracts/pools/SavingsPool.sol:SavingsPool",
        "label": "balances",
        "offset": 0,
        "slot": "6",
        "type": "t_mapping(t_address,t_uint256)"
      },
      {
        "astId": 3264,
        "contract": "contracts/pools/SavingsPool.sol:SavingsPool",
        "label": "totalSaved",
        "offset": 0,
        "slot": "7",
        "type": "t_uint256"
      },
      {
        "astId": 3268,
        "contract": "contracts/pools/SavingsPool.sol:SavingsPool",
        "label": "members",
        "offset": 0,
        "slot": "8",
        "type": "t_array(t_address)dyn_storage"
      },
      {
        "astId": 3273,
        "contract": "contracts/pools/SavingsPool.sol:SavingsPool",
        "label": "isMember",
        "offset": 0,
        "slot": "9",
        "type": "t_mapping(t_address,t_bool)"
      },
      {
        "astId": 3278,
        "contract": "contracts/pools/SavingsPool.sol:SavingsPool",
        "label": "isInvited",
        "offset": 0,
        "slot": "10",
        "type": "t_mapping(t_address,t_bool)"
      },
      {
        "astId": 3281,
        "contract": "contracts/pools/SavingsPool.sol:SavingsPool",
        "label": "targetAmount",
        "offset": 0,
        "slot": "11",
        "type": "t_uint256"
      },
      {
        "astId": 3284,
        "contract": "contracts/pools/SavingsPool.sol:SavingsPool",
        "label": "targetDate",
        "offset": 0,
        "slot": "12",
        "type": "t_uint256"
      },
      {
        "astId": 3287,
        "contract": "contracts/pools/SavingsPool.sol:SavingsPool",
        "label": "isActive",
        "offset": 0,
        "slot": "13",
        "type": "t_bool"
      },
      {
        "astId": 3290,
        "contract": "contracts/pools/SavingsPool.sol:SavingsPool",
        "label": "initialized",
        "offset": 1,
        "slot": "13",
        "type": "t_bool"
      }
    ],
    "types": {
      "t_address": {
        "encoding": "inplace",
        "label": "address",
        "numberOfBytes": "20"
      },
      "t_array(t_address)dyn_storage": {
        "base": "t_address",
        "encoding": "dynamic_array",
        "label": "address[]",
        "numberOfBytes": "32"
      },
      "t_bool": {
        "encoding": "inplace",
        "label": "bool",
        "numberOfBytes": "1"
      },
      "t_mapping(t_address,t_bool)": {
        "encoding": "mapping",
        "key": "t_address",
        "label": "mapping(address => bool)",
        "numberOfBytes": "32",
        "value": "t_bool"
      },
      "t_mapping(t_address,t_uint256)": {
        "encoding": "mapping",
        "key": "t_address",
        "label": "mapping(address => uint256)",
        "numberOfBytes": "32",
        "value": "t_uint256"
      },
      "t_string_storage": {
        "encoding": "bytes",
        "label": "string",
        "numberOfBytes": "32"
      },
      "t_uint256": {
        "encoding": "inplace",
        "label": "uint256",
        "numberOfBytes": "32"
      }
    }
  }
}