{
  "address": "0xCbe2729249aD201bceACf7213c382E4f010587cD",
  "abi": [
    {
      "inputs": [],
      "stateMutability": "nonpayable",
      "type": "constructor"
    },
    {
      "inputs": [],
      "name": "EnforcedPause",
      "type": "error"
    },
    {
      "inputs": [],
      "name": "ExpectedPause",
      "type": "error"
    },
    {
      "inputs": [],
      "name": "ReentrancyGuardReentrantCall",
      "type": "error"
    },
    {
      "anonymous": false,
      "inputs": [
        {
          "indexed": true,
          "internalType": "address",
          "name": "member",
          "type": "address"
        },
        {
          "indexed": false,
          "internalType": "uint256",
          "name": "amount",
          "type": "uint256"
        }
      ],
      "name": "Deposited",
      "type": "event"
    },
    {
      "anonymous": false,
      "inputs": [
        {
          "indexed": true,
          "internalType": "address",
          "name": "member",
          "type": "address"
        },
        {
          "indexed": true,
          "internalType": "address",
          "name": "addedBy",
          "type": "address"
        }
      ],
      "name": "MemberJoined",
      "type": "event"
    },
    {
      "anonymous": false,
      "inputs": [
        {
          "indexed": false,
          "internalType": "address",
          "name": "account",
          "type": "address"
        }
      ],
      "name": "Paused",
      "type": "event"
    },
    {
      "anonymous": false,
      "inputs": [
        {
          "indexed": false,
          "internalType": "uint256",
          "name": "timestamp",
          "type": "uint256"
        }
      ],
      "name": "PoolClosed",
      "type": "event"
    },
    {
      "anonymous": false,
      "inputs": [
        {
          "indexed": true,
          "internalType": "address",
          "name": "circleId",
          "type": "address"
        },
        {
          "indexed": true,
          "internalType": "address",
          "name": "creator",
          "type": "address"
        }
      ],
      "name": "PoolCreated",
      "type": "event"
    },
    {
      "anonymous": false,
      "inputs": [
        {
          "indexed": false,
          "internalType": "uint256",
          "name": "amount",
          "type": "uint256"
        },
        {
          "indexed": false,
          "internalType": "uint256",
          "name": "date",
          "type": "uint256"
        }
      ],
      "name": "TargetSet",
      "type": "event"
    },
    {
      "anonymous": false,
      "inputs": [
        {
          "indexed": false,
          "internalType": "address",
          "name": "account",
          "type": "address"
        }
      ],
      "name": "Unpaused",
      "type": "event"
    },
    {
      "anonymous": false,
      "inputs": [
        {
          "indexed": true,
          "internalType": "address",
          "name": "member",
          "type": "address"
        },
        {
          "indexed": false,
          "internalType": "uint256",
          "name": "amount",
          "type": "uint256"
        }
      ],
      "name": "Withdrawn",
      "type": "event"
    },
    {
      "inputs": [],
      "name": "backendManager",
      "outputs": [
        {
          "internalType": "address",
          "name": "",
          "type": "address"
        }
      ],
      "stateMutability": "view",
      "type": "function"
    },
    {
      "inputs": [
        {
          "internalType": "address",
          "name": "",
          "type": "address"
        }
      ],
      "name": "balances",
      "outputs": [
        {
          "internalType": "uint256",
          "name": "",
          "type": "uint256"
        }
      ],
      "stateMutability": "view",
      "type": "function"
    },
    {
      "inputs": [],
      "name": "circleId",
      "outputs": [
        {
          "internalType": "address",
          "name": "",
          "type": "address"
        }
      ],
      "stateMutability": "view",
      "type": "function"
    },
    {
      "inputs": [],
      "name": "circleName",
      "outputs": [
        {
          "internalType": "string",
          "name": "",
          "type": "string"
        }
      ],
      "stateMutability": "view",
      "type": "function"
    },
    {
      "inputs": [],
      "name": "closePool",
      "outputs": [],
      "stateMutability": "nonpayable",
      "type": "function"
    },
    {
      "inputs": [],
      "name": "creator",
      "outputs": [
        {
          "internalType": "address",
          "name": "",
          "type": "address"
        }
      ],
      "stateMutability": "view",
      "type": "function"
    },
    {
      "inputs": [
        {
          "internalType": "uint256",
          "name": "amount",
          "type": "uint256"
        }
      ],
      "name": "deposit",
      "outputs": [],
      "stateMutability": "payable",
      "type": "function"
    },
    {
      "inputs": [
        {
          "internalType": "address",
          "name": "member",
          "type": "address"
        }
      ],
      "name": "getBalance",
      "outputs": [
        {
          "internalType": "uint256",
          "name": "",
          "type": "uint256"
        }
      ],
      "stateMutability": "view",
      "type": "function"
    },
    {
      "inputs": [],
      "name": "getContractBalance",
      "outputs": [
        {
          "internalType": "uint256",
          "name": "",
          "type": "uint256"
        }
      ],
      "stateMutability": "view",
      "type": "function"
    },
    {
      "inputs": [],
      "name": "getMemberCount",
      "outputs": [
        {
          "internalType": "uint256",
          "name": "",
          "type": "uint256"
        }
      ],
      "stateMutability": "view",
      "type": "function"
    },
    {
      "inputs": [],
      "name": "getMembers",
      "outputs": [
        {
          "internalType": "address[]",
          "name": "",
          "type": "address[]"
        }
      ],
      "stateMutability": "view",
      "type": "function"
    },
    {
      "inputs": [],
      "name": "getProgress",
      "outputs": [
        {
          "internalType": "uint256",
          "name": "current",
          "type": "uint256"
        },
        {
          "internalType": "uint256",
          "name": "target",
          "type": "uint256"
        }
      ],
      "stateMutability": "view",
      "type": "function"
    },
    {
      "inputs": [
        {
          "internalType": "address",
          "name": "_creator",
          "type": "address"
        },
        {
          "internalType": "address",
          "name": "_circleId",
          "type": "address"
        },
        {
          "internalType": "string",
          "name": "_circleName",
          "type": "string"
        },
        {
          "internalType": "address",
          "name": "_backendManager",
          "type": "address"
        },
        {
          "internalType": "address",
          "name": "_tokenAddress",
          "type": "address"
        },
        {
          "internalType": "bool",
          "name": "_isNativeToken",
          "type": "bool"
        }
      ],
      "name": "initialize",
      "outputs": [],
      "stateMutability": "nonpayable",
      "type": "function"
    },
    {
      "inputs": [
        {
          "internalType": "address",
          "name": "member",
          "type": "address"
        }
      ],
      "name": "inviteMember",
      "outputs": [],
      "stateMutability": "nonpayable",
      "type": "function"
    },
    {
      "inputs": [],
      "name": "isActive",
      "outputs": [
        {
          "internalType": "bool",
          "name": "",
          "type": "bool"
        }
      ],
      "stateMutability": "view",
      "type": "function"
    },
    {
      "inputs": [],
      "name": "isGoalReached",
      "outputs": [
        {
          "internalType": "bool",
          "name": "",
          "type": "bool"
        }
      ],
      "stateMutability": "view",
      "type": "function"
    },
    {
      "inputs": [
        {
          "internalType": "address",
          "name": "",
          "type": "address"
        }
      ],
      "name": "isMember",
      "outputs": [
        {
          "internalType": "bool",
          "name": "",
          "type": "bool"
        }
      ],
      "stateMutability": "view",
      "type": "function"
    },
    {
      "inputs": [],
      "name": "isNativeToken",
      "outputs": [
        {
          "internalType": "bool",
          "name": "",
          "type": "bool"
        }
      ],
      "stateMutability": "view",
      "type": "function"
    },
    {
      "inputs": [
        {
          "internalType": "uint256",
          "name": "",
          "type": "uint256"
        }
      ],
      "name": "members",
      "outputs": [
        {
          "internalType": "address",
          "name": "",
          "type": "address"
        }
      ],
      "stateMutability": "view",
      "type": "function"
    },
    {
      "inputs": [],
      "name": "pause",
      "outputs": [],
      "stateMutability": "nonpayable",
      "type": "function"
    },
    {
      "inputs": [],
      "name": "paused",
      "outputs": [
        {
          "internalType": "bool",
          "name": "",
          "type": "bool"
        }
      ],
      "stateMutability": "view",
      "type": "function"
    },
    {
      "inputs": [
        {
          "internalType": "uint256",
          "name": "_amount",
          "type": "uint256"
        },
        {
          "internalType": "uint256",
          "name": "_date",
          "type": "uint256"
        }
      ],
      "name": "setTarget",
      "outputs": [],
      "stateMutability": "nonpayable",
      "type": "function"
    },
    {
      "inputs": [],
      "name": "targetAmount",
      "outputs": [
        {
          "internalType": "uint256",
          "name": "",
          "type": "uint256"
        }
      ],
      "stateMutability": "view",
      "type": "function"
    },
    {
      "inputs": [],
      "name": "targetDate",
      "outputs": [
        {
          "internalType": "uint256",
          "name": "",
          "type": "uint256"
        }
      ],
      "stateMutability": "view",
      "type": "function"
    },
    {
      "inputs": [],
      "name": "tokenAddress",
      "outputs": [
        {
          "internalType": "address",
          "name": "",
          "type": "address"
        }
      ],
      "stateMutability": "view",
      "type": "function"
    },
    {
      "inputs": [],
      "name": "totalSaved",
      "outputs": [
        {
          "internalType": "uint256",
          "name": "",
          "type": "uint256"
        }
      ],
      "stateMutability": "view",
      "type": "function"
    },
    {
      "inputs": [],
      "name": "unpause",
      "outputs": [],
      "stateMutability": "nonpayable",
      "type": "function"
    },
    {
      "inputs": [
        {
          "internalType": "uint256",
          "name": "amount",
          "type": "uint256"
        }
      ],
      "name": "withdraw",
      "outputs": [],
      "stateMutability": "nonpayable",
      "type": "function"
    }
  ],
  "transactionHash": "0x187bfeb702150ec07dd336c0bf81b4a0eb97f55453605c51cdd2774a9963e57b",
  "args": [],
  "numDeployments": 3,
  "solcInputHash": "b1b414be307ab3dbeb8c7b1dfa17f549",
  "bytecode": "0x608060405234801561001057600080fd5b5060016000819055805460ff19169055600c805461ff0019166101001790556117e28061003e6000396000f3fe6080604052600436106101b75760003560e01c8063953b8fb8116100ec578063b6b55f251161008a578063d3eb6f6111610064578063d3eb6f61146104b6578063d4bc3a4f146104cb578063e24d65f9146104eb578063f8b2cb4f1461050b57600080fd5b8063b6b55f2514610461578063c30db74614610474578063cccf25601461049457600080fd5b80639d76ea58116100c65780639d76ea58146103d95780639eab5253146103f9578063a230c5241461041b578063b514ff3e1461044b57600080fd5b8063953b8fb81461038d578063997072f7146103a35780639af4ee7e146103b857600080fd5b8063488c2ad21161015957806366805de51161013357806366805de5146103285780636f9fb98a1461033d5780638456cb5914610350578063939c44561461036557600080fd5b8063488c2ad2146102da5780635c975abb146102f05780635daf08ca1461030857600080fd5b806327e235e31161019557806327e235e31461024a5780632e1a7d4d146102855780632f890b93146102a55780633f4ba83a146102c557600080fd5b806302d05d3f146101bc5780631d0f2c99146101fe57806322f3e2d414610220575b600080fd5b3480156101c857600080fd5b506001546101e19061010090046001600160a01b031681565b6040516001600160a01b0390911681526020015b60405180910390f35b34801561020a57600080fd5b5061021e61021936600461138e565b610541565b005b34801561022c57600080fd5b50600c5461023a9060ff1681565b60405190151581526020016101f5565b34801561025657600080fd5b506102776102653660046113cc565b60066020526000908152604090205481565b6040519081526020016101f5565b34801561029157600080fd5b5061021e6102a03660046113e7565b610667565b3480156102b157600080fd5b5061021e6102c03660046113cc565b61080d565b3480156102d157600080fd5b5061021e6109bc565b3480156102e657600080fd5b50610277600b5481565b3480156102fc57600080fd5b5060015460ff1661023a565b34801561031457600080fd5b506101e16103233660046113e7565b6109f5565b34801561033457600080fd5b5061021e610a1f565b34801561034957600080fd5b5047610277565b34801561035c57600080fd5b5061021e610a96565b34801561037157600080fd5b50600754600a54604080519283526020830191909152016101f5565b34801561039957600080fd5b50610277600a5481565b3480156103af57600080fd5b50600854610277565b3480156103c457600080fd5b5060055461023a90600160a01b900460ff1681565b3480156103e557600080fd5b506005546101e1906001600160a01b031681565b34801561040557600080fd5b5061040e610acd565b6040516101f59190611400565b34801561042757600080fd5b5061023a6104363660046113cc565b60096020526000908152604090205460ff1681565b34801561045757600080fd5b5061027760075481565b61021e61046f3660046113e7565b610b2f565b34801561048057600080fd5b506003546101e1906001600160a01b031681565b3480156104a057600080fd5b506104a9610cd5565b6040516101f5919061144d565b3480156104c257600080fd5b5061023a610d63565b3480156104d757600080fd5b5061021e6104e63660046114ca565b610d81565b3480156104f757600080fd5b506002546101e1906001600160a01b031681565b34801561051757600080fd5b506102776105263660046113cc565b6001600160a01b031660009081526006602052604090205490565b60015461010090046001600160a01b031633146105795760405162461bcd60e51b8152600401610570906115cd565b60405180910390fd5b61058161105e565b600082116105d15760405162461bcd60e51b815260206004820152601e60248201527f54617267657420616d6f756e74206d75737420626520706f73697469766500006044820152606401610570565b4281116106205760405162461bcd60e51b815260206004820152601d60248201527f5461726765742064617465206d75737420626520696e206675747572650000006044820152606401610570565b600a829055600b81905560408051838152602081018390527f36cbb4d8bcb4cdd7abe6491bf62932ce6bf0715ddff61fa0f3b5f3ad2a55b765910160405180910390a15050565b3360009081526009602052604090205460ff166106b55760405162461bcd60e51b815260206004820152600c60248201526b2737ba10309036b2b6b132b960a11b6044820152606401610570565b6106bd61105e565b6106c5611082565b600081116107155760405162461bcd60e51b815260206004820152601760248201527f4d75737420776974686472617720736f6d657468696e670000000000000000006044820152606401610570565b3360009081526006602052604090205481111561076b5760405162461bcd60e51b8152602060048201526014602482015273496e73756666696369656e742062616c616e636560601b6044820152606401610570565b336000908152600660205260408120805483929061078a90849061161a565b9250508190555080600760008282546107a3919061161a565b90915550506005546107cb906001600160a01b03811690600160a01b900460ff1633846110ac565b60405181815233907f7084f5476618d8e60b11ef0d7d3f06914655adb8793e28ff7f018d4c76d505d59060200160405180910390a261080a6001600055565b50565b60015461010090046001600160a01b031633148061083557506002546001600160a01b031633145b6108815760405162461bcd60e51b815260206004820152601760248201527f4f6e6c792063726561746f72206f72206261636b656e640000000000000000006044820152606401610570565b61088961105e565b6001600160a01b03811660009081526009602052604090205460ff16156108e55760405162461bcd60e51b815260206004820152601060248201526f20b63932b0b23c90309036b2b6b132b960811b6044820152606401610570565b6001600160a01b03811661092d5760405162461bcd60e51b815260206004820152600f60248201526e496e76616c6964206164647265737360881b6044820152606401610570565b6008805460018082019092557ff3f7a9fe364faab93b216da50a3214154f22a0a2b415b23a84c8169e8b636ee30180546001600160a01b0319166001600160a01b038416908117909155600081815260096020526040808220805460ff1916909417909355915133927fb168e0b33ed126dec210fb14910d562a068905fb3431f3abe71b964e9e1b119a91a350565b60015461010090046001600160a01b031633146109eb5760405162461bcd60e51b8152600401610570906115cd565b6109f36111c8565b565b60088181548110610a0557600080fd5b6000918252602090912001546001600160a01b0316905081565b60015461010090046001600160a01b03163314610a4e5760405162461bcd60e51b8152600401610570906115cd565b610a5661105e565b600c805460ff191690556040514281527f925a19753e677c9dc36a80e0fc824ca0c5b1afde494872b43daccab9ffeaffd4906020015b60405180910390a1565b60015461010090046001600160a01b03163314610ac55760405162461bcd60e51b8152600401610570906115cd565b6109f3611215565b60606008805480602002602001604051908101604052809291908181526020018280548015610b2557602002820191906000526020600020905b81546001600160a01b03168152600190910190602001808311610b07575b5050505050905090565b3360009081526009602052604090205460ff16610b7d5760405162461bcd60e51b815260206004820152600c60248201526b2737ba10309036b2b6b132b960a11b6044820152606401610570565b600c5460ff16610bc15760405162461bcd60e51b815260206004820152600f60248201526e506f6f6c206e6f742061637469766560881b6044820152606401610570565b610bc961105e565b610bd1611082565b600554600160a01b900460ff1680610be95750600081115b610c2e5760405162461bcd60e51b81526020600482015260166024820152754d757374206465706f73697420736f6d657468696e6760501b6044820152606401610570565b600554600090610c53906001600160a01b03811690600160a01b900460ff1684611250565b33600090815260066020526040812080549293508392909190610c77908490611633565b925050819055508060076000828254610c909190611633565b909155505060405181815233907f2da466a7b24304f47e87fa2e1e5a81b9831ce54fec19055ce277ca2f39ba42c49060200160405180910390a25061080a6001600055565b60048054610ce290611646565b80601f0160208091040260200160405190810160405280929190818152602001828054610d0e90611646565b8015610d5b5780601f10610d3057610100808354040283529160200191610d5b565b820191906000526020600020905b815481529060010190602001808311610d3e57829003601f168201915b505050505081565b6000600a54600003610d755750600090565b50600a54600754101590565b600c54610100900460ff1615610dcf5760405162461bcd60e51b8152602060048201526013602482015272105b1c9958591e481a5b9a5d1a585b1a5e9959606a1b6044820152606401610570565b600c805461ff0019166101001790558015610e54576001600160a01b03821615610e4f5760405162461bcd60e51b815260206004820152602b60248201527f546f6b656e2061646472657373206d757374206265207a65726f20666f72206e60448201526a30ba34bb32903a37b5b2b760a91b6064820152608401610570565b610eaa565b6001600160a01b038216610eaa5760405162461bcd60e51b815260206004820152601f60248201527f496e76616c696420746f6b656e206164647265737320666f72204552433230006044820152606401610570565b6001600160a01b038316610f005760405162461bcd60e51b815260206004820152601760248201527f496e76616c6964206261636b656e64206d616e616765720000000000000000006044820152606401610570565b600180546001600160a01b0380891661010002610100600160a81b031990921691909117909155600280548583166001600160a01b03199182161790915560038054928816929091169190911790556004610f5b85826116cf565b50600580546001600160a01b038481166001600160a81b031990921691909117600160a01b8415150217909155600c805460ff199081166001908117909255600880548084019091557ff3f7a9fe364faab93b216da50a3214154f22a0a2b415b23a84c8169e8b636ee30180546001600160a01b0319168a85169081179091556000818152600960205260408082208054909416909417909255915191928816917f4f2ce4e40f623ca765fc0167a25cb7842ceaafb8d82d3dec26ca0d0e0d2d48969190a36040516001600160a01b0387169081907fb168e0b33ed126dec210fb14910d562a068905fb3431f3abe71b964e9e1b119a90600090a3505050505050565b60015460ff16156109f35760405163d93c066560e01b815260040160405180910390fd5b6002600054036110a557604051633ee5aeb560e01b815260040160405180910390fd5b6002600055565b821561114d576000826001600160a01b03168260405160006040518083038185875af1925050503d80600081146110ff576040519150601f19603f3d011682016040523d82523d6000602084013e611104565b606091505b50509050806111475760405162461bcd60e51b815260206004820152600f60248201526e151c985b9cd9995c8819985a5b1959608a1b6044820152606401610570565b506111c2565b60405163a9059cbb60e01b81526001600160a01b0383811660048301526024820183905285169063a9059cbb906044016020604051808303816000875af115801561119c573d6000803e3d6000fd5b505050506040513d601f19601f820116820180604052508101906111c0919061178f565b505b50505050565b6111d061136b565b6001805460ff191690557f5db9ee0a495bf2e6ff9c91a7834c1ba4fdd244a5e8aa4e537bd38aeae4b073aa335b6040516001600160a01b039091168152602001610a8c565b61121d61105e565b6001805460ff1916811790557f62e78cea01bee320cd4e420270b5ea74000d11b0c9f74754ebdbfc544b05a258336111fd565b600082156112a857600034116112a15760405162461bcd60e51b815260206004820152601660248201527526bab9ba1039b2b732103730ba34bb32903a37b5b2b760511b6044820152606401610570565b5034611364565b34156112e85760405162461bcd60e51b815260206004820152600f60248201526e2737903730ba34bb32903a37b5b2b760891b6044820152606401610570565b6040516323b872dd60e01b8152336004820152306024820152604481018390526001600160a01b038516906323b872dd906064016020604051808303816000875af115801561133b573d6000803e3d6000fd5b505050506040513d601f19601f8201168201806040525081019061135f919061178f565b508190505b9392505050565b60015460ff166109f357604051638dfc202b60e01b815260040160405180910390fd5b600080604083850312156113a157600080fd5b50508035926020909101359150565b80356001600160a01b03811681146113c757600080fd5b919050565b6000602082840312156113de57600080fd5b611364826113b0565b6000602082840312156113f957600080fd5b5035919050565b6020808252825182820181905260009190848201906040850190845b818110156114415783516001600160a01b03168352928401929184019160010161141c565b50909695505050505050565b600060208083528351808285015260005b8181101561147a5785810183015185820160400152820161145e565b506000604082860101526040601f19601f8301168501019250505092915050565b634e487b7160e01b600052604160045260246000fd5b801515811461080a57600080fd5b80356113c7816114b1565b60008060008060008060c087890312156114e357600080fd5b6114ec876113b0565b95506114fa602088016113b0565b9450604087013567ffffffffffffffff8082111561151757600080fd5b818901915089601f83011261152b57600080fd5b81358181111561153d5761153d61149b565b604051601f8201601f19908116603f011681019083821181831017156115655761156561149b565b816040528281528c602084870101111561157e57600080fd5b8260208601602083013760006020848301015280985050505050506115a5606088016113b0565b92506115b3608088016113b0565b91506115c160a088016114bf565b90509295509295509295565b6020808252601a908201527f4f6e6c792063726561746f722063616e2063616c6c2074686973000000000000604082015260600190565b634e487b7160e01b600052601160045260246000fd5b8181038181111561162d5761162d611604565b92915050565b8082018082111561162d5761162d611604565b600181811c9082168061165a57607f821691505b60208210810361167a57634e487b7160e01b600052602260045260246000fd5b50919050565b601f8211156116ca57600081815260208120601f850160051c810160208610156116a75750805b601f850160051c820191505b818110156116c6578281556001016116b3565b5050505b505050565b815167ffffffffffffffff8111156116e9576116e961149b565b6116fd816116f78454611646565b84611680565b602080601f831160018114611732576000841561171a5750858301515b600019600386901b1c1916600185901b1785556116c6565b600085815260208120601f198616915b8281101561176157888601518255948401946001909101908401611742565b508582101561177f5787850151600019600388901b60f8161c191681555b5050505050600190811b01905550565b6000602082840312156117a157600080fd5b8151611364816114b156fea2646970667358221220c355b7100c2109af6965c9520473fe2dbc95ec1047dbbaf84d2922b2f7547b2264736f6c63430008140033",
  "devdoc": {
    "details": "Members maintain individual balances and can set collective savings goals",
    "errors": {
      "EnforcedPause()": [
        {
          "details": "The operation failed because the contract is paused."
        }
      ],
      "ExpectedPause()": [
        {
          "details": "The operation failed because the contract is not paused."
        }
      ],
      "ReentrancyGuardReentrantCall()": [
        {
          "details": "Unauthorized reentrant call."
        }
      ]
    },
    "events": {
      "Paused(address)": {
        "details": "Emitted when the pause is triggered by `account`."
      },
      "Unpaused(address)": {
        "details": "Emitted when the pause is lifted by `account`."
      }
    },
    "kind": "dev",
    "methods": {
      "closePool()": {
        "details": "Only creator can close. Members can still withdraw their balances."
      },
      "constructor": {
        "details": "Prevents the implementation contract from being initialized"
      },
      "deposit(uint256)": {
        "details": "For ERC20: Member must have approved the contract to spend tokens before calling      For native token: amount parameter is ignored, msg.value is used",
        "params": {
          "amount": "Amount of ERC20 tokens to deposit (ignored for native token pools)"
        }
      },
      "getBalance(address)": {
        "params": {
          "member": "Address of the member"
        },
        "returns": {
          "_0": "Balance in wei"
        }
      },
      "getContractBalance()": {
        "returns": {
          "_0": "Balance in wei"
        }
      },
      "getMemberCount()": {
        "returns": {
          "_0": "Member count"
        }
      },
      "getMembers()": {
        "returns": {
          "_0": "Array of member addresses"
        }
      },
      "getProgress()": {
        "returns": {
          "current": "Current total savings",
          "target": "Target savings amount"
        }
      },
      "initialize(address,address,string,address,address,bool)": {
        "details": "This replaces the constructor for cloned instances",
        "params": {
          "_backendManager": "Address of the backend manager (can invite members)",
          "_circleId": "Address of the Lens.xyz circle contract",
          "_circleName": "Name of the circle",
          "_creator": "Address of the user creating the pool",
          "_isNativeToken": "Whether this pool uses native token (cBTC) or ERC20 token",
          "_tokenAddress": "Address of the ERC20 token to use for savings (zero address if native)"
        }
      },
      "inviteMember(address)": {
        "details": "Creator or backend manager can add members directly",
        "params": {
          "member": "Address of the member to add"
        }
      },
      "isGoalReached()": {
        "returns": {
          "_0": "True if target is set and reached, false otherwise"
        }
      },
      "pause()": {
        "details": "Only creator can pause"
      },
      "paused()": {
        "details": "Returns true if the contract is paused, and false otherwise."
      },
      "setTarget(uint256,uint256)": {
        "details": "Only creator can set goals",
        "params": {
          "_amount": "Target savings amount in wei",
          "_date": "Target date as Unix timestamp"
        }
      },
      "unpause()": {
        "details": "Only creator can unpause"
      },
      "withdraw(uint256)": {
        "params": {
          "amount": "Amount of tokens to withdraw"
        }
      }
    },
    "title": "SavingsPool",
    "version": 1
  },
  "userdoc": {
    "kind": "user",
    "methods": {
      "backendManager()": {
        "notice": "Address of the backend manager (can invite members)"
      },
      "balances(address)": {
        "notice": "Individual balances for each member"
      },
      "circleId()": {
        "notice": "Address of the Lens.xyz circle contract"
      },
      "circleName()": {
        "notice": "Human-readable name of the circle"
      },
      "closePool()": {
        "notice": "Closes the pool, preventing further deposits"
      },
      "constructor": {
        "notice": "Constructor for implementation contract"
      },
      "creator()": {
        "notice": "Address of the user who created this pool"
      },
      "deposit(uint256)": {
        "notice": "Allows a member to deposit funds into their savings"
      },
      "getBalance(address)": {
        "notice": "Gets a member's savings balance"
      },
      "getContractBalance()": {
        "notice": "Gets the contract's current balance"
      },
      "getMemberCount()": {
        "notice": "Gets the total number of members"
      },
      "getMembers()": {
        "notice": "Gets all members"
      },
      "getProgress()": {
        "notice": "Gets the current progress toward the savings goal"
      },
      "initialize(address,address,string,address,address,bool)": {
        "notice": "Initializes a new Savings pool clone"
      },
      "inviteMember(address)": {
        "notice": "Adds a new member to the pool"
      },
      "isActive()": {
        "notice": "Whether the pool is currently active"
      },
      "isGoalReached()": {
        "notice": "Checks if the savings goal has been reached"
      },
      "isMember(address)": {
        "notice": "Mapping to check if an address is a member"
      },
      "isNativeToken()": {
        "notice": "Whether this pool uses native token (cBTC) or ERC20 token"
      },
      "members(uint256)": {
        "notice": "Array of all members in the pool"
      },
      "pause()": {
        "notice": "Pauses the contract in case of emergency"
      },
      "setTarget(uint256,uint256)": {
        "notice": "Sets or updates the savings goal for the pool"
      },
      "targetAmount()": {
        "notice": "Optional target savings amount set by creator"
      },
      "targetDate()": {
        "notice": "Optional target date for reaching the goal"
      },
      "tokenAddress()": {
        "notice": "Address of the ERC20 token used for savings (zero address if native token)"
      },
      "totalSaved()": {
        "notice": "Total amount saved across all members"
      },
      "unpause()": {
        "notice": "Unpauses the contract"
      },
      "withdraw(uint256)": {
        "notice": "Allows a member to withdraw from their savings balance"
      }
    },
    "notice": "Collective savings pool where members can deposit and withdraw freely",
    "version": 1
  },
  "storageLayout": {
    "storage": [
      {
        "astId": 468,
        "contract": "contracts/pools/SavingsPool.sol:SavingsPool",
        "label": "_status",
        "offset": 0,
        "slot": "0",
        "type": "t_uint256"
      },
      {
        "astId": 349,
        "contract": "contracts/pools/SavingsPool.sol:SavingsPool",
        "label": "_paused",
        "offset": 0,
        "slot": "1",
        "type": "t_bool"
      },
      {
        "astId": 3172,
        "contract": "contracts/pools/SavingsPool.sol:SavingsPool",
        "label": "creator",
        "offset": 1,
        "slot": "1",
        "type": "t_address"
      },
      {
        "astId": 3175,
        "contract": "contracts/pools/SavingsPool.sol:SavingsPool",
        "label": "backendManager",
        "offset": 0,
        "slot": "2",
        "type": "t_address"
      },
      {
        "astId": 3178,
        "contract": "contracts/pools/SavingsPool.sol:SavingsPool",
        "label": "circleId",
        "offset": 0,
        "slot": "3",
        "type": "t_address"
      },
      {
        "astId": 3181,
        "contract": "contracts/pools/SavingsPool.sol:SavingsPool",
        "label": "circleName",
        "offset": 0,
        "slot": "4",
        "type": "t_string_storage"
      },
      {
        "astId": 3184,
        "contract": "contracts/pools/SavingsPool.sol:SavingsPool",
        "label": "tokenAddress",
        "offset": 0,
        "slot": "5",
        "type": "t_address"
      },
      {
        "astId": 3187,
        "contract": "contracts/pools/SavingsPool.sol:SavingsPool",
        "label": "isNativeToken",
        "offset": 20,
        "slot": "5",
        "type": "t_bool"
      },
      {
        "astId": 3192,
        "contract": "contracts/pools/SavingsPool.sol:SavingsPool",
        "label": "balances",
        "offset": 0,
        "slot": "6",
        "type": "t_mapping(t_address,t_uint256)"
      },
      {
        "astId": 3195,
        "contract": "contracts/pools/SavingsPool.sol:SavingsPool",
        "label": "totalSaved",
        "offset": 0,
        "slot": "7",
        "type": "t_uint256"
      },
      {
        "astId": 3199,
        "contract": "contracts/pools/SavingsPool.sol:SavingsPool",
        "label": "members",
        "offset": 0,
        "slot": "8",
        "type": "t_array(t_address)dyn_storage"
      },
      {
        "astId": 3204,
        "contract": "contracts/pools/SavingsPool.sol:SavingsPool",
        "label": "isMember",
        "offset": 0,
        "slot": "9",
        "type": "t_mapping(t_address,t_bool)"
      },
      {
        "astId": 3207,
        "contract": "contracts/pools/SavingsPool.sol:SavingsPool",
        "label": "targetAmount",
        "offset": 0,
        "slot": "10",
        "type": "t_uint256"
      },
      {
        "astId": 3210,
        "contract": "contracts/pools/SavingsPool.sol:SavingsPool",
        "label": "targetDate",
        "offset": 0,
        "slot": "11",
        "type": "t_uint256"
      },
      {
        "astId": 3213,
        "contract": "contracts/pools/SavingsPool.sol:SavingsPool",
        "label": "isActive",
        "offset": 0,
        "slot": "12",
        "type": "t_bool"
      },
      {
        "astId": 3216,
        "contract": "contracts/pools/SavingsPool.sol:SavingsPool",
        "label": "initialized",
        "offset": 1,
        "slot": "12",
        "type": "t_bool"
      }
    ],
    "types": {
      "t_address": {
        "encoding": "inplace",
        "label": "address",
        "numberOfBytes": "20"
      },
      "t_array(t_address)dyn_storage": {
        "base": "t_address",
        "encoding": "dynamic_array",
        "label": "address[]",
        "numberOfBytes": "32"
      },
      "t_bool": {
        "encoding": "inplace",
        "label": "bool",
        "numberOfBytes": "1"
      },
      "t_mapping(t_address,t_bool)": {
        "encoding": "mapping",
        "key": "t_address",
        "label": "mapping(address => bool)",
        "numberOfBytes": "32",
        "value": "t_bool"
      },
      "t_mapping(t_address,t_uint256)": {
        "encoding": "mapping",
        "key": "t_address",
        "label": "mapping(address => uint256)",
        "numberOfBytes": "32",
        "value": "t_uint256"
      },
      "t_string_storage": {
        "encoding": "bytes",
        "label": "string",
        "numberOfBytes": "32"
      },
      "t_uint256": {
        "encoding": "inplace",
        "label": "uint256",
        "numberOfBytes": "32"
      }
    }
  }
}