{
  "address": "0x2b3Bf926948E5ff1742239130028Bdb6FD2B4614",
  "abi": [
    {
      "inputs": [
        {
          "internalType": "address",
          "name": "initialOwner",
          "type": "address"
        },
        {
          "internalType": "address",
          "name": "_roscaImpl",
          "type": "address"
        },
        {
          "internalType": "address",
          "name": "_savingsImpl",
          "type": "address"
        },
        {
          "internalType": "address",
          "name": "_donationImpl",
          "type": "address"
        }
      ],
      "stateMutability": "nonpayable",
      "type": "constructor"
    },
    {
      "inputs": [],
      "name": "ERC1167FailedCreateClone",
      "type": "error"
    },
    {
      "inputs": [
        {
          "internalType": "address",
          "name": "owner",
          "type": "address"
        }
      ],
      "name": "OwnableInvalidOwner",
      "type": "error"
    },
    {
      "inputs": [
        {
          "internalType": "address",
          "name": "account",
          "type": "address"
        }
      ],
      "name": "OwnableUnauthorizedAccount",
      "type": "error"
    },
    {
      "anonymous": false,
      "inputs": [
        {
          "indexed": false,
          "internalType": "string",
          "name": "poolType",
          "type": "string"
        },
        {
          "indexed": true,
          "internalType": "address",
          "name": "newImplementation",
          "type": "address"
        }
      ],
      "name": "ImplementationUpdated",
      "type": "event"
    },
    {
      "anonymous": false,
      "inputs": [
        {
          "indexed": true,
          "internalType": "address",
          "name": "previousOwner",
          "type": "address"
        },
        {
          "indexed": true,
          "internalType": "address",
          "name": "newOwner",
          "type": "address"
        }
      ],
      "name": "OwnershipTransferred",
      "type": "event"
    },
    {
      "anonymous": false,
      "inputs": [
        {
          "indexed": true,
          "internalType": "address",
          "name": "circleId",
          "type": "address"
        },
        {
          "indexed": true,
          "internalType": "address",
          "name": "poolAddress",
          "type": "address"
        },
        {
          "indexed": true,
          "internalType": "address",
          "name": "creator",
          "type": "address"
        },
        {
          "indexed": false,
          "internalType": "enum XershaFactory.PoolType",
          "name": "poolType",
          "type": "uint8"
        }
      ],
      "name": "PoolCreated",
      "type": "event"
    },
    {
      "inputs": [
        {
          "internalType": "uint256",
          "name": "",
          "type": "uint256"
        }
      ],
      "name": "allPools",
      "outputs": [
        {
          "internalType": "address",
          "name": "",
          "type": "address"
        }
      ],
      "stateMutability": "view",
      "type": "function"
    },
    {
      "inputs": [
        {
          "internalType": "address",
          "name": "",
          "type": "address"
        }
      ],
      "name": "circleToPool",
      "outputs": [
        {
          "internalType": "address",
          "name": "",
          "type": "address"
        }
      ],
      "stateMutability": "view",
      "type": "function"
    },
    {
      "inputs": [
        {
          "internalType": "address",
          "name": "circleId",
          "type": "address"
        },
        {
          "internalType": "string",
          "name": "circleName",
          "type": "string"
        },
        {
          "internalType": "address",
          "name": "beneficiary",
          "type": "address"
        },
        {
          "internalType": "uint256",
          "name": "goalAmount",
          "type": "uint256"
        },
        {
          "internalType": "uint256",
          "name": "deadline",
          "type": "uint256"
        },
        {
          "internalType": "address",
          "name": "tokenAddress",
          "type": "address"
        },
        {
          "internalType": "bool",
          "name": "isNativeToken",
          "type": "bool"
        }
      ],
      "name": "createDonationPool",
      "outputs": [
        {
          "internalType": "address",
          "name": "",
          "type": "address"
        }
      ],
      "stateMutability": "nonpayable",
      "type": "function"
    },
    {
      "inputs": [
        {
          "internalType": "address",
          "name": "circleId",
          "type": "address"
        },
        {
          "internalType": "string",
          "name": "circleName",
          "type": "string"
        },
        {
          "internalType": "uint256",
          "name": "contributionAmount",
          "type": "uint256"
        },
        {
          "internalType": "address",
          "name": "tokenAddress",
          "type": "address"
        },
        {
          "internalType": "bool",
          "name": "isNativeToken",
          "type": "bool"
        }
      ],
      "name": "createROSCA",
      "outputs": [
        {
          "internalType": "address",
          "name": "",
          "type": "address"
        }
      ],
      "stateMutability": "nonpayable",
      "type": "function"
    },
    {
      "inputs": [
        {
          "internalType": "address",
          "name": "circleId",
          "type": "address"
        },
        {
          "internalType": "string",
          "name": "circleName",
          "type": "string"
        },
        {
          "internalType": "address",
          "name": "tokenAddress",
          "type": "address"
        },
        {
          "internalType": "bool",
          "name": "isNativeToken",
          "type": "bool"
        }
      ],
      "name": "createSavingsPool",
      "outputs": [
        {
          "internalType": "address",
          "name": "",
          "type": "address"
        }
      ],
      "stateMutability": "nonpayable",
      "type": "function"
    },
    {
      "inputs": [],
      "name": "donationImplementation",
      "outputs": [
        {
          "internalType": "address",
          "name": "",
          "type": "address"
        }
      ],
      "stateMutability": "view",
      "type": "function"
    },
    {
      "inputs": [],
      "name": "getAllPools",
      "outputs": [
        {
          "internalType": "address[]",
          "name": "",
          "type": "address[]"
        }
      ],
      "stateMutability": "view",
      "type": "function"
    },
    {
      "inputs": [
        {
          "internalType": "address",
          "name": "circleId",
          "type": "address"
        }
      ],
      "name": "getCirclePool",
      "outputs": [
        {
          "internalType": "address",
          "name": "",
          "type": "address"
        }
      ],
      "stateMutability": "view",
      "type": "function"
    },
    {
      "inputs": [
        {
          "internalType": "address",
          "name": "poolAddress",
          "type": "address"
        }
      ],
      "name": "getPoolType",
      "outputs": [
        {
          "internalType": "enum XershaFactory.PoolType",
          "name": "",
          "type": "uint8"
        }
      ],
      "stateMutability": "view",
      "type": "function"
    },
    {
      "inputs": [],
      "name": "getTotalPools",
      "outputs": [
        {
          "internalType": "uint256",
          "name": "",
          "type": "uint256"
        }
      ],
      "stateMutability": "view",
      "type": "function"
    },
    {
      "inputs": [
        {
          "internalType": "address",
          "name": "",
          "type": "address"
        }
      ],
      "name": "isValidPool",
      "outputs": [
        {
          "internalType": "bool",
          "name": "",
          "type": "bool"
        }
      ],
      "stateMutability": "view",
      "type": "function"
    },
    {
      "inputs": [],
      "name": "owner",
      "outputs": [
        {
          "internalType": "address",
          "name": "",
          "type": "address"
        }
      ],
      "stateMutability": "view",
      "type": "function"
    },
    {
      "inputs": [
        {
          "internalType": "address",
          "name": "",
          "type": "address"
        }
      ],
      "name": "poolTypes",
      "outputs": [
        {
          "internalType": "enum XershaFactory.PoolType",
          "name": "",
          "type": "uint8"
        }
      ],
      "stateMutability": "view",
      "type": "function"
    },
    {
      "inputs": [],
      "name": "renounceOwnership",
      "outputs": [],
      "stateMutability": "nonpayable",
      "type": "function"
    },
    {
      "inputs": [],
      "name": "roscaImplementation",
      "outputs": [
        {
          "internalType": "address",
          "name": "",
          "type": "address"
        }
      ],
      "stateMutability": "view",
      "type": "function"
    },
    {
      "inputs": [],
      "name": "savingsImplementation",
      "outputs": [
        {
          "internalType": "address",
          "name": "",
          "type": "address"
        }
      ],
      "stateMutability": "view",
      "type": "function"
    },
    {
      "inputs": [
        {
          "internalType": "address",
          "name": "newImplementation",
          "type": "address"
        }
      ],
      "name": "setDonationImplementation",
      "outputs": [],
      "stateMutability": "nonpayable",
      "type": "function"
    },
    {
      "inputs": [
        {
          "internalType": "address",
          "name": "_roscaImpl",
          "type": "address"
        },
        {
          "internalType": "address",
          "name": "_savingsImpl",
          "type": "address"
        },
        {
          "internalType": "address",
          "name": "_donationImpl",
          "type": "address"
        }
      ],
      "name": "setImplementations",
      "outputs": [],
      "stateMutability": "nonpayable",
      "type": "function"
    },
    {
      "inputs": [
        {
          "internalType": "address",
          "name": "newImplementation",
          "type": "address"
        }
      ],
      "name": "setROSCAImplementation",
      "outputs": [],
      "stateMutability": "nonpayable",
      "type": "function"
    },
    {
      "inputs": [
        {
          "internalType": "address",
          "name": "newImplementation",
          "type": "address"
        }
      ],
      "name": "setSavingsImplementation",
      "outputs": [],
      "stateMutability": "nonpayable",
      "type": "function"
    },
    {
      "inputs": [
        {
          "internalType": "address",
          "name": "newOwner",
          "type": "address"
        }
      ],
      "name": "transferOwnership",
      "outputs": [],
      "stateMutability": "nonpayable",
      "type": "function"
    }
  ],
  "transactionHash": "0xf40e2622fe7e13b824a2f13932f850a21b03ef55520796eb5d69af4b2e73b455",
  "args": [
    "0x8244c1645C1a7890Ef1F0E79AcCf817905Dbcba2",
    "0xB86F87384442d9fAE87769c46126fAe912dB5632",
    "0x05E6C6eb7A257A15b37b6cC3787121014B71E299",
    "0x4E0469c34ba2EC35fAD096e730efCB6293c96608"
  ],
  "numDeployments": 2,
  "solcInputHash": "5826f86a7677600ec4f6d996ce30862e",
  "bytecode": "0x60806040523480156200001157600080fd5b50604051620016363803806200163683398101604081905262000034916200022a565b836001600160a01b0381166200006557604051631e4fbdf760e01b8152600060048201526024015b60405180910390fd5b6200007081620001bd565b506001600160a01b038316620000c95760405162461bcd60e51b815260206004820152601c60248201527f496e76616c696420524f53434120696d706c656d656e746174696f6e0000000060448201526064016200005c565b6001600160a01b038216620001215760405162461bcd60e51b815260206004820152601e60248201527f496e76616c696420536176696e677320696d706c656d656e746174696f6e000060448201526064016200005c565b6001600160a01b038116620001795760405162461bcd60e51b815260206004820152601f60248201527f496e76616c696420446f6e6174696f6e20696d706c656d656e746174696f6e0060448201526064016200005c565b600180546001600160a01b039485166001600160a01b0319918216179091556002805493851693821693909317909255600380549190931691161790555062000287565b600080546001600160a01b038381166001600160a01b0319831681178455604051919092169283917f8be0079c531659141344cd1fd0a4f28419497f9722a3daafe3b4186f6b6457e09190a35050565b80516001600160a01b03811681146200022557600080fd5b919050565b600080600080608085870312156200024157600080fd5b6200024c856200020d565b93506200025c602086016200020d565b92506200026c604086016200020d565b91506200027c606086016200020d565b905092959194509250565b61139f80620002976000396000f3fe608060405234801561001057600080fd5b50600436106101375760003560e01c80638da5cb5b116100b8578063ca84b47f1161007c578063ca84b47f146102a8578063ce7ae1f9146102bb578063d3ffe67a146102e4578063d88ff1f4146102f5578063eb0227be1461030a578063f2fde38b1461033657600080fd5b80638da5cb5b1461024b5780639300d2381461025c578063a71b32421461026f578063aab050d814610282578063ba6c5e711461029557600080fd5b80635490ad99116100ff5780635490ad99146101d75780635ab78ee1146101ea578063715018a61461021d57806387f26142146102255780638b2d16eb1461023857600080fd5b806329c154451461013c5780632aca2b331461015157806341d1de971461018157806344b403ea146101945780635328d28c146101c4575b600080fd5b61014f61014a366004610e78565b610349565b005b61016461015f366004610f4d565b6103e3565b6040516001600160a01b0390911681526020015b60405180910390f35b61016461018f366004610fe0565b6105e8565b6101b76101a2366004610e78565b60066020526000908152604090205460ff1681565b604051610178919061100f565b600354610164906001600160a01b031681565b6101646101e5366004611037565b610612565b61020d6101f8366004610e78565b60056020526000908152604090205460ff1681565b6040519015158152602001610178565b61014f610794565b6101646102333660046110b0565b6107a8565b61014f610246366004610e78565b6108d7565b6000546001600160a01b0316610164565b61014f61026a36600461111f565b61095c565b6101b761027d366004610e78565b610ab5565b600154610164906001600160a01b031681565b600254610164906001600160a01b031681565b61014f6102b6366004610e78565b610b33565b6101646102c9366004610e78565b6004602052600090815260409020546001600160a01b031681565b600754604051908152602001610178565b6102fd610bb6565b6040516101789190611162565b610164610318366004610e78565b6001600160a01b039081166000908152600460205260409020541690565b61014f610344366004610e78565b610c18565b610351610c56565b6001600160a01b0381166103805760405162461bcd60e51b8152600401610377906111af565b60405180910390fd5b600380546001600160a01b0383166001600160a01b0319909116811790915560405160008051602061134a833981519152906103d8906020808252600890820152672227a720aa24a7a760c11b604082015260600190565b60405180910390a250565b60006103ee88610c83565b6001600160a01b0388811660009081526004602052604090205416156104265760405162461bcd60e51b8152600401610377906111df565b6001600160a01b0386166104725760405162461bcd60e51b8152602060048201526013602482015272496e76616c69642062656e656669636961727960681b6044820152606401610377565b600085116104b15760405162461bcd60e51b815260206004820152600c60248201526b125b9d985b1a590819dbd85b60a21b6044820152606401610377565b4284116104f35760405162461bcd60e51b815260206004820152601060248201526f496e76616c696420646561646c696e6560801b6044820152606401610377565b60035460009061050b906001600160a01b0316610cd9565b604051630df8719f60e01b81529091506001600160a01b03821690630df8719f906105489033908d908d908d908d908d908d908d9060040161125c565b600060405180830381600087803b15801561056257600080fd5b505af1158015610576573d6000803e3d6000fd5b5050505061058689826002610d4b565b336001600160a01b0316816001600160a01b03168a6001600160a01b03167f645ee41665486bc487a04a91a2bd296d2d2395cabf7747b152436dd15f9d4f8f60026040516105d4919061100f565b60405180910390a498975050505050505050565b600781815481106105f857600080fd5b6000918252602090912001546001600160a01b0316905081565b600061061d86610c83565b6001600160a01b0386811660009081526004602052604090205416156106555760405162461bcd60e51b8152600401610377906111df565b600084116106a55760405162461bcd60e51b815260206004820152601b60248201527f496e76616c696420636f6e747269627574696f6e20616d6f756e7400000000006044820152606401610377565b6001546000906106bd906001600160a01b0316610cd9565b60405163016d3a9960e41b81529091506001600160a01b038216906316d3a990906106f69033908b908b908b908b908b906004016112bb565b600060405180830381600087803b15801561071057600080fd5b505af1158015610724573d6000803e3d6000fd5b5050505061073487826000610d4b565b336001600160a01b0316816001600160a01b0316886001600160a01b03167f645ee41665486bc487a04a91a2bd296d2d2395cabf7747b152436dd15f9d4f8f6000604051610782919061100f565b60405180910390a49695505050505050565b61079c610c56565b6107a66000610e11565b565b60006107b385610c83565b6001600160a01b0385811660009081526004602052604090205416156107eb5760405162461bcd60e51b8152600401610377906111df565b600254600090610803906001600160a01b0316610cd9565b6040516304c2956b60e41b81529091506001600160a01b03821690634c2956b09061083a9033908a908a908a908a90600401611307565b600060405180830381600087803b15801561085457600080fd5b505af1158015610868573d6000803e3d6000fd5b5050505061087886826001610d4b565b336001600160a01b0316816001600160a01b0316876001600160a01b03167f645ee41665486bc487a04a91a2bd296d2d2395cabf7747b152436dd15f9d4f8f60016040516108c6919061100f565b60405180910390a495945050505050565b6108df610c56565b6001600160a01b0381166109055760405162461bcd60e51b8152600401610377906111af565b600280546001600160a01b0383166001600160a01b0319909116811790915560405160008051602061134a833981519152906103d890602080825260079082015266534156494e475360c81b604082015260600190565b610964610c56565b6001600160a01b038316156109d157600180546001600160a01b0385166001600160a01b0319909116811790915560405160008051602061134a833981519152906109c890602080825260059082015264524f53434160d81b604082015260600190565b60405180910390a25b6001600160a01b03821615610a4057600280546001600160a01b0384166001600160a01b0319909116811790915560405160008051602061134a83398151915290610a3790602080825260079082015266534156494e475360c81b604082015260600190565b60405180910390a25b6001600160a01b03811615610ab057600380546001600160a01b0383166001600160a01b0319909116811790915560405160008051602061134a83398151915290610aa7906020808252600890820152672227a720aa24a7a760c11b604082015260600190565b60405180910390a25b505050565b6001600160a01b03811660009081526005602052604081205460ff16610b145760405162461bcd60e51b8152602060048201526014602482015273496e76616c696420706f6f6c206164647265737360601b6044820152606401610377565b506001600160a01b031660009081526006602052604090205460ff1690565b610b3b610c56565b6001600160a01b038116610b615760405162461bcd60e51b8152600401610377906111af565b600180546001600160a01b0383166001600160a01b0319909116811790915560405160008051602061134a833981519152906103d890602080825260059082015264524f53434160d81b604082015260600190565b60606007805480602002602001604051908101604052809291908181526020018280548015610c0e57602002820191906000526020600020905b81546001600160a01b03168152600190910190602001808311610bf0575b5050505050905090565b610c20610c56565b6001600160a01b038116610c4a57604051631e4fbdf760e01b815260006004820152602401610377565b610c5381610e11565b50565b6000546001600160a01b031633146107a65760405163118cdaa760e01b8152336004820152602401610377565b6001600160a01b038116610c535760405162461bcd60e51b815260206004820152601860248201527f5a65726f2061646472657373206e6f7420616c6c6f77656400000000000000006044820152606401610377565b6000763d602d80600a3d3981f3363d3d373d3d3d363d730000008260601b60e81c176000526e5af43d82803e903d91602b57fd5bf38260781b17602052603760096000f090506001600160a01b038116610d46576040516330be1a3d60e21b815260040160405180910390fd5b919050565b6001600160a01b03838116600090815260046020908152604080832080546001600160a01b031916948716948517905592825260058152828220805460ff1990811660019081179092556006909252929091208054849391921690836002811115610db857610db8610ff9565b021790555050600780546001810182556000919091527fa66cc928b5edb82af9bd49922954155ab7b0942694bea4ce44661d9a8736c6880180546001600160a01b0319166001600160a01b039290921691909117905550565b600080546001600160a01b038381166001600160a01b0319831681178455604051919092169283917f8be0079c531659141344cd1fd0a4f28419497f9722a3daafe3b4186f6b6457e09190a35050565b80356001600160a01b0381168114610d4657600080fd5b600060208284031215610e8a57600080fd5b610e9382610e61565b9392505050565b634e487b7160e01b600052604160045260246000fd5b600082601f830112610ec157600080fd5b813567ffffffffffffffff80821115610edc57610edc610e9a565b604051601f8301601f19908116603f01168101908282118183101715610f0457610f04610e9a565b81604052838152866020858801011115610f1d57600080fd5b836020870160208301376000602085830101528094505050505092915050565b80358015158114610d4657600080fd5b600080600080600080600060e0888a031215610f6857600080fd5b610f7188610e61565b9650602088013567ffffffffffffffff811115610f8d57600080fd5b610f998a828b01610eb0565b965050610fa860408901610e61565b94506060880135935060808801359250610fc460a08901610e61565b9150610fd260c08901610f3d565b905092959891949750929550565b600060208284031215610ff257600080fd5b5035919050565b634e487b7160e01b600052602160045260246000fd5b602081016003831061103157634e487b7160e01b600052602160045260246000fd5b91905290565b600080600080600060a0868803121561104f57600080fd5b61105886610e61565b9450602086013567ffffffffffffffff81111561107457600080fd5b61108088828901610eb0565b9450506040860135925061109660608701610e61565b91506110a460808701610f3d565b90509295509295909350565b600080600080608085870312156110c657600080fd5b6110cf85610e61565b9350602085013567ffffffffffffffff8111156110eb57600080fd5b6110f787828801610eb0565b93505061110660408601610e61565b915061111460608601610f3d565b905092959194509250565b60008060006060848603121561113457600080fd5b61113d84610e61565b925061114b60208501610e61565b915061115960408501610e61565b90509250925092565b6020808252825182820181905260009190848201906040850190845b818110156111a35783516001600160a01b03168352928401929184019160010161117e565b50909695505050505050565b60208082526016908201527524b73b30b634b21034b6b83632b6b2b73a30ba34b7b760511b604082015260600190565b60208082526017908201527f436972636c6520616c72656164792068617320706f6f6c000000000000000000604082015260600190565b6000815180845260005b8181101561123c57602081850181015186830182015201611220565b506000602082860101526020601f19601f83011685010191505092915050565b6001600160a01b03898116825288811660208301526101006040830181905260009161128a8483018b611216565b98811660608501526080840197909752505060a0810193909352921660c082015290151560e0909101529392505050565b600060018060a01b038089168352808816602084015260c060408401526112e560c0840188611216565b606084019690965293909316608082015290151560a090910152509392505050565b600060018060a01b038088168352808716602084015260a0604084015261133160a0840187611216565b9416606083015250901515608090910152939250505056fea1e41aa2c2f3f20d9b63ac06b634d2788768d6034f3d9192cdf7d07374bb16f4a264697066735822122054e92040ccf7bab0939ceb9691802c2e8a90c10e1b63fc4ccbeeac1420a1489d64736f6c63430008140033",
  "devdoc": {
    "details": "Enforces one pool per circle and tracks all deployed pools      Uses EIP-1167 minimal proxies (clones) for gas-efficient pool deployment",
    "errors": {
      "ERC1167FailedCreateClone()": [
        {
          "details": "A clone instance deployment failed."
        }
      ],
      "OwnableInvalidOwner(address)": [
        {
          "details": "The owner is not a valid owner account. (eg. `address(0)`)"
        }
      ],
      "OwnableUnauthorizedAccount(address)": [
        {
          "details": "The caller account is not authorized to perform an operation."
        }
      ]
    },
    "events": {
      "ImplementationUpdated(string,address)": {
        "params": {
          "newImplementation": "The new implementation address",
          "poolType": "The type of pool implementation that was updated"
        }
      },
      "PoolCreated(address,address,address,uint8)": {
        "params": {
          "circleId": "The Lens.xyz circle contract address",
          "creator": "The address that created the pool",
          "poolAddress": "The address of the newly created pool",
          "poolType": "The type of pool created (ROSCA, SAVINGS, or DONATION)"
        }
      }
    },
    "kind": "dev",
    "methods": {
      "constructor": {
        "params": {
          "_donationImpl": "Address of the Donation pool implementation",
          "_roscaImpl": "Address of the ROSCA pool implementation",
          "_savingsImpl": "Address of the Savings pool implementation",
          "initialOwner": "Address that will own the factory"
        }
      },
      "createDonationPool(address,string,address,uint256,uint256,address,bool)": {
        "details": "Validates circle ID and ensures no duplicate pools for the same circle      Uses EIP-1167 minimal proxy pattern for gas-efficient deployment",
        "params": {
          "beneficiary": "The address that will receive the donated funds",
          "circleId": "The Lens.xyz circle contract address",
          "circleName": "The name of the circle",
          "deadline": "Unix timestamp when fundraising ends",
          "goalAmount": "The fundraising goal amount in wei",
          "isNativeToken": "Whether to use native token or ERC20",
          "tokenAddress": "Address of the ERC20 token (zero address if native)"
        },
        "returns": {
          "_0": "The address of the newly created Donation pool clone"
        }
      },
      "createROSCA(address,string,uint256,address,bool)": {
        "details": "Validates circle ID and ensures no duplicate pools for the same circle      Uses EIP-1167 minimal proxy pattern for gas-efficient deployment",
        "params": {
          "circleId": "The Lens.xyz circle contract address",
          "circleName": "The name of the circle",
          "contributionAmount": "Fixed amount each member must contribute per round",
          "isNativeToken": "Whether to use native token or ERC20",
          "tokenAddress": "Address of the ERC20 token (zero address if native)"
        },
        "returns": {
          "_0": "The address of the newly created ROSCA pool clone"
        }
      },
      "createSavingsPool(address,string,address,bool)": {
        "details": "Validates circle ID and ensures no duplicate pools for the same circle      Uses EIP-1167 minimal proxy pattern for gas-efficient deployment",
        "params": {
          "circleId": "The Lens.xyz circle contract address",
          "circleName": "The name of the circle",
          "isNativeToken": "Whether to use native token or ERC20",
          "tokenAddress": "Address of the ERC20 token (zero address if native)"
        },
        "returns": {
          "_0": "The address of the newly created Savings pool clone"
        }
      },
      "getAllPools()": {
        "details": "Warning: This can be gas-intensive for large numbers of pools",
        "returns": {
          "_0": "Array of all pool addresses"
        }
      },
      "getCirclePool(address)": {
        "params": {
          "circleId": "The circle contract address"
        },
        "returns": {
          "_0": "The pool address, or zero address if no pool exists"
        }
      },
      "getPoolType(address)": {
        "params": {
          "poolAddress": "The pool address to query"
        },
        "returns": {
          "_0": "The PoolType enum value"
        }
      },
      "getTotalPools()": {
        "returns": {
          "_0": "The total pool count"
        }
      },
      "owner()": {
        "details": "Returns the address of the current owner."
      },
      "renounceOwnership()": {
        "details": "Leaves the contract without owner. It will not be possible to call `onlyOwner` functions. Can only be called by the current owner. NOTE: Renouncing ownership will leave the contract without an owner, thereby disabling any functionality that is only available to the owner."
      },
      "setDonationImplementation(address)": {
        "details": "Only owner can update. New pools will use the new implementation",
        "params": {
          "newImplementation": "Address of the new Donation implementation"
        }
      },
      "setImplementations(address,address,address)": {
        "details": "Only owner can update. Pass address(0) to skip updating a specific implementation",
        "params": {
          "_donationImpl": "New Donation implementation (or address(0) to skip)",
          "_roscaImpl": "New ROSCA implementation (or address(0) to skip)",
          "_savingsImpl": "New Savings implementation (or address(0) to skip)"
        }
      },
      "setROSCAImplementation(address)": {
        "details": "Only owner can update. New pools will use the new implementation",
        "params": {
          "newImplementation": "Address of the new ROSCA implementation"
        }
      },
      "setSavingsImplementation(address)": {
        "details": "Only owner can update. New pools will use the new implementation",
        "params": {
          "newImplementation": "Address of the new Savings implementation"
        }
      },
      "transferOwnership(address)": {
        "details": "Transfers ownership of the contract to a new account (`newOwner`). Can only be called by the current owner."
      }
    },
    "title": "XershaFactory",
    "version": 1
  },
  "userdoc": {
    "events": {
      "ImplementationUpdated(string,address)": {
        "notice": "Emitted when an implementation address is updated"
      },
      "PoolCreated(address,address,address,uint8)": {
        "notice": "Emitted when a new pool is created"
      }
    },
    "kind": "user",
    "methods": {
      "allPools(uint256)": {
        "notice": "Array of all pools created by this factory"
      },
      "circleToPool(address)": {
        "notice": "Mapping from circle contract address to pool address"
      },
      "constructor": {
        "notice": "Initializes the factory with implementation addresses"
      },
      "createDonationPool(address,string,address,uint256,uint256,address,bool)": {
        "notice": "Creates a new Donation pool for group fundraising"
      },
      "createROSCA(address,string,uint256,address,bool)": {
        "notice": "Creates a new ROSCA (Rotating Savings and Credit Association) pool"
      },
      "createSavingsPool(address,string,address,bool)": {
        "notice": "Creates a new Savings pool for collective savings"
      },
      "donationImplementation()": {
        "notice": "Implementation contract for Donation pools"
      },
      "getAllPools()": {
        "notice": "Gets all pool addresses created by this factory"
      },
      "getCirclePool(address)": {
        "notice": "Gets the pool address for a given circle"
      },
      "getPoolType(address)": {
        "notice": "Gets the pool type for a given pool address"
      },
      "getTotalPools()": {
        "notice": "Gets the total number of pools created by this factory"
      },
      "isValidPool(address)": {
        "notice": "Mapping to validate if an address is a legitimate pool created by this factory"
      },
      "poolTypes(address)": {
        "notice": "Mapping from pool address to pool type"
      },
      "roscaImplementation()": {
        "notice": "Implementation contract for ROSCA pools"
      },
      "savingsImplementation()": {
        "notice": "Implementation contract for Savings pools"
      },
      "setDonationImplementation(address)": {
        "notice": "Updates the Donation pool implementation address"
      },
      "setImplementations(address,address,address)": {
        "notice": "Updates all implementation addresses at once"
      },
      "setROSCAImplementation(address)": {
        "notice": "Updates the ROSCA pool implementation address"
      },
      "setSavingsImplementation(address)": {
        "notice": "Updates the Savings pool implementation address"
      }
    },
    "notice": "Factory contract for creating and managing Xersha pools using minimal proxy pattern",
    "version": 1
  },
  "storageLayout": {
    "storage": [
      {
        "astId": 8,
        "contract": "contracts/XershaFactory.sol:XershaFactory",
        "label": "_owner",
        "offset": 0,
        "slot": "0",
        "type": "t_address"
      },
      {
        "astId": 1913,
        "contract": "contracts/XershaFactory.sol:XershaFactory",
        "label": "roscaImplementation",
        "offset": 0,
        "slot": "1",
        "type": "t_address"
      },
      {
        "astId": 1916,
        "contract": "contracts/XershaFactory.sol:XershaFactory",
        "label": "savingsImplementation",
        "offset": 0,
        "slot": "2",
        "type": "t_address"
      },
      {
        "astId": 1919,
        "contract": "contracts/XershaFactory.sol:XershaFactory",
        "label": "donationImplementation",
        "offset": 0,
        "slot": "3",
        "type": "t_address"
      },
      {
        "astId": 1924,
        "contract": "contracts/XershaFactory.sol:XershaFactory",
        "label": "circleToPool",
        "offset": 0,
        "slot": "4",
        "type": "t_mapping(t_address,t_address)"
      },
      {
        "astId": 1929,
        "contract": "contracts/XershaFactory.sol:XershaFactory",
        "label": "isValidPool",
        "offset": 0,
        "slot": "5",
        "type": "t_mapping(t_address,t_bool)"
      },
      {
        "astId": 1935,
        "contract": "contracts/XershaFactory.sol:XershaFactory",
        "label": "poolTypes",
        "offset": 0,
        "slot": "6",
        "type": "t_mapping(t_address,t_enum(PoolType)1910)"
      },
      {
        "astId": 1939,
        "contract": "contracts/XershaFactory.sol:XershaFactory",
        "label": "allPools",
        "offset": 0,
        "slot": "7",
        "type": "t_array(t_address)dyn_storage"
      }
    ],
    "types": {
      "t_address": {
        "encoding": "inplace",
        "label": "address",
        "numberOfBytes": "20"
      },
      "t_array(t_address)dyn_storage": {
        "base": "t_address",
        "encoding": "dynamic_array",
        "label": "address[]",
        "numberOfBytes": "32"
      },
      "t_bool": {
        "encoding": "inplace",
        "label": "bool",
        "numberOfBytes": "1"
      },
      "t_enum(PoolType)1910": {
        "encoding": "inplace",
        "label": "enum XershaFactory.PoolType",
        "numberOfBytes": "1"
      },
      "t_mapping(t_address,t_address)": {
        "encoding": "mapping",
        "key": "t_address",
        "label": "mapping(address => address)",
        "numberOfBytes": "32",
        "value": "t_address"
      },
      "t_mapping(t_address,t_bool)": {
        "encoding": "mapping",
        "key": "t_address",
        "label": "mapping(address => bool)",
        "numberOfBytes": "32",
        "value": "t_bool"
      },
      "t_mapping(t_address,t_enum(PoolType)1910)": {
        "encoding": "mapping",
        "key": "t_address",
        "label": "mapping(address => enum XershaFactory.PoolType)",
        "numberOfBytes": "32",
        "value": "t_enum(PoolType)1910"
      }
    }
  }
}