{
  "address": "0x7A0569450726CDdfEab5691d6b89B88836B06F23",
  "abi": [
    {
      "inputs": [
        {
          "internalType": "address",
          "name": "initialOwner",
          "type": "address"
        },
        {
          "internalType": "address",
          "name": "_backendManager",
          "type": "address"
        },
        {
          "internalType": "address",
          "name": "_roscaImpl",
          "type": "address"
        },
        {
          "internalType": "address",
          "name": "_savingsImpl",
          "type": "address"
        },
        {
          "internalType": "address",
          "name": "_donationImpl",
          "type": "address"
        },
        {
          "internalType": "address",
          "name": "_cBTCYieldVault",
          "type": "address"
        },
        {
          "internalType": "address",
          "name": "_cusdYieldVault",
          "type": "address"
        }
      ],
      "stateMutability": "nonpayable",
      "type": "constructor"
    },
    {
      "inputs": [],
      "name": "ERC1167FailedCreateClone",
      "type": "error"
    },
    {
      "inputs": [
        {
          "internalType": "address",
          "name": "owner",
          "type": "address"
        }
      ],
      "name": "OwnableInvalidOwner",
      "type": "error"
    },
    {
      "inputs": [
        {
          "internalType": "address",
          "name": "account",
          "type": "address"
        }
      ],
      "name": "OwnableUnauthorizedAccount",
      "type": "error"
    },
    {
      "anonymous": false,
      "inputs": [
        {
          "indexed": true,
          "internalType": "address",
          "name": "oldManager",
          "type": "address"
        },
        {
          "indexed": true,
          "internalType": "address",
          "name": "newManager",
          "type": "address"
        }
      ],
      "name": "BackendManagerUpdated",
      "type": "event"
    },
    {
      "anonymous": false,
      "inputs": [
        {
          "indexed": false,
          "internalType": "string",
          "name": "poolType",
          "type": "string"
        },
        {
          "indexed": true,
          "internalType": "address",
          "name": "newImplementation",
          "type": "address"
        }
      ],
      "name": "ImplementationUpdated",
      "type": "event"
    },
    {
      "anonymous": false,
      "inputs": [
        {
          "indexed": true,
          "internalType": "address",
          "name": "previousOwner",
          "type": "address"
        },
        {
          "indexed": true,
          "internalType": "address",
          "name": "newOwner",
          "type": "address"
        }
      ],
      "name": "OwnershipTransferred",
      "type": "event"
    },
    {
      "anonymous": false,
      "inputs": [
        {
          "indexed": true,
          "internalType": "address",
          "name": "circleId",
          "type": "address"
        },
        {
          "indexed": true,
          "internalType": "address",
          "name": "poolAddress",
          "type": "address"
        },
        {
          "indexed": true,
          "internalType": "address",
          "name": "creator",
          "type": "address"
        },
        {
          "indexed": false,
          "internalType": "enum XershaFactory.PoolType",
          "name": "poolType",
          "type": "uint8"
        }
      ],
      "name": "PoolCreated",
      "type": "event"
    },
    {
      "inputs": [
        {
          "internalType": "uint256",
          "name": "",
          "type": "uint256"
        }
      ],
      "name": "allPools",
      "outputs": [
        {
          "internalType": "address",
          "name": "",
          "type": "address"
        }
      ],
      "stateMutability": "view",
      "type": "function"
    },
    {
      "inputs": [],
      "name": "backendManager",
      "outputs": [
        {
          "internalType": "address",
          "name": "",
          "type": "address"
        }
      ],
      "stateMutability": "view",
      "type": "function"
    },
    {
      "inputs": [],
      "name": "cBTCYieldVault",
      "outputs": [
        {
          "internalType": "address",
          "name": "",
          "type": "address"
        }
      ],
      "stateMutability": "view",
      "type": "function"
    },
    {
      "inputs": [],
      "name": "cbtcReceiptToken",
      "outputs": [
        {
          "internalType": "contract XershaCBTC",
          "name": "",
          "type": "address"
        }
      ],
      "stateMutability": "view",
      "type": "function"
    },
    {
      "inputs": [
        {
          "internalType": "address",
          "name": "",
          "type": "address"
        }
      ],
      "name": "circleToPool",
      "outputs": [
        {
          "internalType": "address",
          "name": "",
          "type": "address"
        }
      ],
      "stateMutability": "view",
      "type": "function"
    },
    {
      "inputs": [
        {
          "internalType": "address",
          "name": "circleId",
          "type": "address"
        },
        {
          "internalType": "string",
          "name": "circleName",
          "type": "string"
        },
        {
          "internalType": "address",
          "name": "beneficiary",
          "type": "address"
        },
        {
          "internalType": "uint256",
          "name": "goalAmount",
          "type": "uint256"
        },
        {
          "internalType": "uint256",
          "name": "deadline",
          "type": "uint256"
        },
        {
          "internalType": "address",
          "name": "tokenAddress",
          "type": "address"
        },
        {
          "internalType": "bool",
          "name": "isNativeToken",
          "type": "bool"
        }
      ],
      "name": "createDonationPool",
      "outputs": [
        {
          "internalType": "address",
          "name": "",
          "type": "address"
        }
      ],
      "stateMutability": "nonpayable",
      "type": "function"
    },
    {
      "inputs": [
        {
          "internalType": "address",
          "name": "circleId",
          "type": "address"
        },
        {
          "internalType": "string",
          "name": "circleName",
          "type": "string"
        },
        {
          "internalType": "uint256",
          "name": "contributionAmount",
          "type": "uint256"
        },
        {
          "internalType": "address",
          "name": "tokenAddress",
          "type": "address"
        },
        {
          "internalType": "bool",
          "name": "isNativeToken",
          "type": "bool"
        }
      ],
      "name": "createROSCA",
      "outputs": [
        {
          "internalType": "address",
          "name": "",
          "type": "address"
        }
      ],
      "stateMutability": "nonpayable",
      "type": "function"
    },
    {
      "inputs": [
        {
          "internalType": "address",
          "name": "circleId",
          "type": "address"
        },
        {
          "internalType": "string",
          "name": "circleName",
          "type": "string"
        },
        {
          "internalType": "address",
          "name": "tokenAddress",
          "type": "address"
        },
        {
          "internalType": "bool",
          "name": "isNativeToken",
          "type": "bool"
        }
      ],
      "name": "createSavingsPool",
      "outputs": [
        {
          "internalType": "address",
          "name": "",
          "type": "address"
        }
      ],
      "stateMutability": "nonpayable",
      "type": "function"
    },
    {
      "inputs": [],
      "name": "cusdReceiptToken",
      "outputs": [
        {
          "internalType": "contract XershaCUSD",
          "name": "",
          "type": "address"
        }
      ],
      "stateMutability": "view",
      "type": "function"
    },
    {
      "inputs": [],
      "name": "cusdYieldVault",
      "outputs": [
        {
          "internalType": "address",
          "name": "",
          "type": "address"
        }
      ],
      "stateMutability": "view",
      "type": "function"
    },
    {
      "inputs": [],
      "name": "donationImplementation",
      "outputs": [
        {
          "internalType": "address",
          "name": "",
          "type": "address"
        }
      ],
      "stateMutability": "view",
      "type": "function"
    },
    {
      "inputs": [],
      "name": "getAllPools",
      "outputs": [
        {
          "internalType": "address[]",
          "name": "",
          "type": "address[]"
        }
      ],
      "stateMutability": "view",
      "type": "function"
    },
    {
      "inputs": [
        {
          "internalType": "address",
          "name": "circleId",
          "type": "address"
        }
      ],
      "name": "getCirclePool",
      "outputs": [
        {
          "internalType": "address",
          "name": "",
          "type": "address"
        }
      ],
      "stateMutability": "view",
      "type": "function"
    },
    {
      "inputs": [
        {
          "internalType": "address",
          "name": "poolAddress",
          "type": "address"
        }
      ],
      "name": "getPoolType",
      "outputs": [
        {
          "internalType": "enum XershaFactory.PoolType",
          "name": "",
          "type": "uint8"
        }
      ],
      "stateMutability": "view",
      "type": "function"
    },
    {
      "inputs": [],
      "name": "getTotalPools",
      "outputs": [
        {
          "internalType": "uint256",
          "name": "",
          "type": "uint256"
        }
      ],
      "stateMutability": "view",
      "type": "function"
    },
    {
      "inputs": [
        {
          "internalType": "address",
          "name": "",
          "type": "address"
        }
      ],
      "name": "isValidPool",
      "outputs": [
        {
          "internalType": "bool",
          "name": "",
          "type": "bool"
        }
      ],
      "stateMutability": "view",
      "type": "function"
    },
    {
      "inputs": [],
      "name": "owner",
      "outputs": [
        {
          "internalType": "address",
          "name": "",
          "type": "address"
        }
      ],
      "stateMutability": "view",
      "type": "function"
    },
    {
      "inputs": [
        {
          "internalType": "address",
          "name": "",
          "type": "address"
        }
      ],
      "name": "poolTypes",
      "outputs": [
        {
          "internalType": "enum XershaFactory.PoolType",
          "name": "",
          "type": "uint8"
        }
      ],
      "stateMutability": "view",
      "type": "function"
    },
    {
      "inputs": [],
      "name": "renounceOwnership",
      "outputs": [],
      "stateMutability": "nonpayable",
      "type": "function"
    },
    {
      "inputs": [],
      "name": "roscaImplementation",
      "outputs": [
        {
          "internalType": "address",
          "name": "",
          "type": "address"
        }
      ],
      "stateMutability": "view",
      "type": "function"
    },
    {
      "inputs": [],
      "name": "savingsImplementation",
      "outputs": [
        {
          "internalType": "address",
          "name": "",
          "type": "address"
        }
      ],
      "stateMutability": "view",
      "type": "function"
    },
    {
      "inputs": [
        {
          "internalType": "address",
          "name": "_backendManager",
          "type": "address"
        }
      ],
      "name": "setBackendManager",
      "outputs": [],
      "stateMutability": "nonpayable",
      "type": "function"
    },
    {
      "inputs": [
        {
          "internalType": "address",
          "name": "newImplementation",
          "type": "address"
        }
      ],
      "name": "setDonationImplementation",
      "outputs": [],
      "stateMutability": "nonpayable",
      "type": "function"
    },
    {
      "inputs": [
        {
          "internalType": "address",
          "name": "_roscaImpl",
          "type": "address"
        },
        {
          "internalType": "address",
          "name": "_savingsImpl",
          "type": "address"
        },
        {
          "internalType": "address",
          "name": "_donationImpl",
          "type": "address"
        }
      ],
      "name": "setImplementations",
      "outputs": [],
      "stateMutability": "nonpayable",
      "type": "function"
    },
    {
      "inputs": [
        {
          "internalType": "address",
          "name": "newImplementation",
          "type": "address"
        }
      ],
      "name": "setROSCAImplementation",
      "outputs": [],
      "stateMutability": "nonpayable",
      "type": "function"
    },
    {
      "inputs": [
        {
          "internalType": "address",
          "name": "newImplementation",
          "type": "address"
        }
      ],
      "name": "setSavingsImplementation",
      "outputs": [],
      "stateMutability": "nonpayable",
      "type": "function"
    },
    {
      "inputs": [
        {
          "internalType": "address",
          "name": "newOwner",
          "type": "address"
        }
      ],
      "name": "transferOwnership",
      "outputs": [],
      "stateMutability": "nonpayable",
      "type": "function"
    }
  ],
  "transactionHash": "0x726fb456defeb7e1a732e17fd8d3daf584e8ed811ef21e1c3547896dfcde7836",
  "args": [
    "0x8244c1645C1a7890Ef1F0E79AcCf817905Dbcba2",
    "0x8244c1645C1a7890Ef1F0E79AcCf817905Dbcba2",
    "0x343DcBDdf894c9995F6368C318af5D991605937D",
    "0x628be90408Aa215B90d6dFaEB9b90f85d307F4c8",
    "0x086E4a412F9c7E38D4Dc6198B1D6F55b05dfa915",
    "0x90D155A1CB0B851192289e72D07a654500A8C7ac",
    "0xE755B3B8beE7507F0BEeC348bBB61337A2F5D2dF"
  ],
  "numDeployments": 6,
  "solcInputHash": "83a45b05e509a8feb83aaab0e2c03b64",
  "bytecode": "0x60806040523480156200001157600080fd5b5060405162003a4938038062003a498339810160408190526200003491620003fc565b866001600160a01b0381166200006557604051631e4fbdf760e01b8152600060048201526024015b60405180910390fd5b620000708162000373565b506001600160a01b038616620000c95760405162461bcd60e51b815260206004820152601760248201527f496e76616c6964206261636b656e64206d616e6167657200000000000000000060448201526064016200005c565b6001600160a01b038516620001215760405162461bcd60e51b815260206004820152601c60248201527f496e76616c696420524f53434120696d706c656d656e746174696f6e0000000060448201526064016200005c565b6001600160a01b038416620001795760405162461bcd60e51b815260206004820152601e60248201527f496e76616c696420536176696e677320696d706c656d656e746174696f6e000060448201526064016200005c565b6001600160a01b038316620001d15760405162461bcd60e51b815260206004820152601f60248201527f496e76616c696420446f6e6174696f6e20696d706c656d656e746174696f6e0060448201526064016200005c565b6001600160a01b0382166200021e5760405162461bcd60e51b8152602060048201526012602482015271125b9d985b1a590818d09510c81d985d5b1d60721b60448201526064016200005c565b6001600160a01b0381166200026b5760405162461bcd60e51b8152602060048201526012602482015271125b9d985b1a590810d554d1081d985d5b1d60721b60448201526064016200005c565b600480546001600160a01b03199081166001600160a01b038981169190911790925560018054821688841617905560028054821687841617905560038054821686841617905560058054821685841617905560068054909116918316919091179055604051620002db90620003c3565b604051809103906000f080158015620002f8573d6000803e3d6000fd5b50600780546001600160a01b0319166001600160a01b03929092169190911790556040516200032790620003d1565b604051809103906000f08015801562000344573d6000803e3d6000fd5b50600880546001600160a01b0319166001600160a01b0392909216919091179055506200049195505050505050565b600080546001600160a01b038381166001600160a01b0319831681178455604051919092169283917f8be0079c531659141344cd1fd0a4f28419497f9722a3daafe3b4186f6b6457e09190a35050565b610e898062001d3783390190565b610e898062002bc083390190565b80516001600160a01b0381168114620003f757600080fd5b919050565b600080600080600080600060e0888a0312156200041857600080fd5b6200042388620003df565b96506200043360208901620003df565b95506200044360408901620003df565b94506200045360608901620003df565b93506200046360808901620003df565b92506200047360a08901620003df565b91506200048360c08901620003df565b905092959891949750929550565b61189680620004a16000396000f3fe608060405234801561001057600080fd5b50600436106101a95760003560e01c80638b2d16eb116100f9578063ce7ae1f911610097578063e24d65f911610071578063e24d65f9146103c8578063eb0227be146103db578063f2fde38b14610407578063fe89db301461041a57600080fd5b8063ce7ae1f914610379578063d3ffe67a146103a2578063d88ff1f4146103b357600080fd5b8063a71b3242116100d3578063a71b32421461032d578063aab050d814610340578063ba6c5e7114610353578063ca84b47f1461036657600080fd5b80638b2d16eb146102f65780638da5cb5b146103095780639300d2381461031a57600080fd5b806344b403ea116101665780635ab78ee1116101405780635ab78ee1146102955780636e8dc5ab146102c8578063715018a6146102db57806387f26142146102e357600080fd5b806344b403ea1461023f5780635328d28c1461026f5780635490ad991461028257600080fd5b80631338291f146101ae5780632866fd1d146101de57806329c15445146101f15780632aca2b331461020657806338e1a6db1461021957806341d1de971461022c575b600080fd5b6006546101c1906001600160a01b031681565b6040516001600160a01b0390911681526020015b60405180910390f35b6008546101c1906001600160a01b031681565b6102046101ff36600461132b565b61042d565b005b6101c1610214366004611400565b6104c7565b6005546101c1906001600160a01b031681565b6101c161023a366004611493565b6107d6565b61026261024d36600461132b565b600b6020526000908152604090205460ff1681565b6040516101d591906114c2565b6003546101c1906001600160a01b031681565b6101c16102903660046114ea565b610800565b6102b86102a336600461132b565b600a6020526000908152604090205460ff1681565b60405190151581526020016101d5565b6102046102d636600461132b565b610a7e565b610204610b20565b6101c16102f1366004611563565b610b34565b61020461030436600461132b565b610d8a565b6000546001600160a01b03166101c1565b6102046103283660046115d2565b610e0f565b61026261033b36600461132b565b610f68565b6001546101c1906001600160a01b031681565b6002546101c1906001600160a01b031681565b61020461037436600461132b565b610fe6565b6101c161038736600461132b565b6009602052600090815260409020546001600160a01b031681565b600c546040519081526020016101d5565b6103bb611069565b6040516101d59190611615565b6004546101c1906001600160a01b031681565b6101c16103e936600461132b565b6001600160a01b039081166000908152600960205260409020541690565b61020461041536600461132b565b6110cb565b6007546101c1906001600160a01b031681565b610435611109565b6001600160a01b0381166104645760405162461bcd60e51b815260040161045b90611662565b60405180910390fd5b600380546001600160a01b0383166001600160a01b03199091168117909155604051600080516020611841833981519152906104bc906020808252600890820152672227a720aa24a7a760c11b604082015260600190565b60405180910390a250565b60006104d288611136565b6001600160a01b03888116600090815260096020526040902054161561050a5760405162461bcd60e51b815260040161045b90611692565b6001600160a01b0386166105565760405162461bcd60e51b8152602060048201526013602482015272496e76616c69642062656e656669636961727960681b604482015260640161045b565b600085116105955760405162461bcd60e51b815260206004820152600c60248201526b125b9d985b1a590819dbd85b60a21b604482015260640161045b565b4284116105d75760405162461bcd60e51b815260206004820152601060248201526f496e76616c696420646561646c696e6560801b604482015260640161045b565b6003546000906105ef906001600160a01b031661118c565b9050600083610609576007546001600160a01b0316610616565b6008546001600160a01b03165b9050816001600160a01b031663c5964d50338c8c600460009054906101000a90046001600160a01b03168d8d8d8d8d8b6040518b63ffffffff1660e01b815260040161066b9a9998979695949392919061170f565b600060405180830381600087803b15801561068557600080fd5b505af1158015610699573d6000803e3d6000fd5b505050508315610707576008546040516303f575bb60e41b81526001600160a01b03848116600483015290911690633f575bb090602401600060405180830381600087803b1580156106ea57600080fd5b505af11580156106fe573d6000803e3d6000fd5b50505050610767565b6007546040516303f575bb60e41b81526001600160a01b03848116600483015290911690633f575bb090602401600060405180830381600087803b15801561074e57600080fd5b505af1158015610762573d6000803e3d6000fd5b505050505b6107738a8360026111fe565b336001600160a01b0316826001600160a01b03168b6001600160a01b03167f645ee41665486bc487a04a91a2bd296d2d2395cabf7747b152436dd15f9d4f8f60026040516107c191906114c2565b60405180910390a45098975050505050505050565b600c81815481106107e657600080fd5b6000918252602090912001546001600160a01b0316905081565b600061080b86611136565b6001600160a01b0386811660009081526009602052604090205416156108435760405162461bcd60e51b815260040161045b90611692565b600084116108935760405162461bcd60e51b815260206004820152601b60248201527f496e76616c696420636f6e747269627574696f6e20616d6f756e740000000000604482015260640161045b565b6001546000906108ab906001600160a01b031661118c565b90506000836108c5576007546001600160a01b03166108d2565b6008546001600160a01b03165b600480546040516329a9caab60e01b81529293506001600160a01b03808616936329a9caab936109159333938f938f9392909116918e918e918e918c9101611780565b600060405180830381600087803b15801561092f57600080fd5b505af1158015610943573d6000803e3d6000fd5b5050505083156109b1576008546040516303f575bb60e41b81526001600160a01b03848116600483015290911690633f575bb090602401600060405180830381600087803b15801561099457600080fd5b505af11580156109a8573d6000803e3d6000fd5b50505050610a11565b6007546040516303f575bb60e41b81526001600160a01b03848116600483015290911690633f575bb090602401600060405180830381600087803b1580156109f857600080fd5b505af1158015610a0c573d6000803e3d6000fd5b505050505b610a1d888360006111fe565b336001600160a01b0316826001600160a01b0316896001600160a01b03167f645ee41665486bc487a04a91a2bd296d2d2395cabf7747b152436dd15f9d4f8f6000604051610a6b91906114c2565b60405180910390a4509695505050505050565b610a86611109565b6001600160a01b038116610ace5760405162461bcd60e51b815260206004820152600f60248201526e496e76616c6964206164647265737360881b604482015260640161045b565b600480546001600160a01b038381166001600160a01b0319831681179093556040519116919082907faf601b649d0bd8f5dcbb06b7ffe12f97c8f0767b80af33040fbc9b83007a6c4590600090a35050565b610b28611109565b610b3260006112c4565b565b6000610b3f85611136565b6001600160a01b038581166000908152600960205260409020541615610b775760405162461bcd60e51b815260040161045b90611692565b600254600090610b8f906001600160a01b031661118c565b9050600083610ba9576006546001600160a01b0316610bb6565b6005546001600160a01b03165b9050600084610bd0576007546001600160a01b0316610bdd565b6008546001600160a01b03165b60048054604051632c2f585960e21b81529293506001600160a01b038087169363b0bd616493610c209333938f938f9392909116918e918e918c918c91016117e0565b600060405180830381600087803b158015610c3a57600080fd5b505af1158015610c4e573d6000803e3d6000fd5b505050508415610cbc576008546040516303f575bb60e41b81526001600160a01b03858116600483015290911690633f575bb090602401600060405180830381600087803b158015610c9f57600080fd5b505af1158015610cb3573d6000803e3d6000fd5b50505050610d1c565b6007546040516303f575bb60e41b81526001600160a01b03858116600483015290911690633f575bb090602401600060405180830381600087803b158015610d0357600080fd5b505af1158015610d17573d6000803e3d6000fd5b505050505b610d28888460016111fe565b336001600160a01b0316836001600160a01b0316896001600160a01b03167f645ee41665486bc487a04a91a2bd296d2d2395cabf7747b152436dd15f9d4f8f6001604051610d7691906114c2565b60405180910390a450909695505050505050565b610d92611109565b6001600160a01b038116610db85760405162461bcd60e51b815260040161045b90611662565b600280546001600160a01b0383166001600160a01b03199091168117909155604051600080516020611841833981519152906104bc90602080825260079082015266534156494e475360c81b604082015260600190565b610e17611109565b6001600160a01b03831615610e8457600180546001600160a01b0385166001600160a01b0319909116811790915560405160008051602061184183398151915290610e7b90602080825260059082015264524f53434160d81b604082015260600190565b60405180910390a25b6001600160a01b03821615610ef357600280546001600160a01b0384166001600160a01b0319909116811790915560405160008051602061184183398151915290610eea90602080825260079082015266534156494e475360c81b604082015260600190565b60405180910390a25b6001600160a01b03811615610f6357600380546001600160a01b0383166001600160a01b0319909116811790915560405160008051602061184183398151915290610f5a906020808252600890820152672227a720aa24a7a760c11b604082015260600190565b60405180910390a25b505050565b6001600160a01b0381166000908152600a602052604081205460ff16610fc75760405162461bcd60e51b8152602060048201526014602482015273496e76616c696420706f6f6c206164647265737360601b604482015260640161045b565b506001600160a01b03166000908152600b602052604090205460ff1690565b610fee611109565b6001600160a01b0381166110145760405162461bcd60e51b815260040161045b90611662565b600180546001600160a01b0383166001600160a01b03199091168117909155604051600080516020611841833981519152906104bc90602080825260059082015264524f53434160d81b604082015260600190565b6060600c8054806020026020016040519081016040528092919081815260200182805480156110c157602002820191906000526020600020905b81546001600160a01b031681526001909101906020018083116110a3575b5050505050905090565b6110d3611109565b6001600160a01b0381166110fd57604051631e4fbdf760e01b81526000600482015260240161045b565b611106816112c4565b50565b6000546001600160a01b03163314610b325760405163118cdaa760e01b815233600482015260240161045b565b6001600160a01b0381166111065760405162461bcd60e51b815260206004820152601860248201527f5a65726f2061646472657373206e6f7420616c6c6f7765640000000000000000604482015260640161045b565b6000763d602d80600a3d3981f3363d3d373d3d3d363d730000008260601b60e81c176000526e5af43d82803e903d91602b57fd5bf38260781b17602052603760096000f090506001600160a01b0381166111f9576040516330be1a3d60e21b815260040160405180910390fd5b919050565b6001600160a01b03838116600090815260096020908152604080832080546001600160a01b0319169487169485179055928252600a8152828220805460ff199081166001908117909255600b90925292909120805484939192169083600281111561126b5761126b6114ac565b021790555050600c80546001810182556000919091527fdf6966c971051c3d54ec59162606531493a51404a002842f56009d7e5cf4a8c70180546001600160a01b0319166001600160a01b039290921691909117905550565b600080546001600160a01b038381166001600160a01b0319831681178455604051919092169283917f8be0079c531659141344cd1fd0a4f28419497f9722a3daafe3b4186f6b6457e09190a35050565b80356001600160a01b03811681146111f957600080fd5b60006020828403121561133d57600080fd5b61134682611314565b9392505050565b634e487b7160e01b600052604160045260246000fd5b600082601f83011261137457600080fd5b813567ffffffffffffffff8082111561138f5761138f61134d565b604051601f8301601f19908116603f011681019082821181831017156113b7576113b761134d565b816040528381528660208588010111156113d057600080fd5b836020870160208301376000602085830101528094505050505092915050565b803580151581146111f957600080fd5b600080600080600080600060e0888a03121561141b57600080fd5b61142488611314565b9650602088013567ffffffffffffffff81111561144057600080fd5b61144c8a828b01611363565b96505061145b60408901611314565b9450606088013593506080880135925061147760a08901611314565b915061148560c089016113f0565b905092959891949750929550565b6000602082840312156114a557600080fd5b5035919050565b634e487b7160e01b600052602160045260246000fd5b60208101600383106114e457634e487b7160e01b600052602160045260246000fd5b91905290565b600080600080600060a0868803121561150257600080fd5b61150b86611314565b9450602086013567ffffffffffffffff81111561152757600080fd5b61153388828901611363565b9450506040860135925061154960608701611314565b9150611557608087016113f0565b90509295509295909350565b6000806000806080858703121561157957600080fd5b61158285611314565b9350602085013567ffffffffffffffff81111561159e57600080fd5b6115aa87828801611363565b9350506115b960408601611314565b91506115c7606086016113f0565b905092959194509250565b6000806000606084860312156115e757600080fd5b6115f084611314565b92506115fe60208501611314565b915061160c60408501611314565b90509250925092565b6020808252825182820181905260009190848201906040850190845b818110156116565783516001600160a01b031683529284019291840191600101611631565b50909695505050505050565b60208082526016908201527524b73b30b634b21034b6b83632b6b2b73a30ba34b7b760511b604082015260600190565b60208082526017908201527f436972636c6520616c72656164792068617320706f6f6c000000000000000000604082015260600190565b6000815180845260005b818110156116ef576020818501810151868301820152016116d3565b506000602082860101526020601f19601f83011685010191505092915050565b6001600160a01b038b811682528a811660208301526101406040830181905260009161173d8483018d6116c9565b9a811660608501529889166080840152505060a081019590955260c085019390935290841660e08401521515610100830152909116610120909101529392505050565b6001600160a01b0389811682528881166020830152610100604083018190526000916117ae8483018b6116c9565b98811660608501526080840197909752505092841660a084015290151560c083015290911660e0909101529392505050565b6001600160a01b03898116825288811660208301526101006040830181905260009161180e8483018b6116c9565b98811660608501529687166080840152505092151560a084015290831660c083015290911660e090910152939250505056fea1e41aa2c2f3f20d9b63ac06b634d2788768d6034f3d9192cdf7d07374bb16f4a264697066735822122090e25713a5f4d6efdbdea20b2fdb62c5bd008c875419e74f4c53dbda1a91172a64736f6c6343000814003360806040523480156200001157600080fd5b506040518060400160405280600b81526020016a16195c9cda184810d554d160aa1b815250604051806040016040528060078152602001661e1cda10d554d160ca1b815250816003908162000067919062000136565b50600462000076828262000136565b5050600580546001600160a01b031916331790555062000202565b634e487b7160e01b600052604160045260246000fd5b600181811c90821680620000bc57607f821691505b602082108103620000dd57634e487b7160e01b600052602260045260246000fd5b50919050565b601f8211156200013157600081815260208120601f850160051c810160208610156200010c5750805b601f850160051c820191505b818110156200012d5782815560010162000118565b5050505b505050565b81516001600160401b0381111562000152576200015262000091565b6200016a81620001638454620000a7565b84620000e3565b602080601f831160018114620001a25760008415620001895750858301515b600019600386901b1c1916600185901b1785556200012d565b600085815260208120601f198616915b82811015620001d357888601518255948401946001909101908401620001b2565b5085821015620001f25787850151600019600388901b60f8161c191681555b5050505050600190811b01905550565b610c7780620002126000396000f3fe608060405234801561001057600080fd5b50600436106101215760003560e01c80636babe43b116100ad5780639dc29fac116100715780639dc29fac1461028e578063a9059cbb146102a1578063d75700dc146102af578063dd62ed3e146102c2578063e816b393146102fb57600080fd5b80636babe43b146101ff57806370a082311461021f5780637745a1db146102485780638da5cb5b1461025b57806395d89b411461028657600080fd5b806323b872dd116100f457806323b872dd1461018e578063313ce567146101a15780633f575bb0146101b057806340c10f19146101c357806361e20a1c146101d657600080fd5b806306ddf8b91461012657806306fdde031461013b578063095ea7b31461015957806318160ddd1461017c575b600080fd5b610139610134366004610a61565b61031e565b005b6101436103a7565b6040516101509190610a8b565b60405180910390f35b61016c610167366004610a61565b610439565b6040519015158152602001610150565b6002545b604051908152602001610150565b61016c61019c366004610ad9565b610453565b60405160128152602001610150565b6101396101be366004610b15565b61049e565b6101396101d1366004610a61565b61057e565b6101806101e4366004610b15565b6001600160a01b031660009081526007602052604090205490565b61018061020d366004610b15565b60076020526000908152604090205481565b61018061022d366004610b15565b6001600160a01b031660009081526020819052604090205490565b610180610256366004610b15565b6105e9565b60055461026e906001600160a01b031681565b6040516001600160a01b039091168152602001610150565b61014361062b565b61013961029c366004610a61565b61063a565b61016c61019c366004610a61565b6101396102bd366004610b15565b61073c565b6101806102d0366004610b37565b6001600160a01b03918216600090815260016020908152604080832093909416825291909152205490565b61016c610309366004610b15565b60066020526000908152604090205460ff1681565b3360009081526006602052604090205460ff166103565760405162461bcd60e51b815260040161034d90610b6a565b60405180910390fd5b61036082826107cc565b816001600160a01b03167fe717e4451c04092567b7919d05c9f7d0093e4799f723fa1b925c9b70266a7f9c8260405161039b91815260200190565b60405180910390a25050565b6060600380546103b690610b92565b80601f01602080910402602001604051908101604052809291908181526020018280546103e290610b92565b801561042f5780601f106104045761010080835404028352916020019161042f565b820191906000526020600020905b81548152906001019060200180831161041257829003601f168201915b5050505050905090565b600033610447818585610802565b60019150505b92915050565b60405162461bcd60e51b815260206004820152601960248201527f787368435553443a204e6f6e2d7472616e7366657261626c6500000000000000604482015260009060640161034d565b6005546001600160a01b031633146104e55760405162461bcd60e51b815260206004820152600a60248201526927b7363c9037bbb732b960b11b604482015260640161034d565b6001600160a01b0381166105325760405162461bcd60e51b8152602060048201526014602482015273496e76616c696420706f6f6c206164647265737360601b604482015260640161034d565b6001600160a01b038116600081815260066020526040808220805460ff19166001179055517fc13bb2196f59e9fa90738150dac5f901de66f89ccf2ab6435c1ab8d0dea1d61c9190a250565b3360009081526006602052604090205460ff166105ad5760405162461bcd60e51b815260040161034d90610b6a565b6001600160a01b038216600090815260076020526040812080548392906105d5908490610be2565b909155506105e5905082826107cc565b5050565b6001600160a01b038116600090815260208181526040808320546007909252822054808211610619576000610623565b6106238183610bf5565b949350505050565b6060600480546103b690610b92565b3360009081526006602052604090205460ff166106695760405162461bcd60e51b815260040161034d90610b6a565b6001600160a01b038216600090815260208190526040902054818110156106c95760405162461bcd60e51b8152602060048201526014602482015273496e73756666696369656e742062616c616e636560601b604482015260640161034d565b6001600160a01b03831660009081526007602052604081205482906106ef908590610c08565b6106f99190610c1f565b6001600160a01b038516600090815260076020526040812080549293508392909190610726908490610bf5565b9091555061073690508484610814565b50505050565b6005546001600160a01b031633146107835760405162461bcd60e51b815260206004820152600a60248201526927b7363c9037bbb732b960b11b604482015260640161034d565b6001600160a01b038116600081815260066020526040808220805460ff19169055517f6bfa755488b37cbd139ec6b8a82873d1039f782a2594e22dd7158b1bbe81719b9190a250565b6001600160a01b0382166107f65760405163ec442f0560e01b81526000600482015260240161034d565b6105e560008383610846565b61080f8383836001610970565b505050565b6001600160a01b03821661083e57604051634b637e8f60e11b81526000600482015260240161034d565b6105e5826000835b6001600160a01b0383166108715780600260008282546108669190610be2565b909155506108e39050565b6001600160a01b038316600090815260208190526040902054818110156108c45760405163391434e360e21b81526001600160a01b0385166004820152602481018290526044810183905260640161034d565b6001600160a01b03841660009081526020819052604090209082900390555b6001600160a01b0382166108ff5760028054829003905561091e565b6001600160a01b03821660009081526020819052604090208054820190555b816001600160a01b0316836001600160a01b03167fddf252ad1be2c89b69c2b068fc378daa952ba7f163c4a11628f55a4df523b3ef8360405161096391815260200190565b60405180910390a3505050565b6001600160a01b03841661099a5760405163e602df0560e01b81526000600482015260240161034d565b6001600160a01b0383166109c457604051634a1406b160e11b81526000600482015260240161034d565b6001600160a01b038085166000908152600160209081526040808320938716835292905220829055801561073657826001600160a01b0316846001600160a01b03167f8c5be1e5ebec7d5bd14f71427d1e84f3dd0314c0f7b2291e5b200ac8c7c3b92584604051610a3791815260200190565b60405180910390a350505050565b80356001600160a01b0381168114610a5c57600080fd5b919050565b60008060408385031215610a7457600080fd5b610a7d83610a45565b946020939093013593505050565b600060208083528351808285015260005b81811015610ab857858101830151858201604001528201610a9c565b506000604082860101526040601f19601f8301168501019250505092915050565b600080600060608486031215610aee57600080fd5b610af784610a45565b9250610b0560208501610a45565b9150604084013590509250925092565b600060208284031215610b2757600080fd5b610b3082610a45565b9392505050565b60008060408385031215610b4a57600080fd5b610b5383610a45565b9150610b6160208401610a45565b90509250929050565b6020808252600e908201526d139bdd08185d5d1a1bdc9a5e995960921b604082015260600190565b600181811c90821680610ba657607f821691505b602082108103610bc657634e487b7160e01b600052602260045260246000fd5b50919050565b634e487b7160e01b600052601160045260246000fd5b8082018082111561044d5761044d610bcc565b8181038181111561044d5761044d610bcc565b808202811582820484141761044d5761044d610bcc565b600082610c3c57634e487b7160e01b600052601260045260246000fd5b50049056fea2646970667358221220bafc93fe64d20c670792f0b74c4a37ad21f294d332b3987f2bafbc4d6c33615964736f6c6343000814003360806040523480156200001157600080fd5b506040518060400160405280600b81526020016a586572736861206342544360a81b815250604051806040016040528060078152602001667873684342544360c81b815250816003908162000067919062000136565b50600462000076828262000136565b5050600580546001600160a01b031916331790555062000202565b634e487b7160e01b600052604160045260246000fd5b600181811c90821680620000bc57607f821691505b602082108103620000dd57634e487b7160e01b600052602260045260246000fd5b50919050565b601f8211156200013157600081815260208120601f850160051c810160208610156200010c5750805b601f850160051c820191505b818110156200012d5782815560010162000118565b5050505b505050565b81516001600160401b0381111562000152576200015262000091565b6200016a81620001638454620000a7565b84620000e3565b602080601f831160018114620001a25760008415620001895750858301515b600019600386901b1c1916600185901b1785556200012d565b600085815260208120601f198616915b82811015620001d357888601518255948401946001909101908401620001b2565b5085821015620001f25787850151600019600388901b60f8161c191681555b5050505050600190811b01905550565b610c7780620002126000396000f3fe608060405234801561001057600080fd5b50600436106101215760003560e01c80636babe43b116100ad5780639dc29fac116100715780639dc29fac1461028e578063a9059cbb146102a1578063d75700dc146102af578063dd62ed3e146102c2578063e816b393146102fb57600080fd5b80636babe43b146101ff57806370a082311461021f5780637745a1db146102485780638da5cb5b1461025b57806395d89b411461028657600080fd5b806323b872dd116100f457806323b872dd1461018e578063313ce567146101a15780633f575bb0146101b057806340c10f19146101c357806361e20a1c146101d657600080fd5b806306ddf8b91461012657806306fdde031461013b578063095ea7b31461015957806318160ddd1461017c575b600080fd5b610139610134366004610a61565b61031e565b005b6101436103a7565b6040516101509190610a8b565b60405180910390f35b61016c610167366004610a61565b610439565b6040519015158152602001610150565b6002545b604051908152602001610150565b61016c61019c366004610ad9565b610453565b60405160128152602001610150565b6101396101be366004610b15565b61049e565b6101396101d1366004610a61565b61057e565b6101806101e4366004610b15565b6001600160a01b031660009081526007602052604090205490565b61018061020d366004610b15565b60076020526000908152604090205481565b61018061022d366004610b15565b6001600160a01b031660009081526020819052604090205490565b610180610256366004610b15565b6105e9565b60055461026e906001600160a01b031681565b6040516001600160a01b039091168152602001610150565b61014361062b565b61013961029c366004610a61565b61063a565b61016c61019c366004610a61565b6101396102bd366004610b15565b61073c565b6101806102d0366004610b37565b6001600160a01b03918216600090815260016020908152604080832093909416825291909152205490565b61016c610309366004610b15565b60066020526000908152604090205460ff1681565b3360009081526006602052604090205460ff166103565760405162461bcd60e51b815260040161034d90610b6a565b60405180910390fd5b61036082826107cc565b816001600160a01b03167fe717e4451c04092567b7919d05c9f7d0093e4799f723fa1b925c9b70266a7f9c8260405161039b91815260200190565b60405180910390a25050565b6060600380546103b690610b92565b80601f01602080910402602001604051908101604052809291908181526020018280546103e290610b92565b801561042f5780601f106104045761010080835404028352916020019161042f565b820191906000526020600020905b81548152906001019060200180831161041257829003601f168201915b5050505050905090565b600033610447818585610802565b60019150505b92915050565b60405162461bcd60e51b815260206004820152601960248201527f787368434254433a204e6f6e2d7472616e7366657261626c6500000000000000604482015260009060640161034d565b6005546001600160a01b031633146104e55760405162461bcd60e51b815260206004820152600a60248201526927b7363c9037bbb732b960b11b604482015260640161034d565b6001600160a01b0381166105325760405162461bcd60e51b8152602060048201526014602482015273496e76616c696420706f6f6c206164647265737360601b604482015260640161034d565b6001600160a01b038116600081815260066020526040808220805460ff19166001179055517fc13bb2196f59e9fa90738150dac5f901de66f89ccf2ab6435c1ab8d0dea1d61c9190a250565b3360009081526006602052604090205460ff166105ad5760405162461bcd60e51b815260040161034d90610b6a565b6001600160a01b038216600090815260076020526040812080548392906105d5908490610be2565b909155506105e5905082826107cc565b5050565b6001600160a01b038116600090815260208181526040808320546007909252822054808211610619576000610623565b6106238183610bf5565b949350505050565b6060600480546103b690610b92565b3360009081526006602052604090205460ff166106695760405162461bcd60e51b815260040161034d90610b6a565b6001600160a01b038216600090815260208190526040902054818110156106c95760405162461bcd60e51b8152602060048201526014602482015273496e73756666696369656e742062616c616e636560601b604482015260640161034d565b6001600160a01b03831660009081526007602052604081205482906106ef908590610c08565b6106f99190610c1f565b6001600160a01b038516600090815260076020526040812080549293508392909190610726908490610bf5565b9091555061073690508484610814565b50505050565b6005546001600160a01b031633146107835760405162461bcd60e51b815260206004820152600a60248201526927b7363c9037bbb732b960b11b604482015260640161034d565b6001600160a01b038116600081815260066020526040808220805460ff19169055517f6bfa755488b37cbd139ec6b8a82873d1039f782a2594e22dd7158b1bbe81719b9190a250565b6001600160a01b0382166107f65760405163ec442f0560e01b81526000600482015260240161034d565b6105e560008383610846565b61080f8383836001610970565b505050565b6001600160a01b03821661083e57604051634b637e8f60e11b81526000600482015260240161034d565b6105e5826000835b6001600160a01b0383166108715780600260008282546108669190610be2565b909155506108e39050565b6001600160a01b038316600090815260208190526040902054818110156108c45760405163391434e360e21b81526001600160a01b0385166004820152602481018290526044810183905260640161034d565b6001600160a01b03841660009081526020819052604090209082900390555b6001600160a01b0382166108ff5760028054829003905561091e565b6001600160a01b03821660009081526020819052604090208054820190555b816001600160a01b0316836001600160a01b03167fddf252ad1be2c89b69c2b068fc378daa952ba7f163c4a11628f55a4df523b3ef8360405161096391815260200190565b60405180910390a3505050565b6001600160a01b03841661099a5760405163e602df0560e01b81526000600482015260240161034d565b6001600160a01b0383166109c457604051634a1406b160e11b81526000600482015260240161034d565b6001600160a01b038085166000908152600160209081526040808320938716835292905220829055801561073657826001600160a01b0316846001600160a01b03167f8c5be1e5ebec7d5bd14f71427d1e84f3dd0314c0f7b2291e5b200ac8c7c3b92584604051610a3791815260200190565b60405180910390a350505050565b80356001600160a01b0381168114610a5c57600080fd5b919050565b60008060408385031215610a7457600080fd5b610a7d83610a45565b946020939093013593505050565b600060208083528351808285015260005b81811015610ab857858101830151858201604001528201610a9c565b506000604082860101526040601f19601f8301168501019250505092915050565b600080600060608486031215610aee57600080fd5b610af784610a45565b9250610b0560208501610a45565b9150604084013590509250925092565b600060208284031215610b2757600080fd5b610b3082610a45565b9392505050565b60008060408385031215610b4a57600080fd5b610b5383610a45565b9150610b6160208401610a45565b90509250929050565b6020808252600e908201526d139bdd08185d5d1a1bdc9a5e995960921b604082015260600190565b600181811c90821680610ba657607f821691505b602082108103610bc657634e487b7160e01b600052602260045260246000fd5b50919050565b634e487b7160e01b600052601160045260246000fd5b8082018082111561044d5761044d610bcc565b8181038181111561044d5761044d610bcc565b808202811582820484141761044d5761044d610bcc565b600082610c3c57634e487b7160e01b600052601260045260246000fd5b50049056fea264697066735822122016d8aad5ba16e7e7d8911d9b6e0f50afa904ace78418f93393a560fdbb7836d064736f6c63430008140033",
  "devdoc": {
    "details": "Enforces one pool per circle and tracks all deployed pools      Uses EIP-1167 minimal proxies (clones) for gas-efficient pool deployment",
    "errors": {
      "ERC1167FailedCreateClone()": [
        {
          "details": "A clone instance deployment failed."
        }
      ],
      "OwnableInvalidOwner(address)": [
        {
          "details": "The owner is not a valid owner account. (eg. `address(0)`)"
        }
      ],
      "OwnableUnauthorizedAccount(address)": [
        {
          "details": "The caller account is not authorized to perform an operation."
        }
      ]
    },
    "events": {
      "BackendManagerUpdated(address,address)": {
        "params": {
          "newManager": "The new backend manager address",
          "oldManager": "The previous backend manager address"
        }
      },
      "ImplementationUpdated(string,address)": {
        "params": {
          "newImplementation": "The new implementation address",
          "poolType": "The type of pool implementation that was updated"
        }
      },
      "PoolCreated(address,address,address,uint8)": {
        "params": {
          "circleId": "The Lens.xyz circle contract address",
          "creator": "The address that created the pool",
          "poolAddress": "The address of the newly created pool",
          "poolType": "The type of pool created (ROSCA, SAVINGS, or DONATION)"
        }
      }
    },
    "kind": "dev",
    "methods": {
      "constructor": {
        "params": {
          "_backendManager": "Address of the backend manager for all pools",
          "_cBTCYieldVault": "Address of the cBTC yield vault (3% APY)",
          "_cusdYieldVault": "Address of the CUSD yield vault (5% APY)",
          "_donationImpl": "Address of the Donation pool implementation",
          "_roscaImpl": "Address of the ROSCA pool implementation",
          "_savingsImpl": "Address of the YieldSavingsPool implementation",
          "initialOwner": "Address that will own the factory"
        }
      },
      "createDonationPool(address,string,address,uint256,uint256,address,bool)": {
        "details": "Validates circle ID and ensures no duplicate pools for the same circle      Uses EIP-1167 minimal proxy pattern for gas-efficient deployment",
        "params": {
          "beneficiary": "The address that will receive the donated funds",
          "circleId": "The Lens.xyz circle contract address",
          "circleName": "The name of the circle",
          "deadline": "Unix timestamp when fundraising ends",
          "goalAmount": "The fundraising goal amount in wei",
          "isNativeToken": "Whether to use native token or ERC20",
          "tokenAddress": "Address of the ERC20 token (zero address if native)"
        },
        "returns": {
          "_0": "The address of the newly created Donation pool clone"
        }
      },
      "createROSCA(address,string,uint256,address,bool)": {
        "details": "Validates circle ID and ensures no duplicate pools for the same circle      Uses EIP-1167 minimal proxy pattern for gas-efficient deployment",
        "params": {
          "circleId": "The Lens.xyz circle contract address",
          "circleName": "The name of the circle",
          "contributionAmount": "Fixed amount each member must contribute per round",
          "isNativeToken": "Whether to use native token or ERC20",
          "tokenAddress": "Address of the ERC20 token (zero address if native)"
        },
        "returns": {
          "_0": "The address of the newly created ROSCA pool clone"
        }
      },
      "createSavingsPool(address,string,address,bool)": {
        "details": "All savings pools automatically earn yield (cBTC: 3% APY, CUSD: 5% APY)      Validates circle ID and ensures no duplicate pools for the same circle      Uses EIP-1167 minimal proxy pattern for gas-efficient deployment",
        "params": {
          "circleId": "The Lens.xyz circle contract address",
          "circleName": "The name of the circle",
          "isNativeToken": "Whether to use native token or ERC20",
          "tokenAddress": "Address of the ERC20 token (zero address if native)"
        },
        "returns": {
          "_0": "The address of the newly created YieldSavingsPool clone"
        }
      },
      "getAllPools()": {
        "details": "Warning: This can be gas-intensive for large numbers of pools",
        "returns": {
          "_0": "Array of all pool addresses"
        }
      },
      "getCirclePool(address)": {
        "params": {
          "circleId": "The circle contract address"
        },
        "returns": {
          "_0": "The pool address, or zero address if no pool exists"
        }
      },
      "getPoolType(address)": {
        "params": {
          "poolAddress": "The pool address to query"
        },
        "returns": {
          "_0": "The PoolType enum value"
        }
      },
      "getTotalPools()": {
        "returns": {
          "_0": "The total pool count"
        }
      },
      "owner()": {
        "details": "Returns the address of the current owner."
      },
      "renounceOwnership()": {
        "details": "Leaves the contract without owner. It will not be possible to call `onlyOwner` functions. Can only be called by the current owner. NOTE: Renouncing ownership will leave the contract without an owner, thereby disabling any functionality that is only available to the owner."
      },
      "setBackendManager(address)": {
        "details": "Only owner can update. Existing pools are not affected.",
        "params": {
          "_backendManager": "New backend manager address"
        }
      },
      "setDonationImplementation(address)": {
        "details": "Only owner can update. New pools will use the new implementation",
        "params": {
          "newImplementation": "Address of the new Donation implementation"
        }
      },
      "setImplementations(address,address,address)": {
        "details": "Only owner can update. Pass address(0) to skip updating a specific implementation",
        "params": {
          "_donationImpl": "New Donation implementation (or address(0) to skip)",
          "_roscaImpl": "New ROSCA implementation (or address(0) to skip)",
          "_savingsImpl": "New Savings implementation (or address(0) to skip)"
        }
      },
      "setROSCAImplementation(address)": {
        "details": "Only owner can update. New pools will use the new implementation",
        "params": {
          "newImplementation": "Address of the new ROSCA implementation"
        }
      },
      "setSavingsImplementation(address)": {
        "details": "Only owner can update. New pools will use the new implementation",
        "params": {
          "newImplementation": "Address of the new Savings implementation"
        }
      },
      "transferOwnership(address)": {
        "details": "Transfers ownership of the contract to a new account (`newOwner`). Can only be called by the current owner."
      }
    },
    "title": "XershaFactory",
    "version": 1
  },
  "userdoc": {
    "events": {
      "BackendManagerUpdated(address,address)": {
        "notice": "Emitted when the backend manager address is updated"
      },
      "ImplementationUpdated(string,address)": {
        "notice": "Emitted when an implementation address is updated"
      },
      "PoolCreated(address,address,address,uint8)": {
        "notice": "Emitted when a new pool is created"
      }
    },
    "kind": "user",
    "methods": {
      "allPools(uint256)": {
        "notice": "Array of all pools created by this factory"
      },
      "backendManager()": {
        "notice": "Address of the backend manager for all pools"
      },
      "cBTCYieldVault()": {
        "notice": "Yield vault for cBTC pools (3% APY)"
      },
      "cbtcReceiptToken()": {
        "notice": "Receipt token for cBTC deposits"
      },
      "circleToPool(address)": {
        "notice": "Mapping from circle contract address to pool address"
      },
      "constructor": {
        "notice": "Initializes the factory with implementation addresses"
      },
      "createDonationPool(address,string,address,uint256,uint256,address,bool)": {
        "notice": "Creates a new Donation pool for group fundraising"
      },
      "createROSCA(address,string,uint256,address,bool)": {
        "notice": "Creates a new ROSCA (Rotating Savings and Credit Association) pool"
      },
      "createSavingsPool(address,string,address,bool)": {
        "notice": "Creates a new yield-enabled Savings pool for collective savings"
      },
      "cusdReceiptToken()": {
        "notice": "Receipt token for CUSD deposits"
      },
      "cusdYieldVault()": {
        "notice": "Yield vault for CUSD pools (5% APY)"
      },
      "donationImplementation()": {
        "notice": "Implementation contract for Donation pools"
      },
      "getAllPools()": {
        "notice": "Gets all pool addresses created by this factory"
      },
      "getCirclePool(address)": {
        "notice": "Gets the pool address for a given circle"
      },
      "getPoolType(address)": {
        "notice": "Gets the pool type for a given pool address"
      },
      "getTotalPools()": {
        "notice": "Gets the total number of pools created by this factory"
      },
      "isValidPool(address)": {
        "notice": "Mapping to validate if an address is a legitimate pool created by this factory"
      },
      "poolTypes(address)": {
        "notice": "Mapping from pool address to pool type"
      },
      "roscaImplementation()": {
        "notice": "Implementation contract for ROSCA pools"
      },
      "savingsImplementation()": {
        "notice": "Implementation contract for Savings pools (yield-enabled)"
      },
      "setBackendManager(address)": {
        "notice": "Updates the backend manager address for all future pools"
      },
      "setDonationImplementation(address)": {
        "notice": "Updates the Donation pool implementation address"
      },
      "setImplementations(address,address,address)": {
        "notice": "Updates all implementation addresses at once"
      },
      "setROSCAImplementation(address)": {
        "notice": "Updates the ROSCA pool implementation address"
      },
      "setSavingsImplementation(address)": {
        "notice": "Updates the Savings pool implementation address"
      }
    },
    "notice": "Factory contract for creating and managing Xersha pools using minimal proxy pattern",
    "version": 1
  },
  "storageLayout": {
    "storage": [
      {
        "astId": 8,
        "contract": "contracts/XershaFactory.sol:XershaFactory",
        "label": "_owner",
        "offset": 0,
        "slot": "0",
        "type": "t_address"
      },
      {
        "astId": 1802,
        "contract": "contracts/XershaFactory.sol:XershaFactory",
        "label": "roscaImplementation",
        "offset": 0,
        "slot": "1",
        "type": "t_address"
      },
      {
        "astId": 1805,
        "contract": "contracts/XershaFactory.sol:XershaFactory",
        "label": "savingsImplementation",
        "offset": 0,
        "slot": "2",
        "type": "t_address"
      },
      {
        "astId": 1808,
        "contract": "contracts/XershaFactory.sol:XershaFactory",
        "label": "donationImplementation",
        "offset": 0,
        "slot": "3",
        "type": "t_address"
      },
      {
        "astId": 1811,
        "contract": "contracts/XershaFactory.sol:XershaFactory",
        "label": "backendManager",
        "offset": 0,
        "slot": "4",
        "type": "t_address"
      },
      {
        "astId": 1814,
        "contract": "contracts/XershaFactory.sol:XershaFactory",
        "label": "cBTCYieldVault",
        "offset": 0,
        "slot": "5",
        "type": "t_address"
      },
      {
        "astId": 1817,
        "contract": "contracts/XershaFactory.sol:XershaFactory",
        "label": "cusdYieldVault",
        "offset": 0,
        "slot": "6",
        "type": "t_address"
      },
      {
        "astId": 1821,
        "contract": "contracts/XershaFactory.sol:XershaFactory",
        "label": "cusdReceiptToken",
        "offset": 0,
        "slot": "7",
        "type": "t_contract(XershaCUSD)6654"
      },
      {
        "astId": 1825,
        "contract": "contracts/XershaFactory.sol:XershaFactory",
        "label": "cbtcReceiptToken",
        "offset": 0,
        "slot": "8",
        "type": "t_contract(XershaCBTC)6369"
      },
      {
        "astId": 1830,
        "contract": "contracts/XershaFactory.sol:XershaFactory",
        "label": "circleToPool",
        "offset": 0,
        "slot": "9",
        "type": "t_mapping(t_address,t_address)"
      },
      {
        "astId": 1835,
        "contract": "contracts/XershaFactory.sol:XershaFactory",
        "label": "isValidPool",
        "offset": 0,
        "slot": "10",
        "type": "t_mapping(t_address,t_bool)"
      },
      {
        "astId": 1841,
        "contract": "contracts/XershaFactory.sol:XershaFactory",
        "label": "poolTypes",
        "offset": 0,
        "slot": "11",
        "type": "t_mapping(t_address,t_enum(PoolType)1799)"
      },
      {
        "astId": 1845,
        "contract": "contracts/XershaFactory.sol:XershaFactory",
        "label": "allPools",
        "offset": 0,
        "slot": "12",
        "type": "t_array(t_address)dyn_storage"
      }
    ],
    "types": {
      "t_address": {
        "encoding": "inplace",
        "label": "address",
        "numberOfBytes": "20"
      },
      "t_array(t_address)dyn_storage": {
        "base": "t_address",
        "encoding": "dynamic_array",
        "label": "address[]",
        "numberOfBytes": "32"
      },
      "t_bool": {
        "encoding": "inplace",
        "label": "bool",
        "numberOfBytes": "1"
      },
      "t_contract(XershaCBTC)6369": {
        "encoding": "inplace",
        "label": "contract XershaCBTC",
        "numberOfBytes": "20"
      },
      "t_contract(XershaCUSD)6654": {
        "encoding": "inplace",
        "label": "contract XershaCUSD",
        "numberOfBytes": "20"
      },
      "t_enum(PoolType)1799": {
        "encoding": "inplace",
        "label": "enum XershaFactory.PoolType",
        "numberOfBytes": "1"
      },
      "t_mapping(t_address,t_address)": {
        "encoding": "mapping",
        "key": "t_address",
        "label": "mapping(address => address)",
        "numberOfBytes": "32",
        "value": "t_address"
      },
      "t_mapping(t_address,t_bool)": {
        "encoding": "mapping",
        "key": "t_address",
        "label": "mapping(address => bool)",
        "numberOfBytes": "32",
        "value": "t_bool"
      },
      "t_mapping(t_address,t_enum(PoolType)1799)": {
        "encoding": "mapping",
        "key": "t_address",
        "label": "mapping(address => enum XershaFactory.PoolType)",
        "numberOfBytes": "32",
        "value": "t_enum(PoolType)1799"
      }
    }
  }
}