{
  "address": "0x1Fcb6B39ac8913AD7A68AEEdBd89d23Bddc64A32",
  "abi": [
    {
      "inputs": [
        {
          "internalType": "address",
          "name": "initialOwner",
          "type": "address"
        },
        {
          "internalType": "address",
          "name": "_backendManager",
          "type": "address"
        },
        {
          "internalType": "address",
          "name": "_roscaImpl",
          "type": "address"
        },
        {
          "internalType": "address",
          "name": "_savingsImpl",
          "type": "address"
        },
        {
          "internalType": "address",
          "name": "_donationImpl",
          "type": "address"
        }
      ],
      "stateMutability": "nonpayable",
      "type": "constructor"
    },
    {
      "inputs": [],
      "name": "ERC1167FailedCreateClone",
      "type": "error"
    },
    {
      "inputs": [
        {
          "internalType": "address",
          "name": "owner",
          "type": "address"
        }
      ],
      "name": "OwnableInvalidOwner",
      "type": "error"
    },
    {
      "inputs": [
        {
          "internalType": "address",
          "name": "account",
          "type": "address"
        }
      ],
      "name": "OwnableUnauthorizedAccount",
      "type": "error"
    },
    {
      "anonymous": false,
      "inputs": [
        {
          "indexed": true,
          "internalType": "address",
          "name": "oldManager",
          "type": "address"
        },
        {
          "indexed": true,
          "internalType": "address",
          "name": "newManager",
          "type": "address"
        }
      ],
      "name": "BackendManagerUpdated",
      "type": "event"
    },
    {
      "anonymous": false,
      "inputs": [
        {
          "indexed": false,
          "internalType": "string",
          "name": "poolType",
          "type": "string"
        },
        {
          "indexed": true,
          "internalType": "address",
          "name": "newImplementation",
          "type": "address"
        }
      ],
      "name": "ImplementationUpdated",
      "type": "event"
    },
    {
      "anonymous": false,
      "inputs": [
        {
          "indexed": true,
          "internalType": "address",
          "name": "previousOwner",
          "type": "address"
        },
        {
          "indexed": true,
          "internalType": "address",
          "name": "newOwner",
          "type": "address"
        }
      ],
      "name": "OwnershipTransferred",
      "type": "event"
    },
    {
      "anonymous": false,
      "inputs": [
        {
          "indexed": true,
          "internalType": "address",
          "name": "circleId",
          "type": "address"
        },
        {
          "indexed": true,
          "internalType": "address",
          "name": "poolAddress",
          "type": "address"
        },
        {
          "indexed": true,
          "internalType": "address",
          "name": "creator",
          "type": "address"
        },
        {
          "indexed": false,
          "internalType": "enum XershaFactory.PoolType",
          "name": "poolType",
          "type": "uint8"
        }
      ],
      "name": "PoolCreated",
      "type": "event"
    },
    {
      "inputs": [
        {
          "internalType": "uint256",
          "name": "",
          "type": "uint256"
        }
      ],
      "name": "allPools",
      "outputs": [
        {
          "internalType": "address",
          "name": "",
          "type": "address"
        }
      ],
      "stateMutability": "view",
      "type": "function"
    },
    {
      "inputs": [],
      "name": "backendManager",
      "outputs": [
        {
          "internalType": "address",
          "name": "",
          "type": "address"
        }
      ],
      "stateMutability": "view",
      "type": "function"
    },
    {
      "inputs": [
        {
          "internalType": "address",
          "name": "",
          "type": "address"
        }
      ],
      "name": "circleToPool",
      "outputs": [
        {
          "internalType": "address",
          "name": "",
          "type": "address"
        }
      ],
      "stateMutability": "view",
      "type": "function"
    },
    {
      "inputs": [
        {
          "internalType": "address",
          "name": "circleId",
          "type": "address"
        },
        {
          "internalType": "string",
          "name": "circleName",
          "type": "string"
        },
        {
          "internalType": "address",
          "name": "beneficiary",
          "type": "address"
        },
        {
          "internalType": "uint256",
          "name": "goalAmount",
          "type": "uint256"
        },
        {
          "internalType": "uint256",
          "name": "deadline",
          "type": "uint256"
        },
        {
          "internalType": "address",
          "name": "tokenAddress",
          "type": "address"
        },
        {
          "internalType": "bool",
          "name": "isNativeToken",
          "type": "bool"
        }
      ],
      "name": "createDonationPool",
      "outputs": [
        {
          "internalType": "address",
          "name": "",
          "type": "address"
        }
      ],
      "stateMutability": "nonpayable",
      "type": "function"
    },
    {
      "inputs": [
        {
          "internalType": "address",
          "name": "circleId",
          "type": "address"
        },
        {
          "internalType": "string",
          "name": "circleName",
          "type": "string"
        },
        {
          "internalType": "uint256",
          "name": "contributionAmount",
          "type": "uint256"
        },
        {
          "internalType": "address",
          "name": "tokenAddress",
          "type": "address"
        },
        {
          "internalType": "bool",
          "name": "isNativeToken",
          "type": "bool"
        }
      ],
      "name": "createROSCA",
      "outputs": [
        {
          "internalType": "address",
          "name": "",
          "type": "address"
        }
      ],
      "stateMutability": "nonpayable",
      "type": "function"
    },
    {
      "inputs": [
        {
          "internalType": "address",
          "name": "circleId",
          "type": "address"
        },
        {
          "internalType": "string",
          "name": "circleName",
          "type": "string"
        },
        {
          "internalType": "address",
          "name": "tokenAddress",
          "type": "address"
        },
        {
          "internalType": "bool",
          "name": "isNativeToken",
          "type": "bool"
        }
      ],
      "name": "createSavingsPool",
      "outputs": [
        {
          "internalType": "address",
          "name": "",
          "type": "address"
        }
      ],
      "stateMutability": "nonpayable",
      "type": "function"
    },
    {
      "inputs": [],
      "name": "donationImplementation",
      "outputs": [
        {
          "internalType": "address",
          "name": "",
          "type": "address"
        }
      ],
      "stateMutability": "view",
      "type": "function"
    },
    {
      "inputs": [],
      "name": "getAllPools",
      "outputs": [
        {
          "internalType": "address[]",
          "name": "",
          "type": "address[]"
        }
      ],
      "stateMutability": "view",
      "type": "function"
    },
    {
      "inputs": [
        {
          "internalType": "address",
          "name": "circleId",
          "type": "address"
        }
      ],
      "name": "getCirclePool",
      "outputs": [
        {
          "internalType": "address",
          "name": "",
          "type": "address"
        }
      ],
      "stateMutability": "view",
      "type": "function"
    },
    {
      "inputs": [
        {
          "internalType": "address",
          "name": "poolAddress",
          "type": "address"
        }
      ],
      "name": "getPoolType",
      "outputs": [
        {
          "internalType": "enum XershaFactory.PoolType",
          "name": "",
          "type": "uint8"
        }
      ],
      "stateMutability": "view",
      "type": "function"
    },
    {
      "inputs": [],
      "name": "getTotalPools",
      "outputs": [
        {
          "internalType": "uint256",
          "name": "",
          "type": "uint256"
        }
      ],
      "stateMutability": "view",
      "type": "function"
    },
    {
      "inputs": [
        {
          "internalType": "address",
          "name": "",
          "type": "address"
        }
      ],
      "name": "isValidPool",
      "outputs": [
        {
          "internalType": "bool",
          "name": "",
          "type": "bool"
        }
      ],
      "stateMutability": "view",
      "type": "function"
    },
    {
      "inputs": [],
      "name": "owner",
      "outputs": [
        {
          "internalType": "address",
          "name": "",
          "type": "address"
        }
      ],
      "stateMutability": "view",
      "type": "function"
    },
    {
      "inputs": [
        {
          "internalType": "address",
          "name": "",
          "type": "address"
        }
      ],
      "name": "poolTypes",
      "outputs": [
        {
          "internalType": "enum XershaFactory.PoolType",
          "name": "",
          "type": "uint8"
        }
      ],
      "stateMutability": "view",
      "type": "function"
    },
    {
      "inputs": [],
      "name": "renounceOwnership",
      "outputs": [],
      "stateMutability": "nonpayable",
      "type": "function"
    },
    {
      "inputs": [],
      "name": "roscaImplementation",
      "outputs": [
        {
          "internalType": "address",
          "name": "",
          "type": "address"
        }
      ],
      "stateMutability": "view",
      "type": "function"
    },
    {
      "inputs": [],
      "name": "savingsImplementation",
      "outputs": [
        {
          "internalType": "address",
          "name": "",
          "type": "address"
        }
      ],
      "stateMutability": "view",
      "type": "function"
    },
    {
      "inputs": [
        {
          "internalType": "address",
          "name": "_backendManager",
          "type": "address"
        }
      ],
      "name": "setBackendManager",
      "outputs": [],
      "stateMutability": "nonpayable",
      "type": "function"
    },
    {
      "inputs": [
        {
          "internalType": "address",
          "name": "newImplementation",
          "type": "address"
        }
      ],
      "name": "setDonationImplementation",
      "outputs": [],
      "stateMutability": "nonpayable",
      "type": "function"
    },
    {
      "inputs": [
        {
          "internalType": "address",
          "name": "_roscaImpl",
          "type": "address"
        },
        {
          "internalType": "address",
          "name": "_savingsImpl",
          "type": "address"
        },
        {
          "internalType": "address",
          "name": "_donationImpl",
          "type": "address"
        }
      ],
      "name": "setImplementations",
      "outputs": [],
      "stateMutability": "nonpayable",
      "type": "function"
    },
    {
      "inputs": [
        {
          "internalType": "address",
          "name": "newImplementation",
          "type": "address"
        }
      ],
      "name": "setROSCAImplementation",
      "outputs": [],
      "stateMutability": "nonpayable",
      "type": "function"
    },
    {
      "inputs": [
        {
          "internalType": "address",
          "name": "newImplementation",
          "type": "address"
        }
      ],
      "name": "setSavingsImplementation",
      "outputs": [],
      "stateMutability": "nonpayable",
      "type": "function"
    },
    {
      "inputs": [
        {
          "internalType": "address",
          "name": "newOwner",
          "type": "address"
        }
      ],
      "name": "transferOwnership",
      "outputs": [],
      "stateMutability": "nonpayable",
      "type": "function"
    }
  ],
  "transactionHash": "0x0213b19e99af09fb8ea601dc501c1c3241f5d427fea8cdd0dcbdfa05e42fa69d",
  "args": [
    "0x8244c1645C1a7890Ef1F0E79AcCf817905Dbcba2",
    "0x8244c1645C1a7890Ef1F0E79AcCf817905Dbcba2",
    "0x99e9Ca5E3694abe26D317a6e0fc86B44B0e66f32",
    "0xCbe2729249aD201bceACf7213c382E4f010587cD",
    "0x152C02DCcB50369983602fd50050498a478a3568"
  ],
  "numDeployments": 5,
  "solcInputHash": "b1b414be307ab3dbeb8c7b1dfa17f549",
  "bytecode": "0x60806040523480156200001157600080fd5b50604051620017d2380380620017d2833981016040819052620000349162000293565b846001600160a01b0381166200006557604051631e4fbdf760e01b8152600060048201526024015b60405180910390fd5b620000708162000226565b506001600160a01b038416620000c95760405162461bcd60e51b815260206004820152601760248201527f496e76616c6964206261636b656e64206d616e6167657200000000000000000060448201526064016200005c565b6001600160a01b038316620001215760405162461bcd60e51b815260206004820152601c60248201527f496e76616c696420524f53434120696d706c656d656e746174696f6e0000000060448201526064016200005c565b6001600160a01b038216620001795760405162461bcd60e51b815260206004820152601e60248201527f496e76616c696420536176696e677320696d706c656d656e746174696f6e000060448201526064016200005c565b6001600160a01b038116620001d15760405162461bcd60e51b815260206004820152601f60248201527f496e76616c696420446f6e6174696f6e20696d706c656d656e746174696f6e0060448201526064016200005c565b600480546001600160a01b039586166001600160a01b03199182161790915560018054948616948216949094179093556002805492851692841692909217909155600380549190931691161790555062000303565b600080546001600160a01b038381166001600160a01b0319831681178455604051919092169283917f8be0079c531659141344cd1fd0a4f28419497f9722a3daafe3b4186f6b6457e09190a35050565b80516001600160a01b03811681146200028e57600080fd5b919050565b600080600080600060a08688031215620002ac57600080fd5b620002b78662000276565b9450620002c76020870162000276565b9350620002d76040870162000276565b9250620002e76060870162000276565b9150620002f76080870162000276565b90509295509295909350565b6114bf80620003136000396000f3fe608060405234801561001057600080fd5b506004361061014d5760003560e01c80638da5cb5b116100c3578063ce7ae1f91161007c578063ce7ae1f9146102e4578063d3ffe67a1461030d578063d88ff1f41461031e578063e24d65f914610333578063eb0227be14610346578063f2fde38b1461037257600080fd5b80638da5cb5b146102745780639300d23814610285578063a71b324214610298578063aab050d8146102ab578063ba6c5e71146102be578063ca84b47f146102d157600080fd5b80635490ad99116101155780635490ad99146101ed5780635ab78ee1146102005780636e8dc5ab14610233578063715018a61461024657806387f261421461024e5780638b2d16eb1461026157600080fd5b806329c15445146101525780632aca2b331461016757806341d1de971461019757806344b403ea146101aa5780635328d28c146101da575b600080fd5b610165610160366004610f7c565b610385565b005b61017a610175366004611051565b61041f565b6040516001600160a01b0390911681526020015b60405180910390f35b61017a6101a53660046110e4565b61063a565b6101cd6101b8366004610f7c565b60076020526000908152604090205460ff1681565b60405161018e9190611113565b60035461017a906001600160a01b031681565b61017a6101fb36600461113b565b610664565b61022361020e366004610f7c565b60066020526000908152604090205460ff1681565b604051901515815260200161018e565b610165610241366004610f7c565b6107ee565b610165610890565b61017a61025c3660046111b4565b6108a4565b61016561026f366004610f7c565b6109db565b6000546001600160a01b031661017a565b610165610293366004611223565b610a60565b6101cd6102a6366004610f7c565b610bb9565b60015461017a906001600160a01b031681565b60025461017a906001600160a01b031681565b6101656102df366004610f7c565b610c37565b61017a6102f2366004610f7c565b6005602052600090815260409020546001600160a01b031681565b60085460405190815260200161018e565b610326610cba565b60405161018e9190611266565b60045461017a906001600160a01b031681565b61017a610354366004610f7c565b6001600160a01b039081166000908152600560205260409020541690565b610165610380366004610f7c565b610d1c565b61038d610d5a565b6001600160a01b0381166103bc5760405162461bcd60e51b81526004016103b3906112b3565b60405180910390fd5b600380546001600160a01b0383166001600160a01b0319909116811790915560405160008051602061146a83398151915290610414906020808252600890820152672227a720aa24a7a760c11b604082015260600190565b60405180910390a250565b600061042a88610d87565b6001600160a01b0388811660009081526005602052604090205416156104625760405162461bcd60e51b81526004016103b3906112e3565b6001600160a01b0386166104ae5760405162461bcd60e51b8152602060048201526013602482015272496e76616c69642062656e656669636961727960681b60448201526064016103b3565b600085116104ed5760405162461bcd60e51b815260206004820152600c60248201526b125b9d985b1a590819dbd85b60a21b60448201526064016103b3565b42841161052f5760405162461bcd60e51b815260206004820152601060248201526f496e76616c696420646561646c696e6560801b60448201526064016103b3565b600354600090610547906001600160a01b0316610ddd565b9050806001600160a01b03166388a27c94338b8b600460009054906101000a90046001600160a01b03168c8c8c8c8c6040518a63ffffffff1660e01b815260040161059a99989796959493929190611360565b600060405180830381600087803b1580156105b457600080fd5b505af11580156105c8573d6000803e3d6000fd5b505050506105d889826002610e4f565b336001600160a01b0316816001600160a01b03168a6001600160a01b03167f645ee41665486bc487a04a91a2bd296d2d2395cabf7747b152436dd15f9d4f8f60026040516106269190611113565b60405180910390a498975050505050505050565b6008818154811061064a57600080fd5b6000918252602090912001546001600160a01b0316905081565b600061066f86610d87565b6001600160a01b0386811660009081526005602052604090205416156106a75760405162461bcd60e51b81526004016103b3906112e3565b600084116106f75760405162461bcd60e51b815260206004820152601b60248201527f496e76616c696420636f6e747269627574696f6e20616d6f756e74000000000060448201526064016103b3565b60015460009061070f906001600160a01b0316610ddd565b60048054604051636c9d991960e01b81529293506001600160a01b0380851693636c9d9919936107509333938e938e9392909116918d918d918d91016113c9565b600060405180830381600087803b15801561076a57600080fd5b505af115801561077e573d6000803e3d6000fd5b5050505061078e87826000610e4f565b336001600160a01b0316816001600160a01b0316886001600160a01b03167f645ee41665486bc487a04a91a2bd296d2d2395cabf7747b152436dd15f9d4f8f60006040516107dc9190611113565b60405180910390a49695505050505050565b6107f6610d5a565b6001600160a01b03811661083e5760405162461bcd60e51b815260206004820152600f60248201526e496e76616c6964206164647265737360881b60448201526064016103b3565b600480546001600160a01b038381166001600160a01b0319831681179093556040519116919082907faf601b649d0bd8f5dcbb06b7ffe12f97c8f0767b80af33040fbc9b83007a6c4590600090a35050565b610898610d5a565b6108a26000610f15565b565b60006108af85610d87565b6001600160a01b0385811660009081526005602052604090205416156108e75760405162461bcd60e51b81526004016103b3906112e3565b6002546000906108ff906001600160a01b0316610ddd565b6004805460405163d4bc3a4f60e01b81529293506001600160a01b038085169363d4bc3a4f9361093e9333938d938d9392909116918c918c910161141d565b600060405180830381600087803b15801561095857600080fd5b505af115801561096c573d6000803e3d6000fd5b5050505061097c86826001610e4f565b336001600160a01b0316816001600160a01b0316876001600160a01b03167f645ee41665486bc487a04a91a2bd296d2d2395cabf7747b152436dd15f9d4f8f60016040516109ca9190611113565b60405180910390a495945050505050565b6109e3610d5a565b6001600160a01b038116610a095760405162461bcd60e51b81526004016103b3906112b3565b600280546001600160a01b0383166001600160a01b0319909116811790915560405160008051602061146a8339815191529061041490602080825260079082015266534156494e475360c81b604082015260600190565b610a68610d5a565b6001600160a01b03831615610ad557600180546001600160a01b0385166001600160a01b0319909116811790915560405160008051602061146a83398151915290610acc90602080825260059082015264524f53434160d81b604082015260600190565b60405180910390a25b6001600160a01b03821615610b4457600280546001600160a01b0384166001600160a01b0319909116811790915560405160008051602061146a83398151915290610b3b90602080825260079082015266534156494e475360c81b604082015260600190565b60405180910390a25b6001600160a01b03811615610bb457600380546001600160a01b0383166001600160a01b0319909116811790915560405160008051602061146a83398151915290610bab906020808252600890820152672227a720aa24a7a760c11b604082015260600190565b60405180910390a25b505050565b6001600160a01b03811660009081526006602052604081205460ff16610c185760405162461bcd60e51b8152602060048201526014602482015273496e76616c696420706f6f6c206164647265737360601b60448201526064016103b3565b506001600160a01b031660009081526007602052604090205460ff1690565b610c3f610d5a565b6001600160a01b038116610c655760405162461bcd60e51b81526004016103b3906112b3565b600180546001600160a01b0383166001600160a01b0319909116811790915560405160008051602061146a8339815191529061041490602080825260059082015264524f53434160d81b604082015260600190565b60606008805480602002602001604051908101604052809291908181526020018280548015610d1257602002820191906000526020600020905b81546001600160a01b03168152600190910190602001808311610cf4575b5050505050905090565b610d24610d5a565b6001600160a01b038116610d4e57604051631e4fbdf760e01b8152600060048201526024016103b3565b610d5781610f15565b50565b6000546001600160a01b031633146108a25760405163118cdaa760e01b81523360048201526024016103b3565b6001600160a01b038116610d575760405162461bcd60e51b815260206004820152601860248201527f5a65726f2061646472657373206e6f7420616c6c6f776564000000000000000060448201526064016103b3565b6000763d602d80600a3d3981f3363d3d373d3d3d363d730000008260601b60e81c176000526e5af43d82803e903d91602b57fd5bf38260781b17602052603760096000f090506001600160a01b038116610e4a576040516330be1a3d60e21b815260040160405180910390fd5b919050565b6001600160a01b03838116600090815260056020908152604080832080546001600160a01b031916948716948517905592825260068152828220805460ff1990811660019081179092556007909252929091208054849391921690836002811115610ebc57610ebc6110fd565b021790555050600880546001810182556000919091527ff3f7a9fe364faab93b216da50a3214154f22a0a2b415b23a84c8169e8b636ee30180546001600160a01b0319166001600160a01b039290921691909117905550565b600080546001600160a01b038381166001600160a01b0319831681178455604051919092169283917f8be0079c531659141344cd1fd0a4f28419497f9722a3daafe3b4186f6b6457e09190a35050565b80356001600160a01b0381168114610e4a57600080fd5b600060208284031215610f8e57600080fd5b610f9782610f65565b9392505050565b634e487b7160e01b600052604160045260246000fd5b600082601f830112610fc557600080fd5b813567ffffffffffffffff80821115610fe057610fe0610f9e565b604051601f8301601f19908116603f0116810190828211818310171561100857611008610f9e565b8160405283815286602085880101111561102157600080fd5b836020870160208301376000602085830101528094505050505092915050565b80358015158114610e4a57600080fd5b600080600080600080600060e0888a03121561106c57600080fd5b61107588610f65565b9650602088013567ffffffffffffffff81111561109157600080fd5b61109d8a828b01610fb4565b9650506110ac60408901610f65565b945060608801359350608088013592506110c860a08901610f65565b91506110d660c08901611041565b905092959891949750929550565b6000602082840312156110f657600080fd5b5035919050565b634e487b7160e01b600052602160045260246000fd5b602081016003831061113557634e487b7160e01b600052602160045260246000fd5b91905290565b600080600080600060a0868803121561115357600080fd5b61115c86610f65565b9450602086013567ffffffffffffffff81111561117857600080fd5b61118488828901610fb4565b9450506040860135925061119a60608701610f65565b91506111a860808701611041565b90509295509295909350565b600080600080608085870312156111ca57600080fd5b6111d385610f65565b9350602085013567ffffffffffffffff8111156111ef57600080fd5b6111fb87828801610fb4565b93505061120a60408601610f65565b915061121860608601611041565b905092959194509250565b60008060006060848603121561123857600080fd5b61124184610f65565b925061124f60208501610f65565b915061125d60408501610f65565b90509250925092565b6020808252825182820181905260009190848201906040850190845b818110156112a75783516001600160a01b031683529284019291840191600101611282565b50909695505050505050565b60208082526016908201527524b73b30b634b21034b6b83632b6b2b73a30ba34b7b760511b604082015260600190565b60208082526017908201527f436972636c6520616c72656164792068617320706f6f6c000000000000000000604082015260600190565b6000815180845260005b8181101561134057602081850181015186830182015201611324565b506000602082860101526020601f19601f83011685010191505092915050565b6001600160a01b038a8116825289811660208301526101206040830181905260009161138e8483018c61131a565b99811660608501529788166080840152505060a081019490945260c084019290925290921660e0820152901515610100909101529392505050565b600060018060a01b03808a168352808916602084015260e060408401526113f360e084018961131a565b96811660608401526080830195909552509190921660a082015290151560c0909101529392505050565b600060018060a01b038089168352808816602084015260c0604084015261144760c084018861131a565b958116606084015293909316608082015290151560a09091015250939250505056fea1e41aa2c2f3f20d9b63ac06b634d2788768d6034f3d9192cdf7d07374bb16f4a2646970667358221220234e8423e6ba0c955a752033d459903443dd45894d0d617d341e32dded3f67d264736f6c63430008140033",
  "devdoc": {
    "details": "Enforces one pool per circle and tracks all deployed pools      Uses EIP-1167 minimal proxies (clones) for gas-efficient pool deployment",
    "errors": {
      "ERC1167FailedCreateClone()": [
        {
          "details": "A clone instance deployment failed."
        }
      ],
      "OwnableInvalidOwner(address)": [
        {
          "details": "The owner is not a valid owner account. (eg. `address(0)`)"
        }
      ],
      "OwnableUnauthorizedAccount(address)": [
        {
          "details": "The caller account is not authorized to perform an operation."
        }
      ]
    },
    "events": {
      "BackendManagerUpdated(address,address)": {
        "params": {
          "newManager": "The new backend manager address",
          "oldManager": "The previous backend manager address"
        }
      },
      "ImplementationUpdated(string,address)": {
        "params": {
          "newImplementation": "The new implementation address",
          "poolType": "The type of pool implementation that was updated"
        }
      },
      "PoolCreated(address,address,address,uint8)": {
        "params": {
          "circleId": "The Lens.xyz circle contract address",
          "creator": "The address that created the pool",
          "poolAddress": "The address of the newly created pool",
          "poolType": "The type of pool created (ROSCA, SAVINGS, or DONATION)"
        }
      }
    },
    "kind": "dev",
    "methods": {
      "constructor": {
        "params": {
          "_backendManager": "Address of the backend manager for all pools",
          "_donationImpl": "Address of the Donation pool implementation",
          "_roscaImpl": "Address of the ROSCA pool implementation",
          "_savingsImpl": "Address of the Savings pool implementation",
          "initialOwner": "Address that will own the factory"
        }
      },
      "createDonationPool(address,string,address,uint256,uint256,address,bool)": {
        "details": "Validates circle ID and ensures no duplicate pools for the same circle      Uses EIP-1167 minimal proxy pattern for gas-efficient deployment",
        "params": {
          "beneficiary": "The address that will receive the donated funds",
          "circleId": "The Lens.xyz circle contract address",
          "circleName": "The name of the circle",
          "deadline": "Unix timestamp when fundraising ends",
          "goalAmount": "The fundraising goal amount in wei",
          "isNativeToken": "Whether to use native token or ERC20",
          "tokenAddress": "Address of the ERC20 token (zero address if native)"
        },
        "returns": {
          "_0": "The address of the newly created Donation pool clone"
        }
      },
      "createROSCA(address,string,uint256,address,bool)": {
        "details": "Validates circle ID and ensures no duplicate pools for the same circle      Uses EIP-1167 minimal proxy pattern for gas-efficient deployment",
        "params": {
          "circleId": "The Lens.xyz circle contract address",
          "circleName": "The name of the circle",
          "contributionAmount": "Fixed amount each member must contribute per round",
          "isNativeToken": "Whether to use native token or ERC20",
          "tokenAddress": "Address of the ERC20 token (zero address if native)"
        },
        "returns": {
          "_0": "The address of the newly created ROSCA pool clone"
        }
      },
      "createSavingsPool(address,string,address,bool)": {
        "details": "Validates circle ID and ensures no duplicate pools for the same circle      Uses EIP-1167 minimal proxy pattern for gas-efficient deployment",
        "params": {
          "circleId": "The Lens.xyz circle contract address",
          "circleName": "The name of the circle",
          "isNativeToken": "Whether to use native token or ERC20",
          "tokenAddress": "Address of the ERC20 token (zero address if native)"
        },
        "returns": {
          "_0": "The address of the newly created Savings pool clone"
        }
      },
      "getAllPools()": {
        "details": "Warning: This can be gas-intensive for large numbers of pools",
        "returns": {
          "_0": "Array of all pool addresses"
        }
      },
      "getCirclePool(address)": {
        "params": {
          "circleId": "The circle contract address"
        },
        "returns": {
          "_0": "The pool address, or zero address if no pool exists"
        }
      },
      "getPoolType(address)": {
        "params": {
          "poolAddress": "The pool address to query"
        },
        "returns": {
          "_0": "The PoolType enum value"
        }
      },
      "getTotalPools()": {
        "returns": {
          "_0": "The total pool count"
        }
      },
      "owner()": {
        "details": "Returns the address of the current owner."
      },
      "renounceOwnership()": {
        "details": "Leaves the contract without owner. It will not be possible to call `onlyOwner` functions. Can only be called by the current owner. NOTE: Renouncing ownership will leave the contract without an owner, thereby disabling any functionality that is only available to the owner."
      },
      "setBackendManager(address)": {
        "details": "Only owner can update. Existing pools are not affected.",
        "params": {
          "_backendManager": "New backend manager address"
        }
      },
      "setDonationImplementation(address)": {
        "details": "Only owner can update. New pools will use the new implementation",
        "params": {
          "newImplementation": "Address of the new Donation implementation"
        }
      },
      "setImplementations(address,address,address)": {
        "details": "Only owner can update. Pass address(0) to skip updating a specific implementation",
        "params": {
          "_donationImpl": "New Donation implementation (or address(0) to skip)",
          "_roscaImpl": "New ROSCA implementation (or address(0) to skip)",
          "_savingsImpl": "New Savings implementation (or address(0) to skip)"
        }
      },
      "setROSCAImplementation(address)": {
        "details": "Only owner can update. New pools will use the new implementation",
        "params": {
          "newImplementation": "Address of the new ROSCA implementation"
        }
      },
      "setSavingsImplementation(address)": {
        "details": "Only owner can update. New pools will use the new implementation",
        "params": {
          "newImplementation": "Address of the new Savings implementation"
        }
      },
      "transferOwnership(address)": {
        "details": "Transfers ownership of the contract to a new account (`newOwner`). Can only be called by the current owner."
      }
    },
    "title": "XershaFactory",
    "version": 1
  },
  "userdoc": {
    "events": {
      "BackendManagerUpdated(address,address)": {
        "notice": "Emitted when the backend manager address is updated"
      },
      "ImplementationUpdated(string,address)": {
        "notice": "Emitted when an implementation address is updated"
      },
      "PoolCreated(address,address,address,uint8)": {
        "notice": "Emitted when a new pool is created"
      }
    },
    "kind": "user",
    "methods": {
      "allPools(uint256)": {
        "notice": "Array of all pools created by this factory"
      },
      "backendManager()": {
        "notice": "Address of the backend manager for all pools"
      },
      "circleToPool(address)": {
        "notice": "Mapping from circle contract address to pool address"
      },
      "constructor": {
        "notice": "Initializes the factory with implementation addresses"
      },
      "createDonationPool(address,string,address,uint256,uint256,address,bool)": {
        "notice": "Creates a new Donation pool for group fundraising"
      },
      "createROSCA(address,string,uint256,address,bool)": {
        "notice": "Creates a new ROSCA (Rotating Savings and Credit Association) pool"
      },
      "createSavingsPool(address,string,address,bool)": {
        "notice": "Creates a new Savings pool for collective savings"
      },
      "donationImplementation()": {
        "notice": "Implementation contract for Donation pools"
      },
      "getAllPools()": {
        "notice": "Gets all pool addresses created by this factory"
      },
      "getCirclePool(address)": {
        "notice": "Gets the pool address for a given circle"
      },
      "getPoolType(address)": {
        "notice": "Gets the pool type for a given pool address"
      },
      "getTotalPools()": {
        "notice": "Gets the total number of pools created by this factory"
      },
      "isValidPool(address)": {
        "notice": "Mapping to validate if an address is a legitimate pool created by this factory"
      },
      "poolTypes(address)": {
        "notice": "Mapping from pool address to pool type"
      },
      "roscaImplementation()": {
        "notice": "Implementation contract for ROSCA pools"
      },
      "savingsImplementation()": {
        "notice": "Implementation contract for Savings pools"
      },
      "setBackendManager(address)": {
        "notice": "Updates the backend manager address for all future pools"
      },
      "setDonationImplementation(address)": {
        "notice": "Updates the Donation pool implementation address"
      },
      "setImplementations(address,address,address)": {
        "notice": "Updates all implementation addresses at once"
      },
      "setROSCAImplementation(address)": {
        "notice": "Updates the ROSCA pool implementation address"
      },
      "setSavingsImplementation(address)": {
        "notice": "Updates the Savings pool implementation address"
      }
    },
    "notice": "Factory contract for creating and managing Xersha pools using minimal proxy pattern",
    "version": 1
  },
  "storageLayout": {
    "storage": [
      {
        "astId": 8,
        "contract": "contracts/XershaFactory.sol:XershaFactory",
        "label": "_owner",
        "offset": 0,
        "slot": "0",
        "type": "t_address"
      },
      {
        "astId": 543,
        "contract": "contracts/XershaFactory.sol:XershaFactory",
        "label": "roscaImplementation",
        "offset": 0,
        "slot": "1",
        "type": "t_address"
      },
      {
        "astId": 546,
        "contract": "contracts/XershaFactory.sol:XershaFactory",
        "label": "savingsImplementation",
        "offset": 0,
        "slot": "2",
        "type": "t_address"
      },
      {
        "astId": 549,
        "contract": "contracts/XershaFactory.sol:XershaFactory",
        "label": "donationImplementation",
        "offset": 0,
        "slot": "3",
        "type": "t_address"
      },
      {
        "astId": 552,
        "contract": "contracts/XershaFactory.sol:XershaFactory",
        "label": "backendManager",
        "offset": 0,
        "slot": "4",
        "type": "t_address"
      },
      {
        "astId": 557,
        "contract": "contracts/XershaFactory.sol:XershaFactory",
        "label": "circleToPool",
        "offset": 0,
        "slot": "5",
        "type": "t_mapping(t_address,t_address)"
      },
      {
        "astId": 562,
        "contract": "contracts/XershaFactory.sol:XershaFactory",
        "label": "isValidPool",
        "offset": 0,
        "slot": "6",
        "type": "t_mapping(t_address,t_bool)"
      },
      {
        "astId": 568,
        "contract": "contracts/XershaFactory.sol:XershaFactory",
        "label": "poolTypes",
        "offset": 0,
        "slot": "7",
        "type": "t_mapping(t_address,t_enum(PoolType)540)"
      },
      {
        "astId": 572,
        "contract": "contracts/XershaFactory.sol:XershaFactory",
        "label": "allPools",
        "offset": 0,
        "slot": "8",
        "type": "t_array(t_address)dyn_storage"
      }
    ],
    "types": {
      "t_address": {
        "encoding": "inplace",
        "label": "address",
        "numberOfBytes": "20"
      },
      "t_array(t_address)dyn_storage": {
        "base": "t_address",
        "encoding": "dynamic_array",
        "label": "address[]",
        "numberOfBytes": "32"
      },
      "t_bool": {
        "encoding": "inplace",
        "label": "bool",
        "numberOfBytes": "1"
      },
      "t_enum(PoolType)540": {
        "encoding": "inplace",
        "label": "enum XershaFactory.PoolType",
        "numberOfBytes": "1"
      },
      "t_mapping(t_address,t_address)": {
        "encoding": "mapping",
        "key": "t_address",
        "label": "mapping(address => address)",
        "numberOfBytes": "32",
        "value": "t_address"
      },
      "t_mapping(t_address,t_bool)": {
        "encoding": "mapping",
        "key": "t_address",
        "label": "mapping(address => bool)",
        "numberOfBytes": "32",
        "value": "t_bool"
      },
      "t_mapping(t_address,t_enum(PoolType)540)": {
        "encoding": "mapping",
        "key": "t_address",
        "label": "mapping(address => enum XershaFactory.PoolType)",
        "numberOfBytes": "32",
        "value": "t_enum(PoolType)540"
      }
    }
  }
}