{
  "address": "0x628be90408Aa215B90d6dFaEB9b90f85d307F4c8",
  "abi": [
    {
      "inputs": [],
      "stateMutability": "nonpayable",
      "type": "constructor"
    },
    {
      "inputs": [
        {
          "internalType": "address",
          "name": "target",
          "type": "address"
        }
      ],
      "name": "AddressEmptyCode",
      "type": "error"
    },
    {
      "inputs": [
        {
          "internalType": "address",
          "name": "account",
          "type": "address"
        }
      ],
      "name": "AddressInsufficientBalance",
      "type": "error"
    },
    {
      "inputs": [],
      "name": "EnforcedPause",
      "type": "error"
    },
    {
      "inputs": [],
      "name": "ExpectedPause",
      "type": "error"
    },
    {
      "inputs": [],
      "name": "FailedInnerCall",
      "type": "error"
    },
    {
      "inputs": [],
      "name": "ReentrancyGuardReentrantCall",
      "type": "error"
    },
    {
      "inputs": [
        {
          "internalType": "address",
          "name": "token",
          "type": "address"
        }
      ],
      "name": "SafeERC20FailedOperation",
      "type": "error"
    },
    {
      "anonymous": false,
      "inputs": [
        {
          "indexed": true,
          "internalType": "address",
          "name": "member",
          "type": "address"
        },
        {
          "indexed": false,
          "internalType": "uint256",
          "name": "amount",
          "type": "uint256"
        }
      ],
      "name": "Deposited",
      "type": "event"
    },
    {
      "anonymous": false,
      "inputs": [
        {
          "indexed": true,
          "internalType": "address",
          "name": "member",
          "type": "address"
        },
        {
          "indexed": true,
          "internalType": "address",
          "name": "addedBy",
          "type": "address"
        }
      ],
      "name": "MemberJoined",
      "type": "event"
    },
    {
      "anonymous": false,
      "inputs": [
        {
          "indexed": false,
          "internalType": "address",
          "name": "account",
          "type": "address"
        }
      ],
      "name": "Paused",
      "type": "event"
    },
    {
      "anonymous": false,
      "inputs": [
        {
          "indexed": false,
          "internalType": "uint256",
          "name": "timestamp",
          "type": "uint256"
        }
      ],
      "name": "PoolClosed",
      "type": "event"
    },
    {
      "anonymous": false,
      "inputs": [
        {
          "indexed": true,
          "internalType": "address",
          "name": "circleId",
          "type": "address"
        },
        {
          "indexed": true,
          "internalType": "address",
          "name": "creator",
          "type": "address"
        }
      ],
      "name": "PoolCreated",
      "type": "event"
    },
    {
      "anonymous": false,
      "inputs": [
        {
          "indexed": false,
          "internalType": "uint256",
          "name": "amount",
          "type": "uint256"
        },
        {
          "indexed": false,
          "internalType": "uint256",
          "name": "date",
          "type": "uint256"
        }
      ],
      "name": "TargetSet",
      "type": "event"
    },
    {
      "anonymous": false,
      "inputs": [
        {
          "indexed": false,
          "internalType": "address",
          "name": "account",
          "type": "address"
        }
      ],
      "name": "Unpaused",
      "type": "event"
    },
    {
      "anonymous": false,
      "inputs": [
        {
          "indexed": true,
          "internalType": "address",
          "name": "member",
          "type": "address"
        },
        {
          "indexed": false,
          "internalType": "uint256",
          "name": "amount",
          "type": "uint256"
        }
      ],
      "name": "Withdrawn",
      "type": "event"
    },
    {
      "inputs": [],
      "name": "backendManager",
      "outputs": [
        {
          "internalType": "address",
          "name": "",
          "type": "address"
        }
      ],
      "stateMutability": "view",
      "type": "function"
    },
    {
      "inputs": [
        {
          "internalType": "address",
          "name": "member",
          "type": "address"
        }
      ],
      "name": "balances",
      "outputs": [
        {
          "internalType": "uint256",
          "name": "",
          "type": "uint256"
        }
      ],
      "stateMutability": "view",
      "type": "function"
    },
    {
      "inputs": [],
      "name": "circleId",
      "outputs": [
        {
          "internalType": "address",
          "name": "",
          "type": "address"
        }
      ],
      "stateMutability": "view",
      "type": "function"
    },
    {
      "inputs": [],
      "name": "circleName",
      "outputs": [
        {
          "internalType": "string",
          "name": "",
          "type": "string"
        }
      ],
      "stateMutability": "view",
      "type": "function"
    },
    {
      "inputs": [],
      "name": "closePool",
      "outputs": [],
      "stateMutability": "nonpayable",
      "type": "function"
    },
    {
      "inputs": [],
      "name": "createdAt",
      "outputs": [
        {
          "internalType": "uint256",
          "name": "",
          "type": "uint256"
        }
      ],
      "stateMutability": "view",
      "type": "function"
    },
    {
      "inputs": [],
      "name": "creator",
      "outputs": [
        {
          "internalType": "address",
          "name": "",
          "type": "address"
        }
      ],
      "stateMutability": "view",
      "type": "function"
    },
    {
      "inputs": [
        {
          "internalType": "uint256",
          "name": "amount",
          "type": "uint256"
        }
      ],
      "name": "deposit",
      "outputs": [],
      "stateMutability": "payable",
      "type": "function"
    },
    {
      "inputs": [],
      "name": "getAPY",
      "outputs": [
        {
          "internalType": "uint256",
          "name": "",
          "type": "uint256"
        }
      ],
      "stateMutability": "view",
      "type": "function"
    },
    {
      "inputs": [
        {
          "internalType": "address",
          "name": "member",
          "type": "address"
        }
      ],
      "name": "getBalance",
      "outputs": [
        {
          "internalType": "uint256",
          "name": "",
          "type": "uint256"
        }
      ],
      "stateMutability": "view",
      "type": "function"
    },
    {
      "inputs": [
        {
          "internalType": "address",
          "name": "member",
          "type": "address"
        }
      ],
      "name": "getBalanceWithYield",
      "outputs": [
        {
          "internalType": "uint256",
          "name": "",
          "type": "uint256"
        }
      ],
      "stateMutability": "view",
      "type": "function"
    },
    {
      "inputs": [],
      "name": "getContractBalance",
      "outputs": [
        {
          "internalType": "uint256",
          "name": "",
          "type": "uint256"
        }
      ],
      "stateMutability": "view",
      "type": "function"
    },
    {
      "inputs": [],
      "name": "getMemberCount",
      "outputs": [
        {
          "internalType": "uint256",
          "name": "",
          "type": "uint256"
        }
      ],
      "stateMutability": "view",
      "type": "function"
    },
    {
      "inputs": [],
      "name": "getMembers",
      "outputs": [
        {
          "internalType": "address[]",
          "name": "",
          "type": "address[]"
        }
      ],
      "stateMutability": "view",
      "type": "function"
    },
    {
      "inputs": [],
      "name": "getPoolStats",
      "outputs": [
        {
          "internalType": "uint256",
          "name": "_totalPrincipal",
          "type": "uint256"
        },
        {
          "internalType": "uint256",
          "name": "_totalYield",
          "type": "uint256"
        },
        {
          "internalType": "uint256",
          "name": "_totalValue",
          "type": "uint256"
        }
      ],
      "stateMutability": "view",
      "type": "function"
    },
    {
      "inputs": [],
      "name": "getProgress",
      "outputs": [
        {
          "internalType": "uint256",
          "name": "current",
          "type": "uint256"
        },
        {
          "internalType": "uint256",
          "name": "target",
          "type": "uint256"
        }
      ],
      "stateMutability": "view",
      "type": "function"
    },
    {
      "inputs": [],
      "name": "getTotalYield",
      "outputs": [
        {
          "internalType": "uint256",
          "name": "",
          "type": "uint256"
        }
      ],
      "stateMutability": "view",
      "type": "function"
    },
    {
      "inputs": [
        {
          "internalType": "address",
          "name": "member",
          "type": "address"
        }
      ],
      "name": "getYieldEarned",
      "outputs": [
        {
          "internalType": "uint256",
          "name": "",
          "type": "uint256"
        }
      ],
      "stateMutability": "view",
      "type": "function"
    },
    {
      "inputs": [
        {
          "internalType": "address",
          "name": "_creator",
          "type": "address"
        },
        {
          "internalType": "address",
          "name": "_circleId",
          "type": "address"
        },
        {
          "internalType": "string",
          "name": "_circleName",
          "type": "string"
        },
        {
          "internalType": "address",
          "name": "_backendManager",
          "type": "address"
        },
        {
          "internalType": "address",
          "name": "_tokenAddress",
          "type": "address"
        },
        {
          "internalType": "bool",
          "name": "_isNativeToken",
          "type": "bool"
        },
        {
          "internalType": "address",
          "name": "_yieldVault",
          "type": "address"
        },
        {
          "internalType": "address",
          "name": "_receiptToken",
          "type": "address"
        }
      ],
      "name": "initialize",
      "outputs": [],
      "stateMutability": "nonpayable",
      "type": "function"
    },
    {
      "inputs": [
        {
          "internalType": "address",
          "name": "member",
          "type": "address"
        }
      ],
      "name": "inviteMember",
      "outputs": [],
      "stateMutability": "nonpayable",
      "type": "function"
    },
    {
      "inputs": [],
      "name": "isActive",
      "outputs": [
        {
          "internalType": "bool",
          "name": "",
          "type": "bool"
        }
      ],
      "stateMutability": "view",
      "type": "function"
    },
    {
      "inputs": [],
      "name": "isGoalReached",
      "outputs": [
        {
          "internalType": "bool",
          "name": "",
          "type": "bool"
        }
      ],
      "stateMutability": "view",
      "type": "function"
    },
    {
      "inputs": [
        {
          "internalType": "address",
          "name": "",
          "type": "address"
        }
      ],
      "name": "isMember",
      "outputs": [
        {
          "internalType": "bool",
          "name": "",
          "type": "bool"
        }
      ],
      "stateMutability": "view",
      "type": "function"
    },
    {
      "inputs": [],
      "name": "isNativeToken",
      "outputs": [
        {
          "internalType": "bool",
          "name": "",
          "type": "bool"
        }
      ],
      "stateMutability": "view",
      "type": "function"
    },
    {
      "inputs": [
        {
          "internalType": "uint256",
          "name": "",
          "type": "uint256"
        }
      ],
      "name": "members",
      "outputs": [
        {
          "internalType": "address",
          "name": "",
          "type": "address"
        }
      ],
      "stateMutability": "view",
      "type": "function"
    },
    {
      "inputs": [],
      "name": "pause",
      "outputs": [],
      "stateMutability": "nonpayable",
      "type": "function"
    },
    {
      "inputs": [],
      "name": "paused",
      "outputs": [
        {
          "internalType": "bool",
          "name": "",
          "type": "bool"
        }
      ],
      "stateMutability": "view",
      "type": "function"
    },
    {
      "inputs": [
        {
          "internalType": "address",
          "name": "",
          "type": "address"
        }
      ],
      "name": "principalBalances",
      "outputs": [
        {
          "internalType": "uint256",
          "name": "",
          "type": "uint256"
        }
      ],
      "stateMutability": "view",
      "type": "function"
    },
    {
      "inputs": [],
      "name": "receiptToken",
      "outputs": [
        {
          "internalType": "address",
          "name": "",
          "type": "address"
        }
      ],
      "stateMutability": "view",
      "type": "function"
    },
    {
      "inputs": [
        {
          "internalType": "uint256",
          "name": "_amount",
          "type": "uint256"
        },
        {
          "internalType": "uint256",
          "name": "_date",
          "type": "uint256"
        }
      ],
      "name": "setTarget",
      "outputs": [],
      "stateMutability": "nonpayable",
      "type": "function"
    },
    {
      "inputs": [
        {
          "internalType": "address",
          "name": "",
          "type": "address"
        }
      ],
      "name": "shareBalances",
      "outputs": [
        {
          "internalType": "uint256",
          "name": "",
          "type": "uint256"
        }
      ],
      "stateMutability": "view",
      "type": "function"
    },
    {
      "inputs": [],
      "name": "targetAmount",
      "outputs": [
        {
          "internalType": "uint256",
          "name": "",
          "type": "uint256"
        }
      ],
      "stateMutability": "view",
      "type": "function"
    },
    {
      "inputs": [],
      "name": "targetDate",
      "outputs": [
        {
          "internalType": "uint256",
          "name": "",
          "type": "uint256"
        }
      ],
      "stateMutability": "view",
      "type": "function"
    },
    {
      "inputs": [],
      "name": "tokenAddress",
      "outputs": [
        {
          "internalType": "address",
          "name": "",
          "type": "address"
        }
      ],
      "stateMutability": "view",
      "type": "function"
    },
    {
      "inputs": [],
      "name": "totalPrincipal",
      "outputs": [
        {
          "internalType": "uint256",
          "name": "",
          "type": "uint256"
        }
      ],
      "stateMutability": "view",
      "type": "function"
    },
    {
      "inputs": [],
      "name": "totalSaved",
      "outputs": [
        {
          "internalType": "uint256",
          "name": "",
          "type": "uint256"
        }
      ],
      "stateMutability": "view",
      "type": "function"
    },
    {
      "inputs": [],
      "name": "unpause",
      "outputs": [],
      "stateMutability": "nonpayable",
      "type": "function"
    },
    {
      "inputs": [
        {
          "internalType": "uint256",
          "name": "amount",
          "type": "uint256"
        }
      ],
      "name": "withdraw",
      "outputs": [],
      "stateMutability": "nonpayable",
      "type": "function"
    },
    {
      "inputs": [],
      "name": "yieldVault",
      "outputs": [
        {
          "internalType": "contract IYieldVault",
          "name": "",
          "type": "address"
        }
      ],
      "stateMutability": "view",
      "type": "function"
    },
    {
      "stateMutability": "payable",
      "type": "receive"
    }
  ],
  "transactionHash": "0x54f97c404b6f3dadcfe336959d77296b25e977eef129532f644eee460b178c03",
  "args": [],
  "numDeployments": 1,
  "solcInputHash": "83a45b05e509a8feb83aaab0e2c03b64",
  "bytecode": "0x608060405234801561001057600080fd5b5060016000819055805460ff191690556010805461ff001916610100179055612bfd8061003e6000396000f3fe6080604052600436106102345760003560e01c8063953b8fb81161012e578063bbb85188116100ab578063d3eb6f611161006f578063d3eb6f611461069e578063e24d65f9146106b3578063ec78e832146106d3578063f656ba51146106f3578063f8b2cb4f1461032a57600080fd5b8063bbb8518814610601578063c30db74614610631578063cccf256014610651578063cf09e0d014610673578063d2cbf7ad1461068957600080fd5b8063a230c524116100f2578063a230c52414610568578063a7f8a5e214610598578063b0bd6164146105b8578063b514ff3e146105d8578063b6b55f25146105ee57600080fd5b8063953b8fb8146104da578063997072f7146104f05780639af4ee7e146105055780639d76ea58146105265780639eab52531461054657600080fd5b8063584c8b0a116101bc5780636babe43b116101805780636babe43b146104465780636f9fb98a146104735780637aec978d146104865780638456cb591461049b578063939c4456146104b057600080fd5b8063584c8b0a1461032a5780635c975abb146103d95780635daf08ca146103f157806363a854be1461041157806366805de51461043157600080fd5b80632e1a7d4d116102035780632e1a7d4d146103585780632f890b93146103785780633f4ba83a14610398578063488c2ad2146103ad5780634b1533b2146103c357600080fd5b806302d05d3f1461029e5780631d0f2c99146102e057806322f3e2d41461030057806327e235e31461032a57600080fd5b3661029957600554600160a01b900460ff166102975760405162461bcd60e51b815260206004820152601d60248201527f506f6f6c3a206e6f742061206e617469766520746f6b656e20706f6f6c00000060448201526064015b60405180910390fd5b005b600080fd5b3480156102aa57600080fd5b506001546102c39061010090046001600160a01b031681565b6040516001600160a01b0390911681526020015b60405180910390f35b3480156102ec57600080fd5b506102976102fb3660046126c2565b610720565b34801561030c57600080fd5b5060105461031a9060ff1681565b60405190151581526020016102d7565b34801561033657600080fd5b5061034a610345366004612709565b61083d565b6040519081526020016102d7565b34801561036457600080fd5b50610297610373366004612726565b61084e565b34801561038457600080fd5b50610297610393366004612709565b610e79565b3480156103a457600080fd5b50610297611028565b3480156103b957600080fd5b5061034a600f5481565b3480156103cf57600080fd5b5061034a600a5481565b3480156103e557600080fd5b5060015460ff1661031a565b3480156103fd57600080fd5b506102c361040c366004612726565b611061565b34801561041d57600080fd5b5061034a61042c366004612709565b61108b565b34801561043d57600080fd5b506102976110d3565b34801561045257600080fd5b5061034a610461366004612709565b60086020526000908152604090205481565b34801561047f57600080fd5b504761034a565b34801561049257600080fd5b5061034a61114a565b3480156104a757600080fd5b506102976111cc565b3480156104bc57600080fd5b506104c5611203565b604080519283526020830191909152016102d7565b3480156104e657600080fd5b5061034a600e5481565b3480156104fc57600080fd5b50600c5461034a565b34801561051157600080fd5b5060055461031a90600160a01b900460ff1681565b34801561053257600080fd5b506005546102c3906001600160a01b031681565b34801561055257600080fd5b5061055b61128e565b6040516102d7919061273f565b34801561057457600080fd5b5061031a610583366004612709565b600d6020526000908152604090205460ff1681565b3480156105a457600080fd5b506006546102c3906001600160a01b031681565b3480156105c457600080fd5b506102976105d33660046127bb565b6112f0565b3480156105e457600080fd5b5061034a600b5481565b6102976105fc366004612726565b611814565b34801561060d57600080fd5b50610616611c25565b604080519384526020840192909252908201526060016102d7565b34801561063d57600080fd5b506003546102c3906001600160a01b031681565b34801561065d57600080fd5b50610666611ca9565b6040516102d79190612909565b34801561067f57600080fd5b5061034a60115481565b34801561069557600080fd5b5061034a611d37565b3480156106aa57600080fd5b5061031a611daa565b3480156106bf57600080fd5b506002546102c3906001600160a01b031681565b3480156106df57600080fd5b506007546102c3906001600160a01b031681565b3480156106ff57600080fd5b5061034a61070e366004612709565b60096020526000908152604090205481565b60015461010090046001600160a01b0316331461074f5760405162461bcd60e51b815260040161028e9061293c565b610757611e37565b600082116107a75760405162461bcd60e51b815260206004820152601e60248201527f54617267657420616d6f756e74206d75737420626520706f7369746976650000604482015260640161028e565b4281116107f65760405162461bcd60e51b815260206004820152601d60248201527f5461726765742064617465206d75737420626520696e20667574757265000000604482015260640161028e565b600e829055600f81905560408051838152602081018390527f36cbb4d8bcb4cdd7abe6491bf62932ce6bf0715ddff61fa0f3b5f3ad2a55b765910160405180910390a15050565b600061084882611e5b565b92915050565b336000908152600d602052604090205460ff1661089c5760405162461bcd60e51b815260206004820152600c60248201526b2737ba10309036b2b6b132b960a11b604482015260640161028e565b6108a4611e37565b6108ac612066565b600081116108fc5760405162461bcd60e51b815260206004820152601760248201527f4d75737420776974686472617720736f6d657468696e67000000000000000000604482015260640161028e565b33600090815260096020526040902054806109515760405162461bcd60e51b81526020600482015260156024820152744e6f2073686172657320746f20776974686472617760581b604482015260640161028e565b33600090815260086020526040902054600554600160a01b900460ff1615610af757808311156109e05760405162461bcd60e51b815260206004820152603460248201527f43616e6e6f74207769746864726177206d6f7265207468616e207072696e63696044820152733830b6103337b9103730ba34bb32903a37b5b2b760611b606482015260840161028e565b33600090815260086020526040812080548592906109ff908490612989565b9250508190555082600a6000828254610a189190612989565b9250508190555082600b6000828254610a319190612989565b9091555050600754604051632770a7eb60e21b8152336004820152602481018590526001600160a01b0390911690639dc29fac90604401600060405180830381600087803b158015610a8257600080fd5b505af1158015610a96573d6000803e3d6000fd5b5050600554610abd92506001600160a01b0381169150600160a01b900460ff163386612090565b60405183815233907f7084f5476618d8e60b11ef0d7d3f06914655adb8793e28ff7f018d4c76d505d59060200160405180910390a2610e6a565b6000610b0233611e5b565b905083811015610b4b5760405162461bcd60e51b8152602060048201526014602482015273496e73756666696369656e742062616c616e636560601b604482015260640161028e565b600081610b58868661299c565b610b6291906129b3565b905060008111610ba95760405162461bcd60e51b81526020600482015260126024820152714d7573742072656465656d2073686172657360701b604482015260640161028e565b600654604051632e1a7d4d60e01b8152600481018390526000916001600160a01b031690632e1a7d4d906024016020604051808303816000875af1158015610bf5573d6000803e3d6000fd5b505050506040513d601f19601f82011682018060405250810190610c1991906129d5565b9050600083610c28888761299c565b610c3291906129b3565b33600090815260086020526040812080549293508392909190610c56908490612989565b90915550503360009081526009602052604081208054859290610c7a908490612989565b9250508190555080600a6000828254610c939190612989565b9250508190555080600b6000828254610cac9190612989565b90915550506007546040516370a0823160e01b81523360048201526000916001600160a01b0316906370a0823190602401602060405180830381865afa158015610cfa573d6000803e3d6000fd5b505050506040513d601f19601f82011682018060405250810190610d1e91906129d5565b90506000818611610d30576000610d3a565b610d3a8287612989565b90508015610da7576007546040516306ddf8b960e01b8152336004820152602481018390526001600160a01b03909116906306ddf8b990604401600060405180830381600087803b158015610d8e57600080fd5b505af1158015610da2573d6000803e3d6000fd5b505050505b600754604051632770a7eb60e21b8152336004820152602481018b90526001600160a01b0390911690639dc29fac90604401600060405180830381600087803b158015610df357600080fd5b505af1158015610e07573d6000803e3d6000fd5b5050600554610e2e92506001600160a01b0381169150600160a01b900460ff163387612090565b60405184815233907f7084f5476618d8e60b11ef0d7d3f06914655adb8793e28ff7f018d4c76d505d59060200160405180910390a25050505050505b5050610e766001600055565b50565b60015461010090046001600160a01b0316331480610ea157506002546001600160a01b031633145b610eed5760405162461bcd60e51b815260206004820152601760248201527f4f6e6c792063726561746f72206f72206261636b656e64000000000000000000604482015260640161028e565b610ef5611e37565b6001600160a01b0381166000908152600d602052604090205460ff1615610f515760405162461bcd60e51b815260206004820152601060248201526f20b63932b0b23c90309036b2b6b132b960811b604482015260640161028e565b6001600160a01b038116610f995760405162461bcd60e51b815260206004820152600f60248201526e496e76616c6964206164647265737360881b604482015260640161028e565b600c805460018082019092557fdf6966c971051c3d54ec59162606531493a51404a002842f56009d7e5cf4a8c70180546001600160a01b0319166001600160a01b0384169081179091556000818152600d6020526040808220805460ff1916909417909355915133927fb168e0b33ed126dec210fb14910d562a068905fb3431f3abe71b964e9e1b119a91a350565b60015461010090046001600160a01b031633146110575760405162461bcd60e51b815260040161028e9061293c565b61105f6121ac565b565b600c818154811061107157600080fd5b6000918252602090912001546001600160a01b0316905081565b60008061109783611e5b565b6001600160a01b0384166000908152600860205260409020549091508082116110c15760006110cb565b6110cb8183612989565b949350505050565b60015461010090046001600160a01b031633146111025760405162461bcd60e51b815260040161028e9061293c565b61110a611e37565b6010805460ff191690556040514281527f925a19753e677c9dc36a80e0fc824ca0c5b1afde494872b43daccab9ffeaffd4906020015b60405180910390a1565b600080600660009054906101000a90046001600160a01b03166001600160a01b031663a59aa5a66040518163ffffffff1660e01b8152600401606060405180830381865afa1580156111a0573d6000803e3d6000fd5b505050506040513d601f19601f820116820180604052508101906111c491906129ee565b509392505050565b60015461010090046001600160a01b031633146111fb5760405162461bcd60e51b815260040161028e9061293c565b61105f6121f9565b6000806000600660009054906101000a90046001600160a01b03166001600160a01b031663a59aa5a66040518163ffffffff1660e01b8152600401606060405180830381865afa15801561125b573d6000803e3d6000fd5b505050506040513d601f19601f8201168201806040525081019061127f91906129ee565b600e5490969095509350505050565b6060600c8054806020026020016040519081016040528092919081815260200182805480156112e657602002820191906000526020600020905b81546001600160a01b031681526001909101906020018083116112c8575b5050505050905090565b601054610100900460ff161561133e5760405162461bcd60e51b8152602060048201526013602482015272105b1c9958591e481a5b9a5d1a585b1a5e9959606a1b604482015260640161028e565b6010805461ff00191661010017905582156113c3576001600160a01b038416156113be5760405162461bcd60e51b815260206004820152602b60248201527f546f6b656e2061646472657373206d757374206265207a65726f20666f72206e60448201526a30ba34bb32903a37b5b2b760a91b606482015260840161028e565b611419565b6001600160a01b0384166114195760405162461bcd60e51b815260206004820152601f60248201527f496e76616c696420746f6b656e206164647265737320666f7220455243323000604482015260640161028e565b6001600160a01b03851661146f5760405162461bcd60e51b815260206004820152601760248201527f496e76616c6964206261636b656e64206d616e61676572000000000000000000604482015260640161028e565b6001600160a01b0382166114bb5760405162461bcd60e51b8152602060048201526013602482015272125b9d985b1a59081e5a595b19081d985d5b1d606a1b604482015260640161028e565b6001600160a01b0381166115095760405162461bcd60e51b815260206004820152601560248201527424b73b30b634b2103932b1b2b4b83a103a37b5b2b760591b604482015260640161028e565b600180546001600160a01b03808b1661010002610100600160a81b031990921691909117909155600280548783166001600160a01b03199182161790915560038054928a169290911691909117905560046115648782612a9e565b5060058054841515600160a01b81026001600160a81b03199092166001600160a01b038089169190911792909217909255600680548583166001600160a01b031991821681179092556007805493861693909116929092179091556010805460ff191660011790554260115560408051634d7a773f60e11b81529051639af4ee7e916004808201926020929091908290030181865afa15801561160b573d6000803e3d6000fd5b505050506040513d601f19601f8201168201806040525081019061162f9190612b5e565b15151461167e5760405162461bcd60e51b815260206004820152601960248201527f5661756c7420746f6b656e2074797065206d69736d6174636800000000000000604482015260640161028e565b600654604080516313aedd4b60e31b815290516001600160a01b03808816931691639d76ea589160048083019260209291908290030181865afa1580156116c9573d6000803e3d6000fd5b505050506040513d601f19601f820116820180604052508101906116ed9190612b7b565b6001600160a01b0316146117435760405162461bcd60e51b815260206004820152601c60248201527f5661756c7420746f6b656e2061646472657373206d69736d6174636800000000604482015260640161028e565b600c805460018082019092557fdf6966c971051c3d54ec59162606531493a51404a002842f56009d7e5cf4a8c70180546001600160a01b0319166001600160a01b038b81169182179092556000818152600d6020526040808220805460ff191690951790945592519092918a16917f4f2ce4e40f623ca765fc0167a25cb7842ceaafb8d82d3dec26ca0d0e0d2d489691a36040516001600160a01b0389169081907fb168e0b33ed126dec210fb14910d562a068905fb3431f3abe71b964e9e1b119a90600090a35050505050505050565b336000908152600d602052604090205460ff166118625760405162461bcd60e51b815260206004820152600c60248201526b2737ba10309036b2b6b132b960a11b604482015260640161028e565b60105460ff166118a65760405162461bcd60e51b815260206004820152600f60248201526e506f6f6c206e6f742061637469766560881b604482015260640161028e565b6118ae611e37565b6118b6612066565b600554600160a01b900460ff16806118ce5750600081115b6119135760405162461bcd60e51b81526020600482015260166024820152754d757374206465706f73697420736f6d657468696e6760501b604482015260640161028e565b600554600090611938906001600160a01b03811690600160a01b900460ff1684612234565b600554909150600160a01b900460ff1615611a3057336000908152600860205260408120805483929061196c908490612b98565b90915550503360009081526009602052604081208054839290611990908490612b98565b9250508190555080600a60008282546119a99190612b98565b9250508190555080600b60008282546119c29190612b98565b90915550506007546040516340c10f1960e01b8152336004820152602481018390526001600160a01b03909116906340c10f1990604401600060405180830381600087803b158015611a1357600080fd5b505af1158015611a27573d6000803e3d6000fd5b50505050611be5565b600654600554611a4d916001600160a01b0391821691168361234f565b60065460405163b6b55f2560e01b8152600481018390526000916001600160a01b03169063b6b55f25906024016020604051808303816000875af1158015611a99573d6000803e3d6000fd5b505050506040513d601f19601f82011682018060405250810190611abd91906129d5565b905060008111611b055760405162461bcd60e51b81526020600482015260136024820152724d75737420726563656976652073686172657360681b604482015260640161028e565b3360009081526008602052604081208054849290611b24908490612b98565b90915550503360009081526009602052604081208054839290611b48908490612b98565b9250508190555081600a6000828254611b619190612b98565b9250508190555081600b6000828254611b7a9190612b98565b90915550506007546040516340c10f1960e01b8152336004820152602481018490526001600160a01b03909116906340c10f1990604401600060405180830381600087803b158015611bcb57600080fd5b505af1158015611bdf573d6000803e3d6000fd5b50505050505b60405181815233907f2da466a7b24304f47e87fa2e1e5a81b9831ce54fec19055ce277ca2f39ba42c49060200160405180910390a250610e766001600055565b600a54600654604080516352cd52d360e11b815290516000928392839283926001600160a01b03169163a59aa5a69160048083019260609291908290030181865afa158015611c78573d6000803e3d6000fd5b505050506040513d601f19601f82011682018060405250810190611c9c91906129ee565b9697909695509350505050565b60048054611cb690612a1c565b80601f0160208091040260200160405190810160405280929190818152602001828054611ce290612a1c565b8015611d2f5780601f10611d0457610100808354040283529160200191611d2f565b820191906000526020600020905b815481529060010190602001808311611d1257829003601f168201915b505050505081565b6006546040805163214405a960e01b815290516000926001600160a01b03169163214405a99160048083019260209291908290030181865afa158015611d81573d6000803e3d6000fd5b505050506040513d601f19601f82011682018060405250810190611da591906129d5565b905090565b6000600e54600003611dbc5750600090565b600654604080516352cd52d360e11b815290516000926001600160a01b03169163a59aa5a69160048083019260609291908290030181865afa158015611e06573d6000803e3d6000fd5b505050506040513d601f19601f82011682018060405250810190611e2a91906129ee565b600e541115949350505050565b60015460ff161561105f5760405163d93c066560e01b815260040160405180910390fd5b6001600160a01b038116600090815260086020526040812054808203611e845750600092915050565b600554600160a01b900460ff1615611ef557600060115442611ea69190612989565b905080600003611eb7575092915050565b600064496cebb80082611ecc8561012c61299c565b611ed6919061299c565b611ee091906129b3565b9050611eec8184612b98565b95945050505050565b6001600160a01b03831660009081526009602052604081205490819003611f20575060009392505050565b600080600660009054906101000a90046001600160a01b03166001600160a01b031663a59aa5a66040518163ffffffff1660e01b8152600401606060405180830381865afa158015611f76573d6000803e3d6000fd5b505050506040513d601f19601f82011682018060405250810190611f9a91906129ee565b5090925090506000611fac8284612b98565b90506000600660009054906101000a90046001600160a01b03166001600160a01b0316633a98ef396040518163ffffffff1660e01b8152600401602060405180830381865afa158015612003573d6000803e3d6000fd5b505050506040513d601f19601f8201168201806040525081019061202791906129d5565b90508060000361203f57506000979650505050505050565b8061204a838761299c565b61205491906129b3565b98975050505050505050565b50919050565b60026000540361208957604051633ee5aeb560e01b815260040160405180910390fd5b6002600055565b8215612131576000826001600160a01b03168260405160006040518083038185875af1925050503d80600081146120e3576040519150601f19603f3d011682016040523d82523d6000602084013e6120e8565b606091505b505090508061212b5760405162461bcd60e51b815260206004820152600f60248201526e151c985b9cd9995c8819985a5b1959608a1b604482015260640161028e565b506121a6565b60405163a9059cbb60e01b81526001600160a01b0383811660048301526024820183905285169063a9059cbb906044016020604051808303816000875af1158015612180573d6000803e3d6000fd5b505050506040513d601f19601f820116820180604052508101906121a49190612b5e565b505b50505050565b6121b46123d9565b6001805460ff191690557f5db9ee0a495bf2e6ff9c91a7834c1ba4fdd244a5e8aa4e537bd38aeae4b073aa335b6040516001600160a01b039091168152602001611140565b612201611e37565b6001805460ff1916811790557f62e78cea01bee320cd4e420270b5ea74000d11b0c9f74754ebdbfc544b05a258336121e1565b6000821561228c57600034116122855760405162461bcd60e51b815260206004820152601660248201527526bab9ba1039b2b732103730ba34bb32903a37b5b2b760511b604482015260640161028e565b5034612348565b34156122cc5760405162461bcd60e51b815260206004820152600f60248201526e2737903730ba34bb32903a37b5b2b760891b604482015260640161028e565b6040516323b872dd60e01b8152336004820152306024820152604481018390526001600160a01b038516906323b872dd906064016020604051808303816000875af115801561231f573d6000803e3d6000fd5b505050506040513d601f19601f820116820180604052508101906123439190612b5e565b508190505b9392505050565b604051636eb1769f60e11b81523060048201526001600160a01b0383811660248301526000919085169063dd62ed3e90604401602060405180830381865afa15801561239f573d6000803e3d6000fd5b505050506040513d601f19601f820116820180604052508101906123c391906129d5565b90506121a684846123d48585612b98565b6123fc565b60015460ff1661105f57604051638dfc202b60e01b815260040160405180910390fd5b604080516001600160a01b038416602482015260448082018490528251808303909101815260649091019091526020810180516001600160e01b031663095ea7b360e01b17905261244d84826124b0565b6121a657604080516001600160a01b038516602482015260006044808301919091528251808303909101815260649091019091526020810180516001600160e01b031663095ea7b360e01b1790526124a6908590612553565b6121a68482612553565b6000806000846001600160a01b0316846040516124cd9190612bab565b6000604051808303816000865af19150503d806000811461250a576040519150601f19603f3d011682016040523d82523d6000602084013e61250f565b606091505b50915091508180156125395750805115806125395750808060200190518101906125399190612b5e565b8015611eec5750505050506001600160a01b03163b151590565b60006125686001600160a01b038416836125bb565b9050805160001415801561258d57508080602001905181019061258b9190612b5e565b155b156125b657604051635274afe760e01b81526001600160a01b038416600482015260240161028e565b505050565b60606123488383600084600080856001600160a01b031684866040516125e19190612bab565b60006040518083038185875af1925050503d806000811461261e576040519150601f19603f3d011682016040523d82523d6000602084013e612623565b606091505b509150915061263386838361263d565b9695505050505050565b6060826126525761264d82612699565b612348565b815115801561266957506001600160a01b0384163b155b1561269257604051639996b31560e01b81526001600160a01b038516600482015260240161028e565b5080612348565b8051156126a95780518082602001fd5b604051630a12f52160e11b815260040160405180910390fd5b600080604083850312156126d557600080fd5b50508035926020909101359150565b6001600160a01b0381168114610e7657600080fd5b8035612704816126e4565b919050565b60006020828403121561271b57600080fd5b8135612348816126e4565b60006020828403121561273857600080fd5b5035919050565b6020808252825182820181905260009190848201906040850190845b818110156127805783516001600160a01b03168352928401929184019160010161275b565b50909695505050505050565b634e487b7160e01b600052604160045260246000fd5b8015158114610e7657600080fd5b8035612704816127a2565b600080600080600080600080610100898b0312156127d857600080fd5b88356127e3816126e4565b975060208901356127f3816126e4565b9650604089013567ffffffffffffffff8082111561281057600080fd5b818b0191508b601f83011261282457600080fd5b8135818111156128365761283661278c565b604051601f8201601f19908116603f0116810190838211818310171561285e5761285e61278c565b816040528281528e602084870101111561287757600080fd5b82602086016020830137600060208483010152809a50505050505061289e60608a016126f9565b94506128ac60808a016126f9565b93506128ba60a08a016127b0565b92506128c860c08a016126f9565b91506128d660e08a016126f9565b90509295985092959890939650565b60005b838110156129005781810151838201526020016128e8565b50506000910152565b60208152600082518060208401526129288160408501602087016128e5565b601f01601f19169190910160400192915050565b6020808252601a908201527f4f6e6c792063726561746f722063616e2063616c6c2074686973000000000000604082015260600190565b634e487b7160e01b600052601160045260246000fd5b8181038181111561084857610848612973565b808202811582820484141761084857610848612973565b6000826129d057634e487b7160e01b600052601260045260246000fd5b500490565b6000602082840312156129e757600080fd5b5051919050565b600080600060608486031215612a0357600080fd5b8351925060208401519150604084015190509250925092565b600181811c90821680612a3057607f821691505b60208210810361206057634e487b7160e01b600052602260045260246000fd5b601f8211156125b657600081815260208120601f850160051c81016020861015612a775750805b601f850160051c820191505b81811015612a9657828155600101612a83565b505050505050565b815167ffffffffffffffff811115612ab857612ab861278c565b612acc81612ac68454612a1c565b84612a50565b602080601f831160018114612b015760008415612ae95750858301515b600019600386901b1c1916600185901b178555612a96565b600085815260208120601f198616915b82811015612b3057888601518255948401946001909101908401612b11565b5085821015612b4e5787850151600019600388901b60f8161c191681555b5050505050600190811b01905550565b600060208284031215612b7057600080fd5b8151612348816127a2565b600060208284031215612b8d57600080fd5b8151612348816126e4565b8082018082111561084857610848612973565b60008251612bbd8184602087016128e5565b919091019291505056fea264697066735822122062c0cc7c18b5180fec18c71d5bd7b6a78901b5b612fb94741499517873ae091664736f6c63430008140033",
  "devdoc": {
    "details": "Extends SavingsPool functionality with yield generation via external vault      Members maintain individual principal balances and earn proportional yield",
    "errors": {
      "AddressEmptyCode(address)": [
        {
          "details": "There's no code at `target` (it is not a contract)."
        }
      ],
      "AddressInsufficientBalance(address)": [
        {
          "details": "The ETH balance of the account is not enough to perform the operation."
        }
      ],
      "EnforcedPause()": [
        {
          "details": "The operation failed because the contract is paused."
        }
      ],
      "ExpectedPause()": [
        {
          "details": "The operation failed because the contract is not paused."
        }
      ],
      "FailedInnerCall()": [
        {
          "details": "A call to an address target failed. The target may have reverted."
        }
      ],
      "ReentrancyGuardReentrantCall()": [
        {
          "details": "Unauthorized reentrant call."
        }
      ],
      "SafeERC20FailedOperation(address)": [
        {
          "details": "An operation with an ERC20 token failed."
        }
      ]
    },
    "events": {
      "Paused(address)": {
        "details": "Emitted when the pause is triggered by `account`."
      },
      "Unpaused(address)": {
        "details": "Emitted when the pause is lifted by `account`."
      }
    },
    "kind": "dev",
    "methods": {
      "balances(address)": {
        "details": "Alias for getBalance for compatibility with SavingsPool interface",
        "params": {
          "member": "Address of the member"
        },
        "returns": {
          "_0": "Balance including principal and earned yield"
        }
      },
      "closePool()": {
        "details": "Only creator can close. Members can still withdraw their balances."
      },
      "constructor": {
        "details": "Prevents the implementation contract from being initialized"
      },
      "deposit(uint256)": {
        "details": "For ERC20: Member must have approved the contract to spend tokens before calling      For native token: amount parameter is ignored, msg.value is used      Tokens are deposited into yield vault and member receives vault shares",
        "params": {
          "amount": "Amount of ERC20 tokens to deposit (ignored for native token pools)"
        }
      },
      "getAPY()": {
        "returns": {
          "_0": "APY scaled by 100 (e.g., 500 = 5.00%)"
        }
      },
      "getBalance(address)": {
        "params": {
          "member": "Address of the member"
        },
        "returns": {
          "_0": "Balance including principal and earned yield"
        }
      },
      "getBalanceWithYield(address)": {
        "details": "Dedicated function for frontend clarity",
        "params": {
          "member": "Address of the member"
        },
        "returns": {
          "_0": "Balance including principal and earned yield"
        }
      },
      "getContractBalance()": {
        "returns": {
          "_0": "Balance in wei"
        }
      },
      "getMemberCount()": {
        "returns": {
          "_0": "Member count"
        }
      },
      "getMembers()": {
        "returns": {
          "_0": "Array of member addresses"
        }
      },
      "getPoolStats()": {
        "returns": {
          "_totalPrincipal": "Total principal deposited (no yield)",
          "_totalValue": "Total pool value (principal + yield)",
          "_totalYield": "Total yield earned"
        }
      },
      "getProgress()": {
        "returns": {
          "current": "Current total savings (principal + yield)",
          "target": "Target savings amount"
        }
      },
      "getTotalYield()": {
        "returns": {
          "_0": "Total pool yield (total value - total principal)"
        }
      },
      "getYieldEarned(address)": {
        "params": {
          "member": "Address of the member"
        },
        "returns": {
          "_0": "Yield earned (total balance - principal)"
        }
      },
      "initialize(address,address,string,address,address,bool,address,address)": {
        "details": "This replaces the constructor for cloned instances",
        "params": {
          "_backendManager": "Address of the backend manager (can invite members)",
          "_circleId": "Address of the Lens.xyz circle contract",
          "_circleName": "Name of the circle",
          "_creator": "Address of the user creating the pool",
          "_isNativeToken": "Whether this pool uses native token (cBTC) or ERC20 token",
          "_receiptToken": "Address of the receipt token (xshCUSD or xshCBTC)",
          "_tokenAddress": "Address of the ERC20 token to use for savings (zero address if native)",
          "_yieldVault": "Address of the yield vault"
        }
      },
      "inviteMember(address)": {
        "details": "Creator or backend manager can add members directly",
        "params": {
          "member": "Address of the member to add"
        }
      },
      "isGoalReached()": {
        "returns": {
          "_0": "True if target is set and reached, false otherwise"
        }
      },
      "pause()": {
        "details": "Only creator can pause"
      },
      "paused()": {
        "details": "Returns true if the contract is paused, and false otherwise."
      },
      "setTarget(uint256,uint256)": {
        "details": "Only creator can set goals",
        "params": {
          "_amount": "Target savings amount in wei",
          "_date": "Target date as Unix timestamp"
        }
      },
      "unpause()": {
        "details": "Only creator can unpause"
      },
      "withdraw(uint256)": {
        "details": "For cBTC (native token): Only returns principal (yield is virtual for demo)      For CUSD (ERC20): Returns principal + actual yield",
        "params": {
          "amount": "Amount of tokens to withdraw"
        }
      }
    },
    "title": "YieldSavingsPool",
    "version": 1
  },
  "userdoc": {
    "kind": "user",
    "methods": {
      "backendManager()": {
        "notice": "Address of the backend manager (can invite members)"
      },
      "balances(address)": {
        "notice": "Gets a member's current balance including yield"
      },
      "circleId()": {
        "notice": "Address of the Lens.xyz circle contract"
      },
      "circleName()": {
        "notice": "Human-readable name of the circle"
      },
      "closePool()": {
        "notice": "Closes the pool, preventing further deposits"
      },
      "constructor": {
        "notice": "Constructor for implementation contract"
      },
      "createdAt()": {
        "notice": "Timestamp when pool was created (for virtual yield calculation)"
      },
      "creator()": {
        "notice": "Address of the user who created this pool"
      },
      "deposit(uint256)": {
        "notice": "Allows a member to deposit funds into savings and earn yield"
      },
      "getAPY()": {
        "notice": "Gets the APY of the connected yield vault"
      },
      "getBalance(address)": {
        "notice": "Gets a member's current balance including yield"
      },
      "getBalanceWithYield(address)": {
        "notice": "Gets a member's balance including yield"
      },
      "getContractBalance()": {
        "notice": "Gets the contract's current balance (should be minimal, funds are in vault)"
      },
      "getMemberCount()": {
        "notice": "Gets the total number of members"
      },
      "getMembers()": {
        "notice": "Gets all members"
      },
      "getPoolStats()": {
        "notice": "Gets comprehensive pool statistics"
      },
      "getProgress()": {
        "notice": "Gets the current progress toward the savings goal"
      },
      "getTotalYield()": {
        "notice": "Gets the total yield earned by the entire pool"
      },
      "getYieldEarned(address)": {
        "notice": "Gets the yield earned by a member"
      },
      "initialize(address,address,string,address,address,bool,address,address)": {
        "notice": "Initializes a new YieldSavingsPool clone"
      },
      "inviteMember(address)": {
        "notice": "Adds a new member to the pool"
      },
      "isActive()": {
        "notice": "Whether the pool is currently active"
      },
      "isGoalReached()": {
        "notice": "Checks if the savings goal has been reached"
      },
      "isMember(address)": {
        "notice": "Mapping to check if an address is a member"
      },
      "isNativeToken()": {
        "notice": "Whether this pool uses native token (cBTC) or ERC20 token"
      },
      "members(uint256)": {
        "notice": "Array of all members in the pool"
      },
      "pause()": {
        "notice": "Pauses the contract in case of emergency"
      },
      "principalBalances(address)": {
        "notice": "Individual principal balances for each member (excluding yield)"
      },
      "receiptToken()": {
        "notice": "Receipt token (xshCUSD or xshCBTC) minted to users on deposit"
      },
      "setTarget(uint256,uint256)": {
        "notice": "Sets or updates the savings goal for the pool"
      },
      "shareBalances(address)": {
        "notice": "Individual vault shares owned by each member"
      },
      "targetAmount()": {
        "notice": "Optional target savings amount set by creator"
      },
      "targetDate()": {
        "notice": "Optional target date for reaching the goal"
      },
      "tokenAddress()": {
        "notice": "Address of the ERC20 token used for savings (zero address if native token)"
      },
      "totalPrincipal()": {
        "notice": "Total principal deposited across all members (excluding yield)"
      },
      "totalSaved()": {
        "notice": "Total amount saved (tracked for compatibility, equals totalPrincipal)"
      },
      "unpause()": {
        "notice": "Unpauses the contract"
      },
      "withdraw(uint256)": {
        "notice": "Allows a member to withdraw from their savings balance"
      },
      "yieldVault()": {
        "notice": "Yield vault where deposits are stored"
      }
    },
    "notice": "Collective savings pool where members earn yield on their deposits",
    "version": 1
  },
  "storageLayout": {
    "storage": [
      {
        "astId": 1725,
        "contract": "contracts/pools/YieldSavingsPool.sol:YieldSavingsPool",
        "label": "_status",
        "offset": 0,
        "slot": "0",
        "type": "t_uint256"
      },
      {
        "astId": 1606,
        "contract": "contracts/pools/YieldSavingsPool.sol:YieldSavingsPool",
        "label": "_paused",
        "offset": 0,
        "slot": "1",
        "type": "t_bool"
      },
      {
        "astId": 4869,
        "contract": "contracts/pools/YieldSavingsPool.sol:YieldSavingsPool",
        "label": "creator",
        "offset": 1,
        "slot": "1",
        "type": "t_address"
      },
      {
        "astId": 4872,
        "contract": "contracts/pools/YieldSavingsPool.sol:YieldSavingsPool",
        "label": "backendManager",
        "offset": 0,
        "slot": "2",
        "type": "t_address"
      },
      {
        "astId": 4875,
        "contract": "contracts/pools/YieldSavingsPool.sol:YieldSavingsPool",
        "label": "circleId",
        "offset": 0,
        "slot": "3",
        "type": "t_address"
      },
      {
        "astId": 4878,
        "contract": "contracts/pools/YieldSavingsPool.sol:YieldSavingsPool",
        "label": "circleName",
        "offset": 0,
        "slot": "4",
        "type": "t_string_storage"
      },
      {
        "astId": 4881,
        "contract": "contracts/pools/YieldSavingsPool.sol:YieldSavingsPool",
        "label": "tokenAddress",
        "offset": 0,
        "slot": "5",
        "type": "t_address"
      },
      {
        "astId": 4884,
        "contract": "contracts/pools/YieldSavingsPool.sol:YieldSavingsPool",
        "label": "isNativeToken",
        "offset": 20,
        "slot": "5",
        "type": "t_bool"
      },
      {
        "astId": 4888,
        "contract": "contracts/pools/YieldSavingsPool.sol:YieldSavingsPool",
        "label": "yieldVault",
        "offset": 0,
        "slot": "6",
        "type": "t_contract(IYieldVault)2752"
      },
      {
        "astId": 4891,
        "contract": "contracts/pools/YieldSavingsPool.sol:YieldSavingsPool",
        "label": "receiptToken",
        "offset": 0,
        "slot": "7",
        "type": "t_address"
      },
      {
        "astId": 4896,
        "contract": "contracts/pools/YieldSavingsPool.sol:YieldSavingsPool",
        "label": "principalBalances",
        "offset": 0,
        "slot": "8",
        "type": "t_mapping(t_address,t_uint256)"
      },
      {
        "astId": 4901,
        "contract": "contracts/pools/YieldSavingsPool.sol:YieldSavingsPool",
        "label": "shareBalances",
        "offset": 0,
        "slot": "9",
        "type": "t_mapping(t_address,t_uint256)"
      },
      {
        "astId": 4904,
        "contract": "contracts/pools/YieldSavingsPool.sol:YieldSavingsPool",
        "label": "totalPrincipal",
        "offset": 0,
        "slot": "10",
        "type": "t_uint256"
      },
      {
        "astId": 4907,
        "contract": "contracts/pools/YieldSavingsPool.sol:YieldSavingsPool",
        "label": "totalSaved",
        "offset": 0,
        "slot": "11",
        "type": "t_uint256"
      },
      {
        "astId": 4911,
        "contract": "contracts/pools/YieldSavingsPool.sol:YieldSavingsPool",
        "label": "members",
        "offset": 0,
        "slot": "12",
        "type": "t_array(t_address)dyn_storage"
      },
      {
        "astId": 4916,
        "contract": "contracts/pools/YieldSavingsPool.sol:YieldSavingsPool",
        "label": "isMember",
        "offset": 0,
        "slot": "13",
        "type": "t_mapping(t_address,t_bool)"
      },
      {
        "astId": 4919,
        "contract": "contracts/pools/YieldSavingsPool.sol:YieldSavingsPool",
        "label": "targetAmount",
        "offset": 0,
        "slot": "14",
        "type": "t_uint256"
      },
      {
        "astId": 4922,
        "contract": "contracts/pools/YieldSavingsPool.sol:YieldSavingsPool",
        "label": "targetDate",
        "offset": 0,
        "slot": "15",
        "type": "t_uint256"
      },
      {
        "astId": 4925,
        "contract": "contracts/pools/YieldSavingsPool.sol:YieldSavingsPool",
        "label": "isActive",
        "offset": 0,
        "slot": "16",
        "type": "t_bool"
      },
      {
        "astId": 4928,
        "contract": "contracts/pools/YieldSavingsPool.sol:YieldSavingsPool",
        "label": "initialized",
        "offset": 1,
        "slot": "16",
        "type": "t_bool"
      },
      {
        "astId": 4931,
        "contract": "contracts/pools/YieldSavingsPool.sol:YieldSavingsPool",
        "label": "createdAt",
        "offset": 0,
        "slot": "17",
        "type": "t_uint256"
      }
    ],
    "types": {
      "t_address": {
        "encoding": "inplace",
        "label": "address",
        "numberOfBytes": "20"
      },
      "t_array(t_address)dyn_storage": {
        "base": "t_address",
        "encoding": "dynamic_array",
        "label": "address[]",
        "numberOfBytes": "32"
      },
      "t_bool": {
        "encoding": "inplace",
        "label": "bool",
        "numberOfBytes": "1"
      },
      "t_contract(IYieldVault)2752": {
        "encoding": "inplace",
        "label": "contract IYieldVault",
        "numberOfBytes": "20"
      },
      "t_mapping(t_address,t_bool)": {
        "encoding": "mapping",
        "key": "t_address",
        "label": "mapping(address => bool)",
        "numberOfBytes": "32",
        "value": "t_bool"
      },
      "t_mapping(t_address,t_uint256)": {
        "encoding": "mapping",
        "key": "t_address",
        "label": "mapping(address => uint256)",
        "numberOfBytes": "32",
        "value": "t_uint256"
      },
      "t_string_storage": {
        "encoding": "bytes",
        "label": "string",
        "numberOfBytes": "32"
      },
      "t_uint256": {
        "encoding": "inplace",
        "label": "uint256",
        "numberOfBytes": "32"
      }
    }
  }
}